{
	"fund.sol": {
		"Fund": {
			"abi": [
				{
					"inputs": [
						{
							"internalType": "uint256",
							"name": "deployMentTime",
							"type": "uint256"
						}
					],
					"stateMutability": "nonpayable",
					"type": "constructor"
				},
				{
					"inputs": [],
					"name": "CONTRACT_OWNER",
					"outputs": [
						{
							"internalType": "address",
							"name": "",
							"type": "address"
						}
					],
					"stateMutability": "view",
					"type": "function"
				},
				{
					"inputs": [],
					"name": "drawFund",
					"outputs": [],
					"stateMutability": "nonpayable",
					"type": "function"
				},
				{
					"inputs": [],
					"name": "fund",
					"outputs": [],
					"stateMutability": "payable",
					"type": "function"
				},
				{
					"inputs": [
						{
							"internalType": "address",
							"name": "",
							"type": "address"
						}
					],
					"name": "fundAmount",
					"outputs": [
						{
							"internalType": "uint256",
							"name": "",
							"type": "uint256"
						}
					],
					"stateMutability": "view",
					"type": "function"
				},
				{
					"inputs": [],
					"name": "refund",
					"outputs": [],
					"stateMutability": "nonpayable",
					"type": "function"
				},
				{
					"inputs": [
						{
							"internalType": "address",
							"name": "owner",
							"type": "address"
						}
					],
					"name": "transferContractOwner",
					"outputs": [],
					"stateMutability": "nonpayable",
					"type": "function"
				}
			],
			"devdoc": {
				"kind": "dev",
				"methods": {},
				"version": 1
			},
			"evm": {
				"assembly": "    /* \"fund.sol\":172:3332  contract Fund{... */\n  mstore(0x40, 0x80)\n    /* \"fund.sol\":766:1048  constructor(uint256 deployMentTime) {... */\n  callvalue\n  dup1\n  iszero\n  tag_1\n  jumpi\n  0x00\n  dup1\n  revert\ntag_1:\n  pop\n  mload(0x40)\n  sub(codesize, bytecodeSize)\n  dup1\n  bytecodeSize\n  dup4\n  codecopy\n  dup2\n  dup2\n  add\n  0x40\n  mstore\n  dup2\n  add\n  swap1\n  tag_2\n  swap2\n  swap1\n  tag_3\n  jump\t// in\ntag_2:\n    /* \"fund.sol\":845:887  0x694AA1769357215DE4FAC081bf1f309aDC325306 */\n  0x694aa1769357215de4fac081bf1f309adc325306\n    /* \"fund.sol\":812:820  dataFeed */\n  0x00\n  dup1\n    /* \"fund.sol\":812:888  dataFeed = AggregatorV3Interface(0x694AA1769357215DE4FAC081bf1f309aDC325306) */\n  0x0100\n  exp\n  dup2\n  sload\n  dup2\n  0xffffffffffffffffffffffffffffffffffffffff\n  mul\n  not\n  and\n  swap1\n  dup4\n  0xffffffffffffffffffffffffffffffffffffffff\n  and\n  mul\n  or\n  swap1\n  sstore\n  pop\n    /* \"fund.sol\":915:925  msg.sender */\n  caller\n    /* \"fund.sol\":898:912  CONTRACT_OWNER */\n  0x01\n  0x00\n    /* \"fund.sol\":898:925  CONTRACT_OWNER = msg.sender */\n  0x0100\n  exp\n  dup2\n  sload\n  dup2\n  0xffffffffffffffffffffffffffffffffffffffff\n  mul\n  not\n  and\n  swap1\n  dup4\n  0xffffffffffffffffffffffffffffffffffffffff\n  and\n  mul\n  or\n  swap1\n  sstore\n  pop\n    /* \"fund.sol\":957:972  block.timestamp */\n  timestamp\n    /* \"fund.sol\":935:954  FUND_EXEC_TIMESTAMP */\n  0x03\n    /* \"fund.sol\":935:972  FUND_EXEC_TIMESTAMP = block.timestamp */\n  dup2\n  swap1\n  sstore\n  pop\n    /* \"fund.sol\":1027:1041  deployMentTime */\n  dup1\n    /* \"fund.sol\":1005:1024  FUND_EXEC_TIMESTAMP */\n  sload(0x03)\n    /* \"fund.sol\":1005:1041  FUND_EXEC_TIMESTAMP + deployMentTime */\n  tag_6\n  swap2\n  swap1\n  tag_7\n  jump\t// in\ntag_6:\n    /* \"fund.sol\":982:1002  FUND_CLOSE_TIMESTAMP */\n  0x04\n    /* \"fund.sol\":982:1041  FUND_CLOSE_TIMESTAMP = FUND_EXEC_TIMESTAMP + deployMentTime */\n  dup2\n  swap1\n  sstore\n  pop\n    /* \"fund.sol\":766:1048  constructor(uint256 deployMentTime) {... */\n  pop\n    /* \"fund.sol\":172:3332  contract Fund{... */\n  jump(tag_8)\n    /* \"#utility.yul\":88:205   */\ntag_10:\n    /* \"#utility.yul\":197:198   */\n  0x00\n    /* \"#utility.yul\":194:195   */\n  dup1\n    /* \"#utility.yul\":187:199   */\n  revert\n    /* \"#utility.yul\":334:411   */\ntag_12:\n    /* \"#utility.yul\":371:378   */\n  0x00\n    /* \"#utility.yul\":400:405   */\n  dup2\n    /* \"#utility.yul\":389:405   */\n  swap1\n  pop\n    /* \"#utility.yul\":334:411   */\n  swap2\n  swap1\n  pop\n  jump\t// out\n    /* \"#utility.yul\":417:539   */\ntag_13:\n    /* \"#utility.yul\":490:514   */\n  tag_22\n    /* \"#utility.yul\":508:513   */\n  dup2\n    /* \"#utility.yul\":490:514   */\n  tag_12\n  jump\t// in\ntag_22:\n    /* \"#utility.yul\":483:488   */\n  dup2\n    /* \"#utility.yul\":480:515   */\n  eq\n    /* \"#utility.yul\":470:533   */\n  tag_23\n  jumpi\n    /* \"#utility.yul\":529:530   */\n  0x00\n    /* \"#utility.yul\":526:527   */\n  dup1\n    /* \"#utility.yul\":519:531   */\n  revert\n    /* \"#utility.yul\":470:533   */\ntag_23:\n    /* \"#utility.yul\":417:539   */\n  pop\n  jump\t// out\n    /* \"#utility.yul\":545:688   */\ntag_14:\n    /* \"#utility.yul\":602:607   */\n  0x00\n    /* \"#utility.yul\":633:639   */\n  dup2\n    /* \"#utility.yul\":627:640   */\n  mload\n    /* \"#utility.yul\":618:640   */\n  swap1\n  pop\n    /* \"#utility.yul\":649:682   */\n  tag_25\n    /* \"#utility.yul\":676:681   */\n  dup2\n    /* \"#utility.yul\":649:682   */\n  tag_13\n  jump\t// in\ntag_25:\n    /* \"#utility.yul\":545:688   */\n  swap3\n  swap2\n  pop\n  pop\n  jump\t// out\n    /* \"#utility.yul\":694:1045   */\ntag_3:\n    /* \"#utility.yul\":764:770   */\n  0x00\n    /* \"#utility.yul\":813:815   */\n  0x20\n    /* \"#utility.yul\":801:810   */\n  dup3\n    /* \"#utility.yul\":792:799   */\n  dup5\n    /* \"#utility.yul\":788:811   */\n  sub\n    /* \"#utility.yul\":784:816   */\n  slt\n    /* \"#utility.yul\":781:900   */\n  iszero\n  tag_27\n  jumpi\n    /* \"#utility.yul\":819:898   */\n  tag_28\n  tag_10\n  jump\t// in\ntag_28:\n    /* \"#utility.yul\":781:900   */\ntag_27:\n    /* \"#utility.yul\":939:940   */\n  0x00\n    /* \"#utility.yul\":964:1028   */\n  tag_29\n    /* \"#utility.yul\":1020:1027   */\n  dup5\n    /* \"#utility.yul\":1011:1017   */\n  dup3\n    /* \"#utility.yul\":1000:1009   */\n  dup6\n    /* \"#utility.yul\":996:1018   */\n  add\n    /* \"#utility.yul\":964:1028   */\n  tag_14\n  jump\t// in\ntag_29:\n    /* \"#utility.yul\":954:1028   */\n  swap2\n  pop\n    /* \"#utility.yul\":910:1038   */\n  pop\n    /* \"#utility.yul\":694:1045   */\n  swap3\n  swap2\n  pop\n  pop\n  jump\t// out\n    /* \"#utility.yul\":1051:1231   */\ntag_15:\n    /* \"#utility.yul\":1099:1176   */\n  0x4e487b7100000000000000000000000000000000000000000000000000000000\n    /* \"#utility.yul\":1096:1097   */\n  0x00\n    /* \"#utility.yul\":1089:1177   */\n  mstore\n    /* \"#utility.yul\":1196:1200   */\n  0x11\n    /* \"#utility.yul\":1193:1194   */\n  0x04\n    /* \"#utility.yul\":1186:1201   */\n  mstore\n    /* \"#utility.yul\":1220:1224   */\n  0x24\n    /* \"#utility.yul\":1217:1218   */\n  0x00\n    /* \"#utility.yul\":1210:1225   */\n  revert\n    /* \"#utility.yul\":1237:1428   */\ntag_7:\n    /* \"#utility.yul\":1277:1280   */\n  0x00\n    /* \"#utility.yul\":1296:1316   */\n  tag_32\n    /* \"#utility.yul\":1314:1315   */\n  dup3\n    /* \"#utility.yul\":1296:1316   */\n  tag_12\n  jump\t// in\ntag_32:\n    /* \"#utility.yul\":1291:1316   */\n  swap2\n  pop\n    /* \"#utility.yul\":1330:1350   */\n  tag_33\n    /* \"#utility.yul\":1348:1349   */\n  dup4\n    /* \"#utility.yul\":1330:1350   */\n  tag_12\n  jump\t// in\ntag_33:\n    /* \"#utility.yul\":1325:1350   */\n  swap3\n  pop\n    /* \"#utility.yul\":1373:1374   */\n  dup3\n    /* \"#utility.yul\":1370:1371   */\n  dup3\n    /* \"#utility.yul\":1366:1375   */\n  add\n    /* \"#utility.yul\":1359:1375   */\n  swap1\n  pop\n    /* \"#utility.yul\":1394:1397   */\n  dup1\n    /* \"#utility.yul\":1391:1392   */\n  dup3\n    /* \"#utility.yul\":1388:1398   */\n  gt\n    /* \"#utility.yul\":1385:1421   */\n  iszero\n  tag_34\n  jumpi\n    /* \"#utility.yul\":1401:1419   */\n  tag_35\n  tag_15\n  jump\t// in\ntag_35:\n    /* \"#utility.yul\":1385:1421   */\ntag_34:\n    /* \"#utility.yul\":1237:1428   */\n  swap3\n  swap2\n  pop\n  pop\n  jump\t// out\n    /* \"fund.sol\":172:3332  contract Fund{... */\ntag_8:\n  dataSize(sub_0)\n  dup1\n  dataOffset(sub_0)\n  0x00\n  codecopy\n  0x00\n  return\nstop\n\nsub_0: assembly {\n        /* \"fund.sol\":172:3332  contract Fund{... */\n      mstore(0x40, 0x80)\n      jumpi(tag_1, lt(calldatasize, 0x04))\n      shr(0xe0, calldataload(0x00))\n      dup1\n      0x590e1ae3\n      eq\n      tag_2\n      jumpi\n      dup1\n      0x749141bc\n      eq\n      tag_3\n      jumpi\n      dup1\n      0xb60d4288\n      eq\n      tag_4\n      jumpi\n      dup1\n      0xb82ffdf9\n      eq\n      tag_5\n      jumpi\n      dup1\n      0xe7b59bf3\n      eq\n      tag_6\n      jumpi\n      dup1\n      0xfd301c49\n      eq\n      tag_7\n      jumpi\n    tag_1:\n      0x00\n      dup1\n      revert\n        /* \"fund.sol\":1415:1870  function refund() external fundIsClose {... */\n    tag_2:\n      callvalue\n      dup1\n      iszero\n      tag_8\n      jumpi\n      0x00\n      dup1\n      revert\n    tag_8:\n      pop\n      tag_9\n      tag_10\n      jump\t// in\n    tag_9:\n      stop\n        /* \"fund.sol\":1895:2256  function drawFund() external fundIsClose onlyOWner{... */\n    tag_3:\n      callvalue\n      dup1\n      iszero\n      tag_11\n      jumpi\n      0x00\n      dup1\n      revert\n    tag_11:\n      pop\n      tag_12\n      tag_13\n      jump\t// in\n    tag_12:\n      stop\n        /* \"fund.sol\":1153:1390  function fund() external payable fundIsExec{... */\n    tag_4:\n      tag_14\n      tag_15\n      jump\t// in\n    tag_14:\n      stop\n        /* \"fund.sol\":538:583  mapping(address => uint256) public fundAmount */\n    tag_5:\n      callvalue\n      dup1\n      iszero\n      tag_16\n      jumpi\n      0x00\n      dup1\n      revert\n    tag_16:\n      pop\n      tag_17\n      0x04\n      dup1\n      calldatasize\n      sub\n      dup2\n      add\n      swap1\n      tag_18\n      swap2\n      swap1\n      tag_19\n      jump\t// in\n    tag_18:\n      tag_20\n      jump\t// in\n    tag_17:\n      mload(0x40)\n      tag_21\n      swap2\n      swap1\n      tag_22\n      jump\t// in\n    tag_21:\n      mload(0x40)\n      dup1\n      swap2\n      sub\n      swap1\n      return\n        /* \"fund.sol\":2290:2393  function transferContractOwner(address owner) external onlyOWner{... */\n    tag_6:\n      callvalue\n      dup1\n      iszero\n      tag_23\n      jumpi\n      0x00\n      dup1\n      revert\n    tag_23:\n      pop\n      tag_24\n      0x04\n      dup1\n      calldatasize\n      sub\n      dup2\n      add\n      swap1\n      tag_25\n      swap2\n      swap1\n      tag_19\n      jump\t// in\n    tag_25:\n      tag_26\n      jump\t// in\n    tag_24:\n      stop\n        /* \"fund.sol\":293:322  address public CONTRACT_OWNER */\n    tag_7:\n      callvalue\n      dup1\n      iszero\n      tag_27\n      jumpi\n      0x00\n      dup1\n      revert\n    tag_27:\n      pop\n      tag_28\n      tag_29\n      jump\t// in\n    tag_28:\n      mload(0x40)\n      tag_30\n      swap2\n      swap1\n      tag_31\n      jump\t// in\n    tag_30:\n      mload(0x40)\n      dup1\n      swap2\n      sub\n      swap1\n      return\n        /* \"fund.sol\":1415:1870  function refund() external fundIsClose {... */\n    tag_10:\n        /* \"fund.sol\":3119:3139  FUND_CLOSE_TIMESTAMP */\n      sload(0x04)\n        /* \"fund.sol\":3100:3115  block.timestamp */\n      timestamp\n        /* \"fund.sol\":3100:3139  block.timestamp >= FUND_CLOSE_TIMESTAMP */\n      lt\n      iszero\n        /* \"fund.sol\":3092:3156  require(block.timestamp >= FUND_CLOSE_TIMESTAMP,\"fund is exec~\") */\n      tag_33\n      jumpi\n      mload(0x40)\n      0x08c379a000000000000000000000000000000000000000000000000000000000\n      dup2\n      mstore\n      0x04\n      add\n      tag_34\n      swap1\n      tag_35\n      jump\t// in\n    tag_34:\n      mload(0x40)\n      dup1\n      swap2\n      sub\n      swap1\n      revert\n    tag_33:\n        /* \"fund.sol\":409:411  30 */\n      0x1e\n        /* \"fund.sol\":1472:1503  ethToUsd(address(this).balance) */\n      tag_37\n        /* \"fund.sol\":1481:1502  address(this).balance */\n      selfbalance\n        /* \"fund.sol\":1472:1480  ethToUsd */\n      tag_38\n        /* \"fund.sol\":1472:1503  ethToUsd(address(this).balance) */\n      jump\t// in\n    tag_37:\n        /* \"fund.sol\":1472:1532  ethToUsd(address(this).balance) < CONTRACT_TARGET_USD_AMOUNT */\n      lt\n        /* \"fund.sol\":1464:1554  require(ethToUsd(address(this).balance) < CONTRACT_TARGET_USD_AMOUNT,\"target is reached~\") */\n      tag_39\n      jumpi\n      mload(0x40)\n      0x08c379a000000000000000000000000000000000000000000000000000000000\n      dup2\n      mstore\n      0x04\n      add\n      tag_40\n      swap1\n      tag_41\n      jump\t// in\n    tag_40:\n      mload(0x40)\n      dup1\n      swap2\n      sub\n      swap1\n      revert\n    tag_39:\n        /* \"fund.sol\":1598:1599  0 */\n      0x00\n        /* \"fund.sol\":1572:1582  fundAmount */\n      0x02\n        /* \"fund.sol\":1572:1594  fundAmount[msg.sender] */\n      0x00\n        /* \"fund.sol\":1583:1593  msg.sender */\n      caller\n        /* \"fund.sol\":1572:1594  fundAmount[msg.sender] */\n      0xffffffffffffffffffffffffffffffffffffffff\n      and\n      0xffffffffffffffffffffffffffffffffffffffff\n      and\n      dup2\n      mstore\n      0x20\n      add\n      swap1\n      dup2\n      mstore\n      0x20\n      add\n      0x00\n      keccak256\n      sload\n        /* \"fund.sol\":1572:1599  fundAmount[msg.sender] != 0 */\n      sub\n        /* \"fund.sol\":1564:1629  require(fundAmount[msg.sender] != 0, \"there is no fund for you~\") */\n      tag_42\n      jumpi\n      mload(0x40)\n      0x08c379a000000000000000000000000000000000000000000000000000000000\n      dup2\n      mstore\n      0x04\n      add\n      tag_43\n      swap1\n      tag_44\n      jump\t// in\n    tag_43:\n      mload(0x40)\n      dup1\n      swap2\n      sub\n      swap1\n      revert\n    tag_42:\n        /* \"fund.sol\":1664:1665  0 */\n      0x00\n        /* \"fund.sol\":1639:1649  fundAmount */\n      0x02\n        /* \"fund.sol\":1639:1661  fundAmount[msg.sender] */\n      0x00\n        /* \"fund.sol\":1650:1660  msg.sender */\n      caller\n        /* \"fund.sol\":1639:1661  fundAmount[msg.sender] */\n      0xffffffffffffffffffffffffffffffffffffffff\n      and\n      0xffffffffffffffffffffffffffffffffffffffff\n      and\n      dup2\n      mstore\n      0x20\n      add\n      swap1\n      dup2\n      mstore\n      0x20\n      add\n      0x00\n      keccak256\n        /* \"fund.sol\":1639:1665  fundAmount[msg.sender] = 0 */\n      dup2\n      swap1\n      sstore\n      pop\n        /* \"fund.sol\":1718:1730  bool success */\n      0x00\n        /* \"fund.sol\":1760:1770  msg.sender */\n      caller\n        /* \"fund.sol\":1752:1776  payable(msg.sender).call */\n      0xffffffffffffffffffffffffffffffffffffffff\n      and\n        /* \"fund.sol\":1784:1794  fundAmount */\n      0x02\n        /* \"fund.sol\":1784:1806  fundAmount[msg.sender] */\n      0x00\n        /* \"fund.sol\":1795:1805  msg.sender */\n      caller\n        /* \"fund.sol\":1784:1806  fundAmount[msg.sender] */\n      0xffffffffffffffffffffffffffffffffffffffff\n      and\n      0xffffffffffffffffffffffffffffffffffffffff\n      and\n      dup2\n      mstore\n      0x20\n      add\n      swap1\n      dup2\n      mstore\n      0x20\n      add\n      0x00\n      keccak256\n      sload\n        /* \"fund.sol\":1752:1811  payable(msg.sender).call{value: fundAmount[msg.sender]}(\"\") */\n      mload(0x40)\n      tag_45\n      swap1\n      tag_46\n      jump\t// in\n    tag_45:\n      0x00\n      mload(0x40)\n      dup1\n      dup4\n      sub\n      dup2\n      dup6\n      dup8\n      gas\n      call\n      swap3\n      pop\n      pop\n      pop\n      returndatasize\n      dup1\n      0x00\n      dup2\n      eq\n      tag_49\n      jumpi\n      mload(0x40)\n      swap2\n      pop\n      and(add(returndatasize, 0x3f), not(0x1f))\n      dup3\n      add\n      0x40\n      mstore\n      returndatasize\n      dup3\n      mstore\n      returndatasize\n      0x00\n      0x20\n      dup5\n      add\n      returndatacopy\n      jump(tag_48)\n    tag_49:\n      0x60\n      swap2\n      pop\n    tag_48:\n      pop\n        /* \"fund.sol\":1740:1811  (success, )=payable(msg.sender).call{value: fundAmount[msg.sender]}(\"\") */\n      pop\n      dup1\n      swap2\n      pop\n      pop\n        /* \"fund.sol\":1829:1836  success */\n      dup1\n        /* \"fund.sol\":1821:1863  require(success,\"refund transfer failed~\") */\n      tag_50\n      jumpi\n      mload(0x40)\n      0x08c379a000000000000000000000000000000000000000000000000000000000\n      dup2\n      mstore\n      0x04\n      add\n      tag_51\n      swap1\n      tag_52\n      jump\t// in\n    tag_51:\n      mload(0x40)\n      dup1\n      swap2\n      sub\n      swap1\n      revert\n    tag_50:\n        /* \"fund.sol\":1454:1870  {... */\n      pop\n        /* \"fund.sol\":1415:1870  function refund() external fundIsClose {... */\n      jump\t// out\n        /* \"fund.sol\":1895:2256  function drawFund() external fundIsClose onlyOWner{... */\n    tag_13:\n        /* \"fund.sol\":3119:3139  FUND_CLOSE_TIMESTAMP */\n      sload(0x04)\n        /* \"fund.sol\":3100:3115  block.timestamp */\n      timestamp\n        /* \"fund.sol\":3100:3139  block.timestamp >= FUND_CLOSE_TIMESTAMP */\n      lt\n      iszero\n        /* \"fund.sol\":3092:3156  require(block.timestamp >= FUND_CLOSE_TIMESTAMP,\"fund is exec~\") */\n      tag_54\n      jumpi\n      mload(0x40)\n      0x08c379a000000000000000000000000000000000000000000000000000000000\n      dup2\n      mstore\n      0x04\n      add\n      tag_55\n      swap1\n      tag_35\n      jump\t// in\n    tag_55:\n      mload(0x40)\n      dup1\n      swap2\n      sub\n      swap1\n      revert\n    tag_54:\n        /* \"fund.sol\":3268:3282  CONTRACT_OWNER */\n      0x01\n      0x00\n      swap1\n      sload\n      swap1\n      0x0100\n      exp\n      swap1\n      div\n      0xffffffffffffffffffffffffffffffffffffffff\n      and\n        /* \"fund.sol\":3254:3282  msg.sender == CONTRACT_OWNER */\n      0xffffffffffffffffffffffffffffffffffffffff\n      and\n        /* \"fund.sol\":3254:3264  msg.sender */\n      caller\n        /* \"fund.sol\":3254:3282  msg.sender == CONTRACT_OWNER */\n      0xffffffffffffffffffffffffffffffffffffffff\n      and\n      eq\n        /* \"fund.sol\":3246:3312  require(msg.sender == CONTRACT_OWNER,\"you not is contract owner~\") */\n      tag_57\n      jumpi\n      mload(0x40)\n      0x08c379a000000000000000000000000000000000000000000000000000000000\n      dup2\n      mstore\n      0x04\n      add\n      tag_58\n      swap1\n      tag_59\n      jump\t// in\n    tag_58:\n      mload(0x40)\n      dup1\n      swap2\n      sub\n      swap1\n      revert\n    tag_57:\n        /* \"fund.sol\":409:411  30 */\n      0x1e\n        /* \"fund.sol\":1963:1994  ethToUsd(address(this).balance) */\n      tag_61\n        /* \"fund.sol\":1972:1993  address(this).balance */\n      selfbalance\n        /* \"fund.sol\":1963:1971  ethToUsd */\n      tag_38\n        /* \"fund.sol\":1963:1994  ethToUsd(address(this).balance) */\n      jump\t// in\n    tag_61:\n        /* \"fund.sol\":1963:2024  ethToUsd(address(this).balance) >= CONTRACT_TARGET_USD_AMOUNT */\n      lt\n      iszero\n        /* \"fund.sol\":1955:2051  require(ethToUsd(address(this).balance) >= CONTRACT_TARGET_USD_AMOUNT, \"target is not reached~\") */\n      tag_62\n      jumpi\n      mload(0x40)\n      0x08c379a000000000000000000000000000000000000000000000000000000000\n      dup2\n      mstore\n      0x04\n      add\n      tag_63\n      swap1\n      tag_64\n      jump\t// in\n    tag_63:\n      mload(0x40)\n      dup1\n      swap2\n      sub\n      swap1\n      revert\n    tag_62:\n        /* \"fund.sol\":2070:2082  bool success */\n      0x00\n        /* \"fund.sol\":2113:2123  msg.sender */\n      caller\n        /* \"fund.sol\":2105:2129  payable(msg.sender).call */\n      0xffffffffffffffffffffffffffffffffffffffff\n      and\n        /* \"fund.sol\":2137:2158  address(this).balance */\n      selfbalance\n        /* \"fund.sol\":2105:2163  payable(msg.sender).call{value: address(this).balance}(\"\") */\n      mload(0x40)\n      tag_65\n      swap1\n      tag_46\n      jump\t// in\n    tag_65:\n      0x00\n      mload(0x40)\n      dup1\n      dup4\n      sub\n      dup2\n      dup6\n      dup8\n      gas\n      call\n      swap3\n      pop\n      pop\n      pop\n      returndatasize\n      dup1\n      0x00\n      dup2\n      eq\n      tag_68\n      jumpi\n      mload(0x40)\n      swap2\n      pop\n      and(add(returndatasize, 0x3f), not(0x1f))\n      dup3\n      add\n      0x40\n      mstore\n      returndatasize\n      dup3\n      mstore\n      returndatasize\n      0x00\n      0x20\n      dup5\n      add\n      returndatacopy\n      jump(tag_67)\n    tag_68:\n      0x60\n      swap2\n      pop\n    tag_67:\n      pop\n        /* \"fund.sol\":2092:2163  (success, )= payable(msg.sender).call{value: address(this).balance}(\"\") */\n      pop\n      dup1\n      swap2\n      pop\n      pop\n        /* \"fund.sol\":2181:2188  success */\n      dup1\n        /* \"fund.sol\":2173:2213  require(success,\"draw transfer failed~\") */\n      tag_69\n      jumpi\n      mload(0x40)\n      0x08c379a000000000000000000000000000000000000000000000000000000000\n      dup2\n      mstore\n      0x04\n      add\n      tag_70\n      swap1\n      tag_71\n      jump\t// in\n    tag_70:\n      mload(0x40)\n      dup1\n      swap2\n      sub\n      swap1\n      revert\n    tag_69:\n        /* \"fund.sol\":2248:2249  0 */\n      0x00\n        /* \"fund.sol\":2223:2233  fundAmount */\n      0x02\n        /* \"fund.sol\":2223:2245  fundAmount[msg.sender] */\n      0x00\n        /* \"fund.sol\":2234:2244  msg.sender */\n      caller\n        /* \"fund.sol\":2223:2245  fundAmount[msg.sender] */\n      0xffffffffffffffffffffffffffffffffffffffff\n      and\n      0xffffffffffffffffffffffffffffffffffffffff\n      and\n      dup2\n      mstore\n      0x20\n      add\n      swap1\n      dup2\n      mstore\n      0x20\n      add\n      0x00\n      keccak256\n        /* \"fund.sol\":2223:2249  fundAmount[msg.sender] = 0 */\n      dup2\n      swap1\n      sstore\n      pop\n        /* \"fund.sol\":1945:2256  {... */\n      pop\n        /* \"fund.sol\":1895:2256  function drawFund() external fundIsClose onlyOWner{... */\n      jump\t// out\n        /* \"fund.sol\":1153:1390  function fund() external payable fundIsExec{... */\n    tag_15:\n        /* \"fund.sol\":2976:2996  FUND_CLOSE_TIMESTAMP */\n      sload(0x04)\n        /* \"fund.sol\":2958:2973  block.timestamp */\n      timestamp\n        /* \"fund.sol\":2958:2996  block.timestamp < FUND_CLOSE_TIMESTAMP */\n      lt\n        /* \"fund.sol\":2950:3014  require(block.timestamp < FUND_CLOSE_TIMESTAMP,\"fund is close~\") */\n      tag_73\n      jumpi\n      mload(0x40)\n      0x08c379a000000000000000000000000000000000000000000000000000000000\n      dup2\n      mstore\n      0x04\n      add\n      tag_74\n      swap1\n      tag_75\n      jump\t// in\n    tag_74:\n      mload(0x40)\n      dup1\n      swap2\n      sub\n      swap1\n      revert\n    tag_73:\n        /* \"fund.sol\":1240:1241  0 */\n      0x00\n        /* \"fund.sol\":1214:1224  fundAmount */\n      0x02\n        /* \"fund.sol\":1214:1236  fundAmount[msg.sender] */\n      0x00\n        /* \"fund.sol\":1225:1235  msg.sender */\n      caller\n        /* \"fund.sol\":1214:1236  fundAmount[msg.sender] */\n      0xffffffffffffffffffffffffffffffffffffffff\n      and\n      0xffffffffffffffffffffffffffffffffffffffff\n      and\n      dup2\n      mstore\n      0x20\n      add\n      swap1\n      dup2\n      mstore\n      0x20\n      add\n      0x00\n      keccak256\n      sload\n        /* \"fund.sol\":1214:1241  fundAmount[msg.sender] == 0 */\n      eq\n        /* \"fund.sol\":1206:1260  require(fundAmount[msg.sender] == 0, \"you have fund~\") */\n      tag_77\n      jumpi\n      mload(0x40)\n      0x08c379a000000000000000000000000000000000000000000000000000000000\n      dup2\n      mstore\n      0x04\n      add\n      tag_78\n      swap1\n      tag_79\n      jump\t// in\n    tag_78:\n      mload(0x40)\n      dup1\n      swap2\n      sub\n      swap1\n      revert\n    tag_77:\n        /* \"fund.sol\":495:497  10 */\n      0x0a\n        /* \"fund.sol\":1278:1297  ethToUsd(msg.value) */\n      tag_80\n        /* \"fund.sol\":1287:1296  msg.value */\n      callvalue\n        /* \"fund.sol\":1278:1286  ethToUsd */\n      tag_38\n        /* \"fund.sol\":1278:1297  ethToUsd(msg.value) */\n      jump\t// in\n    tag_80:\n        /* \"fund.sol\":1278:1320  ethToUsd(msg.value) >= FUND_MIN_USD_AMOUNT */\n      lt\n      iszero\n        /* \"fund.sol\":1270:1339  require(ethToUsd(msg.value) >= FUND_MIN_USD_AMOUNT, \"send more eth~\") */\n      tag_81\n      jumpi\n      mload(0x40)\n      0x08c379a000000000000000000000000000000000000000000000000000000000\n      dup2\n      mstore\n      0x04\n      add\n      tag_82\n      swap1\n      tag_83\n      jump\t// in\n    tag_82:\n      mload(0x40)\n      dup1\n      swap2\n      sub\n      swap1\n      revert\n    tag_81:\n        /* \"fund.sol\":1374:1383  msg.value */\n      callvalue\n        /* \"fund.sol\":1349:1359  fundAmount */\n      0x02\n        /* \"fund.sol\":1349:1371  fundAmount[msg.sender] */\n      0x00\n        /* \"fund.sol\":1360:1370  msg.sender */\n      caller\n        /* \"fund.sol\":1349:1371  fundAmount[msg.sender] */\n      0xffffffffffffffffffffffffffffffffffffffff\n      and\n      0xffffffffffffffffffffffffffffffffffffffff\n      and\n      dup2\n      mstore\n      0x20\n      add\n      swap1\n      dup2\n      mstore\n      0x20\n      add\n      0x00\n      keccak256\n        /* \"fund.sol\":1349:1383  fundAmount[msg.sender] = msg.value */\n      dup2\n      swap1\n      sstore\n      pop\n        /* \"fund.sol\":1153:1390  function fund() external payable fundIsExec{... */\n      jump\t// out\n        /* \"fund.sol\":538:583  mapping(address => uint256) public fundAmount */\n    tag_20:\n      mstore(0x20, 0x02)\n      dup1\n      0x00\n      mstore\n      keccak256(0x00, 0x40)\n      0x00\n      swap2\n      pop\n      swap1\n      pop\n      sload\n      dup2\n      jump\t// out\n        /* \"fund.sol\":2290:2393  function transferContractOwner(address owner) external onlyOWner{... */\n    tag_26:\n        /* \"fund.sol\":3268:3282  CONTRACT_OWNER */\n      0x01\n      0x00\n      swap1\n      sload\n      swap1\n      0x0100\n      exp\n      swap1\n      div\n      0xffffffffffffffffffffffffffffffffffffffff\n      and\n        /* \"fund.sol\":3254:3282  msg.sender == CONTRACT_OWNER */\n      0xffffffffffffffffffffffffffffffffffffffff\n      and\n        /* \"fund.sol\":3254:3264  msg.sender */\n      caller\n        /* \"fund.sol\":3254:3282  msg.sender == CONTRACT_OWNER */\n      0xffffffffffffffffffffffffffffffffffffffff\n      and\n      eq\n        /* \"fund.sol\":3246:3312  require(msg.sender == CONTRACT_OWNER,\"you not is contract owner~\") */\n      tag_85\n      jumpi\n      mload(0x40)\n      0x08c379a000000000000000000000000000000000000000000000000000000000\n      dup2\n      mstore\n      0x04\n      add\n      tag_86\n      swap1\n      tag_59\n      jump\t// in\n    tag_86:\n      mload(0x40)\n      dup1\n      swap2\n      sub\n      swap1\n      revert\n    tag_85:\n        /* \"fund.sol\":2381:2386  owner */\n      dup1\n        /* \"fund.sol\":2364:2378  CONTRACT_OWNER */\n      0x01\n      0x00\n        /* \"fund.sol\":2364:2386  CONTRACT_OWNER = owner */\n      0x0100\n      exp\n      dup2\n      sload\n      dup2\n      0xffffffffffffffffffffffffffffffffffffffff\n      mul\n      not\n      and\n      swap1\n      dup4\n      0xffffffffffffffffffffffffffffffffffffffff\n      and\n      mul\n      or\n      swap1\n      sstore\n      pop\n        /* \"fund.sol\":2290:2393  function transferContractOwner(address owner) external onlyOWner{... */\n      pop\n      jump\t// out\n        /* \"fund.sol\":293:322  address public CONTRACT_OWNER */\n    tag_29:\n      0x01\n      0x00\n      swap1\n      sload\n      swap1\n      0x0100\n      exp\n      swap1\n      div\n      0xffffffffffffffffffffffffffffffffffffffff\n      and\n      dup2\n      jump\t// out\n        /* \"fund.sol\":2698:2890  function ethToUsd(uint256 weiAmount) internal view returns(uint256) {... */\n    tag_38:\n        /* \"fund.sol\":2757:2764  uint256 */\n      0x00\n        /* \"fund.sol\":2776:2789  uint256 price */\n      dup1\n        /* \"fund.sol\":2800:2834  getChainlinkDataFeedLatestAnswer() */\n      tag_89\n        /* \"fund.sol\":2800:2832  getChainlinkDataFeedLatestAnswer */\n      tag_90\n        /* \"fund.sol\":2800:2834  getChainlinkDataFeedLatestAnswer() */\n      jump\t// in\n    tag_89:\n        /* \"fund.sol\":2776:2835  uint256 price = uint256(getChainlinkDataFeedLatestAnswer()) */\n      swap1\n      pop\n        /* \"fund.sol\":2873:2881  10 ** 26 */\n      0x52b7d2dcc80cd2e4000000\n        /* \"fund.sol\":2860:2869  weiAmount */\n      dup4\n        /* \"fund.sol\":2852:2857  price */\n      dup3\n        /* \"fund.sol\":2852:2869  price * weiAmount */\n      tag_91\n      swap2\n      swap1\n      tag_92\n      jump\t// in\n    tag_91:\n        /* \"fund.sol\":2852:2882  price * weiAmount / (10 ** 26) */\n      tag_93\n      swap2\n      swap1\n      tag_94\n      jump\t// in\n    tag_93:\n        /* \"fund.sol\":2845:2882  return price * weiAmount / (10 ** 26) */\n      swap2\n      pop\n      pop\n        /* \"fund.sol\":2698:2890  function ethToUsd(uint256 weiAmount) internal view returns(uint256) {... */\n      swap2\n      swap1\n      pop\n      jump\t// out\n        /* \"fund.sol\":2517:2676  function getChainlinkDataFeedLatestAnswer() private view returns (int) {... */\n    tag_90:\n        /* \"fund.sol\":2583:2586  int */\n      0x00\n        /* \"fund.sol\":2601:2611  int answer */\n      dup1\n        /* \"fund.sol\":2620:2628  dataFeed */\n      0x00\n      dup1\n      sload\n      swap1\n      0x0100\n      exp\n      swap1\n      div\n      0xffffffffffffffffffffffffffffffffffffffff\n      and\n        /* \"fund.sol\":2620:2644  dataFeed.latestRoundData */\n      0xffffffffffffffffffffffffffffffffffffffff\n      and\n      0xfeaf968c\n        /* \"fund.sol\":2620:2646  dataFeed.latestRoundData() */\n      mload(0x40)\n      dup2\n      0xffffffff\n      and\n      0xe0\n      shl\n      dup2\n      mstore\n      0x04\n      add\n      0xa0\n      mload(0x40)\n      dup1\n      dup4\n      sub\n      dup2\n      dup7\n      gas\n      staticcall\n      iszero\n      dup1\n      iszero\n      tag_97\n      jumpi\n      returndatasize\n      0x00\n      dup1\n      returndatacopy\n      revert(0x00, returndatasize)\n    tag_97:\n      pop\n      pop\n      pop\n      pop\n      mload(0x40)\n      returndatasize\n      not(0x1f)\n      0x1f\n      dup3\n      add\n      and\n      dup3\n      add\n      dup1\n      0x40\n      mstore\n      pop\n      dup2\n      add\n      swap1\n      tag_98\n      swap2\n      swap1\n      tag_99\n      jump\t// in\n    tag_98:\n        /* \"fund.sol\":2598:2646  ( ,int answer, , ,) = dataFeed.latestRoundData() */\n      pop\n      pop\n      pop\n      swap2\n      pop\n      pop\n        /* \"fund.sol\":2663:2669  answer */\n      dup1\n        /* \"fund.sol\":2656:2669  return answer */\n      swap2\n      pop\n      pop\n        /* \"fund.sol\":2517:2676  function getChainlinkDataFeedLatestAnswer() private view returns (int) {... */\n      swap1\n      jump\t// out\n        /* \"#utility.yul\":88:205   */\n    tag_101:\n        /* \"#utility.yul\":197:198   */\n      0x00\n        /* \"#utility.yul\":194:195   */\n      dup1\n        /* \"#utility.yul\":187:199   */\n      revert\n        /* \"#utility.yul\":334:460   */\n    tag_103:\n        /* \"#utility.yul\":371:378   */\n      0x00\n        /* \"#utility.yul\":411:453   */\n      0xffffffffffffffffffffffffffffffffffffffff\n        /* \"#utility.yul\":404:409   */\n      dup3\n        /* \"#utility.yul\":400:454   */\n      and\n        /* \"#utility.yul\":389:454   */\n      swap1\n      pop\n        /* \"#utility.yul\":334:460   */\n      swap2\n      swap1\n      pop\n      jump\t// out\n        /* \"#utility.yul\":466:562   */\n    tag_104:\n        /* \"#utility.yul\":503:510   */\n      0x00\n        /* \"#utility.yul\":532:556   */\n      tag_150\n        /* \"#utility.yul\":550:555   */\n      dup3\n        /* \"#utility.yul\":532:556   */\n      tag_103\n      jump\t// in\n    tag_150:\n        /* \"#utility.yul\":521:556   */\n      swap1\n      pop\n        /* \"#utility.yul\":466:562   */\n      swap2\n      swap1\n      pop\n      jump\t// out\n        /* \"#utility.yul\":568:690   */\n    tag_105:\n        /* \"#utility.yul\":641:665   */\n      tag_152\n        /* \"#utility.yul\":659:664   */\n      dup2\n        /* \"#utility.yul\":641:665   */\n      tag_104\n      jump\t// in\n    tag_152:\n        /* \"#utility.yul\":634:639   */\n      dup2\n        /* \"#utility.yul\":631:666   */\n      eq\n        /* \"#utility.yul\":621:684   */\n      tag_153\n      jumpi\n        /* \"#utility.yul\":680:681   */\n      0x00\n        /* \"#utility.yul\":677:678   */\n      dup1\n        /* \"#utility.yul\":670:682   */\n      revert\n        /* \"#utility.yul\":621:684   */\n    tag_153:\n        /* \"#utility.yul\":568:690   */\n      pop\n      jump\t// out\n        /* \"#utility.yul\":696:835   */\n    tag_106:\n        /* \"#utility.yul\":742:747   */\n      0x00\n        /* \"#utility.yul\":780:786   */\n      dup2\n        /* \"#utility.yul\":767:787   */\n      calldataload\n        /* \"#utility.yul\":758:787   */\n      swap1\n      pop\n        /* \"#utility.yul\":796:829   */\n      tag_155\n        /* \"#utility.yul\":823:828   */\n      dup2\n        /* \"#utility.yul\":796:829   */\n      tag_105\n      jump\t// in\n    tag_155:\n        /* \"#utility.yul\":696:835   */\n      swap3\n      swap2\n      pop\n      pop\n      jump\t// out\n        /* \"#utility.yul\":841:1170   */\n    tag_19:\n        /* \"#utility.yul\":900:906   */\n      0x00\n        /* \"#utility.yul\":949:951   */\n      0x20\n        /* \"#utility.yul\":937:946   */\n      dup3\n        /* \"#utility.yul\":928:935   */\n      dup5\n        /* \"#utility.yul\":924:947   */\n      sub\n        /* \"#utility.yul\":920:952   */\n      slt\n        /* \"#utility.yul\":917:1036   */\n      iszero\n      tag_157\n      jumpi\n        /* \"#utility.yul\":955:1034   */\n      tag_158\n      tag_101\n      jump\t// in\n    tag_158:\n        /* \"#utility.yul\":917:1036   */\n    tag_157:\n        /* \"#utility.yul\":1075:1076   */\n      0x00\n        /* \"#utility.yul\":1100:1153   */\n      tag_159\n        /* \"#utility.yul\":1145:1152   */\n      dup5\n        /* \"#utility.yul\":1136:1142   */\n      dup3\n        /* \"#utility.yul\":1125:1134   */\n      dup6\n        /* \"#utility.yul\":1121:1143   */\n      add\n        /* \"#utility.yul\":1100:1153   */\n      tag_106\n      jump\t// in\n    tag_159:\n        /* \"#utility.yul\":1090:1153   */\n      swap2\n      pop\n        /* \"#utility.yul\":1046:1163   */\n      pop\n        /* \"#utility.yul\":841:1170   */\n      swap3\n      swap2\n      pop\n      pop\n      jump\t// out\n        /* \"#utility.yul\":1176:1253   */\n    tag_107:\n        /* \"#utility.yul\":1213:1220   */\n      0x00\n        /* \"#utility.yul\":1242:1247   */\n      dup2\n        /* \"#utility.yul\":1231:1247   */\n      swap1\n      pop\n        /* \"#utility.yul\":1176:1253   */\n      swap2\n      swap1\n      pop\n      jump\t// out\n        /* \"#utility.yul\":1259:1377   */\n    tag_108:\n        /* \"#utility.yul\":1346:1370   */\n      tag_162\n        /* \"#utility.yul\":1364:1369   */\n      dup2\n        /* \"#utility.yul\":1346:1370   */\n      tag_107\n      jump\t// in\n    tag_162:\n        /* \"#utility.yul\":1341:1344   */\n      dup3\n        /* \"#utility.yul\":1334:1371   */\n      mstore\n        /* \"#utility.yul\":1259:1377   */\n      pop\n      pop\n      jump\t// out\n        /* \"#utility.yul\":1383:1605   */\n    tag_22:\n        /* \"#utility.yul\":1476:1480   */\n      0x00\n        /* \"#utility.yul\":1514:1516   */\n      0x20\n        /* \"#utility.yul\":1503:1512   */\n      dup3\n        /* \"#utility.yul\":1499:1517   */\n      add\n        /* \"#utility.yul\":1491:1517   */\n      swap1\n      pop\n        /* \"#utility.yul\":1527:1598   */\n      tag_164\n        /* \"#utility.yul\":1595:1596   */\n      0x00\n        /* \"#utility.yul\":1584:1593   */\n      dup4\n        /* \"#utility.yul\":1580:1597   */\n      add\n        /* \"#utility.yul\":1571:1577   */\n      dup5\n        /* \"#utility.yul\":1527:1598   */\n      tag_108\n      jump\t// in\n    tag_164:\n        /* \"#utility.yul\":1383:1605   */\n      swap3\n      swap2\n      pop\n      pop\n      jump\t// out\n        /* \"#utility.yul\":1611:1729   */\n    tag_109:\n        /* \"#utility.yul\":1698:1722   */\n      tag_166\n        /* \"#utility.yul\":1716:1721   */\n      dup2\n        /* \"#utility.yul\":1698:1722   */\n      tag_104\n      jump\t// in\n    tag_166:\n        /* \"#utility.yul\":1693:1696   */\n      dup3\n        /* \"#utility.yul\":1686:1723   */\n      mstore\n        /* \"#utility.yul\":1611:1729   */\n      pop\n      pop\n      jump\t// out\n        /* \"#utility.yul\":1735:1957   */\n    tag_31:\n        /* \"#utility.yul\":1828:1832   */\n      0x00\n        /* \"#utility.yul\":1866:1868   */\n      0x20\n        /* \"#utility.yul\":1855:1864   */\n      dup3\n        /* \"#utility.yul\":1851:1869   */\n      add\n        /* \"#utility.yul\":1843:1869   */\n      swap1\n      pop\n        /* \"#utility.yul\":1879:1950   */\n      tag_168\n        /* \"#utility.yul\":1947:1948   */\n      0x00\n        /* \"#utility.yul\":1936:1945   */\n      dup4\n        /* \"#utility.yul\":1932:1949   */\n      add\n        /* \"#utility.yul\":1923:1929   */\n      dup5\n        /* \"#utility.yul\":1879:1950   */\n      tag_109\n      jump\t// in\n    tag_168:\n        /* \"#utility.yul\":1735:1957   */\n      swap3\n      swap2\n      pop\n      pop\n      jump\t// out\n        /* \"#utility.yul\":1963:2132   */\n    tag_110:\n        /* \"#utility.yul\":2047:2058   */\n      0x00\n        /* \"#utility.yul\":2081:2087   */\n      dup3\n        /* \"#utility.yul\":2076:2079   */\n      dup3\n        /* \"#utility.yul\":2069:2088   */\n      mstore\n        /* \"#utility.yul\":2121:2125   */\n      0x20\n        /* \"#utility.yul\":2116:2119   */\n      dup3\n        /* \"#utility.yul\":2112:2126   */\n      add\n        /* \"#utility.yul\":2097:2126   */\n      swap1\n      pop\n        /* \"#utility.yul\":1963:2132   */\n      swap3\n      swap2\n      pop\n      pop\n      jump\t// out\n        /* \"#utility.yul\":2138:2301   */\n    tag_111:\n        /* \"#utility.yul\":2278:2293   */\n      0x66756e6420697320657865637e00000000000000000000000000000000000000\n        /* \"#utility.yul\":2274:2275   */\n      0x00\n        /* \"#utility.yul\":2266:2272   */\n      dup3\n        /* \"#utility.yul\":2262:2276   */\n      add\n        /* \"#utility.yul\":2255:2294   */\n      mstore\n        /* \"#utility.yul\":2138:2301   */\n      pop\n      jump\t// out\n        /* \"#utility.yul\":2307:2673   */\n    tag_112:\n        /* \"#utility.yul\":2449:2452   */\n      0x00\n        /* \"#utility.yul\":2470:2537   */\n      tag_172\n        /* \"#utility.yul\":2534:2536   */\n      0x0d\n        /* \"#utility.yul\":2529:2532   */\n      dup4\n        /* \"#utility.yul\":2470:2537   */\n      tag_110\n      jump\t// in\n    tag_172:\n        /* \"#utility.yul\":2463:2537   */\n      swap2\n      pop\n        /* \"#utility.yul\":2546:2639   */\n      tag_173\n        /* \"#utility.yul\":2635:2638   */\n      dup3\n        /* \"#utility.yul\":2546:2639   */\n      tag_111\n      jump\t// in\n    tag_173:\n        /* \"#utility.yul\":2664:2666   */\n      0x20\n        /* \"#utility.yul\":2659:2662   */\n      dup3\n        /* \"#utility.yul\":2655:2667   */\n      add\n        /* \"#utility.yul\":2648:2667   */\n      swap1\n      pop\n        /* \"#utility.yul\":2307:2673   */\n      swap2\n      swap1\n      pop\n      jump\t// out\n        /* \"#utility.yul\":2679:3098   */\n    tag_35:\n        /* \"#utility.yul\":2845:2849   */\n      0x00\n        /* \"#utility.yul\":2883:2885   */\n      0x20\n        /* \"#utility.yul\":2872:2881   */\n      dup3\n        /* \"#utility.yul\":2868:2886   */\n      add\n        /* \"#utility.yul\":2860:2886   */\n      swap1\n      pop\n        /* \"#utility.yul\":2932:2941   */\n      dup2\n        /* \"#utility.yul\":2926:2930   */\n      dup2\n        /* \"#utility.yul\":2922:2942   */\n      sub\n        /* \"#utility.yul\":2918:2919   */\n      0x00\n        /* \"#utility.yul\":2907:2916   */\n      dup4\n        /* \"#utility.yul\":2903:2920   */\n      add\n        /* \"#utility.yul\":2896:2943   */\n      mstore\n        /* \"#utility.yul\":2960:3091   */\n      tag_175\n        /* \"#utility.yul\":3086:3090   */\n      dup2\n        /* \"#utility.yul\":2960:3091   */\n      tag_112\n      jump\t// in\n    tag_175:\n        /* \"#utility.yul\":2952:3091   */\n      swap1\n      pop\n        /* \"#utility.yul\":2679:3098   */\n      swap2\n      swap1\n      pop\n      jump\t// out\n        /* \"#utility.yul\":3104:3272   */\n    tag_113:\n        /* \"#utility.yul\":3244:3264   */\n      0x74617267657420697320726561636865647e0000000000000000000000000000\n        /* \"#utility.yul\":3240:3241   */\n      0x00\n        /* \"#utility.yul\":3232:3238   */\n      dup3\n        /* \"#utility.yul\":3228:3242   */\n      add\n        /* \"#utility.yul\":3221:3265   */\n      mstore\n        /* \"#utility.yul\":3104:3272   */\n      pop\n      jump\t// out\n        /* \"#utility.yul\":3278:3644   */\n    tag_114:\n        /* \"#utility.yul\":3420:3423   */\n      0x00\n        /* \"#utility.yul\":3441:3508   */\n      tag_178\n        /* \"#utility.yul\":3505:3507   */\n      0x12\n        /* \"#utility.yul\":3500:3503   */\n      dup4\n        /* \"#utility.yul\":3441:3508   */\n      tag_110\n      jump\t// in\n    tag_178:\n        /* \"#utility.yul\":3434:3508   */\n      swap2\n      pop\n        /* \"#utility.yul\":3517:3610   */\n      tag_179\n        /* \"#utility.yul\":3606:3609   */\n      dup3\n        /* \"#utility.yul\":3517:3610   */\n      tag_113\n      jump\t// in\n    tag_179:\n        /* \"#utility.yul\":3635:3637   */\n      0x20\n        /* \"#utility.yul\":3630:3633   */\n      dup3\n        /* \"#utility.yul\":3626:3638   */\n      add\n        /* \"#utility.yul\":3619:3638   */\n      swap1\n      pop\n        /* \"#utility.yul\":3278:3644   */\n      swap2\n      swap1\n      pop\n      jump\t// out\n        /* \"#utility.yul\":3650:4069   */\n    tag_41:\n        /* \"#utility.yul\":3816:3820   */\n      0x00\n        /* \"#utility.yul\":3854:3856   */\n      0x20\n        /* \"#utility.yul\":3843:3852   */\n      dup3\n        /* \"#utility.yul\":3839:3857   */\n      add\n        /* \"#utility.yul\":3831:3857   */\n      swap1\n      pop\n        /* \"#utility.yul\":3903:3912   */\n      dup2\n        /* \"#utility.yul\":3897:3901   */\n      dup2\n        /* \"#utility.yul\":3893:3913   */\n      sub\n        /* \"#utility.yul\":3889:3890   */\n      0x00\n        /* \"#utility.yul\":3878:3887   */\n      dup4\n        /* \"#utility.yul\":3874:3891   */\n      add\n        /* \"#utility.yul\":3867:3914   */\n      mstore\n        /* \"#utility.yul\":3931:4062   */\n      tag_181\n        /* \"#utility.yul\":4057:4061   */\n      dup2\n        /* \"#utility.yul\":3931:4062   */\n      tag_114\n      jump\t// in\n    tag_181:\n        /* \"#utility.yul\":3923:4062   */\n      swap1\n      pop\n        /* \"#utility.yul\":3650:4069   */\n      swap2\n      swap1\n      pop\n      jump\t// out\n        /* \"#utility.yul\":4075:4250   */\n    tag_115:\n        /* \"#utility.yul\":4215:4242   */\n      0x7468657265206973206e6f2066756e6420666f7220796f757e00000000000000\n        /* \"#utility.yul\":4211:4212   */\n      0x00\n        /* \"#utility.yul\":4203:4209   */\n      dup3\n        /* \"#utility.yul\":4199:4213   */\n      add\n        /* \"#utility.yul\":4192:4243   */\n      mstore\n        /* \"#utility.yul\":4075:4250   */\n      pop\n      jump\t// out\n        /* \"#utility.yul\":4256:4622   */\n    tag_116:\n        /* \"#utility.yul\":4398:4401   */\n      0x00\n        /* \"#utility.yul\":4419:4486   */\n      tag_184\n        /* \"#utility.yul\":4483:4485   */\n      0x19\n        /* \"#utility.yul\":4478:4481   */\n      dup4\n        /* \"#utility.yul\":4419:4486   */\n      tag_110\n      jump\t// in\n    tag_184:\n        /* \"#utility.yul\":4412:4486   */\n      swap2\n      pop\n        /* \"#utility.yul\":4495:4588   */\n      tag_185\n        /* \"#utility.yul\":4584:4587   */\n      dup3\n        /* \"#utility.yul\":4495:4588   */\n      tag_115\n      jump\t// in\n    tag_185:\n        /* \"#utility.yul\":4613:4615   */\n      0x20\n        /* \"#utility.yul\":4608:4611   */\n      dup3\n        /* \"#utility.yul\":4604:4616   */\n      add\n        /* \"#utility.yul\":4597:4616   */\n      swap1\n      pop\n        /* \"#utility.yul\":4256:4622   */\n      swap2\n      swap1\n      pop\n      jump\t// out\n        /* \"#utility.yul\":4628:5047   */\n    tag_44:\n        /* \"#utility.yul\":4794:4798   */\n      0x00\n        /* \"#utility.yul\":4832:4834   */\n      0x20\n        /* \"#utility.yul\":4821:4830   */\n      dup3\n        /* \"#utility.yul\":4817:4835   */\n      add\n        /* \"#utility.yul\":4809:4835   */\n      swap1\n      pop\n        /* \"#utility.yul\":4881:4890   */\n      dup2\n        /* \"#utility.yul\":4875:4879   */\n      dup2\n        /* \"#utility.yul\":4871:4891   */\n      sub\n        /* \"#utility.yul\":4867:4868   */\n      0x00\n        /* \"#utility.yul\":4856:4865   */\n      dup4\n        /* \"#utility.yul\":4852:4869   */\n      add\n        /* \"#utility.yul\":4845:4892   */\n      mstore\n        /* \"#utility.yul\":4909:5040   */\n      tag_187\n        /* \"#utility.yul\":5035:5039   */\n      dup2\n        /* \"#utility.yul\":4909:5040   */\n      tag_116\n      jump\t// in\n    tag_187:\n        /* \"#utility.yul\":4901:5040   */\n      swap1\n      pop\n        /* \"#utility.yul\":4628:5047   */\n      swap2\n      swap1\n      pop\n      jump\t// out\n        /* \"#utility.yul\":5053:5200   */\n    tag_117:\n        /* \"#utility.yul\":5154:5165   */\n      0x00\n        /* \"#utility.yul\":5191:5194   */\n      dup2\n        /* \"#utility.yul\":5176:5194   */\n      swap1\n      pop\n        /* \"#utility.yul\":5053:5200   */\n      swap3\n      swap2\n      pop\n      pop\n      jump\t// out\n        /* \"#utility.yul\":5206:5320   */\n    tag_118:\n      pop\n      jump\t// out\n        /* \"#utility.yul\":5326:5724   */\n    tag_119:\n        /* \"#utility.yul\":5485:5488   */\n      0x00\n        /* \"#utility.yul\":5506:5589   */\n      tag_191\n        /* \"#utility.yul\":5587:5588   */\n      0x00\n        /* \"#utility.yul\":5582:5585   */\n      dup4\n        /* \"#utility.yul\":5506:5589   */\n      tag_117\n      jump\t// in\n    tag_191:\n        /* \"#utility.yul\":5499:5589   */\n      swap2\n      pop\n        /* \"#utility.yul\":5598:5691   */\n      tag_192\n        /* \"#utility.yul\":5687:5690   */\n      dup3\n        /* \"#utility.yul\":5598:5691   */\n      tag_118\n      jump\t// in\n    tag_192:\n        /* \"#utility.yul\":5716:5717   */\n      0x00\n        /* \"#utility.yul\":5711:5714   */\n      dup3\n        /* \"#utility.yul\":5707:5718   */\n      add\n        /* \"#utility.yul\":5700:5718   */\n      swap1\n      pop\n        /* \"#utility.yul\":5326:5724   */\n      swap2\n      swap1\n      pop\n      jump\t// out\n        /* \"#utility.yul\":5730:6109   */\n    tag_46:\n        /* \"#utility.yul\":5914:5917   */\n      0x00\n        /* \"#utility.yul\":5936:6083   */\n      tag_194\n        /* \"#utility.yul\":6079:6082   */\n      dup3\n        /* \"#utility.yul\":5936:6083   */\n      tag_119\n      jump\t// in\n    tag_194:\n        /* \"#utility.yul\":5929:6083   */\n      swap2\n      pop\n        /* \"#utility.yul\":6100:6103   */\n      dup2\n        /* \"#utility.yul\":6093:6103   */\n      swap1\n      pop\n        /* \"#utility.yul\":5730:6109   */\n      swap2\n      swap1\n      pop\n      jump\t// out\n        /* \"#utility.yul\":6115:6288   */\n    tag_120:\n        /* \"#utility.yul\":6255:6280   */\n      0x726566756e64207472616e73666572206661696c65647e000000000000000000\n        /* \"#utility.yul\":6251:6252   */\n      0x00\n        /* \"#utility.yul\":6243:6249   */\n      dup3\n        /* \"#utility.yul\":6239:6253   */\n      add\n        /* \"#utility.yul\":6232:6281   */\n      mstore\n        /* \"#utility.yul\":6115:6288   */\n      pop\n      jump\t// out\n        /* \"#utility.yul\":6294:6660   */\n    tag_121:\n        /* \"#utility.yul\":6436:6439   */\n      0x00\n        /* \"#utility.yul\":6457:6524   */\n      tag_197\n        /* \"#utility.yul\":6521:6523   */\n      0x17\n        /* \"#utility.yul\":6516:6519   */\n      dup4\n        /* \"#utility.yul\":6457:6524   */\n      tag_110\n      jump\t// in\n    tag_197:\n        /* \"#utility.yul\":6450:6524   */\n      swap2\n      pop\n        /* \"#utility.yul\":6533:6626   */\n      tag_198\n        /* \"#utility.yul\":6622:6625   */\n      dup3\n        /* \"#utility.yul\":6533:6626   */\n      tag_120\n      jump\t// in\n    tag_198:\n        /* \"#utility.yul\":6651:6653   */\n      0x20\n        /* \"#utility.yul\":6646:6649   */\n      dup3\n        /* \"#utility.yul\":6642:6654   */\n      add\n        /* \"#utility.yul\":6635:6654   */\n      swap1\n      pop\n        /* \"#utility.yul\":6294:6660   */\n      swap2\n      swap1\n      pop\n      jump\t// out\n        /* \"#utility.yul\":6666:7085   */\n    tag_52:\n        /* \"#utility.yul\":6832:6836   */\n      0x00\n        /* \"#utility.yul\":6870:6872   */\n      0x20\n        /* \"#utility.yul\":6859:6868   */\n      dup3\n        /* \"#utility.yul\":6855:6873   */\n      add\n        /* \"#utility.yul\":6847:6873   */\n      swap1\n      pop\n        /* \"#utility.yul\":6919:6928   */\n      dup2\n        /* \"#utility.yul\":6913:6917   */\n      dup2\n        /* \"#utility.yul\":6909:6929   */\n      sub\n        /* \"#utility.yul\":6905:6906   */\n      0x00\n        /* \"#utility.yul\":6894:6903   */\n      dup4\n        /* \"#utility.yul\":6890:6907   */\n      add\n        /* \"#utility.yul\":6883:6930   */\n      mstore\n        /* \"#utility.yul\":6947:7078   */\n      tag_200\n        /* \"#utility.yul\":7073:7077   */\n      dup2\n        /* \"#utility.yul\":6947:7078   */\n      tag_121\n      jump\t// in\n    tag_200:\n        /* \"#utility.yul\":6939:7078   */\n      swap1\n      pop\n        /* \"#utility.yul\":6666:7085   */\n      swap2\n      swap1\n      pop\n      jump\t// out\n        /* \"#utility.yul\":7091:7267   */\n    tag_122:\n        /* \"#utility.yul\":7231:7259   */\n      0x796f75206e6f7420697320636f6e7472616374206f776e65727e000000000000\n        /* \"#utility.yul\":7227:7228   */\n      0x00\n        /* \"#utility.yul\":7219:7225   */\n      dup3\n        /* \"#utility.yul\":7215:7229   */\n      add\n        /* \"#utility.yul\":7208:7260   */\n      mstore\n        /* \"#utility.yul\":7091:7267   */\n      pop\n      jump\t// out\n        /* \"#utility.yul\":7273:7639   */\n    tag_123:\n        /* \"#utility.yul\":7415:7418   */\n      0x00\n        /* \"#utility.yul\":7436:7503   */\n      tag_203\n        /* \"#utility.yul\":7500:7502   */\n      0x1a\n        /* \"#utility.yul\":7495:7498   */\n      dup4\n        /* \"#utility.yul\":7436:7503   */\n      tag_110\n      jump\t// in\n    tag_203:\n        /* \"#utility.yul\":7429:7503   */\n      swap2\n      pop\n        /* \"#utility.yul\":7512:7605   */\n      tag_204\n        /* \"#utility.yul\":7601:7604   */\n      dup3\n        /* \"#utility.yul\":7512:7605   */\n      tag_122\n      jump\t// in\n    tag_204:\n        /* \"#utility.yul\":7630:7632   */\n      0x20\n        /* \"#utility.yul\":7625:7628   */\n      dup3\n        /* \"#utility.yul\":7621:7633   */\n      add\n        /* \"#utility.yul\":7614:7633   */\n      swap1\n      pop\n        /* \"#utility.yul\":7273:7639   */\n      swap2\n      swap1\n      pop\n      jump\t// out\n        /* \"#utility.yul\":7645:8064   */\n    tag_59:\n        /* \"#utility.yul\":7811:7815   */\n      0x00\n        /* \"#utility.yul\":7849:7851   */\n      0x20\n        /* \"#utility.yul\":7838:7847   */\n      dup3\n        /* \"#utility.yul\":7834:7852   */\n      add\n        /* \"#utility.yul\":7826:7852   */\n      swap1\n      pop\n        /* \"#utility.yul\":7898:7907   */\n      dup2\n        /* \"#utility.yul\":7892:7896   */\n      dup2\n        /* \"#utility.yul\":7888:7908   */\n      sub\n        /* \"#utility.yul\":7884:7885   */\n      0x00\n        /* \"#utility.yul\":7873:7882   */\n      dup4\n        /* \"#utility.yul\":7869:7886   */\n      add\n        /* \"#utility.yul\":7862:7909   */\n      mstore\n        /* \"#utility.yul\":7926:8057   */\n      tag_206\n        /* \"#utility.yul\":8052:8056   */\n      dup2\n        /* \"#utility.yul\":7926:8057   */\n      tag_123\n      jump\t// in\n    tag_206:\n        /* \"#utility.yul\":7918:8057   */\n      swap1\n      pop\n        /* \"#utility.yul\":7645:8064   */\n      swap2\n      swap1\n      pop\n      jump\t// out\n        /* \"#utility.yul\":8070:8242   */\n    tag_124:\n        /* \"#utility.yul\":8210:8234   */\n      0x746172676574206973206e6f7420726561636865647e00000000000000000000\n        /* \"#utility.yul\":8206:8207   */\n      0x00\n        /* \"#utility.yul\":8198:8204   */\n      dup3\n        /* \"#utility.yul\":8194:8208   */\n      add\n        /* \"#utility.yul\":8187:8235   */\n      mstore\n        /* \"#utility.yul\":8070:8242   */\n      pop\n      jump\t// out\n        /* \"#utility.yul\":8248:8614   */\n    tag_125:\n        /* \"#utility.yul\":8390:8393   */\n      0x00\n        /* \"#utility.yul\":8411:8478   */\n      tag_209\n        /* \"#utility.yul\":8475:8477   */\n      0x16\n        /* \"#utility.yul\":8470:8473   */\n      dup4\n        /* \"#utility.yul\":8411:8478   */\n      tag_110\n      jump\t// in\n    tag_209:\n        /* \"#utility.yul\":8404:8478   */\n      swap2\n      pop\n        /* \"#utility.yul\":8487:8580   */\n      tag_210\n        /* \"#utility.yul\":8576:8579   */\n      dup3\n        /* \"#utility.yul\":8487:8580   */\n      tag_124\n      jump\t// in\n    tag_210:\n        /* \"#utility.yul\":8605:8607   */\n      0x20\n        /* \"#utility.yul\":8600:8603   */\n      dup3\n        /* \"#utility.yul\":8596:8608   */\n      add\n        /* \"#utility.yul\":8589:8608   */\n      swap1\n      pop\n        /* \"#utility.yul\":8248:8614   */\n      swap2\n      swap1\n      pop\n      jump\t// out\n        /* \"#utility.yul\":8620:9039   */\n    tag_64:\n        /* \"#utility.yul\":8786:8790   */\n      0x00\n        /* \"#utility.yul\":8824:8826   */\n      0x20\n        /* \"#utility.yul\":8813:8822   */\n      dup3\n        /* \"#utility.yul\":8809:8827   */\n      add\n        /* \"#utility.yul\":8801:8827   */\n      swap1\n      pop\n        /* \"#utility.yul\":8873:8882   */\n      dup2\n        /* \"#utility.yul\":8867:8871   */\n      dup2\n        /* \"#utility.yul\":8863:8883   */\n      sub\n        /* \"#utility.yul\":8859:8860   */\n      0x00\n        /* \"#utility.yul\":8848:8857   */\n      dup4\n        /* \"#utility.yul\":8844:8861   */\n      add\n        /* \"#utility.yul\":8837:8884   */\n      mstore\n        /* \"#utility.yul\":8901:9032   */\n      tag_212\n        /* \"#utility.yul\":9027:9031   */\n      dup2\n        /* \"#utility.yul\":8901:9032   */\n      tag_125\n      jump\t// in\n    tag_212:\n        /* \"#utility.yul\":8893:9032   */\n      swap1\n      pop\n        /* \"#utility.yul\":8620:9039   */\n      swap2\n      swap1\n      pop\n      jump\t// out\n        /* \"#utility.yul\":9045:9216   */\n    tag_126:\n        /* \"#utility.yul\":9185:9208   */\n      0x64726177207472616e73666572206661696c65647e0000000000000000000000\n        /* \"#utility.yul\":9181:9182   */\n      0x00\n        /* \"#utility.yul\":9173:9179   */\n      dup3\n        /* \"#utility.yul\":9169:9183   */\n      add\n        /* \"#utility.yul\":9162:9209   */\n      mstore\n        /* \"#utility.yul\":9045:9216   */\n      pop\n      jump\t// out\n        /* \"#utility.yul\":9222:9588   */\n    tag_127:\n        /* \"#utility.yul\":9364:9367   */\n      0x00\n        /* \"#utility.yul\":9385:9452   */\n      tag_215\n        /* \"#utility.yul\":9449:9451   */\n      0x15\n        /* \"#utility.yul\":9444:9447   */\n      dup4\n        /* \"#utility.yul\":9385:9452   */\n      tag_110\n      jump\t// in\n    tag_215:\n        /* \"#utility.yul\":9378:9452   */\n      swap2\n      pop\n        /* \"#utility.yul\":9461:9554   */\n      tag_216\n        /* \"#utility.yul\":9550:9553   */\n      dup3\n        /* \"#utility.yul\":9461:9554   */\n      tag_126\n      jump\t// in\n    tag_216:\n        /* \"#utility.yul\":9579:9581   */\n      0x20\n        /* \"#utility.yul\":9574:9577   */\n      dup3\n        /* \"#utility.yul\":9570:9582   */\n      add\n        /* \"#utility.yul\":9563:9582   */\n      swap1\n      pop\n        /* \"#utility.yul\":9222:9588   */\n      swap2\n      swap1\n      pop\n      jump\t// out\n        /* \"#utility.yul\":9594:10013   */\n    tag_71:\n        /* \"#utility.yul\":9760:9764   */\n      0x00\n        /* \"#utility.yul\":9798:9800   */\n      0x20\n        /* \"#utility.yul\":9787:9796   */\n      dup3\n        /* \"#utility.yul\":9783:9801   */\n      add\n        /* \"#utility.yul\":9775:9801   */\n      swap1\n      pop\n        /* \"#utility.yul\":9847:9856   */\n      dup2\n        /* \"#utility.yul\":9841:9845   */\n      dup2\n        /* \"#utility.yul\":9837:9857   */\n      sub\n        /* \"#utility.yul\":9833:9834   */\n      0x00\n        /* \"#utility.yul\":9822:9831   */\n      dup4\n        /* \"#utility.yul\":9818:9835   */\n      add\n        /* \"#utility.yul\":9811:9858   */\n      mstore\n        /* \"#utility.yul\":9875:10006   */\n      tag_218\n        /* \"#utility.yul\":10001:10005   */\n      dup2\n        /* \"#utility.yul\":9875:10006   */\n      tag_127\n      jump\t// in\n    tag_218:\n        /* \"#utility.yul\":9867:10006   */\n      swap1\n      pop\n        /* \"#utility.yul\":9594:10013   */\n      swap2\n      swap1\n      pop\n      jump\t// out\n        /* \"#utility.yul\":10019:10183   */\n    tag_128:\n        /* \"#utility.yul\":10159:10175   */\n      0x66756e6420697320636c6f73657e000000000000000000000000000000000000\n        /* \"#utility.yul\":10155:10156   */\n      0x00\n        /* \"#utility.yul\":10147:10153   */\n      dup3\n        /* \"#utility.yul\":10143:10157   */\n      add\n        /* \"#utility.yul\":10136:10176   */\n      mstore\n        /* \"#utility.yul\":10019:10183   */\n      pop\n      jump\t// out\n        /* \"#utility.yul\":10189:10555   */\n    tag_129:\n        /* \"#utility.yul\":10331:10334   */\n      0x00\n        /* \"#utility.yul\":10352:10419   */\n      tag_221\n        /* \"#utility.yul\":10416:10418   */\n      0x0e\n        /* \"#utility.yul\":10411:10414   */\n      dup4\n        /* \"#utility.yul\":10352:10419   */\n      tag_110\n      jump\t// in\n    tag_221:\n        /* \"#utility.yul\":10345:10419   */\n      swap2\n      pop\n        /* \"#utility.yul\":10428:10521   */\n      tag_222\n        /* \"#utility.yul\":10517:10520   */\n      dup3\n        /* \"#utility.yul\":10428:10521   */\n      tag_128\n      jump\t// in\n    tag_222:\n        /* \"#utility.yul\":10546:10548   */\n      0x20\n        /* \"#utility.yul\":10541:10544   */\n      dup3\n        /* \"#utility.yul\":10537:10549   */\n      add\n        /* \"#utility.yul\":10530:10549   */\n      swap1\n      pop\n        /* \"#utility.yul\":10189:10555   */\n      swap2\n      swap1\n      pop\n      jump\t// out\n        /* \"#utility.yul\":10561:10980   */\n    tag_75:\n        /* \"#utility.yul\":10727:10731   */\n      0x00\n        /* \"#utility.yul\":10765:10767   */\n      0x20\n        /* \"#utility.yul\":10754:10763   */\n      dup3\n        /* \"#utility.yul\":10750:10768   */\n      add\n        /* \"#utility.yul\":10742:10768   */\n      swap1\n      pop\n        /* \"#utility.yul\":10814:10823   */\n      dup2\n        /* \"#utility.yul\":10808:10812   */\n      dup2\n        /* \"#utility.yul\":10804:10824   */\n      sub\n        /* \"#utility.yul\":10800:10801   */\n      0x00\n        /* \"#utility.yul\":10789:10798   */\n      dup4\n        /* \"#utility.yul\":10785:10802   */\n      add\n        /* \"#utility.yul\":10778:10825   */\n      mstore\n        /* \"#utility.yul\":10842:10973   */\n      tag_224\n        /* \"#utility.yul\":10968:10972   */\n      dup2\n        /* \"#utility.yul\":10842:10973   */\n      tag_129\n      jump\t// in\n    tag_224:\n        /* \"#utility.yul\":10834:10973   */\n      swap1\n      pop\n        /* \"#utility.yul\":10561:10980   */\n      swap2\n      swap1\n      pop\n      jump\t// out\n        /* \"#utility.yul\":10986:11150   */\n    tag_130:\n        /* \"#utility.yul\":11126:11142   */\n      0x796f7520686176652066756e647e000000000000000000000000000000000000\n        /* \"#utility.yul\":11122:11123   */\n      0x00\n        /* \"#utility.yul\":11114:11120   */\n      dup3\n        /* \"#utility.yul\":11110:11124   */\n      add\n        /* \"#utility.yul\":11103:11143   */\n      mstore\n        /* \"#utility.yul\":10986:11150   */\n      pop\n      jump\t// out\n        /* \"#utility.yul\":11156:11522   */\n    tag_131:\n        /* \"#utility.yul\":11298:11301   */\n      0x00\n        /* \"#utility.yul\":11319:11386   */\n      tag_227\n        /* \"#utility.yul\":11383:11385   */\n      0x0e\n        /* \"#utility.yul\":11378:11381   */\n      dup4\n        /* \"#utility.yul\":11319:11386   */\n      tag_110\n      jump\t// in\n    tag_227:\n        /* \"#utility.yul\":11312:11386   */\n      swap2\n      pop\n        /* \"#utility.yul\":11395:11488   */\n      tag_228\n        /* \"#utility.yul\":11484:11487   */\n      dup3\n        /* \"#utility.yul\":11395:11488   */\n      tag_130\n      jump\t// in\n    tag_228:\n        /* \"#utility.yul\":11513:11515   */\n      0x20\n        /* \"#utility.yul\":11508:11511   */\n      dup3\n        /* \"#utility.yul\":11504:11516   */\n      add\n        /* \"#utility.yul\":11497:11516   */\n      swap1\n      pop\n        /* \"#utility.yul\":11156:11522   */\n      swap2\n      swap1\n      pop\n      jump\t// out\n        /* \"#utility.yul\":11528:11947   */\n    tag_79:\n        /* \"#utility.yul\":11694:11698   */\n      0x00\n        /* \"#utility.yul\":11732:11734   */\n      0x20\n        /* \"#utility.yul\":11721:11730   */\n      dup3\n        /* \"#utility.yul\":11717:11735   */\n      add\n        /* \"#utility.yul\":11709:11735   */\n      swap1\n      pop\n        /* \"#utility.yul\":11781:11790   */\n      dup2\n        /* \"#utility.yul\":11775:11779   */\n      dup2\n        /* \"#utility.yul\":11771:11791   */\n      sub\n        /* \"#utility.yul\":11767:11768   */\n      0x00\n        /* \"#utility.yul\":11756:11765   */\n      dup4\n        /* \"#utility.yul\":11752:11769   */\n      add\n        /* \"#utility.yul\":11745:11792   */\n      mstore\n        /* \"#utility.yul\":11809:11940   */\n      tag_230\n        /* \"#utility.yul\":11935:11939   */\n      dup2\n        /* \"#utility.yul\":11809:11940   */\n      tag_131\n      jump\t// in\n    tag_230:\n        /* \"#utility.yul\":11801:11940   */\n      swap1\n      pop\n        /* \"#utility.yul\":11528:11947   */\n      swap2\n      swap1\n      pop\n      jump\t// out\n        /* \"#utility.yul\":11953:12117   */\n    tag_132:\n        /* \"#utility.yul\":12093:12109   */\n      0x73656e64206d6f7265206574687e000000000000000000000000000000000000\n        /* \"#utility.yul\":12089:12090   */\n      0x00\n        /* \"#utility.yul\":12081:12087   */\n      dup3\n        /* \"#utility.yul\":12077:12091   */\n      add\n        /* \"#utility.yul\":12070:12110   */\n      mstore\n        /* \"#utility.yul\":11953:12117   */\n      pop\n      jump\t// out\n        /* \"#utility.yul\":12123:12489   */\n    tag_133:\n        /* \"#utility.yul\":12265:12268   */\n      0x00\n        /* \"#utility.yul\":12286:12353   */\n      tag_233\n        /* \"#utility.yul\":12350:12352   */\n      0x0e\n        /* \"#utility.yul\":12345:12348   */\n      dup4\n        /* \"#utility.yul\":12286:12353   */\n      tag_110\n      jump\t// in\n    tag_233:\n        /* \"#utility.yul\":12279:12353   */\n      swap2\n      pop\n        /* \"#utility.yul\":12362:12455   */\n      tag_234\n        /* \"#utility.yul\":12451:12454   */\n      dup3\n        /* \"#utility.yul\":12362:12455   */\n      tag_132\n      jump\t// in\n    tag_234:\n        /* \"#utility.yul\":12480:12482   */\n      0x20\n        /* \"#utility.yul\":12475:12478   */\n      dup3\n        /* \"#utility.yul\":12471:12483   */\n      add\n        /* \"#utility.yul\":12464:12483   */\n      swap1\n      pop\n        /* \"#utility.yul\":12123:12489   */\n      swap2\n      swap1\n      pop\n      jump\t// out\n        /* \"#utility.yul\":12495:12914   */\n    tag_83:\n        /* \"#utility.yul\":12661:12665   */\n      0x00\n        /* \"#utility.yul\":12699:12701   */\n      0x20\n        /* \"#utility.yul\":12688:12697   */\n      dup3\n        /* \"#utility.yul\":12684:12702   */\n      add\n        /* \"#utility.yul\":12676:12702   */\n      swap1\n      pop\n        /* \"#utility.yul\":12748:12757   */\n      dup2\n        /* \"#utility.yul\":12742:12746   */\n      dup2\n        /* \"#utility.yul\":12738:12758   */\n      sub\n        /* \"#utility.yul\":12734:12735   */\n      0x00\n        /* \"#utility.yul\":12723:12732   */\n      dup4\n        /* \"#utility.yul\":12719:12736   */\n      add\n        /* \"#utility.yul\":12712:12759   */\n      mstore\n        /* \"#utility.yul\":12776:12907   */\n      tag_236\n        /* \"#utility.yul\":12902:12906   */\n      dup2\n        /* \"#utility.yul\":12776:12907   */\n      tag_133\n      jump\t// in\n    tag_236:\n        /* \"#utility.yul\":12768:12907   */\n      swap1\n      pop\n        /* \"#utility.yul\":12495:12914   */\n      swap2\n      swap1\n      pop\n      jump\t// out\n        /* \"#utility.yul\":12920:13100   */\n    tag_134:\n        /* \"#utility.yul\":12968:13045   */\n      0x4e487b7100000000000000000000000000000000000000000000000000000000\n        /* \"#utility.yul\":12965:12966   */\n      0x00\n        /* \"#utility.yul\":12958:13046   */\n      mstore\n        /* \"#utility.yul\":13065:13069   */\n      0x11\n        /* \"#utility.yul\":13062:13063   */\n      0x04\n        /* \"#utility.yul\":13055:13070   */\n      mstore\n        /* \"#utility.yul\":13089:13093   */\n      0x24\n        /* \"#utility.yul\":13086:13087   */\n      0x00\n        /* \"#utility.yul\":13079:13094   */\n      revert\n        /* \"#utility.yul\":13106:13516   */\n    tag_92:\n        /* \"#utility.yul\":13146:13153   */\n      0x00\n        /* \"#utility.yul\":13169:13189   */\n      tag_239\n        /* \"#utility.yul\":13187:13188   */\n      dup3\n        /* \"#utility.yul\":13169:13189   */\n      tag_107\n      jump\t// in\n    tag_239:\n        /* \"#utility.yul\":13164:13189   */\n      swap2\n      pop\n        /* \"#utility.yul\":13203:13223   */\n      tag_240\n        /* \"#utility.yul\":13221:13222   */\n      dup4\n        /* \"#utility.yul\":13203:13223   */\n      tag_107\n      jump\t// in\n    tag_240:\n        /* \"#utility.yul\":13198:13223   */\n      swap3\n      pop\n        /* \"#utility.yul\":13258:13259   */\n      dup3\n        /* \"#utility.yul\":13255:13256   */\n      dup3\n        /* \"#utility.yul\":13251:13260   */\n      mul\n        /* \"#utility.yul\":13280:13310   */\n      tag_241\n        /* \"#utility.yul\":13298:13309   */\n      dup2\n        /* \"#utility.yul\":13280:13310   */\n      tag_107\n      jump\t// in\n    tag_241:\n        /* \"#utility.yul\":13269:13310   */\n      swap2\n      pop\n        /* \"#utility.yul\":13459:13460   */\n      dup3\n        /* \"#utility.yul\":13450:13457   */\n      dup3\n        /* \"#utility.yul\":13446:13461   */\n      div\n        /* \"#utility.yul\":13443:13444   */\n      dup5\n        /* \"#utility.yul\":13440:13462   */\n      eq\n        /* \"#utility.yul\":13420:13421   */\n      dup4\n        /* \"#utility.yul\":13413:13422   */\n      iszero\n        /* \"#utility.yul\":13393:13476   */\n      or\n        /* \"#utility.yul\":13370:13509   */\n      tag_242\n      jumpi\n        /* \"#utility.yul\":13489:13507   */\n      tag_243\n      tag_134\n      jump\t// in\n    tag_243:\n        /* \"#utility.yul\":13370:13509   */\n    tag_242:\n        /* \"#utility.yul\":13154:13516   */\n      pop\n        /* \"#utility.yul\":13106:13516   */\n      swap3\n      swap2\n      pop\n      pop\n      jump\t// out\n        /* \"#utility.yul\":13522:13702   */\n    tag_135:\n        /* \"#utility.yul\":13570:13647   */\n      0x4e487b7100000000000000000000000000000000000000000000000000000000\n        /* \"#utility.yul\":13567:13568   */\n      0x00\n        /* \"#utility.yul\":13560:13648   */\n      mstore\n        /* \"#utility.yul\":13667:13671   */\n      0x12\n        /* \"#utility.yul\":13664:13665   */\n      0x04\n        /* \"#utility.yul\":13657:13672   */\n      mstore\n        /* \"#utility.yul\":13691:13695   */\n      0x24\n        /* \"#utility.yul\":13688:13689   */\n      0x00\n        /* \"#utility.yul\":13681:13696   */\n      revert\n        /* \"#utility.yul\":13708:13893   */\n    tag_94:\n        /* \"#utility.yul\":13748:13749   */\n      0x00\n        /* \"#utility.yul\":13765:13785   */\n      tag_246\n        /* \"#utility.yul\":13783:13784   */\n      dup3\n        /* \"#utility.yul\":13765:13785   */\n      tag_107\n      jump\t// in\n    tag_246:\n        /* \"#utility.yul\":13760:13785   */\n      swap2\n      pop\n        /* \"#utility.yul\":13799:13819   */\n      tag_247\n        /* \"#utility.yul\":13817:13818   */\n      dup4\n        /* \"#utility.yul\":13799:13819   */\n      tag_107\n      jump\t// in\n    tag_247:\n        /* \"#utility.yul\":13794:13819   */\n      swap3\n      pop\n        /* \"#utility.yul\":13838:13839   */\n      dup3\n        /* \"#utility.yul\":13828:13863   */\n      tag_248\n      jumpi\n        /* \"#utility.yul\":13843:13861   */\n      tag_249\n      tag_135\n      jump\t// in\n    tag_249:\n        /* \"#utility.yul\":13828:13863   */\n    tag_248:\n        /* \"#utility.yul\":13885:13886   */\n      dup3\n        /* \"#utility.yul\":13882:13883   */\n      dup3\n        /* \"#utility.yul\":13878:13887   */\n      div\n        /* \"#utility.yul\":13873:13887   */\n      swap1\n      pop\n        /* \"#utility.yul\":13708:13893   */\n      swap3\n      swap2\n      pop\n      pop\n      jump\t// out\n        /* \"#utility.yul\":13899:14004   */\n    tag_136:\n        /* \"#utility.yul\":13935:13942   */\n      0x00\n        /* \"#utility.yul\":13975:13997   */\n      0xffffffffffffffffffff\n        /* \"#utility.yul\":13968:13973   */\n      dup3\n        /* \"#utility.yul\":13964:13998   */\n      and\n        /* \"#utility.yul\":13953:13998   */\n      swap1\n      pop\n        /* \"#utility.yul\":13899:14004   */\n      swap2\n      swap1\n      pop\n      jump\t// out\n        /* \"#utility.yul\":14010:14130   */\n    tag_137:\n        /* \"#utility.yul\":14082:14105   */\n      tag_252\n        /* \"#utility.yul\":14099:14104   */\n      dup2\n        /* \"#utility.yul\":14082:14105   */\n      tag_136\n      jump\t// in\n    tag_252:\n        /* \"#utility.yul\":14075:14080   */\n      dup2\n        /* \"#utility.yul\":14072:14106   */\n      eq\n        /* \"#utility.yul\":14062:14124   */\n      tag_253\n      jumpi\n        /* \"#utility.yul\":14120:14121   */\n      0x00\n        /* \"#utility.yul\":14117:14118   */\n      dup1\n        /* \"#utility.yul\":14110:14122   */\n      revert\n        /* \"#utility.yul\":14062:14124   */\n    tag_253:\n        /* \"#utility.yul\":14010:14130   */\n      pop\n      jump\t// out\n        /* \"#utility.yul\":14136:14277   */\n    tag_138:\n        /* \"#utility.yul\":14192:14197   */\n      0x00\n        /* \"#utility.yul\":14223:14229   */\n      dup2\n        /* \"#utility.yul\":14217:14230   */\n      mload\n        /* \"#utility.yul\":14208:14230   */\n      swap1\n      pop\n        /* \"#utility.yul\":14239:14271   */\n      tag_255\n        /* \"#utility.yul\":14265:14270   */\n      dup2\n        /* \"#utility.yul\":14239:14271   */\n      tag_137\n      jump\t// in\n    tag_255:\n        /* \"#utility.yul\":14136:14277   */\n      swap3\n      swap2\n      pop\n      pop\n      jump\t// out\n        /* \"#utility.yul\":14283:14359   */\n    tag_139:\n        /* \"#utility.yul\":14319:14326   */\n      0x00\n        /* \"#utility.yul\":14348:14353   */\n      dup2\n        /* \"#utility.yul\":14337:14353   */\n      swap1\n      pop\n        /* \"#utility.yul\":14283:14359   */\n      swap2\n      swap1\n      pop\n      jump\t// out\n        /* \"#utility.yul\":14365:14485   */\n    tag_140:\n        /* \"#utility.yul\":14437:14460   */\n      tag_258\n        /* \"#utility.yul\":14454:14459   */\n      dup2\n        /* \"#utility.yul\":14437:14460   */\n      tag_139\n      jump\t// in\n    tag_258:\n        /* \"#utility.yul\":14430:14435   */\n      dup2\n        /* \"#utility.yul\":14427:14461   */\n      eq\n        /* \"#utility.yul\":14417:14479   */\n      tag_259\n      jumpi\n        /* \"#utility.yul\":14475:14476   */\n      0x00\n        /* \"#utility.yul\":14472:14473   */\n      dup1\n        /* \"#utility.yul\":14465:14477   */\n      revert\n        /* \"#utility.yul\":14417:14479   */\n    tag_259:\n        /* \"#utility.yul\":14365:14485   */\n      pop\n      jump\t// out\n        /* \"#utility.yul\":14491:14632   */\n    tag_141:\n        /* \"#utility.yul\":14547:14552   */\n      0x00\n        /* \"#utility.yul\":14578:14584   */\n      dup2\n        /* \"#utility.yul\":14572:14585   */\n      mload\n        /* \"#utility.yul\":14563:14585   */\n      swap1\n      pop\n        /* \"#utility.yul\":14594:14626   */\n      tag_261\n        /* \"#utility.yul\":14620:14625   */\n      dup2\n        /* \"#utility.yul\":14594:14626   */\n      tag_140\n      jump\t// in\n    tag_261:\n        /* \"#utility.yul\":14491:14632   */\n      swap3\n      swap2\n      pop\n      pop\n      jump\t// out\n        /* \"#utility.yul\":14638:14760   */\n    tag_142:\n        /* \"#utility.yul\":14711:14735   */\n      tag_263\n        /* \"#utility.yul\":14729:14734   */\n      dup2\n        /* \"#utility.yul\":14711:14735   */\n      tag_107\n      jump\t// in\n    tag_263:\n        /* \"#utility.yul\":14704:14709   */\n      dup2\n        /* \"#utility.yul\":14701:14736   */\n      eq\n        /* \"#utility.yul\":14691:14754   */\n      tag_264\n      jumpi\n        /* \"#utility.yul\":14750:14751   */\n      0x00\n        /* \"#utility.yul\":14747:14748   */\n      dup1\n        /* \"#utility.yul\":14740:14752   */\n      revert\n        /* \"#utility.yul\":14691:14754   */\n    tag_264:\n        /* \"#utility.yul\":14638:14760   */\n      pop\n      jump\t// out\n        /* \"#utility.yul\":14766:14909   */\n    tag_143:\n        /* \"#utility.yul\":14823:14828   */\n      0x00\n        /* \"#utility.yul\":14854:14860   */\n      dup2\n        /* \"#utility.yul\":14848:14861   */\n      mload\n        /* \"#utility.yul\":14839:14861   */\n      swap1\n      pop\n        /* \"#utility.yul\":14870:14903   */\n      tag_266\n        /* \"#utility.yul\":14897:14902   */\n      dup2\n        /* \"#utility.yul\":14870:14903   */\n      tag_142\n      jump\t// in\n    tag_266:\n        /* \"#utility.yul\":14766:14909   */\n      swap3\n      swap2\n      pop\n      pop\n      jump\t// out\n        /* \"#utility.yul\":14915:15886   */\n    tag_99:\n        /* \"#utility.yul\":15018:15024   */\n      0x00\n        /* \"#utility.yul\":15026:15032   */\n      dup1\n        /* \"#utility.yul\":15034:15040   */\n      0x00\n        /* \"#utility.yul\":15042:15048   */\n      dup1\n        /* \"#utility.yul\":15050:15056   */\n      0x00\n        /* \"#utility.yul\":15099:15102   */\n      0xa0\n        /* \"#utility.yul\":15087:15096   */\n      dup7\n        /* \"#utility.yul\":15078:15085   */\n      dup9\n        /* \"#utility.yul\":15074:15097   */\n      sub\n        /* \"#utility.yul\":15070:15103   */\n      slt\n        /* \"#utility.yul\":15067:15187   */\n      iszero\n      tag_268\n      jumpi\n        /* \"#utility.yul\":15106:15185   */\n      tag_269\n      tag_101\n      jump\t// in\n    tag_269:\n        /* \"#utility.yul\":15067:15187   */\n    tag_268:\n        /* \"#utility.yul\":15226:15227   */\n      0x00\n        /* \"#utility.yul\":15251:15314   */\n      tag_270\n        /* \"#utility.yul\":15306:15313   */\n      dup9\n        /* \"#utility.yul\":15297:15303   */\n      dup3\n        /* \"#utility.yul\":15286:15295   */\n      dup10\n        /* \"#utility.yul\":15282:15304   */\n      add\n        /* \"#utility.yul\":15251:15314   */\n      tag_138\n      jump\t// in\n    tag_270:\n        /* \"#utility.yul\":15241:15314   */\n      swap6\n      pop\n        /* \"#utility.yul\":15197:15324   */\n      pop\n        /* \"#utility.yul\":15363:15365   */\n      0x20\n        /* \"#utility.yul\":15389:15452   */\n      tag_271\n        /* \"#utility.yul\":15444:15451   */\n      dup9\n        /* \"#utility.yul\":15435:15441   */\n      dup3\n        /* \"#utility.yul\":15424:15433   */\n      dup10\n        /* \"#utility.yul\":15420:15442   */\n      add\n        /* \"#utility.yul\":15389:15452   */\n      tag_141\n      jump\t// in\n    tag_271:\n        /* \"#utility.yul\":15379:15452   */\n      swap5\n      pop\n        /* \"#utility.yul\":15334:15462   */\n      pop\n        /* \"#utility.yul\":15501:15503   */\n      0x40\n        /* \"#utility.yul\":15527:15591   */\n      tag_272\n        /* \"#utility.yul\":15583:15590   */\n      dup9\n        /* \"#utility.yul\":15574:15580   */\n      dup3\n        /* \"#utility.yul\":15563:15572   */\n      dup10\n        /* \"#utility.yul\":15559:15581   */\n      add\n        /* \"#utility.yul\":15527:15591   */\n      tag_143\n      jump\t// in\n    tag_272:\n        /* \"#utility.yul\":15517:15591   */\n      swap4\n      pop\n        /* \"#utility.yul\":15472:15601   */\n      pop\n        /* \"#utility.yul\":15640:15642   */\n      0x60\n        /* \"#utility.yul\":15666:15730   */\n      tag_273\n        /* \"#utility.yul\":15722:15729   */\n      dup9\n        /* \"#utility.yul\":15713:15719   */\n      dup3\n        /* \"#utility.yul\":15702:15711   */\n      dup10\n        /* \"#utility.yul\":15698:15720   */\n      add\n        /* \"#utility.yul\":15666:15730   */\n      tag_143\n      jump\t// in\n    tag_273:\n        /* \"#utility.yul\":15656:15730   */\n      swap3\n      pop\n        /* \"#utility.yul\":15611:15740   */\n      pop\n        /* \"#utility.yul\":15779:15782   */\n      0x80\n        /* \"#utility.yul\":15806:15869   */\n      tag_274\n        /* \"#utility.yul\":15861:15868   */\n      dup9\n        /* \"#utility.yul\":15852:15858   */\n      dup3\n        /* \"#utility.yul\":15841:15850   */\n      dup10\n        /* \"#utility.yul\":15837:15859   */\n      add\n        /* \"#utility.yul\":15806:15869   */\n      tag_138\n      jump\t// in\n    tag_274:\n        /* \"#utility.yul\":15796:15869   */\n      swap2\n      pop\n        /* \"#utility.yul\":15750:15879   */\n      pop\n        /* \"#utility.yul\":14915:15886   */\n      swap3\n      swap6\n      pop\n      swap3\n      swap6\n      swap1\n      swap4\n      pop\n      jump\t// out\n\n    auxdata: 0xa2646970667358221220152651ef422d602d41a339e91caf9f45d820f0fd407a7af6fbaaeb5abfe7a0c164736f6c63430008180033\n}\n",
				"bytecode": {
					"linkReferences": {},
					"object": "608060405234801562000010575f80fd5b50604051620011bb380380620011bb833981810160405281019062000036919062000129565b73694aa1769357215de4fac081bf1f309adc3253065f806101000a81548173ffffffffffffffffffffffffffffffffffffffff021916908373ffffffffffffffffffffffffffffffffffffffff1602179055503360015f6101000a81548173ffffffffffffffffffffffffffffffffffffffff021916908373ffffffffffffffffffffffffffffffffffffffff1602179055504260038190555080600354620000e0919062000186565b60048190555050620001c0565b5f80fd5b5f819050919050565b6200010581620000f1565b811462000110575f80fd5b50565b5f815190506200012381620000fa565b92915050565b5f60208284031215620001415762000140620000ed565b5b5f620001508482850162000113565b91505092915050565b7f4e487b71000000000000000000000000000000000000000000000000000000005f52601160045260245ffd5b5f6200019282620000f1565b91506200019f83620000f1565b9250828201905080821115620001ba57620001b962000159565b5b92915050565b610fed80620001ce5f395ff3fe608060405260043610610054575f3560e01c8063590e1ae314610058578063749141bc1461006e578063b60d428814610084578063b82ffdf91461008e578063e7b59bf3146100ca578063fd301c49146100f2575b5f80fd5b348015610063575f80fd5b5061006c61011c565b005b348015610079575f80fd5b50610082610357565b005b61008c610566565b005b348015610099575f80fd5b506100b460048036038101906100af91906108f4565b6106b9565b6040516100c19190610937565b60405180910390f35b3480156100d5575f80fd5b506100f060048036038101906100eb91906108f4565b6106ce565b005b3480156100fd575f80fd5b506101066107a0565b604051610113919061095f565b60405180910390f35b600454421015610161576040517f08c379a0000000000000000000000000000000000000000000000000000000008152600401610158906109d2565b60405180910390fd5b601e61016c476107c5565b106101ac576040517f08c379a00000000000000000000000000000000000000000000000000000000081526004016101a390610a3a565b60405180910390fd5b5f60025f3373ffffffffffffffffffffffffffffffffffffffff1673ffffffffffffffffffffffffffffffffffffffff1681526020019081526020015f20540361022b576040517f08c379a000000000000000000000000000000000000000000000000000000000815260040161022290610aa2565b60405180910390fd5b5f60025f3373ffffffffffffffffffffffffffffffffffffffff1673ffffffffffffffffffffffffffffffffffffffff1681526020019081526020015f20819055505f3373ffffffffffffffffffffffffffffffffffffffff1660025f3373ffffffffffffffffffffffffffffffffffffffff1673ffffffffffffffffffffffffffffffffffffffff1681526020019081526020015f20546040516102cf90610aed565b5f6040518083038185875af1925050503d805f8114610309576040519150601f19603f3d011682016040523d82523d5f602084013e61030e565b606091505b50508091505080610354576040517f08c379a000000000000000000000000000000000000000000000000000000000815260040161034b90610b4b565b60405180910390fd5b50565b60045442101561039c576040517f08c379a0000000000000000000000000000000000000000000000000000000008152600401610393906109d2565b60405180910390fd5b60015f9054906101000a900473ffffffffffffffffffffffffffffffffffffffff1673ffffffffffffffffffffffffffffffffffffffff163373ffffffffffffffffffffffffffffffffffffffff161461042b576040517f08c379a000000000000000000000000000000000000000000000000000000000815260040161042290610bb3565b60405180910390fd5b601e610436476107c5565b1015610477576040517f08c379a000000000000000000000000000000000000000000000000000000000815260040161046e90610c1b565b60405180910390fd5b5f3373ffffffffffffffffffffffffffffffffffffffff164760405161049c90610aed565b5f6040518083038185875af1925050503d805f81146104d6576040519150601f19603f3d011682016040523d82523d5f602084013e6104db565b606091505b50508091505080610521576040517f08c379a000000000000000000000000000000000000000000000000000000000815260040161051890610c83565b60405180910390fd5b5f60025f3373ffffffffffffffffffffffffffffffffffffffff1673ffffffffffffffffffffffffffffffffffffffff1681526020019081526020015f208190555050565b60045442106105aa576040517f08c379a00000000000000000000000000000000000000000000000000000000081526004016105a190610ceb565b60405180910390fd5b5f60025f3373ffffffffffffffffffffffffffffffffffffffff1673ffffffffffffffffffffffffffffffffffffffff1681526020019081526020015f205414610629576040517f08c379a000000000000000000000000000000000000000000000000000000000815260040161062090610d53565b60405180910390fd5b600a610634346107c5565b1015610675576040517f08c379a000000000000000000000000000000000000000000000000000000000815260040161066c90610dbb565b60405180910390fd5b3460025f3373ffffffffffffffffffffffffffffffffffffffff1673ffffffffffffffffffffffffffffffffffffffff1681526020019081526020015f2081905550565b6002602052805f5260405f205f915090505481565b60015f9054906101000a900473ffffffffffffffffffffffffffffffffffffffff1673ffffffffffffffffffffffffffffffffffffffff163373ffffffffffffffffffffffffffffffffffffffff161461075d576040517f08c379a000000000000000000000000000000000000000000000000000000000815260040161075490610bb3565b60405180910390fd5b8060015f6101000a81548173ffffffffffffffffffffffffffffffffffffffff021916908373ffffffffffffffffffffffffffffffffffffffff16021790555050565b60015f9054906101000a900473ffffffffffffffffffffffffffffffffffffffff1681565b5f806107cf6107fb565b90506a52b7d2dcc80cd2e400000083826107e99190610e06565b6107f39190610e74565b915050919050565b5f805f8054906101000a900473ffffffffffffffffffffffffffffffffffffffff1673ffffffffffffffffffffffffffffffffffffffff1663feaf968c6040518163ffffffff1660e01b815260040160a060405180830381865afa158015610865573d5f803e3d5ffd5b505050506040513d601f19601f820116820180604052508101906108899190610f40565b5050509150508091505090565b5f80fd5b5f73ffffffffffffffffffffffffffffffffffffffff82169050919050565b5f6108c38261089a565b9050919050565b6108d3816108b9565b81146108dd575f80fd5b50565b5f813590506108ee816108ca565b92915050565b5f6020828403121561090957610908610896565b5b5f610916848285016108e0565b91505092915050565b5f819050919050565b6109318161091f565b82525050565b5f60208201905061094a5f830184610928565b92915050565b610959816108b9565b82525050565b5f6020820190506109725f830184610950565b92915050565b5f82825260208201905092915050565b7f66756e6420697320657865637e000000000000000000000000000000000000005f82015250565b5f6109bc600d83610978565b91506109c782610988565b602082019050919050565b5f6020820190508181035f8301526109e9816109b0565b9050919050565b7f74617267657420697320726561636865647e00000000000000000000000000005f82015250565b5f610a24601283610978565b9150610a2f826109f0565b602082019050919050565b5f6020820190508181035f830152610a5181610a18565b9050919050565b7f7468657265206973206e6f2066756e6420666f7220796f757e000000000000005f82015250565b5f610a8c601983610978565b9150610a9782610a58565b602082019050919050565b5f6020820190508181035f830152610ab981610a80565b9050919050565b5f81905092915050565b50565b5f610ad85f83610ac0565b9150610ae382610aca565b5f82019050919050565b5f610af782610acd565b9150819050919050565b7f726566756e64207472616e73666572206661696c65647e0000000000000000005f82015250565b5f610b35601783610978565b9150610b4082610b01565b602082019050919050565b5f6020820190508181035f830152610b6281610b29565b9050919050565b7f796f75206e6f7420697320636f6e7472616374206f776e65727e0000000000005f82015250565b5f610b9d601a83610978565b9150610ba882610b69565b602082019050919050565b5f6020820190508181035f830152610bca81610b91565b9050919050565b7f746172676574206973206e6f7420726561636865647e000000000000000000005f82015250565b5f610c05601683610978565b9150610c1082610bd1565b602082019050919050565b5f6020820190508181035f830152610c3281610bf9565b9050919050565b7f64726177207472616e73666572206661696c65647e00000000000000000000005f82015250565b5f610c6d601583610978565b9150610c7882610c39565b602082019050919050565b5f6020820190508181035f830152610c9a81610c61565b9050919050565b7f66756e6420697320636c6f73657e0000000000000000000000000000000000005f82015250565b5f610cd5600e83610978565b9150610ce082610ca1565b602082019050919050565b5f6020820190508181035f830152610d0281610cc9565b9050919050565b7f796f7520686176652066756e647e0000000000000000000000000000000000005f82015250565b5f610d3d600e83610978565b9150610d4882610d09565b602082019050919050565b5f6020820190508181035f830152610d6a81610d31565b9050919050565b7f73656e64206d6f7265206574687e0000000000000000000000000000000000005f82015250565b5f610da5600e83610978565b9150610db082610d71565b602082019050919050565b5f6020820190508181035f830152610dd281610d99565b9050919050565b7f4e487b71000000000000000000000000000000000000000000000000000000005f52601160045260245ffd5b5f610e108261091f565b9150610e1b8361091f565b9250828202610e298161091f565b91508282048414831517610e4057610e3f610dd9565b5b5092915050565b7f4e487b71000000000000000000000000000000000000000000000000000000005f52601260045260245ffd5b5f610e7e8261091f565b9150610e898361091f565b925082610e9957610e98610e47565b5b828204905092915050565b5f69ffffffffffffffffffff82169050919050565b610ec281610ea4565b8114610ecc575f80fd5b50565b5f81519050610edd81610eb9565b92915050565b5f819050919050565b610ef581610ee3565b8114610eff575f80fd5b50565b5f81519050610f1081610eec565b92915050565b610f1f8161091f565b8114610f29575f80fd5b50565b5f81519050610f3a81610f16565b92915050565b5f805f805f60a08688031215610f5957610f58610896565b5b5f610f6688828901610ecf565b9550506020610f7788828901610f02565b9450506040610f8888828901610f2c565b9350506060610f9988828901610f2c565b9250506080610faa88828901610ecf565b915050929550929590935056fea2646970667358221220152651ef422d602d41a339e91caf9f45d820f0fd407a7af6fbaaeb5abfe7a0c164736f6c63430008180033",
					"opcodes": "PUSH1 0x80 PUSH1 0x40 MSTORE CALLVALUE DUP1 ISZERO PUSH3 0x10 JUMPI PUSH0 DUP1 REVERT JUMPDEST POP PUSH1 0x40 MLOAD PUSH3 0x11BB CODESIZE SUB DUP1 PUSH3 0x11BB DUP4 CODECOPY DUP2 DUP2 ADD PUSH1 0x40 MSTORE DUP2 ADD SWAP1 PUSH3 0x36 SWAP2 SWAP1 PUSH3 0x129 JUMP JUMPDEST PUSH20 0x694AA1769357215DE4FAC081BF1F309ADC325306 PUSH0 DUP1 PUSH2 0x100 EXP DUP2 SLOAD DUP2 PUSH20 0xFFFFFFFFFFFFFFFFFFFFFFFFFFFFFFFFFFFFFFFF MUL NOT AND SWAP1 DUP4 PUSH20 0xFFFFFFFFFFFFFFFFFFFFFFFFFFFFFFFFFFFFFFFF AND MUL OR SWAP1 SSTORE POP CALLER PUSH1 0x1 PUSH0 PUSH2 0x100 EXP DUP2 SLOAD DUP2 PUSH20 0xFFFFFFFFFFFFFFFFFFFFFFFFFFFFFFFFFFFFFFFF MUL NOT AND SWAP1 DUP4 PUSH20 0xFFFFFFFFFFFFFFFFFFFFFFFFFFFFFFFFFFFFFFFF AND MUL OR SWAP1 SSTORE POP TIMESTAMP PUSH1 0x3 DUP2 SWAP1 SSTORE POP DUP1 PUSH1 0x3 SLOAD PUSH3 0xE0 SWAP2 SWAP1 PUSH3 0x186 JUMP JUMPDEST PUSH1 0x4 DUP2 SWAP1 SSTORE POP POP PUSH3 0x1C0 JUMP JUMPDEST PUSH0 DUP1 REVERT JUMPDEST PUSH0 DUP2 SWAP1 POP SWAP2 SWAP1 POP JUMP JUMPDEST PUSH3 0x105 DUP2 PUSH3 0xF1 JUMP JUMPDEST DUP2 EQ PUSH3 0x110 JUMPI PUSH0 DUP1 REVERT JUMPDEST POP JUMP JUMPDEST PUSH0 DUP2 MLOAD SWAP1 POP PUSH3 0x123 DUP2 PUSH3 0xFA JUMP JUMPDEST SWAP3 SWAP2 POP POP JUMP JUMPDEST PUSH0 PUSH1 0x20 DUP3 DUP5 SUB SLT ISZERO PUSH3 0x141 JUMPI PUSH3 0x140 PUSH3 0xED JUMP JUMPDEST JUMPDEST PUSH0 PUSH3 0x150 DUP5 DUP3 DUP6 ADD PUSH3 0x113 JUMP JUMPDEST SWAP2 POP POP SWAP3 SWAP2 POP POP JUMP JUMPDEST PUSH32 0x4E487B7100000000000000000000000000000000000000000000000000000000 PUSH0 MSTORE PUSH1 0x11 PUSH1 0x4 MSTORE PUSH1 0x24 PUSH0 REVERT JUMPDEST PUSH0 PUSH3 0x192 DUP3 PUSH3 0xF1 JUMP JUMPDEST SWAP2 POP PUSH3 0x19F DUP4 PUSH3 0xF1 JUMP JUMPDEST SWAP3 POP DUP3 DUP3 ADD SWAP1 POP DUP1 DUP3 GT ISZERO PUSH3 0x1BA JUMPI PUSH3 0x1B9 PUSH3 0x159 JUMP JUMPDEST JUMPDEST SWAP3 SWAP2 POP POP JUMP JUMPDEST PUSH2 0xFED DUP1 PUSH3 0x1CE PUSH0 CODECOPY PUSH0 RETURN INVALID PUSH1 0x80 PUSH1 0x40 MSTORE PUSH1 0x4 CALLDATASIZE LT PUSH2 0x54 JUMPI PUSH0 CALLDATALOAD PUSH1 0xE0 SHR DUP1 PUSH4 0x590E1AE3 EQ PUSH2 0x58 JUMPI DUP1 PUSH4 0x749141BC EQ PUSH2 0x6E JUMPI DUP1 PUSH4 0xB60D4288 EQ PUSH2 0x84 JUMPI DUP1 PUSH4 0xB82FFDF9 EQ PUSH2 0x8E JUMPI DUP1 PUSH4 0xE7B59BF3 EQ PUSH2 0xCA JUMPI DUP1 PUSH4 0xFD301C49 EQ PUSH2 0xF2 JUMPI JUMPDEST PUSH0 DUP1 REVERT JUMPDEST CALLVALUE DUP1 ISZERO PUSH2 0x63 JUMPI PUSH0 DUP1 REVERT JUMPDEST POP PUSH2 0x6C PUSH2 0x11C JUMP JUMPDEST STOP JUMPDEST CALLVALUE DUP1 ISZERO PUSH2 0x79 JUMPI PUSH0 DUP1 REVERT JUMPDEST POP PUSH2 0x82 PUSH2 0x357 JUMP JUMPDEST STOP JUMPDEST PUSH2 0x8C PUSH2 0x566 JUMP JUMPDEST STOP JUMPDEST CALLVALUE DUP1 ISZERO PUSH2 0x99 JUMPI PUSH0 DUP1 REVERT JUMPDEST POP PUSH2 0xB4 PUSH1 0x4 DUP1 CALLDATASIZE SUB DUP2 ADD SWAP1 PUSH2 0xAF SWAP2 SWAP1 PUSH2 0x8F4 JUMP JUMPDEST PUSH2 0x6B9 JUMP JUMPDEST PUSH1 0x40 MLOAD PUSH2 0xC1 SWAP2 SWAP1 PUSH2 0x937 JUMP JUMPDEST PUSH1 0x40 MLOAD DUP1 SWAP2 SUB SWAP1 RETURN JUMPDEST CALLVALUE DUP1 ISZERO PUSH2 0xD5 JUMPI PUSH0 DUP1 REVERT JUMPDEST POP PUSH2 0xF0 PUSH1 0x4 DUP1 CALLDATASIZE SUB DUP2 ADD SWAP1 PUSH2 0xEB SWAP2 SWAP1 PUSH2 0x8F4 JUMP JUMPDEST PUSH2 0x6CE JUMP JUMPDEST STOP JUMPDEST CALLVALUE DUP1 ISZERO PUSH2 0xFD JUMPI PUSH0 DUP1 REVERT JUMPDEST POP PUSH2 0x106 PUSH2 0x7A0 JUMP JUMPDEST PUSH1 0x40 MLOAD PUSH2 0x113 SWAP2 SWAP1 PUSH2 0x95F JUMP JUMPDEST PUSH1 0x40 MLOAD DUP1 SWAP2 SUB SWAP1 RETURN JUMPDEST PUSH1 0x4 SLOAD TIMESTAMP LT ISZERO PUSH2 0x161 JUMPI PUSH1 0x40 MLOAD PUSH32 0x8C379A000000000000000000000000000000000000000000000000000000000 DUP2 MSTORE PUSH1 0x4 ADD PUSH2 0x158 SWAP1 PUSH2 0x9D2 JUMP JUMPDEST PUSH1 0x40 MLOAD DUP1 SWAP2 SUB SWAP1 REVERT JUMPDEST PUSH1 0x1E PUSH2 0x16C SELFBALANCE PUSH2 0x7C5 JUMP JUMPDEST LT PUSH2 0x1AC JUMPI PUSH1 0x40 MLOAD PUSH32 0x8C379A000000000000000000000000000000000000000000000000000000000 DUP2 MSTORE PUSH1 0x4 ADD PUSH2 0x1A3 SWAP1 PUSH2 0xA3A JUMP JUMPDEST PUSH1 0x40 MLOAD DUP1 SWAP2 SUB SWAP1 REVERT JUMPDEST PUSH0 PUSH1 0x2 PUSH0 CALLER PUSH20 0xFFFFFFFFFFFFFFFFFFFFFFFFFFFFFFFFFFFFFFFF AND PUSH20 0xFFFFFFFFFFFFFFFFFFFFFFFFFFFFFFFFFFFFFFFF AND DUP2 MSTORE PUSH1 0x20 ADD SWAP1 DUP2 MSTORE PUSH1 0x20 ADD PUSH0 KECCAK256 SLOAD SUB PUSH2 0x22B JUMPI PUSH1 0x40 MLOAD PUSH32 0x8C379A000000000000000000000000000000000000000000000000000000000 DUP2 MSTORE PUSH1 0x4 ADD PUSH2 0x222 SWAP1 PUSH2 0xAA2 JUMP JUMPDEST PUSH1 0x40 MLOAD DUP1 SWAP2 SUB SWAP1 REVERT JUMPDEST PUSH0 PUSH1 0x2 PUSH0 CALLER PUSH20 0xFFFFFFFFFFFFFFFFFFFFFFFFFFFFFFFFFFFFFFFF AND PUSH20 0xFFFFFFFFFFFFFFFFFFFFFFFFFFFFFFFFFFFFFFFF AND DUP2 MSTORE PUSH1 0x20 ADD SWAP1 DUP2 MSTORE PUSH1 0x20 ADD PUSH0 KECCAK256 DUP2 SWAP1 SSTORE POP PUSH0 CALLER PUSH20 0xFFFFFFFFFFFFFFFFFFFFFFFFFFFFFFFFFFFFFFFF AND PUSH1 0x2 PUSH0 CALLER PUSH20 0xFFFFFFFFFFFFFFFFFFFFFFFFFFFFFFFFFFFFFFFF AND PUSH20 0xFFFFFFFFFFFFFFFFFFFFFFFFFFFFFFFFFFFFFFFF AND DUP2 MSTORE PUSH1 0x20 ADD SWAP1 DUP2 MSTORE PUSH1 0x20 ADD PUSH0 KECCAK256 SLOAD PUSH1 0x40 MLOAD PUSH2 0x2CF SWAP1 PUSH2 0xAED JUMP JUMPDEST PUSH0 PUSH1 0x40 MLOAD DUP1 DUP4 SUB DUP2 DUP6 DUP8 GAS CALL SWAP3 POP POP POP RETURNDATASIZE DUP1 PUSH0 DUP2 EQ PUSH2 0x309 JUMPI PUSH1 0x40 MLOAD SWAP2 POP PUSH1 0x1F NOT PUSH1 0x3F RETURNDATASIZE ADD AND DUP3 ADD PUSH1 0x40 MSTORE RETURNDATASIZE DUP3 MSTORE RETURNDATASIZE PUSH0 PUSH1 0x20 DUP5 ADD RETURNDATACOPY PUSH2 0x30E JUMP JUMPDEST PUSH1 0x60 SWAP2 POP JUMPDEST POP POP DUP1 SWAP2 POP POP DUP1 PUSH2 0x354 JUMPI PUSH1 0x40 MLOAD PUSH32 0x8C379A000000000000000000000000000000000000000000000000000000000 DUP2 MSTORE PUSH1 0x4 ADD PUSH2 0x34B SWAP1 PUSH2 0xB4B JUMP JUMPDEST PUSH1 0x40 MLOAD DUP1 SWAP2 SUB SWAP1 REVERT JUMPDEST POP JUMP JUMPDEST PUSH1 0x4 SLOAD TIMESTAMP LT ISZERO PUSH2 0x39C JUMPI PUSH1 0x40 MLOAD PUSH32 0x8C379A000000000000000000000000000000000000000000000000000000000 DUP2 MSTORE PUSH1 0x4 ADD PUSH2 0x393 SWAP1 PUSH2 0x9D2 JUMP JUMPDEST PUSH1 0x40 MLOAD DUP1 SWAP2 SUB SWAP1 REVERT JUMPDEST PUSH1 0x1 PUSH0 SWAP1 SLOAD SWAP1 PUSH2 0x100 EXP SWAP1 DIV PUSH20 0xFFFFFFFFFFFFFFFFFFFFFFFFFFFFFFFFFFFFFFFF AND PUSH20 0xFFFFFFFFFFFFFFFFFFFFFFFFFFFFFFFFFFFFFFFF AND CALLER PUSH20 0xFFFFFFFFFFFFFFFFFFFFFFFFFFFFFFFFFFFFFFFF AND EQ PUSH2 0x42B JUMPI PUSH1 0x40 MLOAD PUSH32 0x8C379A000000000000000000000000000000000000000000000000000000000 DUP2 MSTORE PUSH1 0x4 ADD PUSH2 0x422 SWAP1 PUSH2 0xBB3 JUMP JUMPDEST PUSH1 0x40 MLOAD DUP1 SWAP2 SUB SWAP1 REVERT JUMPDEST PUSH1 0x1E PUSH2 0x436 SELFBALANCE PUSH2 0x7C5 JUMP JUMPDEST LT ISZERO PUSH2 0x477 JUMPI PUSH1 0x40 MLOAD PUSH32 0x8C379A000000000000000000000000000000000000000000000000000000000 DUP2 MSTORE PUSH1 0x4 ADD PUSH2 0x46E SWAP1 PUSH2 0xC1B JUMP JUMPDEST PUSH1 0x40 MLOAD DUP1 SWAP2 SUB SWAP1 REVERT JUMPDEST PUSH0 CALLER PUSH20 0xFFFFFFFFFFFFFFFFFFFFFFFFFFFFFFFFFFFFFFFF AND SELFBALANCE PUSH1 0x40 MLOAD PUSH2 0x49C SWAP1 PUSH2 0xAED JUMP JUMPDEST PUSH0 PUSH1 0x40 MLOAD DUP1 DUP4 SUB DUP2 DUP6 DUP8 GAS CALL SWAP3 POP POP POP RETURNDATASIZE DUP1 PUSH0 DUP2 EQ PUSH2 0x4D6 JUMPI PUSH1 0x40 MLOAD SWAP2 POP PUSH1 0x1F NOT PUSH1 0x3F RETURNDATASIZE ADD AND DUP3 ADD PUSH1 0x40 MSTORE RETURNDATASIZE DUP3 MSTORE RETURNDATASIZE PUSH0 PUSH1 0x20 DUP5 ADD RETURNDATACOPY PUSH2 0x4DB JUMP JUMPDEST PUSH1 0x60 SWAP2 POP JUMPDEST POP POP DUP1 SWAP2 POP POP DUP1 PUSH2 0x521 JUMPI PUSH1 0x40 MLOAD PUSH32 0x8C379A000000000000000000000000000000000000000000000000000000000 DUP2 MSTORE PUSH1 0x4 ADD PUSH2 0x518 SWAP1 PUSH2 0xC83 JUMP JUMPDEST PUSH1 0x40 MLOAD DUP1 SWAP2 SUB SWAP1 REVERT JUMPDEST PUSH0 PUSH1 0x2 PUSH0 CALLER PUSH20 0xFFFFFFFFFFFFFFFFFFFFFFFFFFFFFFFFFFFFFFFF AND PUSH20 0xFFFFFFFFFFFFFFFFFFFFFFFFFFFFFFFFFFFFFFFF AND DUP2 MSTORE PUSH1 0x20 ADD SWAP1 DUP2 MSTORE PUSH1 0x20 ADD PUSH0 KECCAK256 DUP2 SWAP1 SSTORE POP POP JUMP JUMPDEST PUSH1 0x4 SLOAD TIMESTAMP LT PUSH2 0x5AA JUMPI PUSH1 0x40 MLOAD PUSH32 0x8C379A000000000000000000000000000000000000000000000000000000000 DUP2 MSTORE PUSH1 0x4 ADD PUSH2 0x5A1 SWAP1 PUSH2 0xCEB JUMP JUMPDEST PUSH1 0x40 MLOAD DUP1 SWAP2 SUB SWAP1 REVERT JUMPDEST PUSH0 PUSH1 0x2 PUSH0 CALLER PUSH20 0xFFFFFFFFFFFFFFFFFFFFFFFFFFFFFFFFFFFFFFFF AND PUSH20 0xFFFFFFFFFFFFFFFFFFFFFFFFFFFFFFFFFFFFFFFF AND DUP2 MSTORE PUSH1 0x20 ADD SWAP1 DUP2 MSTORE PUSH1 0x20 ADD PUSH0 KECCAK256 SLOAD EQ PUSH2 0x629 JUMPI PUSH1 0x40 MLOAD PUSH32 0x8C379A000000000000000000000000000000000000000000000000000000000 DUP2 MSTORE PUSH1 0x4 ADD PUSH2 0x620 SWAP1 PUSH2 0xD53 JUMP JUMPDEST PUSH1 0x40 MLOAD DUP1 SWAP2 SUB SWAP1 REVERT JUMPDEST PUSH1 0xA PUSH2 0x634 CALLVALUE PUSH2 0x7C5 JUMP JUMPDEST LT ISZERO PUSH2 0x675 JUMPI PUSH1 0x40 MLOAD PUSH32 0x8C379A000000000000000000000000000000000000000000000000000000000 DUP2 MSTORE PUSH1 0x4 ADD PUSH2 0x66C SWAP1 PUSH2 0xDBB JUMP JUMPDEST PUSH1 0x40 MLOAD DUP1 SWAP2 SUB SWAP1 REVERT JUMPDEST CALLVALUE PUSH1 0x2 PUSH0 CALLER PUSH20 0xFFFFFFFFFFFFFFFFFFFFFFFFFFFFFFFFFFFFFFFF AND PUSH20 0xFFFFFFFFFFFFFFFFFFFFFFFFFFFFFFFFFFFFFFFF AND DUP2 MSTORE PUSH1 0x20 ADD SWAP1 DUP2 MSTORE PUSH1 0x20 ADD PUSH0 KECCAK256 DUP2 SWAP1 SSTORE POP JUMP JUMPDEST PUSH1 0x2 PUSH1 0x20 MSTORE DUP1 PUSH0 MSTORE PUSH1 0x40 PUSH0 KECCAK256 PUSH0 SWAP2 POP SWAP1 POP SLOAD DUP2 JUMP JUMPDEST PUSH1 0x1 PUSH0 SWAP1 SLOAD SWAP1 PUSH2 0x100 EXP SWAP1 DIV PUSH20 0xFFFFFFFFFFFFFFFFFFFFFFFFFFFFFFFFFFFFFFFF AND PUSH20 0xFFFFFFFFFFFFFFFFFFFFFFFFFFFFFFFFFFFFFFFF AND CALLER PUSH20 0xFFFFFFFFFFFFFFFFFFFFFFFFFFFFFFFFFFFFFFFF AND EQ PUSH2 0x75D JUMPI PUSH1 0x40 MLOAD PUSH32 0x8C379A000000000000000000000000000000000000000000000000000000000 DUP2 MSTORE PUSH1 0x4 ADD PUSH2 0x754 SWAP1 PUSH2 0xBB3 JUMP JUMPDEST PUSH1 0x40 MLOAD DUP1 SWAP2 SUB SWAP1 REVERT JUMPDEST DUP1 PUSH1 0x1 PUSH0 PUSH2 0x100 EXP DUP2 SLOAD DUP2 PUSH20 0xFFFFFFFFFFFFFFFFFFFFFFFFFFFFFFFFFFFFFFFF MUL NOT AND SWAP1 DUP4 PUSH20 0xFFFFFFFFFFFFFFFFFFFFFFFFFFFFFFFFFFFFFFFF AND MUL OR SWAP1 SSTORE POP POP JUMP JUMPDEST PUSH1 0x1 PUSH0 SWAP1 SLOAD SWAP1 PUSH2 0x100 EXP SWAP1 DIV PUSH20 0xFFFFFFFFFFFFFFFFFFFFFFFFFFFFFFFFFFFFFFFF AND DUP2 JUMP JUMPDEST PUSH0 DUP1 PUSH2 0x7CF PUSH2 0x7FB JUMP JUMPDEST SWAP1 POP PUSH11 0x52B7D2DCC80CD2E4000000 DUP4 DUP3 PUSH2 0x7E9 SWAP2 SWAP1 PUSH2 0xE06 JUMP JUMPDEST PUSH2 0x7F3 SWAP2 SWAP1 PUSH2 0xE74 JUMP JUMPDEST SWAP2 POP POP SWAP2 SWAP1 POP JUMP JUMPDEST PUSH0 DUP1 PUSH0 DUP1 SLOAD SWAP1 PUSH2 0x100 EXP SWAP1 DIV PUSH20 0xFFFFFFFFFFFFFFFFFFFFFFFFFFFFFFFFFFFFFFFF AND PUSH20 0xFFFFFFFFFFFFFFFFFFFFFFFFFFFFFFFFFFFFFFFF AND PUSH4 0xFEAF968C PUSH1 0x40 MLOAD DUP2 PUSH4 0xFFFFFFFF AND PUSH1 0xE0 SHL DUP2 MSTORE PUSH1 0x4 ADD PUSH1 0xA0 PUSH1 0x40 MLOAD DUP1 DUP4 SUB DUP2 DUP7 GAS STATICCALL ISZERO DUP1 ISZERO PUSH2 0x865 JUMPI RETURNDATASIZE PUSH0 DUP1 RETURNDATACOPY RETURNDATASIZE PUSH0 REVERT JUMPDEST POP POP POP POP PUSH1 0x40 MLOAD RETURNDATASIZE PUSH1 0x1F NOT PUSH1 0x1F DUP3 ADD AND DUP3 ADD DUP1 PUSH1 0x40 MSTORE POP DUP2 ADD SWAP1 PUSH2 0x889 SWAP2 SWAP1 PUSH2 0xF40 JUMP JUMPDEST POP POP POP SWAP2 POP POP DUP1 SWAP2 POP POP SWAP1 JUMP JUMPDEST PUSH0 DUP1 REVERT JUMPDEST PUSH0 PUSH20 0xFFFFFFFFFFFFFFFFFFFFFFFFFFFFFFFFFFFFFFFF DUP3 AND SWAP1 POP SWAP2 SWAP1 POP JUMP JUMPDEST PUSH0 PUSH2 0x8C3 DUP3 PUSH2 0x89A JUMP JUMPDEST SWAP1 POP SWAP2 SWAP1 POP JUMP JUMPDEST PUSH2 0x8D3 DUP2 PUSH2 0x8B9 JUMP JUMPDEST DUP2 EQ PUSH2 0x8DD JUMPI PUSH0 DUP1 REVERT JUMPDEST POP JUMP JUMPDEST PUSH0 DUP2 CALLDATALOAD SWAP1 POP PUSH2 0x8EE DUP2 PUSH2 0x8CA JUMP JUMPDEST SWAP3 SWAP2 POP POP JUMP JUMPDEST PUSH0 PUSH1 0x20 DUP3 DUP5 SUB SLT ISZERO PUSH2 0x909 JUMPI PUSH2 0x908 PUSH2 0x896 JUMP JUMPDEST JUMPDEST PUSH0 PUSH2 0x916 DUP5 DUP3 DUP6 ADD PUSH2 0x8E0 JUMP JUMPDEST SWAP2 POP POP SWAP3 SWAP2 POP POP JUMP JUMPDEST PUSH0 DUP2 SWAP1 POP SWAP2 SWAP1 POP JUMP JUMPDEST PUSH2 0x931 DUP2 PUSH2 0x91F JUMP JUMPDEST DUP3 MSTORE POP POP JUMP JUMPDEST PUSH0 PUSH1 0x20 DUP3 ADD SWAP1 POP PUSH2 0x94A PUSH0 DUP4 ADD DUP5 PUSH2 0x928 JUMP JUMPDEST SWAP3 SWAP2 POP POP JUMP JUMPDEST PUSH2 0x959 DUP2 PUSH2 0x8B9 JUMP JUMPDEST DUP3 MSTORE POP POP JUMP JUMPDEST PUSH0 PUSH1 0x20 DUP3 ADD SWAP1 POP PUSH2 0x972 PUSH0 DUP4 ADD DUP5 PUSH2 0x950 JUMP JUMPDEST SWAP3 SWAP2 POP POP JUMP JUMPDEST PUSH0 DUP3 DUP3 MSTORE PUSH1 0x20 DUP3 ADD SWAP1 POP SWAP3 SWAP2 POP POP JUMP JUMPDEST PUSH32 0x66756E6420697320657865637E00000000000000000000000000000000000000 PUSH0 DUP3 ADD MSTORE POP JUMP JUMPDEST PUSH0 PUSH2 0x9BC PUSH1 0xD DUP4 PUSH2 0x978 JUMP JUMPDEST SWAP2 POP PUSH2 0x9C7 DUP3 PUSH2 0x988 JUMP JUMPDEST PUSH1 0x20 DUP3 ADD SWAP1 POP SWAP2 SWAP1 POP JUMP JUMPDEST PUSH0 PUSH1 0x20 DUP3 ADD SWAP1 POP DUP2 DUP2 SUB PUSH0 DUP4 ADD MSTORE PUSH2 0x9E9 DUP2 PUSH2 0x9B0 JUMP JUMPDEST SWAP1 POP SWAP2 SWAP1 POP JUMP JUMPDEST PUSH32 0x74617267657420697320726561636865647E0000000000000000000000000000 PUSH0 DUP3 ADD MSTORE POP JUMP JUMPDEST PUSH0 PUSH2 0xA24 PUSH1 0x12 DUP4 PUSH2 0x978 JUMP JUMPDEST SWAP2 POP PUSH2 0xA2F DUP3 PUSH2 0x9F0 JUMP JUMPDEST PUSH1 0x20 DUP3 ADD SWAP1 POP SWAP2 SWAP1 POP JUMP JUMPDEST PUSH0 PUSH1 0x20 DUP3 ADD SWAP1 POP DUP2 DUP2 SUB PUSH0 DUP4 ADD MSTORE PUSH2 0xA51 DUP2 PUSH2 0xA18 JUMP JUMPDEST SWAP1 POP SWAP2 SWAP1 POP JUMP JUMPDEST PUSH32 0x7468657265206973206E6F2066756E6420666F7220796F757E00000000000000 PUSH0 DUP3 ADD MSTORE POP JUMP JUMPDEST PUSH0 PUSH2 0xA8C PUSH1 0x19 DUP4 PUSH2 0x978 JUMP JUMPDEST SWAP2 POP PUSH2 0xA97 DUP3 PUSH2 0xA58 JUMP JUMPDEST PUSH1 0x20 DUP3 ADD SWAP1 POP SWAP2 SWAP1 POP JUMP JUMPDEST PUSH0 PUSH1 0x20 DUP3 ADD SWAP1 POP DUP2 DUP2 SUB PUSH0 DUP4 ADD MSTORE PUSH2 0xAB9 DUP2 PUSH2 0xA80 JUMP JUMPDEST SWAP1 POP SWAP2 SWAP1 POP JUMP JUMPDEST PUSH0 DUP2 SWAP1 POP SWAP3 SWAP2 POP POP JUMP JUMPDEST POP JUMP JUMPDEST PUSH0 PUSH2 0xAD8 PUSH0 DUP4 PUSH2 0xAC0 JUMP JUMPDEST SWAP2 POP PUSH2 0xAE3 DUP3 PUSH2 0xACA JUMP JUMPDEST PUSH0 DUP3 ADD SWAP1 POP SWAP2 SWAP1 POP JUMP JUMPDEST PUSH0 PUSH2 0xAF7 DUP3 PUSH2 0xACD JUMP JUMPDEST SWAP2 POP DUP2 SWAP1 POP SWAP2 SWAP1 POP JUMP JUMPDEST PUSH32 0x726566756E64207472616E73666572206661696C65647E000000000000000000 PUSH0 DUP3 ADD MSTORE POP JUMP JUMPDEST PUSH0 PUSH2 0xB35 PUSH1 0x17 DUP4 PUSH2 0x978 JUMP JUMPDEST SWAP2 POP PUSH2 0xB40 DUP3 PUSH2 0xB01 JUMP JUMPDEST PUSH1 0x20 DUP3 ADD SWAP1 POP SWAP2 SWAP1 POP JUMP JUMPDEST PUSH0 PUSH1 0x20 DUP3 ADD SWAP1 POP DUP2 DUP2 SUB PUSH0 DUP4 ADD MSTORE PUSH2 0xB62 DUP2 PUSH2 0xB29 JUMP JUMPDEST SWAP1 POP SWAP2 SWAP1 POP JUMP JUMPDEST PUSH32 0x796F75206E6F7420697320636F6E7472616374206F776E65727E000000000000 PUSH0 DUP3 ADD MSTORE POP JUMP JUMPDEST PUSH0 PUSH2 0xB9D PUSH1 0x1A DUP4 PUSH2 0x978 JUMP JUMPDEST SWAP2 POP PUSH2 0xBA8 DUP3 PUSH2 0xB69 JUMP JUMPDEST PUSH1 0x20 DUP3 ADD SWAP1 POP SWAP2 SWAP1 POP JUMP JUMPDEST PUSH0 PUSH1 0x20 DUP3 ADD SWAP1 POP DUP2 DUP2 SUB PUSH0 DUP4 ADD MSTORE PUSH2 0xBCA DUP2 PUSH2 0xB91 JUMP JUMPDEST SWAP1 POP SWAP2 SWAP1 POP JUMP JUMPDEST PUSH32 0x746172676574206973206E6F7420726561636865647E00000000000000000000 PUSH0 DUP3 ADD MSTORE POP JUMP JUMPDEST PUSH0 PUSH2 0xC05 PUSH1 0x16 DUP4 PUSH2 0x978 JUMP JUMPDEST SWAP2 POP PUSH2 0xC10 DUP3 PUSH2 0xBD1 JUMP JUMPDEST PUSH1 0x20 DUP3 ADD SWAP1 POP SWAP2 SWAP1 POP JUMP JUMPDEST PUSH0 PUSH1 0x20 DUP3 ADD SWAP1 POP DUP2 DUP2 SUB PUSH0 DUP4 ADD MSTORE PUSH2 0xC32 DUP2 PUSH2 0xBF9 JUMP JUMPDEST SWAP1 POP SWAP2 SWAP1 POP JUMP JUMPDEST PUSH32 0x64726177207472616E73666572206661696C65647E0000000000000000000000 PUSH0 DUP3 ADD MSTORE POP JUMP JUMPDEST PUSH0 PUSH2 0xC6D PUSH1 0x15 DUP4 PUSH2 0x978 JUMP JUMPDEST SWAP2 POP PUSH2 0xC78 DUP3 PUSH2 0xC39 JUMP JUMPDEST PUSH1 0x20 DUP3 ADD SWAP1 POP SWAP2 SWAP1 POP JUMP JUMPDEST PUSH0 PUSH1 0x20 DUP3 ADD SWAP1 POP DUP2 DUP2 SUB PUSH0 DUP4 ADD MSTORE PUSH2 0xC9A DUP2 PUSH2 0xC61 JUMP JUMPDEST SWAP1 POP SWAP2 SWAP1 POP JUMP JUMPDEST PUSH32 0x66756E6420697320636C6F73657E000000000000000000000000000000000000 PUSH0 DUP3 ADD MSTORE POP JUMP JUMPDEST PUSH0 PUSH2 0xCD5 PUSH1 0xE DUP4 PUSH2 0x978 JUMP JUMPDEST SWAP2 POP PUSH2 0xCE0 DUP3 PUSH2 0xCA1 JUMP JUMPDEST PUSH1 0x20 DUP3 ADD SWAP1 POP SWAP2 SWAP1 POP JUMP JUMPDEST PUSH0 PUSH1 0x20 DUP3 ADD SWAP1 POP DUP2 DUP2 SUB PUSH0 DUP4 ADD MSTORE PUSH2 0xD02 DUP2 PUSH2 0xCC9 JUMP JUMPDEST SWAP1 POP SWAP2 SWAP1 POP JUMP JUMPDEST PUSH32 0x796F7520686176652066756E647E000000000000000000000000000000000000 PUSH0 DUP3 ADD MSTORE POP JUMP JUMPDEST PUSH0 PUSH2 0xD3D PUSH1 0xE DUP4 PUSH2 0x978 JUMP JUMPDEST SWAP2 POP PUSH2 0xD48 DUP3 PUSH2 0xD09 JUMP JUMPDEST PUSH1 0x20 DUP3 ADD SWAP1 POP SWAP2 SWAP1 POP JUMP JUMPDEST PUSH0 PUSH1 0x20 DUP3 ADD SWAP1 POP DUP2 DUP2 SUB PUSH0 DUP4 ADD MSTORE PUSH2 0xD6A DUP2 PUSH2 0xD31 JUMP JUMPDEST SWAP1 POP SWAP2 SWAP1 POP JUMP JUMPDEST PUSH32 0x73656E64206D6F7265206574687E000000000000000000000000000000000000 PUSH0 DUP3 ADD MSTORE POP JUMP JUMPDEST PUSH0 PUSH2 0xDA5 PUSH1 0xE DUP4 PUSH2 0x978 JUMP JUMPDEST SWAP2 POP PUSH2 0xDB0 DUP3 PUSH2 0xD71 JUMP JUMPDEST PUSH1 0x20 DUP3 ADD SWAP1 POP SWAP2 SWAP1 POP JUMP JUMPDEST PUSH0 PUSH1 0x20 DUP3 ADD SWAP1 POP DUP2 DUP2 SUB PUSH0 DUP4 ADD MSTORE PUSH2 0xDD2 DUP2 PUSH2 0xD99 JUMP JUMPDEST SWAP1 POP SWAP2 SWAP1 POP JUMP JUMPDEST PUSH32 0x4E487B7100000000000000000000000000000000000000000000000000000000 PUSH0 MSTORE PUSH1 0x11 PUSH1 0x4 MSTORE PUSH1 0x24 PUSH0 REVERT JUMPDEST PUSH0 PUSH2 0xE10 DUP3 PUSH2 0x91F JUMP JUMPDEST SWAP2 POP PUSH2 0xE1B DUP4 PUSH2 0x91F JUMP JUMPDEST SWAP3 POP DUP3 DUP3 MUL PUSH2 0xE29 DUP2 PUSH2 0x91F JUMP JUMPDEST SWAP2 POP DUP3 DUP3 DIV DUP5 EQ DUP4 ISZERO OR PUSH2 0xE40 JUMPI PUSH2 0xE3F PUSH2 0xDD9 JUMP JUMPDEST JUMPDEST POP SWAP3 SWAP2 POP POP JUMP JUMPDEST PUSH32 0x4E487B7100000000000000000000000000000000000000000000000000000000 PUSH0 MSTORE PUSH1 0x12 PUSH1 0x4 MSTORE PUSH1 0x24 PUSH0 REVERT JUMPDEST PUSH0 PUSH2 0xE7E DUP3 PUSH2 0x91F JUMP JUMPDEST SWAP2 POP PUSH2 0xE89 DUP4 PUSH2 0x91F JUMP JUMPDEST SWAP3 POP DUP3 PUSH2 0xE99 JUMPI PUSH2 0xE98 PUSH2 0xE47 JUMP JUMPDEST JUMPDEST DUP3 DUP3 DIV SWAP1 POP SWAP3 SWAP2 POP POP JUMP JUMPDEST PUSH0 PUSH10 0xFFFFFFFFFFFFFFFFFFFF DUP3 AND SWAP1 POP SWAP2 SWAP1 POP JUMP JUMPDEST PUSH2 0xEC2 DUP2 PUSH2 0xEA4 JUMP JUMPDEST DUP2 EQ PUSH2 0xECC JUMPI PUSH0 DUP1 REVERT JUMPDEST POP JUMP JUMPDEST PUSH0 DUP2 MLOAD SWAP1 POP PUSH2 0xEDD DUP2 PUSH2 0xEB9 JUMP JUMPDEST SWAP3 SWAP2 POP POP JUMP JUMPDEST PUSH0 DUP2 SWAP1 POP SWAP2 SWAP1 POP JUMP JUMPDEST PUSH2 0xEF5 DUP2 PUSH2 0xEE3 JUMP JUMPDEST DUP2 EQ PUSH2 0xEFF JUMPI PUSH0 DUP1 REVERT JUMPDEST POP JUMP JUMPDEST PUSH0 DUP2 MLOAD SWAP1 POP PUSH2 0xF10 DUP2 PUSH2 0xEEC JUMP JUMPDEST SWAP3 SWAP2 POP POP JUMP JUMPDEST PUSH2 0xF1F DUP2 PUSH2 0x91F JUMP JUMPDEST DUP2 EQ PUSH2 0xF29 JUMPI PUSH0 DUP1 REVERT JUMPDEST POP JUMP JUMPDEST PUSH0 DUP2 MLOAD SWAP1 POP PUSH2 0xF3A DUP2 PUSH2 0xF16 JUMP JUMPDEST SWAP3 SWAP2 POP POP JUMP JUMPDEST PUSH0 DUP1 PUSH0 DUP1 PUSH0 PUSH1 0xA0 DUP7 DUP9 SUB SLT ISZERO PUSH2 0xF59 JUMPI PUSH2 0xF58 PUSH2 0x896 JUMP JUMPDEST JUMPDEST PUSH0 PUSH2 0xF66 DUP9 DUP3 DUP10 ADD PUSH2 0xECF JUMP JUMPDEST SWAP6 POP POP PUSH1 0x20 PUSH2 0xF77 DUP9 DUP3 DUP10 ADD PUSH2 0xF02 JUMP JUMPDEST SWAP5 POP POP PUSH1 0x40 PUSH2 0xF88 DUP9 DUP3 DUP10 ADD PUSH2 0xF2C JUMP JUMPDEST SWAP4 POP POP PUSH1 0x60 PUSH2 0xF99 DUP9 DUP3 DUP10 ADD PUSH2 0xF2C JUMP JUMPDEST SWAP3 POP POP PUSH1 0x80 PUSH2 0xFAA DUP9 DUP3 DUP10 ADD PUSH2 0xECF JUMP JUMPDEST SWAP2 POP POP SWAP3 SWAP6 POP SWAP3 SWAP6 SWAP1 SWAP4 POP JUMP INVALID LOG2 PUSH5 0x6970667358 0x22 SLT KECCAK256 ISZERO 0x26 MLOAD 0xEF TIMESTAMP 0x2D PUSH1 0x2D COINBASE LOG3 CODECOPY 0xE9 SHR 0xAF SWAP16 GASLIMIT 0xD8 KECCAK256 CREATE REVERT BLOCKHASH PUSH27 0x7AF6FBAAEB5ABFE7A0C164736F6C63430008180033000000000000 "
				},
				"gasEstimates": {
					"creation": {
						"codeDepositCost": "815400",
						"executionCost": "infinite",
						"totalCost": "infinite"
					},
					"external": {
						"CONTRACT_OWNER()": "2596",
						"drawFund()": "infinite",
						"fund()": "infinite",
						"fundAmount(address)": "2846",
						"refund()": "infinite",
						"transferContractOwner(address)": "26950"
					},
					"internal": {
						"ethToUsd(uint256)": "infinite",
						"getChainlinkDataFeedLatestAnswer()": "infinite"
					}
				},
				"methodIdentifiers": {
					"CONTRACT_OWNER()": "fd301c49",
					"drawFund()": "749141bc",
					"fund()": "b60d4288",
					"fundAmount(address)": "b82ffdf9",
					"refund()": "590e1ae3",
					"transferContractOwner(address)": "e7b59bf3"
				}
			},
			"storageLayout": {
				"storage": [
					{
						"astId": 52,
						"contract": "fund.sol:Fund",
						"label": "dataFeed",
						"offset": 0,
						"slot": "0",
						"type": "t_contract(AggregatorV3Interface)45"
					},
					{
						"astId": 54,
						"contract": "fund.sol:Fund",
						"label": "CONTRACT_OWNER",
						"offset": 0,
						"slot": "1",
						"type": "t_address"
					},
					{
						"astId": 64,
						"contract": "fund.sol:Fund",
						"label": "fundAmount",
						"offset": 0,
						"slot": "2",
						"type": "t_mapping(t_address,t_uint256)"
					},
					{
						"astId": 66,
						"contract": "fund.sol:Fund",
						"label": "FUND_EXEC_TIMESTAMP",
						"offset": 0,
						"slot": "3",
						"type": "t_uint256"
					},
					{
						"astId": 68,
						"contract": "fund.sol:Fund",
						"label": "FUND_CLOSE_TIMESTAMP",
						"offset": 0,
						"slot": "4",
						"type": "t_uint256"
					}
				],
				"types": {
					"t_address": {
						"encoding": "inplace",
						"label": "address",
						"numberOfBytes": "20"
					},
					"t_contract(AggregatorV3Interface)45": {
						"encoding": "inplace",
						"label": "contract AggregatorV3Interface",
						"numberOfBytes": "20"
					},
					"t_mapping(t_address,t_uint256)": {
						"encoding": "mapping",
						"key": "t_address",
						"label": "mapping(address => uint256)",
						"numberOfBytes": "32",
						"value": "t_uint256"
					},
					"t_uint256": {
						"encoding": "inplace",
						"label": "uint256",
						"numberOfBytes": "32"
					}
				}
			},
			"userdoc": {
				"kind": "user",
				"methods": {},
				"version": 1
			}
		}
	}
}