{
	"fund.sol": {
		"Fund": {
			"abi": [
				{
					"inputs": [
						{
							"internalType": "uint256",
							"name": "deployMentTime",
							"type": "uint256"
						}
					],
					"stateMutability": "nonpayable",
					"type": "constructor"
				},
				{
					"inputs": [],
					"name": "CONTRACT_OWNER",
					"outputs": [
						{
							"internalType": "address",
							"name": "",
							"type": "address"
						}
					],
					"stateMutability": "view",
					"type": "function"
				},
				{
					"inputs": [],
					"name": "drawFund",
					"outputs": [],
					"stateMutability": "nonpayable",
					"type": "function"
				},
				{
					"inputs": [],
					"name": "fund",
					"outputs": [],
					"stateMutability": "payable",
					"type": "function"
				},
				{
					"inputs": [
						{
							"internalType": "address",
							"name": "",
							"type": "address"
						}
					],
					"name": "fundAmount",
					"outputs": [
						{
							"internalType": "uint256",
							"name": "",
							"type": "uint256"
						}
					],
					"stateMutability": "view",
					"type": "function"
				},
				{
					"inputs": [],
					"name": "getChainlinkDataFeedLatestAnswer",
					"outputs": [
						{
							"internalType": "int256",
							"name": "",
							"type": "int256"
						}
					],
					"stateMutability": "view",
					"type": "function"
				},
				{
					"inputs": [],
					"name": "refund",
					"outputs": [],
					"stateMutability": "nonpayable",
					"type": "function"
				},
				{
					"inputs": [
						{
							"internalType": "address",
							"name": "owner",
							"type": "address"
						}
					],
					"name": "transferContractOwner",
					"outputs": [],
					"stateMutability": "nonpayable",
					"type": "function"
				}
			],
			"devdoc": {
				"kind": "dev",
				"methods": {},
				"version": 1
			},
			"evm": {
				"assembly": "    /* \"fund.sol\":172:3280  contract Fund{... */\n  mstore(0x40, 0x80)\n    /* \"fund.sol\":766:1048  constructor(uint256 deployMentTime) {... */\n  callvalue\n  dup1\n  iszero\n  tag_1\n  jumpi\n  0x00\n  dup1\n  revert\ntag_1:\n  pop\n  mload(0x40)\n  sub(codesize, bytecodeSize)\n  dup1\n  bytecodeSize\n  dup4\n  codecopy\n  dup2\n  dup2\n  add\n  0x40\n  mstore\n  dup2\n  add\n  swap1\n  tag_2\n  swap2\n  swap1\n  tag_3\n  jump\t// in\ntag_2:\n    /* \"fund.sol\":845:887  0x694AA1769357215DE4FAC081bf1f309aDC325306 */\n  0x694aa1769357215de4fac081bf1f309adc325306\n    /* \"fund.sol\":812:820  dataFeed */\n  0x00\n  dup1\n    /* \"fund.sol\":812:888  dataFeed = AggregatorV3Interface(0x694AA1769357215DE4FAC081bf1f309aDC325306) */\n  0x0100\n  exp\n  dup2\n  sload\n  dup2\n  0xffffffffffffffffffffffffffffffffffffffff\n  mul\n  not\n  and\n  swap1\n  dup4\n  0xffffffffffffffffffffffffffffffffffffffff\n  and\n  mul\n  or\n  swap1\n  sstore\n  pop\n    /* \"fund.sol\":915:925  msg.sender */\n  caller\n    /* \"fund.sol\":898:912  CONTRACT_OWNER */\n  0x01\n  0x00\n    /* \"fund.sol\":898:925  CONTRACT_OWNER = msg.sender */\n  0x0100\n  exp\n  dup2\n  sload\n  dup2\n  0xffffffffffffffffffffffffffffffffffffffff\n  mul\n  not\n  and\n  swap1\n  dup4\n  0xffffffffffffffffffffffffffffffffffffffff\n  and\n  mul\n  or\n  swap1\n  sstore\n  pop\n    /* \"fund.sol\":957:972  block.timestamp */\n  timestamp\n    /* \"fund.sol\":935:954  FUND_EXEC_TIMESTAMP */\n  0x03\n    /* \"fund.sol\":935:972  FUND_EXEC_TIMESTAMP = block.timestamp */\n  dup2\n  swap1\n  sstore\n  pop\n    /* \"fund.sol\":1027:1041  deployMentTime */\n  dup1\n    /* \"fund.sol\":1005:1024  FUND_EXEC_TIMESTAMP */\n  sload(0x03)\n    /* \"fund.sol\":1005:1041  FUND_EXEC_TIMESTAMP + deployMentTime */\n  tag_6\n  swap2\n  swap1\n  tag_7\n  jump\t// in\ntag_6:\n    /* \"fund.sol\":982:1002  FUND_CLOSE_TIMESTAMP */\n  0x04\n    /* \"fund.sol\":982:1041  FUND_CLOSE_TIMESTAMP = FUND_EXEC_TIMESTAMP + deployMentTime */\n  dup2\n  swap1\n  sstore\n  pop\n    /* \"fund.sol\":766:1048  constructor(uint256 deployMentTime) {... */\n  pop\n    /* \"fund.sol\":172:3280  contract Fund{... */\n  jump(tag_8)\n    /* \"#utility.yul\":88:205   */\ntag_10:\n    /* \"#utility.yul\":197:198   */\n  0x00\n    /* \"#utility.yul\":194:195   */\n  dup1\n    /* \"#utility.yul\":187:199   */\n  revert\n    /* \"#utility.yul\":334:411   */\ntag_12:\n    /* \"#utility.yul\":371:378   */\n  0x00\n    /* \"#utility.yul\":400:405   */\n  dup2\n    /* \"#utility.yul\":389:405   */\n  swap1\n  pop\n    /* \"#utility.yul\":334:411   */\n  swap2\n  swap1\n  pop\n  jump\t// out\n    /* \"#utility.yul\":417:539   */\ntag_13:\n    /* \"#utility.yul\":490:514   */\n  tag_22\n    /* \"#utility.yul\":508:513   */\n  dup2\n    /* \"#utility.yul\":490:514   */\n  tag_12\n  jump\t// in\ntag_22:\n    /* \"#utility.yul\":483:488   */\n  dup2\n    /* \"#utility.yul\":480:515   */\n  eq\n    /* \"#utility.yul\":470:533   */\n  tag_23\n  jumpi\n    /* \"#utility.yul\":529:530   */\n  0x00\n    /* \"#utility.yul\":526:527   */\n  dup1\n    /* \"#utility.yul\":519:531   */\n  revert\n    /* \"#utility.yul\":470:533   */\ntag_23:\n    /* \"#utility.yul\":417:539   */\n  pop\n  jump\t// out\n    /* \"#utility.yul\":545:688   */\ntag_14:\n    /* \"#utility.yul\":602:607   */\n  0x00\n    /* \"#utility.yul\":633:639   */\n  dup2\n    /* \"#utility.yul\":627:640   */\n  mload\n    /* \"#utility.yul\":618:640   */\n  swap1\n  pop\n    /* \"#utility.yul\":649:682   */\n  tag_25\n    /* \"#utility.yul\":676:681   */\n  dup2\n    /* \"#utility.yul\":649:682   */\n  tag_13\n  jump\t// in\ntag_25:\n    /* \"#utility.yul\":545:688   */\n  swap3\n  swap2\n  pop\n  pop\n  jump\t// out\n    /* \"#utility.yul\":694:1045   */\ntag_3:\n    /* \"#utility.yul\":764:770   */\n  0x00\n    /* \"#utility.yul\":813:815   */\n  0x20\n    /* \"#utility.yul\":801:810   */\n  dup3\n    /* \"#utility.yul\":792:799   */\n  dup5\n    /* \"#utility.yul\":788:811   */\n  sub\n    /* \"#utility.yul\":784:816   */\n  slt\n    /* \"#utility.yul\":781:900   */\n  iszero\n  tag_27\n  jumpi\n    /* \"#utility.yul\":819:898   */\n  tag_28\n  tag_10\n  jump\t// in\ntag_28:\n    /* \"#utility.yul\":781:900   */\ntag_27:\n    /* \"#utility.yul\":939:940   */\n  0x00\n    /* \"#utility.yul\":964:1028   */\n  tag_29\n    /* \"#utility.yul\":1020:1027   */\n  dup5\n    /* \"#utility.yul\":1011:1017   */\n  dup3\n    /* \"#utility.yul\":1000:1009   */\n  dup6\n    /* \"#utility.yul\":996:1018   */\n  add\n    /* \"#utility.yul\":964:1028   */\n  tag_14\n  jump\t// in\ntag_29:\n    /* \"#utility.yul\":954:1028   */\n  swap2\n  pop\n    /* \"#utility.yul\":910:1038   */\n  pop\n    /* \"#utility.yul\":694:1045   */\n  swap3\n  swap2\n  pop\n  pop\n  jump\t// out\n    /* \"#utility.yul\":1051:1231   */\ntag_15:\n    /* \"#utility.yul\":1099:1176   */\n  0x4e487b7100000000000000000000000000000000000000000000000000000000\n    /* \"#utility.yul\":1096:1097   */\n  0x00\n    /* \"#utility.yul\":1089:1177   */\n  mstore\n    /* \"#utility.yul\":1196:1200   */\n  0x11\n    /* \"#utility.yul\":1193:1194   */\n  0x04\n    /* \"#utility.yul\":1186:1201   */\n  mstore\n    /* \"#utility.yul\":1220:1224   */\n  0x24\n    /* \"#utility.yul\":1217:1218   */\n  0x00\n    /* \"#utility.yul\":1210:1225   */\n  revert\n    /* \"#utility.yul\":1237:1428   */\ntag_7:\n    /* \"#utility.yul\":1277:1280   */\n  0x00\n    /* \"#utility.yul\":1296:1316   */\n  tag_32\n    /* \"#utility.yul\":1314:1315   */\n  dup3\n    /* \"#utility.yul\":1296:1316   */\n  tag_12\n  jump\t// in\ntag_32:\n    /* \"#utility.yul\":1291:1316   */\n  swap2\n  pop\n    /* \"#utility.yul\":1330:1350   */\n  tag_33\n    /* \"#utility.yul\":1348:1349   */\n  dup4\n    /* \"#utility.yul\":1330:1350   */\n  tag_12\n  jump\t// in\ntag_33:\n    /* \"#utility.yul\":1325:1350   */\n  swap3\n  pop\n    /* \"#utility.yul\":1373:1374   */\n  dup3\n    /* \"#utility.yul\":1370:1371   */\n  dup3\n    /* \"#utility.yul\":1366:1375   */\n  add\n    /* \"#utility.yul\":1359:1375   */\n  swap1\n  pop\n    /* \"#utility.yul\":1394:1397   */\n  dup1\n    /* \"#utility.yul\":1391:1392   */\n  dup3\n    /* \"#utility.yul\":1388:1398   */\n  gt\n    /* \"#utility.yul\":1385:1421   */\n  iszero\n  tag_34\n  jumpi\n    /* \"#utility.yul\":1401:1419   */\n  tag_35\n  tag_15\n  jump\t// in\ntag_35:\n    /* \"#utility.yul\":1385:1421   */\ntag_34:\n    /* \"#utility.yul\":1237:1428   */\n  swap3\n  swap2\n  pop\n  pop\n  jump\t// out\n    /* \"fund.sol\":172:3280  contract Fund{... */\ntag_8:\n  dataSize(sub_0)\n  dup1\n  dataOffset(sub_0)\n  0x00\n  codecopy\n  0x00\n  return\nstop\n\nsub_0: assembly {\n        /* \"fund.sol\":172:3280  contract Fund{... */\n      mstore(0x40, 0x80)\n      jumpi(tag_1, lt(calldatasize, 0x04))\n      shr(0xe0, calldataload(0x00))\n      dup1\n      0xb82ffdf9\n      gt\n      tag_9\n      jumpi\n      dup1\n      0xb82ffdf9\n      eq\n      tag_5\n      jumpi\n      dup1\n      0xbea4dfb5\n      eq\n      tag_6\n      jumpi\n      dup1\n      0xe7b59bf3\n      eq\n      tag_7\n      jumpi\n      dup1\n      0xfd301c49\n      eq\n      tag_8\n      jumpi\n      jump(tag_1)\n    tag_9:\n      dup1\n      0x590e1ae3\n      eq\n      tag_2\n      jumpi\n      dup1\n      0x749141bc\n      eq\n      tag_3\n      jumpi\n      dup1\n      0xb60d4288\n      eq\n      tag_4\n      jumpi\n    tag_1:\n      0x00\n      dup1\n      revert\n        /* \"fund.sol\":1415:1827  function refund() external fundIsClose {... */\n    tag_2:\n      callvalue\n      dup1\n      iszero\n      tag_10\n      jumpi\n      0x00\n      dup1\n      revert\n    tag_10:\n      pop\n      tag_11\n      tag_12\n      jump\t// in\n    tag_11:\n      stop\n        /* \"fund.sol\":1852:2213  function drawFund() external fundIsClose onlyOWner{... */\n    tag_3:\n      callvalue\n      dup1\n      iszero\n      tag_13\n      jumpi\n      0x00\n      dup1\n      revert\n    tag_13:\n      pop\n      tag_14\n      tag_15\n      jump\t// in\n    tag_14:\n      stop\n        /* \"fund.sol\":1153:1390  function fund() external payable fundIsExec{... */\n    tag_4:\n      tag_16\n      tag_17\n      jump\t// in\n    tag_16:\n      stop\n        /* \"fund.sol\":538:583  mapping(address => uint256) public fundAmount */\n    tag_5:\n      callvalue\n      dup1\n      iszero\n      tag_18\n      jumpi\n      0x00\n      dup1\n      revert\n    tag_18:\n      pop\n      tag_19\n      0x04\n      dup1\n      calldatasize\n      sub\n      dup2\n      add\n      swap1\n      tag_20\n      swap2\n      swap1\n      tag_21\n      jump\t// in\n    tag_20:\n      tag_22\n      jump\t// in\n    tag_19:\n      mload(0x40)\n      tag_23\n      swap2\n      swap1\n      tag_24\n      jump\t// in\n    tag_23:\n      mload(0x40)\n      dup1\n      swap2\n      sub\n      swap1\n      return\n        /* \"fund.sol\":2680:2838  function getChainlinkDataFeedLatestAnswer() public view returns (int) {... */\n    tag_6:\n      callvalue\n      dup1\n      iszero\n      tag_25\n      jumpi\n      0x00\n      dup1\n      revert\n    tag_25:\n      pop\n      tag_26\n      tag_27\n      jump\t// in\n    tag_26:\n      mload(0x40)\n      tag_28\n      swap2\n      swap1\n      tag_29\n      jump\t// in\n    tag_28:\n      mload(0x40)\n      dup1\n      swap2\n      sub\n      swap1\n      return\n        /* \"fund.sol\":2247:2341  function transferContractOwner(address owner) external {... */\n    tag_7:\n      callvalue\n      dup1\n      iszero\n      tag_30\n      jumpi\n      0x00\n      dup1\n      revert\n    tag_30:\n      pop\n      tag_31\n      0x04\n      dup1\n      calldatasize\n      sub\n      dup2\n      add\n      swap1\n      tag_32\n      swap2\n      swap1\n      tag_21\n      jump\t// in\n    tag_32:\n      tag_33\n      jump\t// in\n    tag_31:\n      stop\n        /* \"fund.sol\":293:322  address public CONTRACT_OWNER */\n    tag_8:\n      callvalue\n      dup1\n      iszero\n      tag_34\n      jumpi\n      0x00\n      dup1\n      revert\n    tag_34:\n      pop\n      tag_35\n      tag_36\n      jump\t// in\n    tag_35:\n      mload(0x40)\n      tag_37\n      swap2\n      swap1\n      tag_38\n      jump\t// in\n    tag_37:\n      mload(0x40)\n      dup1\n      swap2\n      sub\n      swap1\n      return\n        /* \"fund.sol\":1415:1827  function refund() external fundIsClose {... */\n    tag_12:\n        /* \"fund.sol\":3067:3087  FUND_CLOSE_TIMESTAMP */\n      sload(0x04)\n        /* \"fund.sol\":3048:3063  block.timestamp */\n      timestamp\n        /* \"fund.sol\":3048:3087  block.timestamp >= FUND_CLOSE_TIMESTAMP */\n      lt\n      iszero\n        /* \"fund.sol\":3040:3104  require(block.timestamp >= FUND_CLOSE_TIMESTAMP,\"fund is exec~\") */\n      tag_40\n      jumpi\n      mload(0x40)\n      0x08c379a000000000000000000000000000000000000000000000000000000000\n      dup2\n      mstore\n      0x04\n      add\n      tag_41\n      swap1\n      tag_42\n      jump\t// in\n    tag_41:\n      mload(0x40)\n      dup1\n      swap2\n      sub\n      swap1\n      revert\n    tag_40:\n        /* \"fund.sol\":409:411  30 */\n      0x1e\n        /* \"fund.sol\":1472:1503  ethToUsd(address(this).balance) */\n      tag_44\n        /* \"fund.sol\":1481:1502  address(this).balance */\n      selfbalance\n        /* \"fund.sol\":1472:1480  ethToUsd */\n      tag_45\n        /* \"fund.sol\":1472:1503  ethToUsd(address(this).balance) */\n      jump\t// in\n    tag_44:\n        /* \"fund.sol\":1472:1532  ethToUsd(address(this).balance) < CONTRACT_TARGET_USD_AMOUNT */\n      lt\n        /* \"fund.sol\":1464:1554  require(ethToUsd(address(this).balance) < CONTRACT_TARGET_USD_AMOUNT,\"target is reached~\") */\n      tag_46\n      jumpi\n      mload(0x40)\n      0x08c379a000000000000000000000000000000000000000000000000000000000\n      dup2\n      mstore\n      0x04\n      add\n      tag_47\n      swap1\n      tag_48\n      jump\t// in\n    tag_47:\n      mload(0x40)\n      dup1\n      swap2\n      sub\n      swap1\n      revert\n    tag_46:\n        /* \"fund.sol\":1598:1599  0 */\n      0x00\n        /* \"fund.sol\":1572:1582  fundAmount */\n      0x02\n        /* \"fund.sol\":1572:1594  fundAmount[msg.sender] */\n      0x00\n        /* \"fund.sol\":1583:1593  msg.sender */\n      caller\n        /* \"fund.sol\":1572:1594  fundAmount[msg.sender] */\n      0xffffffffffffffffffffffffffffffffffffffff\n      and\n      0xffffffffffffffffffffffffffffffffffffffff\n      and\n      dup2\n      mstore\n      0x20\n      add\n      swap1\n      dup2\n      mstore\n      0x20\n      add\n      0x00\n      keccak256\n      sload\n        /* \"fund.sol\":1572:1599  fundAmount[msg.sender] != 0 */\n      sub\n        /* \"fund.sol\":1564:1629  require(fundAmount[msg.sender] != 0, \"there is no fund for you~\") */\n      tag_49\n      jumpi\n      mload(0x40)\n      0x08c379a000000000000000000000000000000000000000000000000000000000\n      dup2\n      mstore\n      0x04\n      add\n      tag_50\n      swap1\n      tag_51\n      jump\t// in\n    tag_50:\n      mload(0x40)\n      dup1\n      swap2\n      sub\n      swap1\n      revert\n    tag_49:\n        /* \"fund.sol\":1639:1651  bool success */\n      0x00\n        /* \"fund.sol\":1681:1691  msg.sender */\n      caller\n        /* \"fund.sol\":1673:1697  payable(msg.sender).call */\n      0xffffffffffffffffffffffffffffffffffffffff\n      and\n        /* \"fund.sol\":1705:1715  fundAmount */\n      0x02\n        /* \"fund.sol\":1705:1727  fundAmount[msg.sender] */\n      0x00\n        /* \"fund.sol\":1716:1726  msg.sender */\n      caller\n        /* \"fund.sol\":1705:1727  fundAmount[msg.sender] */\n      0xffffffffffffffffffffffffffffffffffffffff\n      and\n      0xffffffffffffffffffffffffffffffffffffffff\n      and\n      dup2\n      mstore\n      0x20\n      add\n      swap1\n      dup2\n      mstore\n      0x20\n      add\n      0x00\n      keccak256\n      sload\n        /* \"fund.sol\":1673:1732  payable(msg.sender).call{value: fundAmount[msg.sender]}(\"\") */\n      mload(0x40)\n      tag_52\n      swap1\n      tag_53\n      jump\t// in\n    tag_52:\n      0x00\n      mload(0x40)\n      dup1\n      dup4\n      sub\n      dup2\n      dup6\n      dup8\n      gas\n      call\n      swap3\n      pop\n      pop\n      pop\n      returndatasize\n      dup1\n      0x00\n      dup2\n      eq\n      tag_56\n      jumpi\n      mload(0x40)\n      swap2\n      pop\n      and(add(returndatasize, 0x3f), not(0x1f))\n      dup3\n      add\n      0x40\n      mstore\n      returndatasize\n      dup3\n      mstore\n      returndatasize\n      0x00\n      0x20\n      dup5\n      add\n      returndatacopy\n      jump(tag_55)\n    tag_56:\n      0x60\n      swap2\n      pop\n    tag_55:\n      pop\n        /* \"fund.sol\":1661:1732  (success, )=payable(msg.sender).call{value: fundAmount[msg.sender]}(\"\") */\n      pop\n      dup1\n      swap2\n      pop\n      pop\n        /* \"fund.sol\":1750:1757  success */\n      dup1\n        /* \"fund.sol\":1742:1784  require(success,\"refund transfer failed~\") */\n      tag_57\n      jumpi\n      mload(0x40)\n      0x08c379a000000000000000000000000000000000000000000000000000000000\n      dup2\n      mstore\n      0x04\n      add\n      tag_58\n      swap1\n      tag_59\n      jump\t// in\n    tag_58:\n      mload(0x40)\n      dup1\n      swap2\n      sub\n      swap1\n      revert\n    tag_57:\n        /* \"fund.sol\":1819:1820  0 */\n      0x00\n        /* \"fund.sol\":1794:1804  fundAmount */\n      0x02\n        /* \"fund.sol\":1794:1816  fundAmount[msg.sender] */\n      0x00\n        /* \"fund.sol\":1805:1815  msg.sender */\n      caller\n        /* \"fund.sol\":1794:1816  fundAmount[msg.sender] */\n      0xffffffffffffffffffffffffffffffffffffffff\n      and\n      0xffffffffffffffffffffffffffffffffffffffff\n      and\n      dup2\n      mstore\n      0x20\n      add\n      swap1\n      dup2\n      mstore\n      0x20\n      add\n      0x00\n      keccak256\n        /* \"fund.sol\":1794:1820  fundAmount[msg.sender] = 0 */\n      dup2\n      swap1\n      sstore\n      pop\n        /* \"fund.sol\":1454:1827  {... */\n      pop\n        /* \"fund.sol\":1415:1827  function refund() external fundIsClose {... */\n      jump\t// out\n        /* \"fund.sol\":1852:2213  function drawFund() external fundIsClose onlyOWner{... */\n    tag_15:\n        /* \"fund.sol\":3067:3087  FUND_CLOSE_TIMESTAMP */\n      sload(0x04)\n        /* \"fund.sol\":3048:3063  block.timestamp */\n      timestamp\n        /* \"fund.sol\":3048:3087  block.timestamp >= FUND_CLOSE_TIMESTAMP */\n      lt\n      iszero\n        /* \"fund.sol\":3040:3104  require(block.timestamp >= FUND_CLOSE_TIMESTAMP,\"fund is exec~\") */\n      tag_61\n      jumpi\n      mload(0x40)\n      0x08c379a000000000000000000000000000000000000000000000000000000000\n      dup2\n      mstore\n      0x04\n      add\n      tag_62\n      swap1\n      tag_42\n      jump\t// in\n    tag_62:\n      mload(0x40)\n      dup1\n      swap2\n      sub\n      swap1\n      revert\n    tag_61:\n        /* \"fund.sol\":3216:3230  CONTRACT_OWNER */\n      0x01\n      0x00\n      swap1\n      sload\n      swap1\n      0x0100\n      exp\n      swap1\n      div\n      0xffffffffffffffffffffffffffffffffffffffff\n      and\n        /* \"fund.sol\":3202:3230  msg.sender == CONTRACT_OWNER */\n      0xffffffffffffffffffffffffffffffffffffffff\n      and\n        /* \"fund.sol\":3202:3212  msg.sender */\n      caller\n        /* \"fund.sol\":3202:3230  msg.sender == CONTRACT_OWNER */\n      0xffffffffffffffffffffffffffffffffffffffff\n      and\n      eq\n        /* \"fund.sol\":3194:3260  require(msg.sender == CONTRACT_OWNER,\"you not is contract owner~\") */\n      tag_64\n      jumpi\n      mload(0x40)\n      0x08c379a000000000000000000000000000000000000000000000000000000000\n      dup2\n      mstore\n      0x04\n      add\n      tag_65\n      swap1\n      tag_66\n      jump\t// in\n    tag_65:\n      mload(0x40)\n      dup1\n      swap2\n      sub\n      swap1\n      revert\n    tag_64:\n        /* \"fund.sol\":409:411  30 */\n      0x1e\n        /* \"fund.sol\":1920:1951  ethToUsd(address(this).balance) */\n      tag_68\n        /* \"fund.sol\":1929:1950  address(this).balance */\n      selfbalance\n        /* \"fund.sol\":1920:1928  ethToUsd */\n      tag_45\n        /* \"fund.sol\":1920:1951  ethToUsd(address(this).balance) */\n      jump\t// in\n    tag_68:\n        /* \"fund.sol\":1920:1981  ethToUsd(address(this).balance) >= CONTRACT_TARGET_USD_AMOUNT */\n      lt\n      iszero\n        /* \"fund.sol\":1912:2008  require(ethToUsd(address(this).balance) >= CONTRACT_TARGET_USD_AMOUNT, \"target is not reached~\") */\n      tag_69\n      jumpi\n      mload(0x40)\n      0x08c379a000000000000000000000000000000000000000000000000000000000\n      dup2\n      mstore\n      0x04\n      add\n      tag_70\n      swap1\n      tag_71\n      jump\t// in\n    tag_70:\n      mload(0x40)\n      dup1\n      swap2\n      sub\n      swap1\n      revert\n    tag_69:\n        /* \"fund.sol\":2027:2039  bool success */\n      0x00\n        /* \"fund.sol\":2070:2080  msg.sender */\n      caller\n        /* \"fund.sol\":2062:2086  payable(msg.sender).call */\n      0xffffffffffffffffffffffffffffffffffffffff\n      and\n        /* \"fund.sol\":2094:2115  address(this).balance */\n      selfbalance\n        /* \"fund.sol\":2062:2120  payable(msg.sender).call{value: address(this).balance}(\"\") */\n      mload(0x40)\n      tag_72\n      swap1\n      tag_53\n      jump\t// in\n    tag_72:\n      0x00\n      mload(0x40)\n      dup1\n      dup4\n      sub\n      dup2\n      dup6\n      dup8\n      gas\n      call\n      swap3\n      pop\n      pop\n      pop\n      returndatasize\n      dup1\n      0x00\n      dup2\n      eq\n      tag_75\n      jumpi\n      mload(0x40)\n      swap2\n      pop\n      and(add(returndatasize, 0x3f), not(0x1f))\n      dup3\n      add\n      0x40\n      mstore\n      returndatasize\n      dup3\n      mstore\n      returndatasize\n      0x00\n      0x20\n      dup5\n      add\n      returndatacopy\n      jump(tag_74)\n    tag_75:\n      0x60\n      swap2\n      pop\n    tag_74:\n      pop\n        /* \"fund.sol\":2049:2120  (success, )= payable(msg.sender).call{value: address(this).balance}(\"\") */\n      pop\n      dup1\n      swap2\n      pop\n      pop\n        /* \"fund.sol\":2138:2145  success */\n      dup1\n        /* \"fund.sol\":2130:2170  require(success,\"draw transfer failed~\") */\n      tag_76\n      jumpi\n      mload(0x40)\n      0x08c379a000000000000000000000000000000000000000000000000000000000\n      dup2\n      mstore\n      0x04\n      add\n      tag_77\n      swap1\n      tag_78\n      jump\t// in\n    tag_77:\n      mload(0x40)\n      dup1\n      swap2\n      sub\n      swap1\n      revert\n    tag_76:\n        /* \"fund.sol\":2205:2206  0 */\n      0x00\n        /* \"fund.sol\":2180:2190  fundAmount */\n      0x02\n        /* \"fund.sol\":2180:2202  fundAmount[msg.sender] */\n      0x00\n        /* \"fund.sol\":2191:2201  msg.sender */\n      caller\n        /* \"fund.sol\":2180:2202  fundAmount[msg.sender] */\n      0xffffffffffffffffffffffffffffffffffffffff\n      and\n      0xffffffffffffffffffffffffffffffffffffffff\n      and\n      dup2\n      mstore\n      0x20\n      add\n      swap1\n      dup2\n      mstore\n      0x20\n      add\n      0x00\n      keccak256\n        /* \"fund.sol\":2180:2206  fundAmount[msg.sender] = 0 */\n      dup2\n      swap1\n      sstore\n      pop\n        /* \"fund.sol\":1902:2213  {... */\n      pop\n        /* \"fund.sol\":1852:2213  function drawFund() external fundIsClose onlyOWner{... */\n      jump\t// out\n        /* \"fund.sol\":1153:1390  function fund() external payable fundIsExec{... */\n    tag_17:\n        /* \"fund.sol\":2924:2944  FUND_CLOSE_TIMESTAMP */\n      sload(0x04)\n        /* \"fund.sol\":2906:2921  block.timestamp */\n      timestamp\n        /* \"fund.sol\":2906:2944  block.timestamp < FUND_CLOSE_TIMESTAMP */\n      lt\n        /* \"fund.sol\":2898:2962  require(block.timestamp < FUND_CLOSE_TIMESTAMP,\"fund is close~\") */\n      tag_80\n      jumpi\n      mload(0x40)\n      0x08c379a000000000000000000000000000000000000000000000000000000000\n      dup2\n      mstore\n      0x04\n      add\n      tag_81\n      swap1\n      tag_82\n      jump\t// in\n    tag_81:\n      mload(0x40)\n      dup1\n      swap2\n      sub\n      swap1\n      revert\n    tag_80:\n        /* \"fund.sol\":1240:1241  0 */\n      0x00\n        /* \"fund.sol\":1214:1224  fundAmount */\n      0x02\n        /* \"fund.sol\":1214:1236  fundAmount[msg.sender] */\n      0x00\n        /* \"fund.sol\":1225:1235  msg.sender */\n      caller\n        /* \"fund.sol\":1214:1236  fundAmount[msg.sender] */\n      0xffffffffffffffffffffffffffffffffffffffff\n      and\n      0xffffffffffffffffffffffffffffffffffffffff\n      and\n      dup2\n      mstore\n      0x20\n      add\n      swap1\n      dup2\n      mstore\n      0x20\n      add\n      0x00\n      keccak256\n      sload\n        /* \"fund.sol\":1214:1241  fundAmount[msg.sender] == 0 */\n      eq\n        /* \"fund.sol\":1206:1260  require(fundAmount[msg.sender] == 0, \"you have fund~\") */\n      tag_84\n      jumpi\n      mload(0x40)\n      0x08c379a000000000000000000000000000000000000000000000000000000000\n      dup2\n      mstore\n      0x04\n      add\n      tag_85\n      swap1\n      tag_86\n      jump\t// in\n    tag_85:\n      mload(0x40)\n      dup1\n      swap2\n      sub\n      swap1\n      revert\n    tag_84:\n        /* \"fund.sol\":495:497  10 */\n      0x0a\n        /* \"fund.sol\":1278:1297  ethToUsd(msg.value) */\n      tag_87\n        /* \"fund.sol\":1287:1296  msg.value */\n      callvalue\n        /* \"fund.sol\":1278:1286  ethToUsd */\n      tag_45\n        /* \"fund.sol\":1278:1297  ethToUsd(msg.value) */\n      jump\t// in\n    tag_87:\n        /* \"fund.sol\":1278:1320  ethToUsd(msg.value) >= FUND_MIN_USD_AMOUNT */\n      lt\n      iszero\n        /* \"fund.sol\":1270:1339  require(ethToUsd(msg.value) >= FUND_MIN_USD_AMOUNT, \"send more eth~\") */\n      tag_88\n      jumpi\n      mload(0x40)\n      0x08c379a000000000000000000000000000000000000000000000000000000000\n      dup2\n      mstore\n      0x04\n      add\n      tag_89\n      swap1\n      tag_90\n      jump\t// in\n    tag_89:\n      mload(0x40)\n      dup1\n      swap2\n      sub\n      swap1\n      revert\n    tag_88:\n        /* \"fund.sol\":1374:1383  msg.value */\n      callvalue\n        /* \"fund.sol\":1349:1359  fundAmount */\n      0x02\n        /* \"fund.sol\":1349:1371  fundAmount[msg.sender] */\n      0x00\n        /* \"fund.sol\":1360:1370  msg.sender */\n      caller\n        /* \"fund.sol\":1349:1371  fundAmount[msg.sender] */\n      0xffffffffffffffffffffffffffffffffffffffff\n      and\n      0xffffffffffffffffffffffffffffffffffffffff\n      and\n      dup2\n      mstore\n      0x20\n      add\n      swap1\n      dup2\n      mstore\n      0x20\n      add\n      0x00\n      keccak256\n        /* \"fund.sol\":1349:1383  fundAmount[msg.sender] = msg.value */\n      dup2\n      swap1\n      sstore\n      pop\n        /* \"fund.sol\":1153:1390  function fund() external payable fundIsExec{... */\n      jump\t// out\n        /* \"fund.sol\":538:583  mapping(address => uint256) public fundAmount */\n    tag_22:\n      mstore(0x20, 0x02)\n      dup1\n      0x00\n      mstore\n      keccak256(0x00, 0x40)\n      0x00\n      swap2\n      pop\n      swap1\n      pop\n      sload\n      dup2\n      jump\t// out\n        /* \"fund.sol\":2680:2838  function getChainlinkDataFeedLatestAnswer() public view returns (int) {... */\n    tag_27:\n        /* \"fund.sol\":2745:2748  int */\n      0x00\n        /* \"fund.sol\":2763:2773  int answer */\n      dup1\n        /* \"fund.sol\":2782:2790  dataFeed */\n      0x00\n      dup1\n      sload\n      swap1\n      0x0100\n      exp\n      swap1\n      div\n      0xffffffffffffffffffffffffffffffffffffffff\n      and\n        /* \"fund.sol\":2782:2806  dataFeed.latestRoundData */\n      0xffffffffffffffffffffffffffffffffffffffff\n      and\n      0xfeaf968c\n        /* \"fund.sol\":2782:2808  dataFeed.latestRoundData() */\n      mload(0x40)\n      dup2\n      0xffffffff\n      and\n      0xe0\n      shl\n      dup2\n      mstore\n      0x04\n      add\n      0xa0\n      mload(0x40)\n      dup1\n      dup4\n      sub\n      dup2\n      dup7\n      gas\n      staticcall\n      iszero\n      dup1\n      iszero\n      tag_93\n      jumpi\n      returndatasize\n      0x00\n      dup1\n      returndatacopy\n      revert(0x00, returndatasize)\n    tag_93:\n      pop\n      pop\n      pop\n      pop\n      mload(0x40)\n      returndatasize\n      not(0x1f)\n      0x1f\n      dup3\n      add\n      and\n      dup3\n      add\n      dup1\n      0x40\n      mstore\n      pop\n      dup2\n      add\n      swap1\n      tag_94\n      swap2\n      swap1\n      tag_95\n      jump\t// in\n    tag_94:\n        /* \"fund.sol\":2760:2808  ( ,int answer, , ,) = dataFeed.latestRoundData() */\n      pop\n      pop\n      pop\n      swap2\n      pop\n      pop\n        /* \"fund.sol\":2825:2831  answer */\n      dup1\n        /* \"fund.sol\":2818:2831  return answer */\n      swap2\n      pop\n      pop\n        /* \"fund.sol\":2680:2838  function getChainlinkDataFeedLatestAnswer() public view returns (int) {... */\n      swap1\n      jump\t// out\n        /* \"fund.sol\":2247:2341  function transferContractOwner(address owner) external {... */\n    tag_33:\n        /* \"fund.sol\":2329:2334  owner */\n      dup1\n        /* \"fund.sol\":2312:2326  CONTRACT_OWNER */\n      0x01\n      0x00\n        /* \"fund.sol\":2312:2334  CONTRACT_OWNER = owner */\n      0x0100\n      exp\n      dup2\n      sload\n      dup2\n      0xffffffffffffffffffffffffffffffffffffffff\n      mul\n      not\n      and\n      swap1\n      dup4\n      0xffffffffffffffffffffffffffffffffffffffff\n      and\n      mul\n      or\n      swap1\n      sstore\n      pop\n        /* \"fund.sol\":2247:2341  function transferContractOwner(address owner) external {... */\n      pop\n      jump\t// out\n        /* \"fund.sol\":293:322  address public CONTRACT_OWNER */\n    tag_36:\n      0x01\n      0x00\n      swap1\n      sload\n      swap1\n      0x0100\n      exp\n      swap1\n      div\n      0xffffffffffffffffffffffffffffffffffffffff\n      and\n      dup2\n      jump\t// out\n        /* \"fund.sol\":2443:2635  function ethToUsd(uint256 weiAmount) internal view returns(uint256) {... */\n    tag_45:\n        /* \"fund.sol\":2502:2509  uint256 */\n      0x00\n        /* \"fund.sol\":2521:2534  uint256 price */\n      dup1\n        /* \"fund.sol\":2545:2579  getChainlinkDataFeedLatestAnswer() */\n      tag_98\n        /* \"fund.sol\":2545:2577  getChainlinkDataFeedLatestAnswer */\n      tag_27\n        /* \"fund.sol\":2545:2579  getChainlinkDataFeedLatestAnswer() */\n      jump\t// in\n    tag_98:\n        /* \"fund.sol\":2521:2580  uint256 price = uint256(getChainlinkDataFeedLatestAnswer()) */\n      swap1\n      pop\n        /* \"fund.sol\":2618:2626  10 ** 26 */\n      0x52b7d2dcc80cd2e4000000\n        /* \"fund.sol\":2605:2614  weiAmount */\n      dup4\n        /* \"fund.sol\":2597:2602  price */\n      dup3\n        /* \"fund.sol\":2597:2614  price * weiAmount */\n      tag_99\n      swap2\n      swap1\n      tag_100\n      jump\t// in\n    tag_99:\n        /* \"fund.sol\":2597:2627  price * weiAmount / (10 ** 26) */\n      tag_101\n      swap2\n      swap1\n      tag_102\n      jump\t// in\n    tag_101:\n        /* \"fund.sol\":2590:2627  return price * weiAmount / (10 ** 26) */\n      swap2\n      pop\n      pop\n        /* \"fund.sol\":2443:2635  function ethToUsd(uint256 weiAmount) internal view returns(uint256) {... */\n      swap2\n      swap1\n      pop\n      jump\t// out\n        /* \"#utility.yul\":88:205   */\n    tag_104:\n        /* \"#utility.yul\":197:198   */\n      0x00\n        /* \"#utility.yul\":194:195   */\n      dup1\n        /* \"#utility.yul\":187:199   */\n      revert\n        /* \"#utility.yul\":334:460   */\n    tag_106:\n        /* \"#utility.yul\":371:378   */\n      0x00\n        /* \"#utility.yul\":411:453   */\n      0xffffffffffffffffffffffffffffffffffffffff\n        /* \"#utility.yul\":404:409   */\n      dup3\n        /* \"#utility.yul\":400:454   */\n      and\n        /* \"#utility.yul\":389:454   */\n      swap1\n      pop\n        /* \"#utility.yul\":334:460   */\n      swap2\n      swap1\n      pop\n      jump\t// out\n        /* \"#utility.yul\":466:562   */\n    tag_107:\n        /* \"#utility.yul\":503:510   */\n      0x00\n        /* \"#utility.yul\":532:556   */\n      tag_154\n        /* \"#utility.yul\":550:555   */\n      dup3\n        /* \"#utility.yul\":532:556   */\n      tag_106\n      jump\t// in\n    tag_154:\n        /* \"#utility.yul\":521:556   */\n      swap1\n      pop\n        /* \"#utility.yul\":466:562   */\n      swap2\n      swap1\n      pop\n      jump\t// out\n        /* \"#utility.yul\":568:690   */\n    tag_108:\n        /* \"#utility.yul\":641:665   */\n      tag_156\n        /* \"#utility.yul\":659:664   */\n      dup2\n        /* \"#utility.yul\":641:665   */\n      tag_107\n      jump\t// in\n    tag_156:\n        /* \"#utility.yul\":634:639   */\n      dup2\n        /* \"#utility.yul\":631:666   */\n      eq\n        /* \"#utility.yul\":621:684   */\n      tag_157\n      jumpi\n        /* \"#utility.yul\":680:681   */\n      0x00\n        /* \"#utility.yul\":677:678   */\n      dup1\n        /* \"#utility.yul\":670:682   */\n      revert\n        /* \"#utility.yul\":621:684   */\n    tag_157:\n        /* \"#utility.yul\":568:690   */\n      pop\n      jump\t// out\n        /* \"#utility.yul\":696:835   */\n    tag_109:\n        /* \"#utility.yul\":742:747   */\n      0x00\n        /* \"#utility.yul\":780:786   */\n      dup2\n        /* \"#utility.yul\":767:787   */\n      calldataload\n        /* \"#utility.yul\":758:787   */\n      swap1\n      pop\n        /* \"#utility.yul\":796:829   */\n      tag_159\n        /* \"#utility.yul\":823:828   */\n      dup2\n        /* \"#utility.yul\":796:829   */\n      tag_108\n      jump\t// in\n    tag_159:\n        /* \"#utility.yul\":696:835   */\n      swap3\n      swap2\n      pop\n      pop\n      jump\t// out\n        /* \"#utility.yul\":841:1170   */\n    tag_21:\n        /* \"#utility.yul\":900:906   */\n      0x00\n        /* \"#utility.yul\":949:951   */\n      0x20\n        /* \"#utility.yul\":937:946   */\n      dup3\n        /* \"#utility.yul\":928:935   */\n      dup5\n        /* \"#utility.yul\":924:947   */\n      sub\n        /* \"#utility.yul\":920:952   */\n      slt\n        /* \"#utility.yul\":917:1036   */\n      iszero\n      tag_161\n      jumpi\n        /* \"#utility.yul\":955:1034   */\n      tag_162\n      tag_104\n      jump\t// in\n    tag_162:\n        /* \"#utility.yul\":917:1036   */\n    tag_161:\n        /* \"#utility.yul\":1075:1076   */\n      0x00\n        /* \"#utility.yul\":1100:1153   */\n      tag_163\n        /* \"#utility.yul\":1145:1152   */\n      dup5\n        /* \"#utility.yul\":1136:1142   */\n      dup3\n        /* \"#utility.yul\":1125:1134   */\n      dup6\n        /* \"#utility.yul\":1121:1143   */\n      add\n        /* \"#utility.yul\":1100:1153   */\n      tag_109\n      jump\t// in\n    tag_163:\n        /* \"#utility.yul\":1090:1153   */\n      swap2\n      pop\n        /* \"#utility.yul\":1046:1163   */\n      pop\n        /* \"#utility.yul\":841:1170   */\n      swap3\n      swap2\n      pop\n      pop\n      jump\t// out\n        /* \"#utility.yul\":1176:1253   */\n    tag_110:\n        /* \"#utility.yul\":1213:1220   */\n      0x00\n        /* \"#utility.yul\":1242:1247   */\n      dup2\n        /* \"#utility.yul\":1231:1247   */\n      swap1\n      pop\n        /* \"#utility.yul\":1176:1253   */\n      swap2\n      swap1\n      pop\n      jump\t// out\n        /* \"#utility.yul\":1259:1377   */\n    tag_111:\n        /* \"#utility.yul\":1346:1370   */\n      tag_166\n        /* \"#utility.yul\":1364:1369   */\n      dup2\n        /* \"#utility.yul\":1346:1370   */\n      tag_110\n      jump\t// in\n    tag_166:\n        /* \"#utility.yul\":1341:1344   */\n      dup3\n        /* \"#utility.yul\":1334:1371   */\n      mstore\n        /* \"#utility.yul\":1259:1377   */\n      pop\n      pop\n      jump\t// out\n        /* \"#utility.yul\":1383:1605   */\n    tag_24:\n        /* \"#utility.yul\":1476:1480   */\n      0x00\n        /* \"#utility.yul\":1514:1516   */\n      0x20\n        /* \"#utility.yul\":1503:1512   */\n      dup3\n        /* \"#utility.yul\":1499:1517   */\n      add\n        /* \"#utility.yul\":1491:1517   */\n      swap1\n      pop\n        /* \"#utility.yul\":1527:1598   */\n      tag_168\n        /* \"#utility.yul\":1595:1596   */\n      0x00\n        /* \"#utility.yul\":1584:1593   */\n      dup4\n        /* \"#utility.yul\":1580:1597   */\n      add\n        /* \"#utility.yul\":1571:1577   */\n      dup5\n        /* \"#utility.yul\":1527:1598   */\n      tag_111\n      jump\t// in\n    tag_168:\n        /* \"#utility.yul\":1383:1605   */\n      swap3\n      swap2\n      pop\n      pop\n      jump\t// out\n        /* \"#utility.yul\":1611:1687   */\n    tag_112:\n        /* \"#utility.yul\":1647:1654   */\n      0x00\n        /* \"#utility.yul\":1676:1681   */\n      dup2\n        /* \"#utility.yul\":1665:1681   */\n      swap1\n      pop\n        /* \"#utility.yul\":1611:1687   */\n      swap2\n      swap1\n      pop\n      jump\t// out\n        /* \"#utility.yul\":1693:1808   */\n    tag_113:\n        /* \"#utility.yul\":1778:1801   */\n      tag_171\n        /* \"#utility.yul\":1795:1800   */\n      dup2\n        /* \"#utility.yul\":1778:1801   */\n      tag_112\n      jump\t// in\n    tag_171:\n        /* \"#utility.yul\":1773:1776   */\n      dup3\n        /* \"#utility.yul\":1766:1802   */\n      mstore\n        /* \"#utility.yul\":1693:1808   */\n      pop\n      pop\n      jump\t// out\n        /* \"#utility.yul\":1814:2032   */\n    tag_29:\n        /* \"#utility.yul\":1905:1909   */\n      0x00\n        /* \"#utility.yul\":1943:1945   */\n      0x20\n        /* \"#utility.yul\":1932:1941   */\n      dup3\n        /* \"#utility.yul\":1928:1946   */\n      add\n        /* \"#utility.yul\":1920:1946   */\n      swap1\n      pop\n        /* \"#utility.yul\":1956:2025   */\n      tag_173\n        /* \"#utility.yul\":2022:2023   */\n      0x00\n        /* \"#utility.yul\":2011:2020   */\n      dup4\n        /* \"#utility.yul\":2007:2024   */\n      add\n        /* \"#utility.yul\":1998:2004   */\n      dup5\n        /* \"#utility.yul\":1956:2025   */\n      tag_113\n      jump\t// in\n    tag_173:\n        /* \"#utility.yul\":1814:2032   */\n      swap3\n      swap2\n      pop\n      pop\n      jump\t// out\n        /* \"#utility.yul\":2038:2156   */\n    tag_114:\n        /* \"#utility.yul\":2125:2149   */\n      tag_175\n        /* \"#utility.yul\":2143:2148   */\n      dup2\n        /* \"#utility.yul\":2125:2149   */\n      tag_107\n      jump\t// in\n    tag_175:\n        /* \"#utility.yul\":2120:2123   */\n      dup3\n        /* \"#utility.yul\":2113:2150   */\n      mstore\n        /* \"#utility.yul\":2038:2156   */\n      pop\n      pop\n      jump\t// out\n        /* \"#utility.yul\":2162:2384   */\n    tag_38:\n        /* \"#utility.yul\":2255:2259   */\n      0x00\n        /* \"#utility.yul\":2293:2295   */\n      0x20\n        /* \"#utility.yul\":2282:2291   */\n      dup3\n        /* \"#utility.yul\":2278:2296   */\n      add\n        /* \"#utility.yul\":2270:2296   */\n      swap1\n      pop\n        /* \"#utility.yul\":2306:2377   */\n      tag_177\n        /* \"#utility.yul\":2374:2375   */\n      0x00\n        /* \"#utility.yul\":2363:2372   */\n      dup4\n        /* \"#utility.yul\":2359:2376   */\n      add\n        /* \"#utility.yul\":2350:2356   */\n      dup5\n        /* \"#utility.yul\":2306:2377   */\n      tag_114\n      jump\t// in\n    tag_177:\n        /* \"#utility.yul\":2162:2384   */\n      swap3\n      swap2\n      pop\n      pop\n      jump\t// out\n        /* \"#utility.yul\":2390:2559   */\n    tag_115:\n        /* \"#utility.yul\":2474:2485   */\n      0x00\n        /* \"#utility.yul\":2508:2514   */\n      dup3\n        /* \"#utility.yul\":2503:2506   */\n      dup3\n        /* \"#utility.yul\":2496:2515   */\n      mstore\n        /* \"#utility.yul\":2548:2552   */\n      0x20\n        /* \"#utility.yul\":2543:2546   */\n      dup3\n        /* \"#utility.yul\":2539:2553   */\n      add\n        /* \"#utility.yul\":2524:2553   */\n      swap1\n      pop\n        /* \"#utility.yul\":2390:2559   */\n      swap3\n      swap2\n      pop\n      pop\n      jump\t// out\n        /* \"#utility.yul\":2565:2728   */\n    tag_116:\n        /* \"#utility.yul\":2705:2720   */\n      0x66756e6420697320657865637e00000000000000000000000000000000000000\n        /* \"#utility.yul\":2701:2702   */\n      0x00\n        /* \"#utility.yul\":2693:2699   */\n      dup3\n        /* \"#utility.yul\":2689:2703   */\n      add\n        /* \"#utility.yul\":2682:2721   */\n      mstore\n        /* \"#utility.yul\":2565:2728   */\n      pop\n      jump\t// out\n        /* \"#utility.yul\":2734:3100   */\n    tag_117:\n        /* \"#utility.yul\":2876:2879   */\n      0x00\n        /* \"#utility.yul\":2897:2964   */\n      tag_181\n        /* \"#utility.yul\":2961:2963   */\n      0x0d\n        /* \"#utility.yul\":2956:2959   */\n      dup4\n        /* \"#utility.yul\":2897:2964   */\n      tag_115\n      jump\t// in\n    tag_181:\n        /* \"#utility.yul\":2890:2964   */\n      swap2\n      pop\n        /* \"#utility.yul\":2973:3066   */\n      tag_182\n        /* \"#utility.yul\":3062:3065   */\n      dup3\n        /* \"#utility.yul\":2973:3066   */\n      tag_116\n      jump\t// in\n    tag_182:\n        /* \"#utility.yul\":3091:3093   */\n      0x20\n        /* \"#utility.yul\":3086:3089   */\n      dup3\n        /* \"#utility.yul\":3082:3094   */\n      add\n        /* \"#utility.yul\":3075:3094   */\n      swap1\n      pop\n        /* \"#utility.yul\":2734:3100   */\n      swap2\n      swap1\n      pop\n      jump\t// out\n        /* \"#utility.yul\":3106:3525   */\n    tag_42:\n        /* \"#utility.yul\":3272:3276   */\n      0x00\n        /* \"#utility.yul\":3310:3312   */\n      0x20\n        /* \"#utility.yul\":3299:3308   */\n      dup3\n        /* \"#utility.yul\":3295:3313   */\n      add\n        /* \"#utility.yul\":3287:3313   */\n      swap1\n      pop\n        /* \"#utility.yul\":3359:3368   */\n      dup2\n        /* \"#utility.yul\":3353:3357   */\n      dup2\n        /* \"#utility.yul\":3349:3369   */\n      sub\n        /* \"#utility.yul\":3345:3346   */\n      0x00\n        /* \"#utility.yul\":3334:3343   */\n      dup4\n        /* \"#utility.yul\":3330:3347   */\n      add\n        /* \"#utility.yul\":3323:3370   */\n      mstore\n        /* \"#utility.yul\":3387:3518   */\n      tag_184\n        /* \"#utility.yul\":3513:3517   */\n      dup2\n        /* \"#utility.yul\":3387:3518   */\n      tag_117\n      jump\t// in\n    tag_184:\n        /* \"#utility.yul\":3379:3518   */\n      swap1\n      pop\n        /* \"#utility.yul\":3106:3525   */\n      swap2\n      swap1\n      pop\n      jump\t// out\n        /* \"#utility.yul\":3531:3699   */\n    tag_118:\n        /* \"#utility.yul\":3671:3691   */\n      0x74617267657420697320726561636865647e0000000000000000000000000000\n        /* \"#utility.yul\":3667:3668   */\n      0x00\n        /* \"#utility.yul\":3659:3665   */\n      dup3\n        /* \"#utility.yul\":3655:3669   */\n      add\n        /* \"#utility.yul\":3648:3692   */\n      mstore\n        /* \"#utility.yul\":3531:3699   */\n      pop\n      jump\t// out\n        /* \"#utility.yul\":3705:4071   */\n    tag_119:\n        /* \"#utility.yul\":3847:3850   */\n      0x00\n        /* \"#utility.yul\":3868:3935   */\n      tag_187\n        /* \"#utility.yul\":3932:3934   */\n      0x12\n        /* \"#utility.yul\":3927:3930   */\n      dup4\n        /* \"#utility.yul\":3868:3935   */\n      tag_115\n      jump\t// in\n    tag_187:\n        /* \"#utility.yul\":3861:3935   */\n      swap2\n      pop\n        /* \"#utility.yul\":3944:4037   */\n      tag_188\n        /* \"#utility.yul\":4033:4036   */\n      dup3\n        /* \"#utility.yul\":3944:4037   */\n      tag_118\n      jump\t// in\n    tag_188:\n        /* \"#utility.yul\":4062:4064   */\n      0x20\n        /* \"#utility.yul\":4057:4060   */\n      dup3\n        /* \"#utility.yul\":4053:4065   */\n      add\n        /* \"#utility.yul\":4046:4065   */\n      swap1\n      pop\n        /* \"#utility.yul\":3705:4071   */\n      swap2\n      swap1\n      pop\n      jump\t// out\n        /* \"#utility.yul\":4077:4496   */\n    tag_48:\n        /* \"#utility.yul\":4243:4247   */\n      0x00\n        /* \"#utility.yul\":4281:4283   */\n      0x20\n        /* \"#utility.yul\":4270:4279   */\n      dup3\n        /* \"#utility.yul\":4266:4284   */\n      add\n        /* \"#utility.yul\":4258:4284   */\n      swap1\n      pop\n        /* \"#utility.yul\":4330:4339   */\n      dup2\n        /* \"#utility.yul\":4324:4328   */\n      dup2\n        /* \"#utility.yul\":4320:4340   */\n      sub\n        /* \"#utility.yul\":4316:4317   */\n      0x00\n        /* \"#utility.yul\":4305:4314   */\n      dup4\n        /* \"#utility.yul\":4301:4318   */\n      add\n        /* \"#utility.yul\":4294:4341   */\n      mstore\n        /* \"#utility.yul\":4358:4489   */\n      tag_190\n        /* \"#utility.yul\":4484:4488   */\n      dup2\n        /* \"#utility.yul\":4358:4489   */\n      tag_119\n      jump\t// in\n    tag_190:\n        /* \"#utility.yul\":4350:4489   */\n      swap1\n      pop\n        /* \"#utility.yul\":4077:4496   */\n      swap2\n      swap1\n      pop\n      jump\t// out\n        /* \"#utility.yul\":4502:4677   */\n    tag_120:\n        /* \"#utility.yul\":4642:4669   */\n      0x7468657265206973206e6f2066756e6420666f7220796f757e00000000000000\n        /* \"#utility.yul\":4638:4639   */\n      0x00\n        /* \"#utility.yul\":4630:4636   */\n      dup3\n        /* \"#utility.yul\":4626:4640   */\n      add\n        /* \"#utility.yul\":4619:4670   */\n      mstore\n        /* \"#utility.yul\":4502:4677   */\n      pop\n      jump\t// out\n        /* \"#utility.yul\":4683:5049   */\n    tag_121:\n        /* \"#utility.yul\":4825:4828   */\n      0x00\n        /* \"#utility.yul\":4846:4913   */\n      tag_193\n        /* \"#utility.yul\":4910:4912   */\n      0x19\n        /* \"#utility.yul\":4905:4908   */\n      dup4\n        /* \"#utility.yul\":4846:4913   */\n      tag_115\n      jump\t// in\n    tag_193:\n        /* \"#utility.yul\":4839:4913   */\n      swap2\n      pop\n        /* \"#utility.yul\":4922:5015   */\n      tag_194\n        /* \"#utility.yul\":5011:5014   */\n      dup3\n        /* \"#utility.yul\":4922:5015   */\n      tag_120\n      jump\t// in\n    tag_194:\n        /* \"#utility.yul\":5040:5042   */\n      0x20\n        /* \"#utility.yul\":5035:5038   */\n      dup3\n        /* \"#utility.yul\":5031:5043   */\n      add\n        /* \"#utility.yul\":5024:5043   */\n      swap1\n      pop\n        /* \"#utility.yul\":4683:5049   */\n      swap2\n      swap1\n      pop\n      jump\t// out\n        /* \"#utility.yul\":5055:5474   */\n    tag_51:\n        /* \"#utility.yul\":5221:5225   */\n      0x00\n        /* \"#utility.yul\":5259:5261   */\n      0x20\n        /* \"#utility.yul\":5248:5257   */\n      dup3\n        /* \"#utility.yul\":5244:5262   */\n      add\n        /* \"#utility.yul\":5236:5262   */\n      swap1\n      pop\n        /* \"#utility.yul\":5308:5317   */\n      dup2\n        /* \"#utility.yul\":5302:5306   */\n      dup2\n        /* \"#utility.yul\":5298:5318   */\n      sub\n        /* \"#utility.yul\":5294:5295   */\n      0x00\n        /* \"#utility.yul\":5283:5292   */\n      dup4\n        /* \"#utility.yul\":5279:5296   */\n      add\n        /* \"#utility.yul\":5272:5319   */\n      mstore\n        /* \"#utility.yul\":5336:5467   */\n      tag_196\n        /* \"#utility.yul\":5462:5466   */\n      dup2\n        /* \"#utility.yul\":5336:5467   */\n      tag_121\n      jump\t// in\n    tag_196:\n        /* \"#utility.yul\":5328:5467   */\n      swap1\n      pop\n        /* \"#utility.yul\":5055:5474   */\n      swap2\n      swap1\n      pop\n      jump\t// out\n        /* \"#utility.yul\":5480:5627   */\n    tag_122:\n        /* \"#utility.yul\":5581:5592   */\n      0x00\n        /* \"#utility.yul\":5618:5621   */\n      dup2\n        /* \"#utility.yul\":5603:5621   */\n      swap1\n      pop\n        /* \"#utility.yul\":5480:5627   */\n      swap3\n      swap2\n      pop\n      pop\n      jump\t// out\n        /* \"#utility.yul\":5633:5747   */\n    tag_123:\n      pop\n      jump\t// out\n        /* \"#utility.yul\":5753:6151   */\n    tag_124:\n        /* \"#utility.yul\":5912:5915   */\n      0x00\n        /* \"#utility.yul\":5933:6016   */\n      tag_200\n        /* \"#utility.yul\":6014:6015   */\n      0x00\n        /* \"#utility.yul\":6009:6012   */\n      dup4\n        /* \"#utility.yul\":5933:6016   */\n      tag_122\n      jump\t// in\n    tag_200:\n        /* \"#utility.yul\":5926:6016   */\n      swap2\n      pop\n        /* \"#utility.yul\":6025:6118   */\n      tag_201\n        /* \"#utility.yul\":6114:6117   */\n      dup3\n        /* \"#utility.yul\":6025:6118   */\n      tag_123\n      jump\t// in\n    tag_201:\n        /* \"#utility.yul\":6143:6144   */\n      0x00\n        /* \"#utility.yul\":6138:6141   */\n      dup3\n        /* \"#utility.yul\":6134:6145   */\n      add\n        /* \"#utility.yul\":6127:6145   */\n      swap1\n      pop\n        /* \"#utility.yul\":5753:6151   */\n      swap2\n      swap1\n      pop\n      jump\t// out\n        /* \"#utility.yul\":6157:6536   */\n    tag_53:\n        /* \"#utility.yul\":6341:6344   */\n      0x00\n        /* \"#utility.yul\":6363:6510   */\n      tag_203\n        /* \"#utility.yul\":6506:6509   */\n      dup3\n        /* \"#utility.yul\":6363:6510   */\n      tag_124\n      jump\t// in\n    tag_203:\n        /* \"#utility.yul\":6356:6510   */\n      swap2\n      pop\n        /* \"#utility.yul\":6527:6530   */\n      dup2\n        /* \"#utility.yul\":6520:6530   */\n      swap1\n      pop\n        /* \"#utility.yul\":6157:6536   */\n      swap2\n      swap1\n      pop\n      jump\t// out\n        /* \"#utility.yul\":6542:6715   */\n    tag_125:\n        /* \"#utility.yul\":6682:6707   */\n      0x726566756e64207472616e73666572206661696c65647e000000000000000000\n        /* \"#utility.yul\":6678:6679   */\n      0x00\n        /* \"#utility.yul\":6670:6676   */\n      dup3\n        /* \"#utility.yul\":6666:6680   */\n      add\n        /* \"#utility.yul\":6659:6708   */\n      mstore\n        /* \"#utility.yul\":6542:6715   */\n      pop\n      jump\t// out\n        /* \"#utility.yul\":6721:7087   */\n    tag_126:\n        /* \"#utility.yul\":6863:6866   */\n      0x00\n        /* \"#utility.yul\":6884:6951   */\n      tag_206\n        /* \"#utility.yul\":6948:6950   */\n      0x17\n        /* \"#utility.yul\":6943:6946   */\n      dup4\n        /* \"#utility.yul\":6884:6951   */\n      tag_115\n      jump\t// in\n    tag_206:\n        /* \"#utility.yul\":6877:6951   */\n      swap2\n      pop\n        /* \"#utility.yul\":6960:7053   */\n      tag_207\n        /* \"#utility.yul\":7049:7052   */\n      dup3\n        /* \"#utility.yul\":6960:7053   */\n      tag_125\n      jump\t// in\n    tag_207:\n        /* \"#utility.yul\":7078:7080   */\n      0x20\n        /* \"#utility.yul\":7073:7076   */\n      dup3\n        /* \"#utility.yul\":7069:7081   */\n      add\n        /* \"#utility.yul\":7062:7081   */\n      swap1\n      pop\n        /* \"#utility.yul\":6721:7087   */\n      swap2\n      swap1\n      pop\n      jump\t// out\n        /* \"#utility.yul\":7093:7512   */\n    tag_59:\n        /* \"#utility.yul\":7259:7263   */\n      0x00\n        /* \"#utility.yul\":7297:7299   */\n      0x20\n        /* \"#utility.yul\":7286:7295   */\n      dup3\n        /* \"#utility.yul\":7282:7300   */\n      add\n        /* \"#utility.yul\":7274:7300   */\n      swap1\n      pop\n        /* \"#utility.yul\":7346:7355   */\n      dup2\n        /* \"#utility.yul\":7340:7344   */\n      dup2\n        /* \"#utility.yul\":7336:7356   */\n      sub\n        /* \"#utility.yul\":7332:7333   */\n      0x00\n        /* \"#utility.yul\":7321:7330   */\n      dup4\n        /* \"#utility.yul\":7317:7334   */\n      add\n        /* \"#utility.yul\":7310:7357   */\n      mstore\n        /* \"#utility.yul\":7374:7505   */\n      tag_209\n        /* \"#utility.yul\":7500:7504   */\n      dup2\n        /* \"#utility.yul\":7374:7505   */\n      tag_126\n      jump\t// in\n    tag_209:\n        /* \"#utility.yul\":7366:7505   */\n      swap1\n      pop\n        /* \"#utility.yul\":7093:7512   */\n      swap2\n      swap1\n      pop\n      jump\t// out\n        /* \"#utility.yul\":7518:7694   */\n    tag_127:\n        /* \"#utility.yul\":7658:7686   */\n      0x796f75206e6f7420697320636f6e7472616374206f776e65727e000000000000\n        /* \"#utility.yul\":7654:7655   */\n      0x00\n        /* \"#utility.yul\":7646:7652   */\n      dup3\n        /* \"#utility.yul\":7642:7656   */\n      add\n        /* \"#utility.yul\":7635:7687   */\n      mstore\n        /* \"#utility.yul\":7518:7694   */\n      pop\n      jump\t// out\n        /* \"#utility.yul\":7700:8066   */\n    tag_128:\n        /* \"#utility.yul\":7842:7845   */\n      0x00\n        /* \"#utility.yul\":7863:7930   */\n      tag_212\n        /* \"#utility.yul\":7927:7929   */\n      0x1a\n        /* \"#utility.yul\":7922:7925   */\n      dup4\n        /* \"#utility.yul\":7863:7930   */\n      tag_115\n      jump\t// in\n    tag_212:\n        /* \"#utility.yul\":7856:7930   */\n      swap2\n      pop\n        /* \"#utility.yul\":7939:8032   */\n      tag_213\n        /* \"#utility.yul\":8028:8031   */\n      dup3\n        /* \"#utility.yul\":7939:8032   */\n      tag_127\n      jump\t// in\n    tag_213:\n        /* \"#utility.yul\":8057:8059   */\n      0x20\n        /* \"#utility.yul\":8052:8055   */\n      dup3\n        /* \"#utility.yul\":8048:8060   */\n      add\n        /* \"#utility.yul\":8041:8060   */\n      swap1\n      pop\n        /* \"#utility.yul\":7700:8066   */\n      swap2\n      swap1\n      pop\n      jump\t// out\n        /* \"#utility.yul\":8072:8491   */\n    tag_66:\n        /* \"#utility.yul\":8238:8242   */\n      0x00\n        /* \"#utility.yul\":8276:8278   */\n      0x20\n        /* \"#utility.yul\":8265:8274   */\n      dup3\n        /* \"#utility.yul\":8261:8279   */\n      add\n        /* \"#utility.yul\":8253:8279   */\n      swap1\n      pop\n        /* \"#utility.yul\":8325:8334   */\n      dup2\n        /* \"#utility.yul\":8319:8323   */\n      dup2\n        /* \"#utility.yul\":8315:8335   */\n      sub\n        /* \"#utility.yul\":8311:8312   */\n      0x00\n        /* \"#utility.yul\":8300:8309   */\n      dup4\n        /* \"#utility.yul\":8296:8313   */\n      add\n        /* \"#utility.yul\":8289:8336   */\n      mstore\n        /* \"#utility.yul\":8353:8484   */\n      tag_215\n        /* \"#utility.yul\":8479:8483   */\n      dup2\n        /* \"#utility.yul\":8353:8484   */\n      tag_128\n      jump\t// in\n    tag_215:\n        /* \"#utility.yul\":8345:8484   */\n      swap1\n      pop\n        /* \"#utility.yul\":8072:8491   */\n      swap2\n      swap1\n      pop\n      jump\t// out\n        /* \"#utility.yul\":8497:8669   */\n    tag_129:\n        /* \"#utility.yul\":8637:8661   */\n      0x746172676574206973206e6f7420726561636865647e00000000000000000000\n        /* \"#utility.yul\":8633:8634   */\n      0x00\n        /* \"#utility.yul\":8625:8631   */\n      dup3\n        /* \"#utility.yul\":8621:8635   */\n      add\n        /* \"#utility.yul\":8614:8662   */\n      mstore\n        /* \"#utility.yul\":8497:8669   */\n      pop\n      jump\t// out\n        /* \"#utility.yul\":8675:9041   */\n    tag_130:\n        /* \"#utility.yul\":8817:8820   */\n      0x00\n        /* \"#utility.yul\":8838:8905   */\n      tag_218\n        /* \"#utility.yul\":8902:8904   */\n      0x16\n        /* \"#utility.yul\":8897:8900   */\n      dup4\n        /* \"#utility.yul\":8838:8905   */\n      tag_115\n      jump\t// in\n    tag_218:\n        /* \"#utility.yul\":8831:8905   */\n      swap2\n      pop\n        /* \"#utility.yul\":8914:9007   */\n      tag_219\n        /* \"#utility.yul\":9003:9006   */\n      dup3\n        /* \"#utility.yul\":8914:9007   */\n      tag_129\n      jump\t// in\n    tag_219:\n        /* \"#utility.yul\":9032:9034   */\n      0x20\n        /* \"#utility.yul\":9027:9030   */\n      dup3\n        /* \"#utility.yul\":9023:9035   */\n      add\n        /* \"#utility.yul\":9016:9035   */\n      swap1\n      pop\n        /* \"#utility.yul\":8675:9041   */\n      swap2\n      swap1\n      pop\n      jump\t// out\n        /* \"#utility.yul\":9047:9466   */\n    tag_71:\n        /* \"#utility.yul\":9213:9217   */\n      0x00\n        /* \"#utility.yul\":9251:9253   */\n      0x20\n        /* \"#utility.yul\":9240:9249   */\n      dup3\n        /* \"#utility.yul\":9236:9254   */\n      add\n        /* \"#utility.yul\":9228:9254   */\n      swap1\n      pop\n        /* \"#utility.yul\":9300:9309   */\n      dup2\n        /* \"#utility.yul\":9294:9298   */\n      dup2\n        /* \"#utility.yul\":9290:9310   */\n      sub\n        /* \"#utility.yul\":9286:9287   */\n      0x00\n        /* \"#utility.yul\":9275:9284   */\n      dup4\n        /* \"#utility.yul\":9271:9288   */\n      add\n        /* \"#utility.yul\":9264:9311   */\n      mstore\n        /* \"#utility.yul\":9328:9459   */\n      tag_221\n        /* \"#utility.yul\":9454:9458   */\n      dup2\n        /* \"#utility.yul\":9328:9459   */\n      tag_130\n      jump\t// in\n    tag_221:\n        /* \"#utility.yul\":9320:9459   */\n      swap1\n      pop\n        /* \"#utility.yul\":9047:9466   */\n      swap2\n      swap1\n      pop\n      jump\t// out\n        /* \"#utility.yul\":9472:9643   */\n    tag_131:\n        /* \"#utility.yul\":9612:9635   */\n      0x64726177207472616e73666572206661696c65647e0000000000000000000000\n        /* \"#utility.yul\":9608:9609   */\n      0x00\n        /* \"#utility.yul\":9600:9606   */\n      dup3\n        /* \"#utility.yul\":9596:9610   */\n      add\n        /* \"#utility.yul\":9589:9636   */\n      mstore\n        /* \"#utility.yul\":9472:9643   */\n      pop\n      jump\t// out\n        /* \"#utility.yul\":9649:10015   */\n    tag_132:\n        /* \"#utility.yul\":9791:9794   */\n      0x00\n        /* \"#utility.yul\":9812:9879   */\n      tag_224\n        /* \"#utility.yul\":9876:9878   */\n      0x15\n        /* \"#utility.yul\":9871:9874   */\n      dup4\n        /* \"#utility.yul\":9812:9879   */\n      tag_115\n      jump\t// in\n    tag_224:\n        /* \"#utility.yul\":9805:9879   */\n      swap2\n      pop\n        /* \"#utility.yul\":9888:9981   */\n      tag_225\n        /* \"#utility.yul\":9977:9980   */\n      dup3\n        /* \"#utility.yul\":9888:9981   */\n      tag_131\n      jump\t// in\n    tag_225:\n        /* \"#utility.yul\":10006:10008   */\n      0x20\n        /* \"#utility.yul\":10001:10004   */\n      dup3\n        /* \"#utility.yul\":9997:10009   */\n      add\n        /* \"#utility.yul\":9990:10009   */\n      swap1\n      pop\n        /* \"#utility.yul\":9649:10015   */\n      swap2\n      swap1\n      pop\n      jump\t// out\n        /* \"#utility.yul\":10021:10440   */\n    tag_78:\n        /* \"#utility.yul\":10187:10191   */\n      0x00\n        /* \"#utility.yul\":10225:10227   */\n      0x20\n        /* \"#utility.yul\":10214:10223   */\n      dup3\n        /* \"#utility.yul\":10210:10228   */\n      add\n        /* \"#utility.yul\":10202:10228   */\n      swap1\n      pop\n        /* \"#utility.yul\":10274:10283   */\n      dup2\n        /* \"#utility.yul\":10268:10272   */\n      dup2\n        /* \"#utility.yul\":10264:10284   */\n      sub\n        /* \"#utility.yul\":10260:10261   */\n      0x00\n        /* \"#utility.yul\":10249:10258   */\n      dup4\n        /* \"#utility.yul\":10245:10262   */\n      add\n        /* \"#utility.yul\":10238:10285   */\n      mstore\n        /* \"#utility.yul\":10302:10433   */\n      tag_227\n        /* \"#utility.yul\":10428:10432   */\n      dup2\n        /* \"#utility.yul\":10302:10433   */\n      tag_132\n      jump\t// in\n    tag_227:\n        /* \"#utility.yul\":10294:10433   */\n      swap1\n      pop\n        /* \"#utility.yul\":10021:10440   */\n      swap2\n      swap1\n      pop\n      jump\t// out\n        /* \"#utility.yul\":10446:10610   */\n    tag_133:\n        /* \"#utility.yul\":10586:10602   */\n      0x66756e6420697320636c6f73657e000000000000000000000000000000000000\n        /* \"#utility.yul\":10582:10583   */\n      0x00\n        /* \"#utility.yul\":10574:10580   */\n      dup3\n        /* \"#utility.yul\":10570:10584   */\n      add\n        /* \"#utility.yul\":10563:10603   */\n      mstore\n        /* \"#utility.yul\":10446:10610   */\n      pop\n      jump\t// out\n        /* \"#utility.yul\":10616:10982   */\n    tag_134:\n        /* \"#utility.yul\":10758:10761   */\n      0x00\n        /* \"#utility.yul\":10779:10846   */\n      tag_230\n        /* \"#utility.yul\":10843:10845   */\n      0x0e\n        /* \"#utility.yul\":10838:10841   */\n      dup4\n        /* \"#utility.yul\":10779:10846   */\n      tag_115\n      jump\t// in\n    tag_230:\n        /* \"#utility.yul\":10772:10846   */\n      swap2\n      pop\n        /* \"#utility.yul\":10855:10948   */\n      tag_231\n        /* \"#utility.yul\":10944:10947   */\n      dup3\n        /* \"#utility.yul\":10855:10948   */\n      tag_133\n      jump\t// in\n    tag_231:\n        /* \"#utility.yul\":10973:10975   */\n      0x20\n        /* \"#utility.yul\":10968:10971   */\n      dup3\n        /* \"#utility.yul\":10964:10976   */\n      add\n        /* \"#utility.yul\":10957:10976   */\n      swap1\n      pop\n        /* \"#utility.yul\":10616:10982   */\n      swap2\n      swap1\n      pop\n      jump\t// out\n        /* \"#utility.yul\":10988:11407   */\n    tag_82:\n        /* \"#utility.yul\":11154:11158   */\n      0x00\n        /* \"#utility.yul\":11192:11194   */\n      0x20\n        /* \"#utility.yul\":11181:11190   */\n      dup3\n        /* \"#utility.yul\":11177:11195   */\n      add\n        /* \"#utility.yul\":11169:11195   */\n      swap1\n      pop\n        /* \"#utility.yul\":11241:11250   */\n      dup2\n        /* \"#utility.yul\":11235:11239   */\n      dup2\n        /* \"#utility.yul\":11231:11251   */\n      sub\n        /* \"#utility.yul\":11227:11228   */\n      0x00\n        /* \"#utility.yul\":11216:11225   */\n      dup4\n        /* \"#utility.yul\":11212:11229   */\n      add\n        /* \"#utility.yul\":11205:11252   */\n      mstore\n        /* \"#utility.yul\":11269:11400   */\n      tag_233\n        /* \"#utility.yul\":11395:11399   */\n      dup2\n        /* \"#utility.yul\":11269:11400   */\n      tag_134\n      jump\t// in\n    tag_233:\n        /* \"#utility.yul\":11261:11400   */\n      swap1\n      pop\n        /* \"#utility.yul\":10988:11407   */\n      swap2\n      swap1\n      pop\n      jump\t// out\n        /* \"#utility.yul\":11413:11577   */\n    tag_135:\n        /* \"#utility.yul\":11553:11569   */\n      0x796f7520686176652066756e647e000000000000000000000000000000000000\n        /* \"#utility.yul\":11549:11550   */\n      0x00\n        /* \"#utility.yul\":11541:11547   */\n      dup3\n        /* \"#utility.yul\":11537:11551   */\n      add\n        /* \"#utility.yul\":11530:11570   */\n      mstore\n        /* \"#utility.yul\":11413:11577   */\n      pop\n      jump\t// out\n        /* \"#utility.yul\":11583:11949   */\n    tag_136:\n        /* \"#utility.yul\":11725:11728   */\n      0x00\n        /* \"#utility.yul\":11746:11813   */\n      tag_236\n        /* \"#utility.yul\":11810:11812   */\n      0x0e\n        /* \"#utility.yul\":11805:11808   */\n      dup4\n        /* \"#utility.yul\":11746:11813   */\n      tag_115\n      jump\t// in\n    tag_236:\n        /* \"#utility.yul\":11739:11813   */\n      swap2\n      pop\n        /* \"#utility.yul\":11822:11915   */\n      tag_237\n        /* \"#utility.yul\":11911:11914   */\n      dup3\n        /* \"#utility.yul\":11822:11915   */\n      tag_135\n      jump\t// in\n    tag_237:\n        /* \"#utility.yul\":11940:11942   */\n      0x20\n        /* \"#utility.yul\":11935:11938   */\n      dup3\n        /* \"#utility.yul\":11931:11943   */\n      add\n        /* \"#utility.yul\":11924:11943   */\n      swap1\n      pop\n        /* \"#utility.yul\":11583:11949   */\n      swap2\n      swap1\n      pop\n      jump\t// out\n        /* \"#utility.yul\":11955:12374   */\n    tag_86:\n        /* \"#utility.yul\":12121:12125   */\n      0x00\n        /* \"#utility.yul\":12159:12161   */\n      0x20\n        /* \"#utility.yul\":12148:12157   */\n      dup3\n        /* \"#utility.yul\":12144:12162   */\n      add\n        /* \"#utility.yul\":12136:12162   */\n      swap1\n      pop\n        /* \"#utility.yul\":12208:12217   */\n      dup2\n        /* \"#utility.yul\":12202:12206   */\n      dup2\n        /* \"#utility.yul\":12198:12218   */\n      sub\n        /* \"#utility.yul\":12194:12195   */\n      0x00\n        /* \"#utility.yul\":12183:12192   */\n      dup4\n        /* \"#utility.yul\":12179:12196   */\n      add\n        /* \"#utility.yul\":12172:12219   */\n      mstore\n        /* \"#utility.yul\":12236:12367   */\n      tag_239\n        /* \"#utility.yul\":12362:12366   */\n      dup2\n        /* \"#utility.yul\":12236:12367   */\n      tag_136\n      jump\t// in\n    tag_239:\n        /* \"#utility.yul\":12228:12367   */\n      swap1\n      pop\n        /* \"#utility.yul\":11955:12374   */\n      swap2\n      swap1\n      pop\n      jump\t// out\n        /* \"#utility.yul\":12380:12544   */\n    tag_137:\n        /* \"#utility.yul\":12520:12536   */\n      0x73656e64206d6f7265206574687e000000000000000000000000000000000000\n        /* \"#utility.yul\":12516:12517   */\n      0x00\n        /* \"#utility.yul\":12508:12514   */\n      dup3\n        /* \"#utility.yul\":12504:12518   */\n      add\n        /* \"#utility.yul\":12497:12537   */\n      mstore\n        /* \"#utility.yul\":12380:12544   */\n      pop\n      jump\t// out\n        /* \"#utility.yul\":12550:12916   */\n    tag_138:\n        /* \"#utility.yul\":12692:12695   */\n      0x00\n        /* \"#utility.yul\":12713:12780   */\n      tag_242\n        /* \"#utility.yul\":12777:12779   */\n      0x0e\n        /* \"#utility.yul\":12772:12775   */\n      dup4\n        /* \"#utility.yul\":12713:12780   */\n      tag_115\n      jump\t// in\n    tag_242:\n        /* \"#utility.yul\":12706:12780   */\n      swap2\n      pop\n        /* \"#utility.yul\":12789:12882   */\n      tag_243\n        /* \"#utility.yul\":12878:12881   */\n      dup3\n        /* \"#utility.yul\":12789:12882   */\n      tag_137\n      jump\t// in\n    tag_243:\n        /* \"#utility.yul\":12907:12909   */\n      0x20\n        /* \"#utility.yul\":12902:12905   */\n      dup3\n        /* \"#utility.yul\":12898:12910   */\n      add\n        /* \"#utility.yul\":12891:12910   */\n      swap1\n      pop\n        /* \"#utility.yul\":12550:12916   */\n      swap2\n      swap1\n      pop\n      jump\t// out\n        /* \"#utility.yul\":12922:13341   */\n    tag_90:\n        /* \"#utility.yul\":13088:13092   */\n      0x00\n        /* \"#utility.yul\":13126:13128   */\n      0x20\n        /* \"#utility.yul\":13115:13124   */\n      dup3\n        /* \"#utility.yul\":13111:13129   */\n      add\n        /* \"#utility.yul\":13103:13129   */\n      swap1\n      pop\n        /* \"#utility.yul\":13175:13184   */\n      dup2\n        /* \"#utility.yul\":13169:13173   */\n      dup2\n        /* \"#utility.yul\":13165:13185   */\n      sub\n        /* \"#utility.yul\":13161:13162   */\n      0x00\n        /* \"#utility.yul\":13150:13159   */\n      dup4\n        /* \"#utility.yul\":13146:13163   */\n      add\n        /* \"#utility.yul\":13139:13186   */\n      mstore\n        /* \"#utility.yul\":13203:13334   */\n      tag_245\n        /* \"#utility.yul\":13329:13333   */\n      dup2\n        /* \"#utility.yul\":13203:13334   */\n      tag_138\n      jump\t// in\n    tag_245:\n        /* \"#utility.yul\":13195:13334   */\n      swap1\n      pop\n        /* \"#utility.yul\":12922:13341   */\n      swap2\n      swap1\n      pop\n      jump\t// out\n        /* \"#utility.yul\":13347:13452   */\n    tag_139:\n        /* \"#utility.yul\":13383:13390   */\n      0x00\n        /* \"#utility.yul\":13423:13445   */\n      0xffffffffffffffffffff\n        /* \"#utility.yul\":13416:13421   */\n      dup3\n        /* \"#utility.yul\":13412:13446   */\n      and\n        /* \"#utility.yul\":13401:13446   */\n      swap1\n      pop\n        /* \"#utility.yul\":13347:13452   */\n      swap2\n      swap1\n      pop\n      jump\t// out\n        /* \"#utility.yul\":13458:13578   */\n    tag_140:\n        /* \"#utility.yul\":13530:13553   */\n      tag_248\n        /* \"#utility.yul\":13547:13552   */\n      dup2\n        /* \"#utility.yul\":13530:13553   */\n      tag_139\n      jump\t// in\n    tag_248:\n        /* \"#utility.yul\":13523:13528   */\n      dup2\n        /* \"#utility.yul\":13520:13554   */\n      eq\n        /* \"#utility.yul\":13510:13572   */\n      tag_249\n      jumpi\n        /* \"#utility.yul\":13568:13569   */\n      0x00\n        /* \"#utility.yul\":13565:13566   */\n      dup1\n        /* \"#utility.yul\":13558:13570   */\n      revert\n        /* \"#utility.yul\":13510:13572   */\n    tag_249:\n        /* \"#utility.yul\":13458:13578   */\n      pop\n      jump\t// out\n        /* \"#utility.yul\":13584:13725   */\n    tag_141:\n        /* \"#utility.yul\":13640:13645   */\n      0x00\n        /* \"#utility.yul\":13671:13677   */\n      dup2\n        /* \"#utility.yul\":13665:13678   */\n      mload\n        /* \"#utility.yul\":13656:13678   */\n      swap1\n      pop\n        /* \"#utility.yul\":13687:13719   */\n      tag_251\n        /* \"#utility.yul\":13713:13718   */\n      dup2\n        /* \"#utility.yul\":13687:13719   */\n      tag_140\n      jump\t// in\n    tag_251:\n        /* \"#utility.yul\":13584:13725   */\n      swap3\n      swap2\n      pop\n      pop\n      jump\t// out\n        /* \"#utility.yul\":13731:13851   */\n    tag_142:\n        /* \"#utility.yul\":13803:13826   */\n      tag_253\n        /* \"#utility.yul\":13820:13825   */\n      dup2\n        /* \"#utility.yul\":13803:13826   */\n      tag_112\n      jump\t// in\n    tag_253:\n        /* \"#utility.yul\":13796:13801   */\n      dup2\n        /* \"#utility.yul\":13793:13827   */\n      eq\n        /* \"#utility.yul\":13783:13845   */\n      tag_254\n      jumpi\n        /* \"#utility.yul\":13841:13842   */\n      0x00\n        /* \"#utility.yul\":13838:13839   */\n      dup1\n        /* \"#utility.yul\":13831:13843   */\n      revert\n        /* \"#utility.yul\":13783:13845   */\n    tag_254:\n        /* \"#utility.yul\":13731:13851   */\n      pop\n      jump\t// out\n        /* \"#utility.yul\":13857:13998   */\n    tag_143:\n        /* \"#utility.yul\":13913:13918   */\n      0x00\n        /* \"#utility.yul\":13944:13950   */\n      dup2\n        /* \"#utility.yul\":13938:13951   */\n      mload\n        /* \"#utility.yul\":13929:13951   */\n      swap1\n      pop\n        /* \"#utility.yul\":13960:13992   */\n      tag_256\n        /* \"#utility.yul\":13986:13991   */\n      dup2\n        /* \"#utility.yul\":13960:13992   */\n      tag_142\n      jump\t// in\n    tag_256:\n        /* \"#utility.yul\":13857:13998   */\n      swap3\n      swap2\n      pop\n      pop\n      jump\t// out\n        /* \"#utility.yul\":14004:14126   */\n    tag_144:\n        /* \"#utility.yul\":14077:14101   */\n      tag_258\n        /* \"#utility.yul\":14095:14100   */\n      dup2\n        /* \"#utility.yul\":14077:14101   */\n      tag_110\n      jump\t// in\n    tag_258:\n        /* \"#utility.yul\":14070:14075   */\n      dup2\n        /* \"#utility.yul\":14067:14102   */\n      eq\n        /* \"#utility.yul\":14057:14120   */\n      tag_259\n      jumpi\n        /* \"#utility.yul\":14116:14117   */\n      0x00\n        /* \"#utility.yul\":14113:14114   */\n      dup1\n        /* \"#utility.yul\":14106:14118   */\n      revert\n        /* \"#utility.yul\":14057:14120   */\n    tag_259:\n        /* \"#utility.yul\":14004:14126   */\n      pop\n      jump\t// out\n        /* \"#utility.yul\":14132:14275   */\n    tag_145:\n        /* \"#utility.yul\":14189:14194   */\n      0x00\n        /* \"#utility.yul\":14220:14226   */\n      dup2\n        /* \"#utility.yul\":14214:14227   */\n      mload\n        /* \"#utility.yul\":14205:14227   */\n      swap1\n      pop\n        /* \"#utility.yul\":14236:14269   */\n      tag_261\n        /* \"#utility.yul\":14263:14268   */\n      dup2\n        /* \"#utility.yul\":14236:14269   */\n      tag_144\n      jump\t// in\n    tag_261:\n        /* \"#utility.yul\":14132:14275   */\n      swap3\n      swap2\n      pop\n      pop\n      jump\t// out\n        /* \"#utility.yul\":14281:15252   */\n    tag_95:\n        /* \"#utility.yul\":14384:14390   */\n      0x00\n        /* \"#utility.yul\":14392:14398   */\n      dup1\n        /* \"#utility.yul\":14400:14406   */\n      0x00\n        /* \"#utility.yul\":14408:14414   */\n      dup1\n        /* \"#utility.yul\":14416:14422   */\n      0x00\n        /* \"#utility.yul\":14465:14468   */\n      0xa0\n        /* \"#utility.yul\":14453:14462   */\n      dup7\n        /* \"#utility.yul\":14444:14451   */\n      dup9\n        /* \"#utility.yul\":14440:14463   */\n      sub\n        /* \"#utility.yul\":14436:14469   */\n      slt\n        /* \"#utility.yul\":14433:14553   */\n      iszero\n      tag_263\n      jumpi\n        /* \"#utility.yul\":14472:14551   */\n      tag_264\n      tag_104\n      jump\t// in\n    tag_264:\n        /* \"#utility.yul\":14433:14553   */\n    tag_263:\n        /* \"#utility.yul\":14592:14593   */\n      0x00\n        /* \"#utility.yul\":14617:14680   */\n      tag_265\n        /* \"#utility.yul\":14672:14679   */\n      dup9\n        /* \"#utility.yul\":14663:14669   */\n      dup3\n        /* \"#utility.yul\":14652:14661   */\n      dup10\n        /* \"#utility.yul\":14648:14670   */\n      add\n        /* \"#utility.yul\":14617:14680   */\n      tag_141\n      jump\t// in\n    tag_265:\n        /* \"#utility.yul\":14607:14680   */\n      swap6\n      pop\n        /* \"#utility.yul\":14563:14690   */\n      pop\n        /* \"#utility.yul\":14729:14731   */\n      0x20\n        /* \"#utility.yul\":14755:14818   */\n      tag_266\n        /* \"#utility.yul\":14810:14817   */\n      dup9\n        /* \"#utility.yul\":14801:14807   */\n      dup3\n        /* \"#utility.yul\":14790:14799   */\n      dup10\n        /* \"#utility.yul\":14786:14808   */\n      add\n        /* \"#utility.yul\":14755:14818   */\n      tag_143\n      jump\t// in\n    tag_266:\n        /* \"#utility.yul\":14745:14818   */\n      swap5\n      pop\n        /* \"#utility.yul\":14700:14828   */\n      pop\n        /* \"#utility.yul\":14867:14869   */\n      0x40\n        /* \"#utility.yul\":14893:14957   */\n      tag_267\n        /* \"#utility.yul\":14949:14956   */\n      dup9\n        /* \"#utility.yul\":14940:14946   */\n      dup3\n        /* \"#utility.yul\":14929:14938   */\n      dup10\n        /* \"#utility.yul\":14925:14947   */\n      add\n        /* \"#utility.yul\":14893:14957   */\n      tag_145\n      jump\t// in\n    tag_267:\n        /* \"#utility.yul\":14883:14957   */\n      swap4\n      pop\n        /* \"#utility.yul\":14838:14967   */\n      pop\n        /* \"#utility.yul\":15006:15008   */\n      0x60\n        /* \"#utility.yul\":15032:15096   */\n      tag_268\n        /* \"#utility.yul\":15088:15095   */\n      dup9\n        /* \"#utility.yul\":15079:15085   */\n      dup3\n        /* \"#utility.yul\":15068:15077   */\n      dup10\n        /* \"#utility.yul\":15064:15086   */\n      add\n        /* \"#utility.yul\":15032:15096   */\n      tag_145\n      jump\t// in\n    tag_268:\n        /* \"#utility.yul\":15022:15096   */\n      swap3\n      pop\n        /* \"#utility.yul\":14977:15106   */\n      pop\n        /* \"#utility.yul\":15145:15148   */\n      0x80\n        /* \"#utility.yul\":15172:15235   */\n      tag_269\n        /* \"#utility.yul\":15227:15234   */\n      dup9\n        /* \"#utility.yul\":15218:15224   */\n      dup3\n        /* \"#utility.yul\":15207:15216   */\n      dup10\n        /* \"#utility.yul\":15203:15225   */\n      add\n        /* \"#utility.yul\":15172:15235   */\n      tag_141\n      jump\t// in\n    tag_269:\n        /* \"#utility.yul\":15162:15235   */\n      swap2\n      pop\n        /* \"#utility.yul\":15116:15245   */\n      pop\n        /* \"#utility.yul\":14281:15252   */\n      swap3\n      swap6\n      pop\n      swap3\n      swap6\n      swap1\n      swap4\n      pop\n      jump\t// out\n        /* \"#utility.yul\":15258:15438   */\n    tag_146:\n        /* \"#utility.yul\":15306:15383   */\n      0x4e487b7100000000000000000000000000000000000000000000000000000000\n        /* \"#utility.yul\":15303:15304   */\n      0x00\n        /* \"#utility.yul\":15296:15384   */\n      mstore\n        /* \"#utility.yul\":15403:15407   */\n      0x11\n        /* \"#utility.yul\":15400:15401   */\n      0x04\n        /* \"#utility.yul\":15393:15408   */\n      mstore\n        /* \"#utility.yul\":15427:15431   */\n      0x24\n        /* \"#utility.yul\":15424:15425   */\n      0x00\n        /* \"#utility.yul\":15417:15432   */\n      revert\n        /* \"#utility.yul\":15444:15854   */\n    tag_100:\n        /* \"#utility.yul\":15484:15491   */\n      0x00\n        /* \"#utility.yul\":15507:15527   */\n      tag_272\n        /* \"#utility.yul\":15525:15526   */\n      dup3\n        /* \"#utility.yul\":15507:15527   */\n      tag_110\n      jump\t// in\n    tag_272:\n        /* \"#utility.yul\":15502:15527   */\n      swap2\n      pop\n        /* \"#utility.yul\":15541:15561   */\n      tag_273\n        /* \"#utility.yul\":15559:15560   */\n      dup4\n        /* \"#utility.yul\":15541:15561   */\n      tag_110\n      jump\t// in\n    tag_273:\n        /* \"#utility.yul\":15536:15561   */\n      swap3\n      pop\n        /* \"#utility.yul\":15596:15597   */\n      dup3\n        /* \"#utility.yul\":15593:15594   */\n      dup3\n        /* \"#utility.yul\":15589:15598   */\n      mul\n        /* \"#utility.yul\":15618:15648   */\n      tag_274\n        /* \"#utility.yul\":15636:15647   */\n      dup2\n        /* \"#utility.yul\":15618:15648   */\n      tag_110\n      jump\t// in\n    tag_274:\n        /* \"#utility.yul\":15607:15648   */\n      swap2\n      pop\n        /* \"#utility.yul\":15797:15798   */\n      dup3\n        /* \"#utility.yul\":15788:15795   */\n      dup3\n        /* \"#utility.yul\":15784:15799   */\n      div\n        /* \"#utility.yul\":15781:15782   */\n      dup5\n        /* \"#utility.yul\":15778:15800   */\n      eq\n        /* \"#utility.yul\":15758:15759   */\n      dup4\n        /* \"#utility.yul\":15751:15760   */\n      iszero\n        /* \"#utility.yul\":15731:15814   */\n      or\n        /* \"#utility.yul\":15708:15847   */\n      tag_275\n      jumpi\n        /* \"#utility.yul\":15827:15845   */\n      tag_276\n      tag_146\n      jump\t// in\n    tag_276:\n        /* \"#utility.yul\":15708:15847   */\n    tag_275:\n        /* \"#utility.yul\":15492:15854   */\n      pop\n        /* \"#utility.yul\":15444:15854   */\n      swap3\n      swap2\n      pop\n      pop\n      jump\t// out\n        /* \"#utility.yul\":15860:16040   */\n    tag_147:\n        /* \"#utility.yul\":15908:15985   */\n      0x4e487b7100000000000000000000000000000000000000000000000000000000\n        /* \"#utility.yul\":15905:15906   */\n      0x00\n        /* \"#utility.yul\":15898:15986   */\n      mstore\n        /* \"#utility.yul\":16005:16009   */\n      0x12\n        /* \"#utility.yul\":16002:16003   */\n      0x04\n        /* \"#utility.yul\":15995:16010   */\n      mstore\n        /* \"#utility.yul\":16029:16033   */\n      0x24\n        /* \"#utility.yul\":16026:16027   */\n      0x00\n        /* \"#utility.yul\":16019:16034   */\n      revert\n        /* \"#utility.yul\":16046:16231   */\n    tag_102:\n        /* \"#utility.yul\":16086:16087   */\n      0x00\n        /* \"#utility.yul\":16103:16123   */\n      tag_279\n        /* \"#utility.yul\":16121:16122   */\n      dup3\n        /* \"#utility.yul\":16103:16123   */\n      tag_110\n      jump\t// in\n    tag_279:\n        /* \"#utility.yul\":16098:16123   */\n      swap2\n      pop\n        /* \"#utility.yul\":16137:16157   */\n      tag_280\n        /* \"#utility.yul\":16155:16156   */\n      dup4\n        /* \"#utility.yul\":16137:16157   */\n      tag_110\n      jump\t// in\n    tag_280:\n        /* \"#utility.yul\":16132:16157   */\n      swap3\n      pop\n        /* \"#utility.yul\":16176:16177   */\n      dup3\n        /* \"#utility.yul\":16166:16201   */\n      tag_281\n      jumpi\n        /* \"#utility.yul\":16181:16199   */\n      tag_282\n      tag_147\n      jump\t// in\n    tag_282:\n        /* \"#utility.yul\":16166:16201   */\n    tag_281:\n        /* \"#utility.yul\":16223:16224   */\n      dup3\n        /* \"#utility.yul\":16220:16221   */\n      dup3\n        /* \"#utility.yul\":16216:16225   */\n      div\n        /* \"#utility.yul\":16211:16225   */\n      swap1\n      pop\n        /* \"#utility.yul\":16046:16231   */\n      swap3\n      swap2\n      pop\n      pop\n      jump\t// out\n\n    auxdata: 0xa2646970667358221220d3560de67b5a3f6cb4b4c1a457d8be1595f4787fdf3fde04760c22d0897bb72464736f6c63430008180033\n}\n",
				"bytecode": {
					"linkReferences": {},
					"object": "608060405234801562000010575f80fd5b506040516200119938038062001199833981810160405281019062000036919062000129565b73694aa1769357215de4fac081bf1f309adc3253065f806101000a81548173ffffffffffffffffffffffffffffffffffffffff021916908373ffffffffffffffffffffffffffffffffffffffff1602179055503360015f6101000a81548173ffffffffffffffffffffffffffffffffffffffff021916908373ffffffffffffffffffffffffffffffffffffffff1602179055504260038190555080600354620000e0919062000186565b60048190555050620001c0565b5f80fd5b5f819050919050565b6200010581620000f1565b811462000110575f80fd5b50565b5f815190506200012381620000fa565b92915050565b5f60208284031215620001415762000140620000ed565b5b5f620001508482850162000113565b91505092915050565b7f4e487b71000000000000000000000000000000000000000000000000000000005f52601160045260245ffd5b5f6200019282620000f1565b91506200019f83620000f1565b9250828201905080821115620001ba57620001b962000159565b5b92915050565b610fcb80620001ce5f395ff3fe60806040526004361061006f575f3560e01c8063b82ffdf91161004d578063b82ffdf9146100a9578063bea4dfb5146100e5578063e7b59bf31461010f578063fd301c49146101375761006f565b8063590e1ae314610073578063749141bc14610089578063b60d42881461009f575b5f80fd5b34801561007e575f80fd5b50610087610161565b005b348015610094575f80fd5b5061009d61039c565b005b6100a76105ab565b005b3480156100b4575f80fd5b506100cf60048036038101906100ca91906108aa565b6106fe565b6040516100dc91906108ed565b60405180910390f35b3480156100f0575f80fd5b506100f9610713565b604051610106919061091e565b60405180910390f35b34801561011a575f80fd5b50610135600480360381019061013091906108aa565b6107ae565b005b348015610142575f80fd5b5061014b6107f1565b6040516101589190610946565b60405180910390f35b6004544210156101a6576040517f08c379a000000000000000000000000000000000000000000000000000000000815260040161019d906109b9565b60405180910390fd5b601e6101b147610816565b106101f1576040517f08c379a00000000000000000000000000000000000000000000000000000000081526004016101e890610a21565b60405180910390fd5b5f60025f3373ffffffffffffffffffffffffffffffffffffffff1673ffffffffffffffffffffffffffffffffffffffff1681526020019081526020015f205403610270576040517f08c379a000000000000000000000000000000000000000000000000000000000815260040161026790610a89565b60405180910390fd5b5f3373ffffffffffffffffffffffffffffffffffffffff1660025f3373ffffffffffffffffffffffffffffffffffffffff1673ffffffffffffffffffffffffffffffffffffffff1681526020019081526020015f20546040516102d290610ad4565b5f6040518083038185875af1925050503d805f811461030c576040519150601f19603f3d011682016040523d82523d5f602084013e610311565b606091505b50508091505080610357576040517f08c379a000000000000000000000000000000000000000000000000000000000815260040161034e90610b32565b60405180910390fd5b5f60025f3373ffffffffffffffffffffffffffffffffffffffff1673ffffffffffffffffffffffffffffffffffffffff1681526020019081526020015f208190555050565b6004544210156103e1576040517f08c379a00000000000000000000000000000000000000000000000000000000081526004016103d8906109b9565b60405180910390fd5b60015f9054906101000a900473ffffffffffffffffffffffffffffffffffffffff1673ffffffffffffffffffffffffffffffffffffffff163373ffffffffffffffffffffffffffffffffffffffff1614610470576040517f08c379a000000000000000000000000000000000000000000000000000000000815260040161046790610b9a565b60405180910390fd5b601e61047b47610816565b10156104bc576040517f08c379a00000000000000000000000000000000000000000000000000000000081526004016104b390610c02565b60405180910390fd5b5f3373ffffffffffffffffffffffffffffffffffffffff16476040516104e190610ad4565b5f6040518083038185875af1925050503d805f811461051b576040519150601f19603f3d011682016040523d82523d5f602084013e610520565b606091505b50508091505080610566576040517f08c379a000000000000000000000000000000000000000000000000000000000815260040161055d90610c6a565b60405180910390fd5b5f60025f3373ffffffffffffffffffffffffffffffffffffffff1673ffffffffffffffffffffffffffffffffffffffff1681526020019081526020015f208190555050565b60045442106105ef576040517f08c379a00000000000000000000000000000000000000000000000000000000081526004016105e690610cd2565b60405180910390fd5b5f60025f3373ffffffffffffffffffffffffffffffffffffffff1673ffffffffffffffffffffffffffffffffffffffff1681526020019081526020015f20541461066e576040517f08c379a000000000000000000000000000000000000000000000000000000000815260040161066590610d3a565b60405180910390fd5b600a61067934610816565b10156106ba576040517f08c379a00000000000000000000000000000000000000000000000000000000081526004016106b190610da2565b60405180910390fd5b3460025f3373ffffffffffffffffffffffffffffffffffffffff1673ffffffffffffffffffffffffffffffffffffffff1681526020019081526020015f2081905550565b6002602052805f5260405f205f915090505481565b5f805f8054906101000a900473ffffffffffffffffffffffffffffffffffffffff1673ffffffffffffffffffffffffffffffffffffffff1663feaf968c6040518163ffffffff1660e01b815260040160a060405180830381865afa15801561077d573d5f803e3d5ffd5b505050506040513d601f19601f820116820180604052508101906107a19190610e53565b5050509150508091505090565b8060015f6101000a81548173ffffffffffffffffffffffffffffffffffffffff021916908373ffffffffffffffffffffffffffffffffffffffff16021790555050565b60015f9054906101000a900473ffffffffffffffffffffffffffffffffffffffff1681565b5f80610820610713565b90506a52b7d2dcc80cd2e4000000838261083a9190610ef7565b6108449190610f65565b915050919050565b5f80fd5b5f73ffffffffffffffffffffffffffffffffffffffff82169050919050565b5f61087982610850565b9050919050565b6108898161086f565b8114610893575f80fd5b50565b5f813590506108a481610880565b92915050565b5f602082840312156108bf576108be61084c565b5b5f6108cc84828501610896565b91505092915050565b5f819050919050565b6108e7816108d5565b82525050565b5f6020820190506109005f8301846108de565b92915050565b5f819050919050565b61091881610906565b82525050565b5f6020820190506109315f83018461090f565b92915050565b6109408161086f565b82525050565b5f6020820190506109595f830184610937565b92915050565b5f82825260208201905092915050565b7f66756e6420697320657865637e000000000000000000000000000000000000005f82015250565b5f6109a3600d8361095f565b91506109ae8261096f565b602082019050919050565b5f6020820190508181035f8301526109d081610997565b9050919050565b7f74617267657420697320726561636865647e00000000000000000000000000005f82015250565b5f610a0b60128361095f565b9150610a16826109d7565b602082019050919050565b5f6020820190508181035f830152610a38816109ff565b9050919050565b7f7468657265206973206e6f2066756e6420666f7220796f757e000000000000005f82015250565b5f610a7360198361095f565b9150610a7e82610a3f565b602082019050919050565b5f6020820190508181035f830152610aa081610a67565b9050919050565b5f81905092915050565b50565b5f610abf5f83610aa7565b9150610aca82610ab1565b5f82019050919050565b5f610ade82610ab4565b9150819050919050565b7f726566756e64207472616e73666572206661696c65647e0000000000000000005f82015250565b5f610b1c60178361095f565b9150610b2782610ae8565b602082019050919050565b5f6020820190508181035f830152610b4981610b10565b9050919050565b7f796f75206e6f7420697320636f6e7472616374206f776e65727e0000000000005f82015250565b5f610b84601a8361095f565b9150610b8f82610b50565b602082019050919050565b5f6020820190508181035f830152610bb181610b78565b9050919050565b7f746172676574206973206e6f7420726561636865647e000000000000000000005f82015250565b5f610bec60168361095f565b9150610bf782610bb8565b602082019050919050565b5f6020820190508181035f830152610c1981610be0565b9050919050565b7f64726177207472616e73666572206661696c65647e00000000000000000000005f82015250565b5f610c5460158361095f565b9150610c5f82610c20565b602082019050919050565b5f6020820190508181035f830152610c8181610c48565b9050919050565b7f66756e6420697320636c6f73657e0000000000000000000000000000000000005f82015250565b5f610cbc600e8361095f565b9150610cc782610c88565b602082019050919050565b5f6020820190508181035f830152610ce981610cb0565b9050919050565b7f796f7520686176652066756e647e0000000000000000000000000000000000005f82015250565b5f610d24600e8361095f565b9150610d2f82610cf0565b602082019050919050565b5f6020820190508181035f830152610d5181610d18565b9050919050565b7f73656e64206d6f7265206574687e0000000000000000000000000000000000005f82015250565b5f610d8c600e8361095f565b9150610d9782610d58565b602082019050919050565b5f6020820190508181035f830152610db981610d80565b9050919050565b5f69ffffffffffffffffffff82169050919050565b610dde81610dc0565b8114610de8575f80fd5b50565b5f81519050610df981610dd5565b92915050565b610e0881610906565b8114610e12575f80fd5b50565b5f81519050610e2381610dff565b92915050565b610e32816108d5565b8114610e3c575f80fd5b50565b5f81519050610e4d81610e29565b92915050565b5f805f805f60a08688031215610e6c57610e6b61084c565b5b5f610e7988828901610deb565b9550506020610e8a88828901610e15565b9450506040610e9b88828901610e3f565b9350506060610eac88828901610e3f565b9250506080610ebd88828901610deb565b9150509295509295909350565b7f4e487b71000000000000000000000000000000000000000000000000000000005f52601160045260245ffd5b5f610f01826108d5565b9150610f0c836108d5565b9250828202610f1a816108d5565b91508282048414831517610f3157610f30610eca565b5b5092915050565b7f4e487b71000000000000000000000000000000000000000000000000000000005f52601260045260245ffd5b5f610f6f826108d5565b9150610f7a836108d5565b925082610f8a57610f89610f38565b5b82820490509291505056fea2646970667358221220d3560de67b5a3f6cb4b4c1a457d8be1595f4787fdf3fde04760c22d0897bb72464736f6c63430008180033",
					"opcodes": "PUSH1 0x80 PUSH1 0x40 MSTORE CALLVALUE DUP1 ISZERO PUSH3 0x10 JUMPI PUSH0 DUP1 REVERT JUMPDEST POP PUSH1 0x40 MLOAD PUSH3 0x1199 CODESIZE SUB DUP1 PUSH3 0x1199 DUP4 CODECOPY DUP2 DUP2 ADD PUSH1 0x40 MSTORE DUP2 ADD SWAP1 PUSH3 0x36 SWAP2 SWAP1 PUSH3 0x129 JUMP JUMPDEST PUSH20 0x694AA1769357215DE4FAC081BF1F309ADC325306 PUSH0 DUP1 PUSH2 0x100 EXP DUP2 SLOAD DUP2 PUSH20 0xFFFFFFFFFFFFFFFFFFFFFFFFFFFFFFFFFFFFFFFF MUL NOT AND SWAP1 DUP4 PUSH20 0xFFFFFFFFFFFFFFFFFFFFFFFFFFFFFFFFFFFFFFFF AND MUL OR SWAP1 SSTORE POP CALLER PUSH1 0x1 PUSH0 PUSH2 0x100 EXP DUP2 SLOAD DUP2 PUSH20 0xFFFFFFFFFFFFFFFFFFFFFFFFFFFFFFFFFFFFFFFF MUL NOT AND SWAP1 DUP4 PUSH20 0xFFFFFFFFFFFFFFFFFFFFFFFFFFFFFFFFFFFFFFFF AND MUL OR SWAP1 SSTORE POP TIMESTAMP PUSH1 0x3 DUP2 SWAP1 SSTORE POP DUP1 PUSH1 0x3 SLOAD PUSH3 0xE0 SWAP2 SWAP1 PUSH3 0x186 JUMP JUMPDEST PUSH1 0x4 DUP2 SWAP1 SSTORE POP POP PUSH3 0x1C0 JUMP JUMPDEST PUSH0 DUP1 REVERT JUMPDEST PUSH0 DUP2 SWAP1 POP SWAP2 SWAP1 POP JUMP JUMPDEST PUSH3 0x105 DUP2 PUSH3 0xF1 JUMP JUMPDEST DUP2 EQ PUSH3 0x110 JUMPI PUSH0 DUP1 REVERT JUMPDEST POP JUMP JUMPDEST PUSH0 DUP2 MLOAD SWAP1 POP PUSH3 0x123 DUP2 PUSH3 0xFA JUMP JUMPDEST SWAP3 SWAP2 POP POP JUMP JUMPDEST PUSH0 PUSH1 0x20 DUP3 DUP5 SUB SLT ISZERO PUSH3 0x141 JUMPI PUSH3 0x140 PUSH3 0xED JUMP JUMPDEST JUMPDEST PUSH0 PUSH3 0x150 DUP5 DUP3 DUP6 ADD PUSH3 0x113 JUMP JUMPDEST SWAP2 POP POP SWAP3 SWAP2 POP POP JUMP JUMPDEST PUSH32 0x4E487B7100000000000000000000000000000000000000000000000000000000 PUSH0 MSTORE PUSH1 0x11 PUSH1 0x4 MSTORE PUSH1 0x24 PUSH0 REVERT JUMPDEST PUSH0 PUSH3 0x192 DUP3 PUSH3 0xF1 JUMP JUMPDEST SWAP2 POP PUSH3 0x19F DUP4 PUSH3 0xF1 JUMP JUMPDEST SWAP3 POP DUP3 DUP3 ADD SWAP1 POP DUP1 DUP3 GT ISZERO PUSH3 0x1BA JUMPI PUSH3 0x1B9 PUSH3 0x159 JUMP JUMPDEST JUMPDEST SWAP3 SWAP2 POP POP JUMP JUMPDEST PUSH2 0xFCB DUP1 PUSH3 0x1CE PUSH0 CODECOPY PUSH0 RETURN INVALID PUSH1 0x80 PUSH1 0x40 MSTORE PUSH1 0x4 CALLDATASIZE LT PUSH2 0x6F JUMPI PUSH0 CALLDATALOAD PUSH1 0xE0 SHR DUP1 PUSH4 0xB82FFDF9 GT PUSH2 0x4D JUMPI DUP1 PUSH4 0xB82FFDF9 EQ PUSH2 0xA9 JUMPI DUP1 PUSH4 0xBEA4DFB5 EQ PUSH2 0xE5 JUMPI DUP1 PUSH4 0xE7B59BF3 EQ PUSH2 0x10F JUMPI DUP1 PUSH4 0xFD301C49 EQ PUSH2 0x137 JUMPI PUSH2 0x6F JUMP JUMPDEST DUP1 PUSH4 0x590E1AE3 EQ PUSH2 0x73 JUMPI DUP1 PUSH4 0x749141BC EQ PUSH2 0x89 JUMPI DUP1 PUSH4 0xB60D4288 EQ PUSH2 0x9F JUMPI JUMPDEST PUSH0 DUP1 REVERT JUMPDEST CALLVALUE DUP1 ISZERO PUSH2 0x7E JUMPI PUSH0 DUP1 REVERT JUMPDEST POP PUSH2 0x87 PUSH2 0x161 JUMP JUMPDEST STOP JUMPDEST CALLVALUE DUP1 ISZERO PUSH2 0x94 JUMPI PUSH0 DUP1 REVERT JUMPDEST POP PUSH2 0x9D PUSH2 0x39C JUMP JUMPDEST STOP JUMPDEST PUSH2 0xA7 PUSH2 0x5AB JUMP JUMPDEST STOP JUMPDEST CALLVALUE DUP1 ISZERO PUSH2 0xB4 JUMPI PUSH0 DUP1 REVERT JUMPDEST POP PUSH2 0xCF PUSH1 0x4 DUP1 CALLDATASIZE SUB DUP2 ADD SWAP1 PUSH2 0xCA SWAP2 SWAP1 PUSH2 0x8AA JUMP JUMPDEST PUSH2 0x6FE JUMP JUMPDEST PUSH1 0x40 MLOAD PUSH2 0xDC SWAP2 SWAP1 PUSH2 0x8ED JUMP JUMPDEST PUSH1 0x40 MLOAD DUP1 SWAP2 SUB SWAP1 RETURN JUMPDEST CALLVALUE DUP1 ISZERO PUSH2 0xF0 JUMPI PUSH0 DUP1 REVERT JUMPDEST POP PUSH2 0xF9 PUSH2 0x713 JUMP JUMPDEST PUSH1 0x40 MLOAD PUSH2 0x106 SWAP2 SWAP1 PUSH2 0x91E JUMP JUMPDEST PUSH1 0x40 MLOAD DUP1 SWAP2 SUB SWAP1 RETURN JUMPDEST CALLVALUE DUP1 ISZERO PUSH2 0x11A JUMPI PUSH0 DUP1 REVERT JUMPDEST POP PUSH2 0x135 PUSH1 0x4 DUP1 CALLDATASIZE SUB DUP2 ADD SWAP1 PUSH2 0x130 SWAP2 SWAP1 PUSH2 0x8AA JUMP JUMPDEST PUSH2 0x7AE JUMP JUMPDEST STOP JUMPDEST CALLVALUE DUP1 ISZERO PUSH2 0x142 JUMPI PUSH0 DUP1 REVERT JUMPDEST POP PUSH2 0x14B PUSH2 0x7F1 JUMP JUMPDEST PUSH1 0x40 MLOAD PUSH2 0x158 SWAP2 SWAP1 PUSH2 0x946 JUMP JUMPDEST PUSH1 0x40 MLOAD DUP1 SWAP2 SUB SWAP1 RETURN JUMPDEST PUSH1 0x4 SLOAD TIMESTAMP LT ISZERO PUSH2 0x1A6 JUMPI PUSH1 0x40 MLOAD PUSH32 0x8C379A000000000000000000000000000000000000000000000000000000000 DUP2 MSTORE PUSH1 0x4 ADD PUSH2 0x19D SWAP1 PUSH2 0x9B9 JUMP JUMPDEST PUSH1 0x40 MLOAD DUP1 SWAP2 SUB SWAP1 REVERT JUMPDEST PUSH1 0x1E PUSH2 0x1B1 SELFBALANCE PUSH2 0x816 JUMP JUMPDEST LT PUSH2 0x1F1 JUMPI PUSH1 0x40 MLOAD PUSH32 0x8C379A000000000000000000000000000000000000000000000000000000000 DUP2 MSTORE PUSH1 0x4 ADD PUSH2 0x1E8 SWAP1 PUSH2 0xA21 JUMP JUMPDEST PUSH1 0x40 MLOAD DUP1 SWAP2 SUB SWAP1 REVERT JUMPDEST PUSH0 PUSH1 0x2 PUSH0 CALLER PUSH20 0xFFFFFFFFFFFFFFFFFFFFFFFFFFFFFFFFFFFFFFFF AND PUSH20 0xFFFFFFFFFFFFFFFFFFFFFFFFFFFFFFFFFFFFFFFF AND DUP2 MSTORE PUSH1 0x20 ADD SWAP1 DUP2 MSTORE PUSH1 0x20 ADD PUSH0 KECCAK256 SLOAD SUB PUSH2 0x270 JUMPI PUSH1 0x40 MLOAD PUSH32 0x8C379A000000000000000000000000000000000000000000000000000000000 DUP2 MSTORE PUSH1 0x4 ADD PUSH2 0x267 SWAP1 PUSH2 0xA89 JUMP JUMPDEST PUSH1 0x40 MLOAD DUP1 SWAP2 SUB SWAP1 REVERT JUMPDEST PUSH0 CALLER PUSH20 0xFFFFFFFFFFFFFFFFFFFFFFFFFFFFFFFFFFFFFFFF AND PUSH1 0x2 PUSH0 CALLER PUSH20 0xFFFFFFFFFFFFFFFFFFFFFFFFFFFFFFFFFFFFFFFF AND PUSH20 0xFFFFFFFFFFFFFFFFFFFFFFFFFFFFFFFFFFFFFFFF AND DUP2 MSTORE PUSH1 0x20 ADD SWAP1 DUP2 MSTORE PUSH1 0x20 ADD PUSH0 KECCAK256 SLOAD PUSH1 0x40 MLOAD PUSH2 0x2D2 SWAP1 PUSH2 0xAD4 JUMP JUMPDEST PUSH0 PUSH1 0x40 MLOAD DUP1 DUP4 SUB DUP2 DUP6 DUP8 GAS CALL SWAP3 POP POP POP RETURNDATASIZE DUP1 PUSH0 DUP2 EQ PUSH2 0x30C JUMPI PUSH1 0x40 MLOAD SWAP2 POP PUSH1 0x1F NOT PUSH1 0x3F RETURNDATASIZE ADD AND DUP3 ADD PUSH1 0x40 MSTORE RETURNDATASIZE DUP3 MSTORE RETURNDATASIZE PUSH0 PUSH1 0x20 DUP5 ADD RETURNDATACOPY PUSH2 0x311 JUMP JUMPDEST PUSH1 0x60 SWAP2 POP JUMPDEST POP POP DUP1 SWAP2 POP POP DUP1 PUSH2 0x357 JUMPI PUSH1 0x40 MLOAD PUSH32 0x8C379A000000000000000000000000000000000000000000000000000000000 DUP2 MSTORE PUSH1 0x4 ADD PUSH2 0x34E SWAP1 PUSH2 0xB32 JUMP JUMPDEST PUSH1 0x40 MLOAD DUP1 SWAP2 SUB SWAP1 REVERT JUMPDEST PUSH0 PUSH1 0x2 PUSH0 CALLER PUSH20 0xFFFFFFFFFFFFFFFFFFFFFFFFFFFFFFFFFFFFFFFF AND PUSH20 0xFFFFFFFFFFFFFFFFFFFFFFFFFFFFFFFFFFFFFFFF AND DUP2 MSTORE PUSH1 0x20 ADD SWAP1 DUP2 MSTORE PUSH1 0x20 ADD PUSH0 KECCAK256 DUP2 SWAP1 SSTORE POP POP JUMP JUMPDEST PUSH1 0x4 SLOAD TIMESTAMP LT ISZERO PUSH2 0x3E1 JUMPI PUSH1 0x40 MLOAD PUSH32 0x8C379A000000000000000000000000000000000000000000000000000000000 DUP2 MSTORE PUSH1 0x4 ADD PUSH2 0x3D8 SWAP1 PUSH2 0x9B9 JUMP JUMPDEST PUSH1 0x40 MLOAD DUP1 SWAP2 SUB SWAP1 REVERT JUMPDEST PUSH1 0x1 PUSH0 SWAP1 SLOAD SWAP1 PUSH2 0x100 EXP SWAP1 DIV PUSH20 0xFFFFFFFFFFFFFFFFFFFFFFFFFFFFFFFFFFFFFFFF AND PUSH20 0xFFFFFFFFFFFFFFFFFFFFFFFFFFFFFFFFFFFFFFFF AND CALLER PUSH20 0xFFFFFFFFFFFFFFFFFFFFFFFFFFFFFFFFFFFFFFFF AND EQ PUSH2 0x470 JUMPI PUSH1 0x40 MLOAD PUSH32 0x8C379A000000000000000000000000000000000000000000000000000000000 DUP2 MSTORE PUSH1 0x4 ADD PUSH2 0x467 SWAP1 PUSH2 0xB9A JUMP JUMPDEST PUSH1 0x40 MLOAD DUP1 SWAP2 SUB SWAP1 REVERT JUMPDEST PUSH1 0x1E PUSH2 0x47B SELFBALANCE PUSH2 0x816 JUMP JUMPDEST LT ISZERO PUSH2 0x4BC JUMPI PUSH1 0x40 MLOAD PUSH32 0x8C379A000000000000000000000000000000000000000000000000000000000 DUP2 MSTORE PUSH1 0x4 ADD PUSH2 0x4B3 SWAP1 PUSH2 0xC02 JUMP JUMPDEST PUSH1 0x40 MLOAD DUP1 SWAP2 SUB SWAP1 REVERT JUMPDEST PUSH0 CALLER PUSH20 0xFFFFFFFFFFFFFFFFFFFFFFFFFFFFFFFFFFFFFFFF AND SELFBALANCE PUSH1 0x40 MLOAD PUSH2 0x4E1 SWAP1 PUSH2 0xAD4 JUMP JUMPDEST PUSH0 PUSH1 0x40 MLOAD DUP1 DUP4 SUB DUP2 DUP6 DUP8 GAS CALL SWAP3 POP POP POP RETURNDATASIZE DUP1 PUSH0 DUP2 EQ PUSH2 0x51B JUMPI PUSH1 0x40 MLOAD SWAP2 POP PUSH1 0x1F NOT PUSH1 0x3F RETURNDATASIZE ADD AND DUP3 ADD PUSH1 0x40 MSTORE RETURNDATASIZE DUP3 MSTORE RETURNDATASIZE PUSH0 PUSH1 0x20 DUP5 ADD RETURNDATACOPY PUSH2 0x520 JUMP JUMPDEST PUSH1 0x60 SWAP2 POP JUMPDEST POP POP DUP1 SWAP2 POP POP DUP1 PUSH2 0x566 JUMPI PUSH1 0x40 MLOAD PUSH32 0x8C379A000000000000000000000000000000000000000000000000000000000 DUP2 MSTORE PUSH1 0x4 ADD PUSH2 0x55D SWAP1 PUSH2 0xC6A JUMP JUMPDEST PUSH1 0x40 MLOAD DUP1 SWAP2 SUB SWAP1 REVERT JUMPDEST PUSH0 PUSH1 0x2 PUSH0 CALLER PUSH20 0xFFFFFFFFFFFFFFFFFFFFFFFFFFFFFFFFFFFFFFFF AND PUSH20 0xFFFFFFFFFFFFFFFFFFFFFFFFFFFFFFFFFFFFFFFF AND DUP2 MSTORE PUSH1 0x20 ADD SWAP1 DUP2 MSTORE PUSH1 0x20 ADD PUSH0 KECCAK256 DUP2 SWAP1 SSTORE POP POP JUMP JUMPDEST PUSH1 0x4 SLOAD TIMESTAMP LT PUSH2 0x5EF JUMPI PUSH1 0x40 MLOAD PUSH32 0x8C379A000000000000000000000000000000000000000000000000000000000 DUP2 MSTORE PUSH1 0x4 ADD PUSH2 0x5E6 SWAP1 PUSH2 0xCD2 JUMP JUMPDEST PUSH1 0x40 MLOAD DUP1 SWAP2 SUB SWAP1 REVERT JUMPDEST PUSH0 PUSH1 0x2 PUSH0 CALLER PUSH20 0xFFFFFFFFFFFFFFFFFFFFFFFFFFFFFFFFFFFFFFFF AND PUSH20 0xFFFFFFFFFFFFFFFFFFFFFFFFFFFFFFFFFFFFFFFF AND DUP2 MSTORE PUSH1 0x20 ADD SWAP1 DUP2 MSTORE PUSH1 0x20 ADD PUSH0 KECCAK256 SLOAD EQ PUSH2 0x66E JUMPI PUSH1 0x40 MLOAD PUSH32 0x8C379A000000000000000000000000000000000000000000000000000000000 DUP2 MSTORE PUSH1 0x4 ADD PUSH2 0x665 SWAP1 PUSH2 0xD3A JUMP JUMPDEST PUSH1 0x40 MLOAD DUP1 SWAP2 SUB SWAP1 REVERT JUMPDEST PUSH1 0xA PUSH2 0x679 CALLVALUE PUSH2 0x816 JUMP JUMPDEST LT ISZERO PUSH2 0x6BA JUMPI PUSH1 0x40 MLOAD PUSH32 0x8C379A000000000000000000000000000000000000000000000000000000000 DUP2 MSTORE PUSH1 0x4 ADD PUSH2 0x6B1 SWAP1 PUSH2 0xDA2 JUMP JUMPDEST PUSH1 0x40 MLOAD DUP1 SWAP2 SUB SWAP1 REVERT JUMPDEST CALLVALUE PUSH1 0x2 PUSH0 CALLER PUSH20 0xFFFFFFFFFFFFFFFFFFFFFFFFFFFFFFFFFFFFFFFF AND PUSH20 0xFFFFFFFFFFFFFFFFFFFFFFFFFFFFFFFFFFFFFFFF AND DUP2 MSTORE PUSH1 0x20 ADD SWAP1 DUP2 MSTORE PUSH1 0x20 ADD PUSH0 KECCAK256 DUP2 SWAP1 SSTORE POP JUMP JUMPDEST PUSH1 0x2 PUSH1 0x20 MSTORE DUP1 PUSH0 MSTORE PUSH1 0x40 PUSH0 KECCAK256 PUSH0 SWAP2 POP SWAP1 POP SLOAD DUP2 JUMP JUMPDEST PUSH0 DUP1 PUSH0 DUP1 SLOAD SWAP1 PUSH2 0x100 EXP SWAP1 DIV PUSH20 0xFFFFFFFFFFFFFFFFFFFFFFFFFFFFFFFFFFFFFFFF AND PUSH20 0xFFFFFFFFFFFFFFFFFFFFFFFFFFFFFFFFFFFFFFFF AND PUSH4 0xFEAF968C PUSH1 0x40 MLOAD DUP2 PUSH4 0xFFFFFFFF AND PUSH1 0xE0 SHL DUP2 MSTORE PUSH1 0x4 ADD PUSH1 0xA0 PUSH1 0x40 MLOAD DUP1 DUP4 SUB DUP2 DUP7 GAS STATICCALL ISZERO DUP1 ISZERO PUSH2 0x77D JUMPI RETURNDATASIZE PUSH0 DUP1 RETURNDATACOPY RETURNDATASIZE PUSH0 REVERT JUMPDEST POP POP POP POP PUSH1 0x40 MLOAD RETURNDATASIZE PUSH1 0x1F NOT PUSH1 0x1F DUP3 ADD AND DUP3 ADD DUP1 PUSH1 0x40 MSTORE POP DUP2 ADD SWAP1 PUSH2 0x7A1 SWAP2 SWAP1 PUSH2 0xE53 JUMP JUMPDEST POP POP POP SWAP2 POP POP DUP1 SWAP2 POP POP SWAP1 JUMP JUMPDEST DUP1 PUSH1 0x1 PUSH0 PUSH2 0x100 EXP DUP2 SLOAD DUP2 PUSH20 0xFFFFFFFFFFFFFFFFFFFFFFFFFFFFFFFFFFFFFFFF MUL NOT AND SWAP1 DUP4 PUSH20 0xFFFFFFFFFFFFFFFFFFFFFFFFFFFFFFFFFFFFFFFF AND MUL OR SWAP1 SSTORE POP POP JUMP JUMPDEST PUSH1 0x1 PUSH0 SWAP1 SLOAD SWAP1 PUSH2 0x100 EXP SWAP1 DIV PUSH20 0xFFFFFFFFFFFFFFFFFFFFFFFFFFFFFFFFFFFFFFFF AND DUP2 JUMP JUMPDEST PUSH0 DUP1 PUSH2 0x820 PUSH2 0x713 JUMP JUMPDEST SWAP1 POP PUSH11 0x52B7D2DCC80CD2E4000000 DUP4 DUP3 PUSH2 0x83A SWAP2 SWAP1 PUSH2 0xEF7 JUMP JUMPDEST PUSH2 0x844 SWAP2 SWAP1 PUSH2 0xF65 JUMP JUMPDEST SWAP2 POP POP SWAP2 SWAP1 POP JUMP JUMPDEST PUSH0 DUP1 REVERT JUMPDEST PUSH0 PUSH20 0xFFFFFFFFFFFFFFFFFFFFFFFFFFFFFFFFFFFFFFFF DUP3 AND SWAP1 POP SWAP2 SWAP1 POP JUMP JUMPDEST PUSH0 PUSH2 0x879 DUP3 PUSH2 0x850 JUMP JUMPDEST SWAP1 POP SWAP2 SWAP1 POP JUMP JUMPDEST PUSH2 0x889 DUP2 PUSH2 0x86F JUMP JUMPDEST DUP2 EQ PUSH2 0x893 JUMPI PUSH0 DUP1 REVERT JUMPDEST POP JUMP JUMPDEST PUSH0 DUP2 CALLDATALOAD SWAP1 POP PUSH2 0x8A4 DUP2 PUSH2 0x880 JUMP JUMPDEST SWAP3 SWAP2 POP POP JUMP JUMPDEST PUSH0 PUSH1 0x20 DUP3 DUP5 SUB SLT ISZERO PUSH2 0x8BF JUMPI PUSH2 0x8BE PUSH2 0x84C JUMP JUMPDEST JUMPDEST PUSH0 PUSH2 0x8CC DUP5 DUP3 DUP6 ADD PUSH2 0x896 JUMP JUMPDEST SWAP2 POP POP SWAP3 SWAP2 POP POP JUMP JUMPDEST PUSH0 DUP2 SWAP1 POP SWAP2 SWAP1 POP JUMP JUMPDEST PUSH2 0x8E7 DUP2 PUSH2 0x8D5 JUMP JUMPDEST DUP3 MSTORE POP POP JUMP JUMPDEST PUSH0 PUSH1 0x20 DUP3 ADD SWAP1 POP PUSH2 0x900 PUSH0 DUP4 ADD DUP5 PUSH2 0x8DE JUMP JUMPDEST SWAP3 SWAP2 POP POP JUMP JUMPDEST PUSH0 DUP2 SWAP1 POP SWAP2 SWAP1 POP JUMP JUMPDEST PUSH2 0x918 DUP2 PUSH2 0x906 JUMP JUMPDEST DUP3 MSTORE POP POP JUMP JUMPDEST PUSH0 PUSH1 0x20 DUP3 ADD SWAP1 POP PUSH2 0x931 PUSH0 DUP4 ADD DUP5 PUSH2 0x90F JUMP JUMPDEST SWAP3 SWAP2 POP POP JUMP JUMPDEST PUSH2 0x940 DUP2 PUSH2 0x86F JUMP JUMPDEST DUP3 MSTORE POP POP JUMP JUMPDEST PUSH0 PUSH1 0x20 DUP3 ADD SWAP1 POP PUSH2 0x959 PUSH0 DUP4 ADD DUP5 PUSH2 0x937 JUMP JUMPDEST SWAP3 SWAP2 POP POP JUMP JUMPDEST PUSH0 DUP3 DUP3 MSTORE PUSH1 0x20 DUP3 ADD SWAP1 POP SWAP3 SWAP2 POP POP JUMP JUMPDEST PUSH32 0x66756E6420697320657865637E00000000000000000000000000000000000000 PUSH0 DUP3 ADD MSTORE POP JUMP JUMPDEST PUSH0 PUSH2 0x9A3 PUSH1 0xD DUP4 PUSH2 0x95F JUMP JUMPDEST SWAP2 POP PUSH2 0x9AE DUP3 PUSH2 0x96F JUMP JUMPDEST PUSH1 0x20 DUP3 ADD SWAP1 POP SWAP2 SWAP1 POP JUMP JUMPDEST PUSH0 PUSH1 0x20 DUP3 ADD SWAP1 POP DUP2 DUP2 SUB PUSH0 DUP4 ADD MSTORE PUSH2 0x9D0 DUP2 PUSH2 0x997 JUMP JUMPDEST SWAP1 POP SWAP2 SWAP1 POP JUMP JUMPDEST PUSH32 0x74617267657420697320726561636865647E0000000000000000000000000000 PUSH0 DUP3 ADD MSTORE POP JUMP JUMPDEST PUSH0 PUSH2 0xA0B PUSH1 0x12 DUP4 PUSH2 0x95F JUMP JUMPDEST SWAP2 POP PUSH2 0xA16 DUP3 PUSH2 0x9D7 JUMP JUMPDEST PUSH1 0x20 DUP3 ADD SWAP1 POP SWAP2 SWAP1 POP JUMP JUMPDEST PUSH0 PUSH1 0x20 DUP3 ADD SWAP1 POP DUP2 DUP2 SUB PUSH0 DUP4 ADD MSTORE PUSH2 0xA38 DUP2 PUSH2 0x9FF JUMP JUMPDEST SWAP1 POP SWAP2 SWAP1 POP JUMP JUMPDEST PUSH32 0x7468657265206973206E6F2066756E6420666F7220796F757E00000000000000 PUSH0 DUP3 ADD MSTORE POP JUMP JUMPDEST PUSH0 PUSH2 0xA73 PUSH1 0x19 DUP4 PUSH2 0x95F JUMP JUMPDEST SWAP2 POP PUSH2 0xA7E DUP3 PUSH2 0xA3F JUMP JUMPDEST PUSH1 0x20 DUP3 ADD SWAP1 POP SWAP2 SWAP1 POP JUMP JUMPDEST PUSH0 PUSH1 0x20 DUP3 ADD SWAP1 POP DUP2 DUP2 SUB PUSH0 DUP4 ADD MSTORE PUSH2 0xAA0 DUP2 PUSH2 0xA67 JUMP JUMPDEST SWAP1 POP SWAP2 SWAP1 POP JUMP JUMPDEST PUSH0 DUP2 SWAP1 POP SWAP3 SWAP2 POP POP JUMP JUMPDEST POP JUMP JUMPDEST PUSH0 PUSH2 0xABF PUSH0 DUP4 PUSH2 0xAA7 JUMP JUMPDEST SWAP2 POP PUSH2 0xACA DUP3 PUSH2 0xAB1 JUMP JUMPDEST PUSH0 DUP3 ADD SWAP1 POP SWAP2 SWAP1 POP JUMP JUMPDEST PUSH0 PUSH2 0xADE DUP3 PUSH2 0xAB4 JUMP JUMPDEST SWAP2 POP DUP2 SWAP1 POP SWAP2 SWAP1 POP JUMP JUMPDEST PUSH32 0x726566756E64207472616E73666572206661696C65647E000000000000000000 PUSH0 DUP3 ADD MSTORE POP JUMP JUMPDEST PUSH0 PUSH2 0xB1C PUSH1 0x17 DUP4 PUSH2 0x95F JUMP JUMPDEST SWAP2 POP PUSH2 0xB27 DUP3 PUSH2 0xAE8 JUMP JUMPDEST PUSH1 0x20 DUP3 ADD SWAP1 POP SWAP2 SWAP1 POP JUMP JUMPDEST PUSH0 PUSH1 0x20 DUP3 ADD SWAP1 POP DUP2 DUP2 SUB PUSH0 DUP4 ADD MSTORE PUSH2 0xB49 DUP2 PUSH2 0xB10 JUMP JUMPDEST SWAP1 POP SWAP2 SWAP1 POP JUMP JUMPDEST PUSH32 0x796F75206E6F7420697320636F6E7472616374206F776E65727E000000000000 PUSH0 DUP3 ADD MSTORE POP JUMP JUMPDEST PUSH0 PUSH2 0xB84 PUSH1 0x1A DUP4 PUSH2 0x95F JUMP JUMPDEST SWAP2 POP PUSH2 0xB8F DUP3 PUSH2 0xB50 JUMP JUMPDEST PUSH1 0x20 DUP3 ADD SWAP1 POP SWAP2 SWAP1 POP JUMP JUMPDEST PUSH0 PUSH1 0x20 DUP3 ADD SWAP1 POP DUP2 DUP2 SUB PUSH0 DUP4 ADD MSTORE PUSH2 0xBB1 DUP2 PUSH2 0xB78 JUMP JUMPDEST SWAP1 POP SWAP2 SWAP1 POP JUMP JUMPDEST PUSH32 0x746172676574206973206E6F7420726561636865647E00000000000000000000 PUSH0 DUP3 ADD MSTORE POP JUMP JUMPDEST PUSH0 PUSH2 0xBEC PUSH1 0x16 DUP4 PUSH2 0x95F JUMP JUMPDEST SWAP2 POP PUSH2 0xBF7 DUP3 PUSH2 0xBB8 JUMP JUMPDEST PUSH1 0x20 DUP3 ADD SWAP1 POP SWAP2 SWAP1 POP JUMP JUMPDEST PUSH0 PUSH1 0x20 DUP3 ADD SWAP1 POP DUP2 DUP2 SUB PUSH0 DUP4 ADD MSTORE PUSH2 0xC19 DUP2 PUSH2 0xBE0 JUMP JUMPDEST SWAP1 POP SWAP2 SWAP1 POP JUMP JUMPDEST PUSH32 0x64726177207472616E73666572206661696C65647E0000000000000000000000 PUSH0 DUP3 ADD MSTORE POP JUMP JUMPDEST PUSH0 PUSH2 0xC54 PUSH1 0x15 DUP4 PUSH2 0x95F JUMP JUMPDEST SWAP2 POP PUSH2 0xC5F DUP3 PUSH2 0xC20 JUMP JUMPDEST PUSH1 0x20 DUP3 ADD SWAP1 POP SWAP2 SWAP1 POP JUMP JUMPDEST PUSH0 PUSH1 0x20 DUP3 ADD SWAP1 POP DUP2 DUP2 SUB PUSH0 DUP4 ADD MSTORE PUSH2 0xC81 DUP2 PUSH2 0xC48 JUMP JUMPDEST SWAP1 POP SWAP2 SWAP1 POP JUMP JUMPDEST PUSH32 0x66756E6420697320636C6F73657E000000000000000000000000000000000000 PUSH0 DUP3 ADD MSTORE POP JUMP JUMPDEST PUSH0 PUSH2 0xCBC PUSH1 0xE DUP4 PUSH2 0x95F JUMP JUMPDEST SWAP2 POP PUSH2 0xCC7 DUP3 PUSH2 0xC88 JUMP JUMPDEST PUSH1 0x20 DUP3 ADD SWAP1 POP SWAP2 SWAP1 POP JUMP JUMPDEST PUSH0 PUSH1 0x20 DUP3 ADD SWAP1 POP DUP2 DUP2 SUB PUSH0 DUP4 ADD MSTORE PUSH2 0xCE9 DUP2 PUSH2 0xCB0 JUMP JUMPDEST SWAP1 POP SWAP2 SWAP1 POP JUMP JUMPDEST PUSH32 0x796F7520686176652066756E647E000000000000000000000000000000000000 PUSH0 DUP3 ADD MSTORE POP JUMP JUMPDEST PUSH0 PUSH2 0xD24 PUSH1 0xE DUP4 PUSH2 0x95F JUMP JUMPDEST SWAP2 POP PUSH2 0xD2F DUP3 PUSH2 0xCF0 JUMP JUMPDEST PUSH1 0x20 DUP3 ADD SWAP1 POP SWAP2 SWAP1 POP JUMP JUMPDEST PUSH0 PUSH1 0x20 DUP3 ADD SWAP1 POP DUP2 DUP2 SUB PUSH0 DUP4 ADD MSTORE PUSH2 0xD51 DUP2 PUSH2 0xD18 JUMP JUMPDEST SWAP1 POP SWAP2 SWAP1 POP JUMP JUMPDEST PUSH32 0x73656E64206D6F7265206574687E000000000000000000000000000000000000 PUSH0 DUP3 ADD MSTORE POP JUMP JUMPDEST PUSH0 PUSH2 0xD8C PUSH1 0xE DUP4 PUSH2 0x95F JUMP JUMPDEST SWAP2 POP PUSH2 0xD97 DUP3 PUSH2 0xD58 JUMP JUMPDEST PUSH1 0x20 DUP3 ADD SWAP1 POP SWAP2 SWAP1 POP JUMP JUMPDEST PUSH0 PUSH1 0x20 DUP3 ADD SWAP1 POP DUP2 DUP2 SUB PUSH0 DUP4 ADD MSTORE PUSH2 0xDB9 DUP2 PUSH2 0xD80 JUMP JUMPDEST SWAP1 POP SWAP2 SWAP1 POP JUMP JUMPDEST PUSH0 PUSH10 0xFFFFFFFFFFFFFFFFFFFF DUP3 AND SWAP1 POP SWAP2 SWAP1 POP JUMP JUMPDEST PUSH2 0xDDE DUP2 PUSH2 0xDC0 JUMP JUMPDEST DUP2 EQ PUSH2 0xDE8 JUMPI PUSH0 DUP1 REVERT JUMPDEST POP JUMP JUMPDEST PUSH0 DUP2 MLOAD SWAP1 POP PUSH2 0xDF9 DUP2 PUSH2 0xDD5 JUMP JUMPDEST SWAP3 SWAP2 POP POP JUMP JUMPDEST PUSH2 0xE08 DUP2 PUSH2 0x906 JUMP JUMPDEST DUP2 EQ PUSH2 0xE12 JUMPI PUSH0 DUP1 REVERT JUMPDEST POP JUMP JUMPDEST PUSH0 DUP2 MLOAD SWAP1 POP PUSH2 0xE23 DUP2 PUSH2 0xDFF JUMP JUMPDEST SWAP3 SWAP2 POP POP JUMP JUMPDEST PUSH2 0xE32 DUP2 PUSH2 0x8D5 JUMP JUMPDEST DUP2 EQ PUSH2 0xE3C JUMPI PUSH0 DUP1 REVERT JUMPDEST POP JUMP JUMPDEST PUSH0 DUP2 MLOAD SWAP1 POP PUSH2 0xE4D DUP2 PUSH2 0xE29 JUMP JUMPDEST SWAP3 SWAP2 POP POP JUMP JUMPDEST PUSH0 DUP1 PUSH0 DUP1 PUSH0 PUSH1 0xA0 DUP7 DUP9 SUB SLT ISZERO PUSH2 0xE6C JUMPI PUSH2 0xE6B PUSH2 0x84C JUMP JUMPDEST JUMPDEST PUSH0 PUSH2 0xE79 DUP9 DUP3 DUP10 ADD PUSH2 0xDEB JUMP JUMPDEST SWAP6 POP POP PUSH1 0x20 PUSH2 0xE8A DUP9 DUP3 DUP10 ADD PUSH2 0xE15 JUMP JUMPDEST SWAP5 POP POP PUSH1 0x40 PUSH2 0xE9B DUP9 DUP3 DUP10 ADD PUSH2 0xE3F JUMP JUMPDEST SWAP4 POP POP PUSH1 0x60 PUSH2 0xEAC DUP9 DUP3 DUP10 ADD PUSH2 0xE3F JUMP JUMPDEST SWAP3 POP POP PUSH1 0x80 PUSH2 0xEBD DUP9 DUP3 DUP10 ADD PUSH2 0xDEB JUMP JUMPDEST SWAP2 POP POP SWAP3 SWAP6 POP SWAP3 SWAP6 SWAP1 SWAP4 POP JUMP JUMPDEST PUSH32 0x4E487B7100000000000000000000000000000000000000000000000000000000 PUSH0 MSTORE PUSH1 0x11 PUSH1 0x4 MSTORE PUSH1 0x24 PUSH0 REVERT JUMPDEST PUSH0 PUSH2 0xF01 DUP3 PUSH2 0x8D5 JUMP JUMPDEST SWAP2 POP PUSH2 0xF0C DUP4 PUSH2 0x8D5 JUMP JUMPDEST SWAP3 POP DUP3 DUP3 MUL PUSH2 0xF1A DUP2 PUSH2 0x8D5 JUMP JUMPDEST SWAP2 POP DUP3 DUP3 DIV DUP5 EQ DUP4 ISZERO OR PUSH2 0xF31 JUMPI PUSH2 0xF30 PUSH2 0xECA JUMP JUMPDEST JUMPDEST POP SWAP3 SWAP2 POP POP JUMP JUMPDEST PUSH32 0x4E487B7100000000000000000000000000000000000000000000000000000000 PUSH0 MSTORE PUSH1 0x12 PUSH1 0x4 MSTORE PUSH1 0x24 PUSH0 REVERT JUMPDEST PUSH0 PUSH2 0xF6F DUP3 PUSH2 0x8D5 JUMP JUMPDEST SWAP2 POP PUSH2 0xF7A DUP4 PUSH2 0x8D5 JUMP JUMPDEST SWAP3 POP DUP3 PUSH2 0xF8A JUMPI PUSH2 0xF89 PUSH2 0xF38 JUMP JUMPDEST JUMPDEST DUP3 DUP3 DIV SWAP1 POP SWAP3 SWAP2 POP POP JUMP INVALID LOG2 PUSH5 0x6970667358 0x22 SLT KECCAK256 0xD3 JUMP 0xD 0xE6 PUSH28 0x5A3F6CB4B4C1A457D8BE1595F4787FDF3FDE04760C22D0897BB72464 PUSH20 0x6F6C634300081800330000000000000000000000 "
				},
				"gasEstimates": {
					"creation": {
						"codeDepositCost": "808600",
						"executionCost": "infinite",
						"totalCost": "infinite"
					},
					"external": {
						"CONTRACT_OWNER()": "2574",
						"drawFund()": "infinite",
						"fund()": "infinite",
						"fundAmount(address)": "2802",
						"getChainlinkDataFeedLatestAnswer()": "infinite",
						"refund()": "infinite",
						"transferContractOwner(address)": "24759"
					},
					"internal": {
						"ethToUsd(uint256)": "infinite"
					}
				},
				"methodIdentifiers": {
					"CONTRACT_OWNER()": "fd301c49",
					"drawFund()": "749141bc",
					"fund()": "b60d4288",
					"fundAmount(address)": "b82ffdf9",
					"getChainlinkDataFeedLatestAnswer()": "bea4dfb5",
					"refund()": "590e1ae3",
					"transferContractOwner(address)": "e7b59bf3"
				}
			},
			"storageLayout": {
				"storage": [
					{
						"astId": 52,
						"contract": "fund.sol:Fund",
						"label": "dataFeed",
						"offset": 0,
						"slot": "0",
						"type": "t_contract(AggregatorV3Interface)45"
					},
					{
						"astId": 54,
						"contract": "fund.sol:Fund",
						"label": "CONTRACT_OWNER",
						"offset": 0,
						"slot": "1",
						"type": "t_address"
					},
					{
						"astId": 64,
						"contract": "fund.sol:Fund",
						"label": "fundAmount",
						"offset": 0,
						"slot": "2",
						"type": "t_mapping(t_address,t_uint256)"
					},
					{
						"astId": 66,
						"contract": "fund.sol:Fund",
						"label": "FUND_EXEC_TIMESTAMP",
						"offset": 0,
						"slot": "3",
						"type": "t_uint256"
					},
					{
						"astId": 68,
						"contract": "fund.sol:Fund",
						"label": "FUND_CLOSE_TIMESTAMP",
						"offset": 0,
						"slot": "4",
						"type": "t_uint256"
					}
				],
				"types": {
					"t_address": {
						"encoding": "inplace",
						"label": "address",
						"numberOfBytes": "20"
					},
					"t_contract(AggregatorV3Interface)45": {
						"encoding": "inplace",
						"label": "contract AggregatorV3Interface",
						"numberOfBytes": "20"
					},
					"t_mapping(t_address,t_uint256)": {
						"encoding": "mapping",
						"key": "t_address",
						"label": "mapping(address => uint256)",
						"numberOfBytes": "32",
						"value": "t_uint256"
					},
					"t_uint256": {
						"encoding": "inplace",
						"label": "uint256",
						"numberOfBytes": "32"
					}
				}
			},
			"userdoc": {
				"kind": "user",
				"methods": {},
				"version": 1
			}
		}
	}
}