{
	"fund.sol": {
		"Fund": {
			"abi": [
				{
					"inputs": [],
					"stateMutability": "nonpayable",
					"type": "constructor"
				},
				{
					"inputs": [],
					"name": "CONTRACT_OWNER",
					"outputs": [
						{
							"internalType": "address",
							"name": "",
							"type": "address"
						}
					],
					"stateMutability": "view",
					"type": "function"
				},
				{
					"inputs": [],
					"name": "drawFund",
					"outputs": [],
					"stateMutability": "nonpayable",
					"type": "function"
				},
				{
					"inputs": [],
					"name": "fund",
					"outputs": [],
					"stateMutability": "payable",
					"type": "function"
				},
				{
					"inputs": [
						{
							"internalType": "address",
							"name": "",
							"type": "address"
						}
					],
					"name": "fundAmount",
					"outputs": [
						{
							"internalType": "uint256",
							"name": "",
							"type": "uint256"
						}
					],
					"stateMutability": "view",
					"type": "function"
				},
				{
					"inputs": [],
					"name": "getChainlinkDataFeedLatestAnswer",
					"outputs": [
						{
							"internalType": "int256",
							"name": "",
							"type": "int256"
						}
					],
					"stateMutability": "view",
					"type": "function"
				},
				{
					"inputs": [],
					"name": "refund",
					"outputs": [],
					"stateMutability": "nonpayable",
					"type": "function"
				},
				{
					"inputs": [
						{
							"internalType": "address",
							"name": "owner",
							"type": "address"
						}
					],
					"name": "transferContractOwner",
					"outputs": [],
					"stateMutability": "nonpayable",
					"type": "function"
				}
			],
			"devdoc": {
				"kind": "dev",
				"methods": {},
				"version": 1
			},
			"evm": {
				"assembly": "    /* \"fund.sol\":172:2585  contract Fund{... */\n  mstore(0x40, 0x80)\n    /* \"fund.sol\":616:760  constructor() {... */\n  callvalue\n  dup1\n  iszero\n  tag_1\n  jumpi\n  0x00\n  dup1\n  revert\ntag_1:\n  pop\n    /* \"fund.sol\":673:715  0x694AA1769357215DE4FAC081bf1f309aDC325306 */\n  0x694aa1769357215de4fac081bf1f309adc325306\n    /* \"fund.sol\":640:648  dataFeed */\n  0x00\n  dup1\n    /* \"fund.sol\":640:716  dataFeed = AggregatorV3Interface(0x694AA1769357215DE4FAC081bf1f309aDC325306) */\n  0x0100\n  exp\n  dup2\n  sload\n  dup2\n  0xffffffffffffffffffffffffffffffffffffffff\n  mul\n  not\n  and\n  swap1\n  dup4\n  0xffffffffffffffffffffffffffffffffffffffff\n  and\n  mul\n  or\n  swap1\n  sstore\n  pop\n    /* \"fund.sol\":743:753  msg.sender */\n  caller\n    /* \"fund.sol\":726:740  CONTRACT_OWNER */\n  0x01\n  0x00\n    /* \"fund.sol\":726:753  CONTRACT_OWNER = msg.sender */\n  0x0100\n  exp\n  dup2\n  sload\n  dup2\n  0xffffffffffffffffffffffffffffffffffffffff\n  mul\n  not\n  and\n  swap1\n  dup4\n  0xffffffffffffffffffffffffffffffffffffffff\n  and\n  mul\n  or\n  swap1\n  sstore\n  pop\n    /* \"fund.sol\":172:2585  contract Fund{... */\n  dataSize(sub_0)\n  dup1\n  dataOffset(sub_0)\n  0x00\n  codecopy\n  0x00\n  return\nstop\n\nsub_0: assembly {\n        /* \"fund.sol\":172:2585  contract Fund{... */\n      mstore(0x40, 0x80)\n      jumpi(tag_1, lt(calldatasize, 0x04))\n      shr(0xe0, calldataload(0x00))\n      dup1\n      0xb82ffdf9\n      gt\n      tag_9\n      jumpi\n      dup1\n      0xb82ffdf9\n      eq\n      tag_5\n      jumpi\n      dup1\n      0xbea4dfb5\n      eq\n      tag_6\n      jumpi\n      dup1\n      0xe7b59bf3\n      eq\n      tag_7\n      jumpi\n      dup1\n      0xfd301c49\n      eq\n      tag_8\n      jumpi\n      jump(tag_1)\n    tag_9:\n      dup1\n      0x590e1ae3\n      eq\n      tag_2\n      jumpi\n      dup1\n      0x749141bc\n      eq\n      tag_3\n      jumpi\n      dup1\n      0xb60d4288\n      eq\n      tag_4\n      jumpi\n    tag_1:\n      0x00\n      dup1\n      revert\n        /* \"fund.sol\":1117:1517  function refund() external {... */\n    tag_2:\n      callvalue\n      dup1\n      iszero\n      tag_10\n      jumpi\n      0x00\n      dup1\n      revert\n    tag_10:\n      pop\n      tag_11\n      tag_12\n      jump\t// in\n    tag_11:\n      stop\n        /* \"fund.sol\":1542:1882  function drawFund() external {... */\n    tag_3:\n      callvalue\n      dup1\n      iszero\n      tag_13\n      jumpi\n      0x00\n      dup1\n      revert\n    tag_13:\n      pop\n      tag_14\n      tag_15\n      jump\t// in\n    tag_14:\n      stop\n        /* \"fund.sol\":865:1092  function fund() external payable {... */\n    tag_4:\n      tag_16\n      tag_17\n      jump\t// in\n    tag_16:\n      stop\n        /* \"fund.sol\":364:409  mapping(address => uint256) public fundAmount */\n    tag_5:\n      callvalue\n      dup1\n      iszero\n      tag_18\n      jumpi\n      0x00\n      dup1\n      revert\n    tag_18:\n      pop\n      tag_19\n      0x04\n      dup1\n      calldatasize\n      sub\n      dup2\n      add\n      swap1\n      tag_20\n      swap2\n      swap1\n      tag_21\n      jump\t// in\n    tag_20:\n      tag_22\n      jump\t// in\n    tag_19:\n      mload(0x40)\n      tag_23\n      swap2\n      swap1\n      tag_24\n      jump\t// in\n    tag_23:\n      mload(0x40)\n      dup1\n      swap2\n      sub\n      swap1\n      return\n        /* \"fund.sol\":2425:2583  function getChainlinkDataFeedLatestAnswer() public view returns (int) {... */\n    tag_6:\n      callvalue\n      dup1\n      iszero\n      tag_25\n      jumpi\n      0x00\n      dup1\n      revert\n    tag_25:\n      pop\n      tag_26\n      tag_27\n      jump\t// in\n    tag_26:\n      mload(0x40)\n      tag_28\n      swap2\n      swap1\n      tag_29\n      jump\t// in\n    tag_28:\n      mload(0x40)\n      dup1\n      swap2\n      sub\n      swap1\n      return\n        /* \"fund.sol\":1916:2086  function transferContractOwner(address owner) external {... */\n    tag_7:\n      callvalue\n      dup1\n      iszero\n      tag_30\n      jumpi\n      0x00\n      dup1\n      revert\n    tag_30:\n      pop\n      tag_31\n      0x04\n      dup1\n      calldatasize\n      sub\n      dup2\n      add\n      swap1\n      tag_32\n      swap2\n      swap1\n      tag_21\n      jump\t// in\n    tag_32:\n      tag_33\n      jump\t// in\n    tag_31:\n      stop\n        /* \"fund.sol\":293:322  address public CONTRACT_OWNER */\n    tag_8:\n      callvalue\n      dup1\n      iszero\n      tag_34\n      jumpi\n      0x00\n      dup1\n      revert\n    tag_34:\n      pop\n      tag_35\n      tag_36\n      jump\t// in\n    tag_35:\n      mload(0x40)\n      tag_37\n      swap2\n      swap1\n      tag_38\n      jump\t// in\n    tag_37:\n      mload(0x40)\n      dup1\n      swap2\n      sub\n      swap1\n      return\n        /* \"fund.sol\":1117:1517  function refund() external {... */\n    tag_12:\n        /* \"fund.sol\":495:497  30 */\n      0x1e\n        /* \"fund.sol\":1162:1193  ethToUsd(address(this).balance) */\n      tag_40\n        /* \"fund.sol\":1171:1192  address(this).balance */\n      selfbalance\n        /* \"fund.sol\":1162:1170  ethToUsd */\n      tag_41\n        /* \"fund.sol\":1162:1193  ethToUsd(address(this).balance) */\n      jump\t// in\n    tag_40:\n        /* \"fund.sol\":1162:1222  ethToUsd(address(this).balance) < CONTRACT_TARGET_USD_AMOUNT */\n      lt\n        /* \"fund.sol\":1154:1244  require(ethToUsd(address(this).balance) < CONTRACT_TARGET_USD_AMOUNT,\"target is reached~\") */\n      tag_42\n      jumpi\n      mload(0x40)\n      0x08c379a000000000000000000000000000000000000000000000000000000000\n      dup2\n      mstore\n      0x04\n      add\n      tag_43\n      swap1\n      tag_44\n      jump\t// in\n    tag_43:\n      mload(0x40)\n      dup1\n      swap2\n      sub\n      swap1\n      revert\n    tag_42:\n        /* \"fund.sol\":1288:1289  0 */\n      0x00\n        /* \"fund.sol\":1262:1272  fundAmount */\n      0x02\n        /* \"fund.sol\":1262:1284  fundAmount[msg.sender] */\n      0x00\n        /* \"fund.sol\":1273:1283  msg.sender */\n      caller\n        /* \"fund.sol\":1262:1284  fundAmount[msg.sender] */\n      0xffffffffffffffffffffffffffffffffffffffff\n      and\n      0xffffffffffffffffffffffffffffffffffffffff\n      and\n      dup2\n      mstore\n      0x20\n      add\n      swap1\n      dup2\n      mstore\n      0x20\n      add\n      0x00\n      keccak256\n      sload\n        /* \"fund.sol\":1262:1289  fundAmount[msg.sender] != 0 */\n      sub\n        /* \"fund.sol\":1254:1319  require(fundAmount[msg.sender] != 0, \"there is no fund for you~\") */\n      tag_45\n      jumpi\n      mload(0x40)\n      0x08c379a000000000000000000000000000000000000000000000000000000000\n      dup2\n      mstore\n      0x04\n      add\n      tag_46\n      swap1\n      tag_47\n      jump\t// in\n    tag_46:\n      mload(0x40)\n      dup1\n      swap2\n      sub\n      swap1\n      revert\n    tag_45:\n        /* \"fund.sol\":1329:1341  bool success */\n      0x00\n        /* \"fund.sol\":1371:1381  msg.sender */\n      caller\n        /* \"fund.sol\":1363:1387  payable(msg.sender).call */\n      0xffffffffffffffffffffffffffffffffffffffff\n      and\n        /* \"fund.sol\":1395:1405  fundAmount */\n      0x02\n        /* \"fund.sol\":1395:1417  fundAmount[msg.sender] */\n      0x00\n        /* \"fund.sol\":1406:1416  msg.sender */\n      caller\n        /* \"fund.sol\":1395:1417  fundAmount[msg.sender] */\n      0xffffffffffffffffffffffffffffffffffffffff\n      and\n      0xffffffffffffffffffffffffffffffffffffffff\n      and\n      dup2\n      mstore\n      0x20\n      add\n      swap1\n      dup2\n      mstore\n      0x20\n      add\n      0x00\n      keccak256\n      sload\n        /* \"fund.sol\":1363:1422  payable(msg.sender).call{value: fundAmount[msg.sender]}(\"\") */\n      mload(0x40)\n      tag_48\n      swap1\n      tag_49\n      jump\t// in\n    tag_48:\n      0x00\n      mload(0x40)\n      dup1\n      dup4\n      sub\n      dup2\n      dup6\n      dup8\n      gas\n      call\n      swap3\n      pop\n      pop\n      pop\n      returndatasize\n      dup1\n      0x00\n      dup2\n      eq\n      tag_52\n      jumpi\n      mload(0x40)\n      swap2\n      pop\n      and(add(returndatasize, 0x3f), not(0x1f))\n      dup3\n      add\n      0x40\n      mstore\n      returndatasize\n      dup3\n      mstore\n      returndatasize\n      0x00\n      0x20\n      dup5\n      add\n      returndatacopy\n      jump(tag_51)\n    tag_52:\n      0x60\n      swap2\n      pop\n    tag_51:\n      pop\n        /* \"fund.sol\":1351:1422  (success, )=payable(msg.sender).call{value: fundAmount[msg.sender]}(\"\") */\n      pop\n      dup1\n      swap2\n      pop\n      pop\n        /* \"fund.sol\":1440:1447  success */\n      dup1\n        /* \"fund.sol\":1432:1474  require(success,\"refund transfer failed~\") */\n      tag_53\n      jumpi\n      mload(0x40)\n      0x08c379a000000000000000000000000000000000000000000000000000000000\n      dup2\n      mstore\n      0x04\n      add\n      tag_54\n      swap1\n      tag_55\n      jump\t// in\n    tag_54:\n      mload(0x40)\n      dup1\n      swap2\n      sub\n      swap1\n      revert\n    tag_53:\n        /* \"fund.sol\":1509:1510  0 */\n      0x00\n        /* \"fund.sol\":1484:1494  fundAmount */\n      0x02\n        /* \"fund.sol\":1484:1506  fundAmount[msg.sender] */\n      0x00\n        /* \"fund.sol\":1495:1505  msg.sender */\n      caller\n        /* \"fund.sol\":1484:1506  fundAmount[msg.sender] */\n      0xffffffffffffffffffffffffffffffffffffffff\n      and\n      0xffffffffffffffffffffffffffffffffffffffff\n      and\n      dup2\n      mstore\n      0x20\n      add\n      swap1\n      dup2\n      mstore\n      0x20\n      add\n      0x00\n      keccak256\n        /* \"fund.sol\":1484:1510  fundAmount[msg.sender] = 0 */\n      dup2\n      swap1\n      sstore\n      pop\n        /* \"fund.sol\":1144:1517  {... */\n      pop\n        /* \"fund.sol\":1117:1517  function refund() external {... */\n      jump\t// out\n        /* \"fund.sol\":1542:1882  function drawFund() external {... */\n    tag_15:\n        /* \"fund.sol\":495:497  30 */\n      0x1e\n        /* \"fund.sol\":1589:1620  ethToUsd(address(this).balance) */\n      tag_57\n        /* \"fund.sol\":1598:1619  address(this).balance */\n      selfbalance\n        /* \"fund.sol\":1589:1597  ethToUsd */\n      tag_41\n        /* \"fund.sol\":1589:1620  ethToUsd(address(this).balance) */\n      jump\t// in\n    tag_57:\n        /* \"fund.sol\":1589:1650  ethToUsd(address(this).balance) >= CONTRACT_TARGET_USD_AMOUNT */\n      lt\n      iszero\n        /* \"fund.sol\":1581:1677  require(ethToUsd(address(this).balance) >= CONTRACT_TARGET_USD_AMOUNT, \"target is not reached~\") */\n      tag_58\n      jumpi\n      mload(0x40)\n      0x08c379a000000000000000000000000000000000000000000000000000000000\n      dup2\n      mstore\n      0x04\n      add\n      tag_59\n      swap1\n      tag_60\n      jump\t// in\n    tag_59:\n      mload(0x40)\n      dup1\n      swap2\n      sub\n      swap1\n      revert\n    tag_58:\n        /* \"fund.sol\":1696:1708  bool success */\n      0x00\n        /* \"fund.sol\":1739:1749  msg.sender */\n      caller\n        /* \"fund.sol\":1731:1755  payable(msg.sender).call */\n      0xffffffffffffffffffffffffffffffffffffffff\n      and\n        /* \"fund.sol\":1763:1784  address(this).balance */\n      selfbalance\n        /* \"fund.sol\":1731:1789  payable(msg.sender).call{value: address(this).balance}(\"\") */\n      mload(0x40)\n      tag_61\n      swap1\n      tag_49\n      jump\t// in\n    tag_61:\n      0x00\n      mload(0x40)\n      dup1\n      dup4\n      sub\n      dup2\n      dup6\n      dup8\n      gas\n      call\n      swap3\n      pop\n      pop\n      pop\n      returndatasize\n      dup1\n      0x00\n      dup2\n      eq\n      tag_64\n      jumpi\n      mload(0x40)\n      swap2\n      pop\n      and(add(returndatasize, 0x3f), not(0x1f))\n      dup3\n      add\n      0x40\n      mstore\n      returndatasize\n      dup3\n      mstore\n      returndatasize\n      0x00\n      0x20\n      dup5\n      add\n      returndatacopy\n      jump(tag_63)\n    tag_64:\n      0x60\n      swap2\n      pop\n    tag_63:\n      pop\n        /* \"fund.sol\":1718:1789  (success, )= payable(msg.sender).call{value: address(this).balance}(\"\") */\n      pop\n      dup1\n      swap2\n      pop\n      pop\n        /* \"fund.sol\":1807:1814  success */\n      dup1\n        /* \"fund.sol\":1799:1839  require(success,\"draw transfer failed~\") */\n      tag_65\n      jumpi\n      mload(0x40)\n      0x08c379a000000000000000000000000000000000000000000000000000000000\n      dup2\n      mstore\n      0x04\n      add\n      tag_66\n      swap1\n      tag_67\n      jump\t// in\n    tag_66:\n      mload(0x40)\n      dup1\n      swap2\n      sub\n      swap1\n      revert\n    tag_65:\n        /* \"fund.sol\":1874:1875  0 */\n      0x00\n        /* \"fund.sol\":1849:1859  fundAmount */\n      0x02\n        /* \"fund.sol\":1849:1871  fundAmount[msg.sender] */\n      0x00\n        /* \"fund.sol\":1860:1870  msg.sender */\n      caller\n        /* \"fund.sol\":1849:1871  fundAmount[msg.sender] */\n      0xffffffffffffffffffffffffffffffffffffffff\n      and\n      0xffffffffffffffffffffffffffffffffffffffff\n      and\n      dup2\n      mstore\n      0x20\n      add\n      swap1\n      dup2\n      mstore\n      0x20\n      add\n      0x00\n      keccak256\n        /* \"fund.sol\":1849:1875  fundAmount[msg.sender] = 0 */\n      dup2\n      swap1\n      sstore\n      pop\n        /* \"fund.sol\":1571:1882  {... */\n      pop\n        /* \"fund.sol\":1542:1882  function drawFund() external {... */\n      jump\t// out\n        /* \"fund.sol\":865:1092  function fund() external payable {... */\n    tag_17:\n        /* \"fund.sol\":942:943  0 */\n      0x00\n        /* \"fund.sol\":916:926  fundAmount */\n      0x02\n        /* \"fund.sol\":916:938  fundAmount[msg.sender] */\n      0x00\n        /* \"fund.sol\":927:937  msg.sender */\n      caller\n        /* \"fund.sol\":916:938  fundAmount[msg.sender] */\n      0xffffffffffffffffffffffffffffffffffffffff\n      and\n      0xffffffffffffffffffffffffffffffffffffffff\n      and\n      dup2\n      mstore\n      0x20\n      add\n      swap1\n      dup2\n      mstore\n      0x20\n      add\n      0x00\n      keccak256\n      sload\n        /* \"fund.sol\":916:943  fundAmount[msg.sender] == 0 */\n      eq\n        /* \"fund.sol\":908:962  require(fundAmount[msg.sender] == 0, \"you have fund~\") */\n      tag_69\n      jumpi\n      mload(0x40)\n      0x08c379a000000000000000000000000000000000000000000000000000000000\n      dup2\n      mstore\n      0x04\n      add\n      tag_70\n      swap1\n      tag_71\n      jump\t// in\n    tag_70:\n      mload(0x40)\n      dup1\n      swap2\n      sub\n      swap1\n      revert\n    tag_69:\n        /* \"fund.sol\":581:583  10 */\n      0x0a\n        /* \"fund.sol\":980:999  ethToUsd(msg.value) */\n      tag_72\n        /* \"fund.sol\":989:998  msg.value */\n      callvalue\n        /* \"fund.sol\":980:988  ethToUsd */\n      tag_41\n        /* \"fund.sol\":980:999  ethToUsd(msg.value) */\n      jump\t// in\n    tag_72:\n        /* \"fund.sol\":980:1022  ethToUsd(msg.value) >= FUND_MIN_USD_AMOUNT */\n      lt\n      iszero\n        /* \"fund.sol\":972:1041  require(ethToUsd(msg.value) >= FUND_MIN_USD_AMOUNT, \"send more eth~\") */\n      tag_73\n      jumpi\n      mload(0x40)\n      0x08c379a000000000000000000000000000000000000000000000000000000000\n      dup2\n      mstore\n      0x04\n      add\n      tag_74\n      swap1\n      tag_75\n      jump\t// in\n    tag_74:\n      mload(0x40)\n      dup1\n      swap2\n      sub\n      swap1\n      revert\n    tag_73:\n        /* \"fund.sol\":1076:1085  msg.value */\n      callvalue\n        /* \"fund.sol\":1051:1061  fundAmount */\n      0x02\n        /* \"fund.sol\":1051:1073  fundAmount[msg.sender] */\n      0x00\n        /* \"fund.sol\":1062:1072  msg.sender */\n      caller\n        /* \"fund.sol\":1051:1073  fundAmount[msg.sender] */\n      0xffffffffffffffffffffffffffffffffffffffff\n      and\n      0xffffffffffffffffffffffffffffffffffffffff\n      and\n      dup2\n      mstore\n      0x20\n      add\n      swap1\n      dup2\n      mstore\n      0x20\n      add\n      0x00\n      keccak256\n        /* \"fund.sol\":1051:1085  fundAmount[msg.sender] = msg.value */\n      dup2\n      swap1\n      sstore\n      pop\n        /* \"fund.sol\":865:1092  function fund() external payable {... */\n      jump\t// out\n        /* \"fund.sol\":364:409  mapping(address => uint256) public fundAmount */\n    tag_22:\n      mstore(0x20, 0x02)\n      dup1\n      0x00\n      mstore\n      keccak256(0x00, 0x40)\n      0x00\n      swap2\n      pop\n      swap1\n      pop\n      sload\n      dup2\n      jump\t// out\n        /* \"fund.sol\":2425:2583  function getChainlinkDataFeedLatestAnswer() public view returns (int) {... */\n    tag_27:\n        /* \"fund.sol\":2490:2493  int */\n      0x00\n        /* \"fund.sol\":2508:2518  int answer */\n      dup1\n        /* \"fund.sol\":2527:2535  dataFeed */\n      0x00\n      dup1\n      sload\n      swap1\n      0x0100\n      exp\n      swap1\n      div\n      0xffffffffffffffffffffffffffffffffffffffff\n      and\n        /* \"fund.sol\":2527:2551  dataFeed.latestRoundData */\n      0xffffffffffffffffffffffffffffffffffffffff\n      and\n      0xfeaf968c\n        /* \"fund.sol\":2527:2553  dataFeed.latestRoundData() */\n      mload(0x40)\n      dup2\n      0xffffffff\n      and\n      0xe0\n      shl\n      dup2\n      mstore\n      0x04\n      add\n      0xa0\n      mload(0x40)\n      dup1\n      dup4\n      sub\n      dup2\n      dup7\n      gas\n      staticcall\n      iszero\n      dup1\n      iszero\n      tag_78\n      jumpi\n      returndatasize\n      0x00\n      dup1\n      returndatacopy\n      revert(0x00, returndatasize)\n    tag_78:\n      pop\n      pop\n      pop\n      pop\n      mload(0x40)\n      returndatasize\n      not(0x1f)\n      0x1f\n      dup3\n      add\n      and\n      dup3\n      add\n      dup1\n      0x40\n      mstore\n      pop\n      dup2\n      add\n      swap1\n      tag_79\n      swap2\n      swap1\n      tag_80\n      jump\t// in\n    tag_79:\n        /* \"fund.sol\":2505:2553  ( ,int answer, , ,) = dataFeed.latestRoundData() */\n      pop\n      pop\n      pop\n      swap2\n      pop\n      pop\n        /* \"fund.sol\":2570:2576  answer */\n      dup1\n        /* \"fund.sol\":2563:2576  return answer */\n      swap2\n      pop\n      pop\n        /* \"fund.sol\":2425:2583  function getChainlinkDataFeedLatestAnswer() public view returns (int) {... */\n      swap1\n      jump\t// out\n        /* \"fund.sol\":1916:2086  function transferContractOwner(address owner) external {... */\n    tag_33:\n        /* \"fund.sol\":2003:2017  CONTRACT_OWNER */\n      0x01\n      0x00\n      swap1\n      sload\n      swap1\n      0x0100\n      exp\n      swap1\n      div\n      0xffffffffffffffffffffffffffffffffffffffff\n      and\n        /* \"fund.sol\":1989:2017  msg.sender == CONTRACT_OWNER */\n      0xffffffffffffffffffffffffffffffffffffffff\n      and\n        /* \"fund.sol\":1989:1999  msg.sender */\n      caller\n        /* \"fund.sol\":1989:2017  msg.sender == CONTRACT_OWNER */\n      0xffffffffffffffffffffffffffffffffffffffff\n      and\n      eq\n        /* \"fund.sol\":1981:2047  require(msg.sender == CONTRACT_OWNER,\"you not is contract owner~\") */\n      tag_82\n      jumpi\n      mload(0x40)\n      0x08c379a000000000000000000000000000000000000000000000000000000000\n      dup2\n      mstore\n      0x04\n      add\n      tag_83\n      swap1\n      tag_84\n      jump\t// in\n    tag_83:\n      mload(0x40)\n      dup1\n      swap2\n      sub\n      swap1\n      revert\n    tag_82:\n        /* \"fund.sol\":2074:2079  owner */\n      dup1\n        /* \"fund.sol\":2057:2071  CONTRACT_OWNER */\n      0x01\n      0x00\n        /* \"fund.sol\":2057:2079  CONTRACT_OWNER = owner */\n      0x0100\n      exp\n      dup2\n      sload\n      dup2\n      0xffffffffffffffffffffffffffffffffffffffff\n      mul\n      not\n      and\n      swap1\n      dup4\n      0xffffffffffffffffffffffffffffffffffffffff\n      and\n      mul\n      or\n      swap1\n      sstore\n      pop\n        /* \"fund.sol\":1916:2086  function transferContractOwner(address owner) external {... */\n      pop\n      jump\t// out\n        /* \"fund.sol\":293:322  address public CONTRACT_OWNER */\n    tag_36:\n      0x01\n      0x00\n      swap1\n      sload\n      swap1\n      0x0100\n      exp\n      swap1\n      div\n      0xffffffffffffffffffffffffffffffffffffffff\n      and\n      dup2\n      jump\t// out\n        /* \"fund.sol\":2188:2380  function ethToUsd(uint256 weiAmount) internal view returns(uint256) {... */\n    tag_41:\n        /* \"fund.sol\":2247:2254  uint256 */\n      0x00\n        /* \"fund.sol\":2266:2279  uint256 price */\n      dup1\n        /* \"fund.sol\":2290:2324  getChainlinkDataFeedLatestAnswer() */\n      tag_86\n        /* \"fund.sol\":2290:2322  getChainlinkDataFeedLatestAnswer */\n      tag_27\n        /* \"fund.sol\":2290:2324  getChainlinkDataFeedLatestAnswer() */\n      jump\t// in\n    tag_86:\n        /* \"fund.sol\":2266:2325  uint256 price = uint256(getChainlinkDataFeedLatestAnswer()) */\n      swap1\n      pop\n        /* \"fund.sol\":2363:2371  10 ** 26 */\n      0x52b7d2dcc80cd2e4000000\n        /* \"fund.sol\":2350:2359  weiAmount */\n      dup4\n        /* \"fund.sol\":2342:2347  price */\n      dup3\n        /* \"fund.sol\":2342:2359  price * weiAmount */\n      tag_87\n      swap2\n      swap1\n      tag_88\n      jump\t// in\n    tag_87:\n        /* \"fund.sol\":2342:2372  price * weiAmount / (10 ** 26) */\n      tag_89\n      swap2\n      swap1\n      tag_90\n      jump\t// in\n    tag_89:\n        /* \"fund.sol\":2335:2372  return price * weiAmount / (10 ** 26) */\n      swap2\n      pop\n      pop\n        /* \"fund.sol\":2188:2380  function ethToUsd(uint256 weiAmount) internal view returns(uint256) {... */\n      swap2\n      swap1\n      pop\n      jump\t// out\n        /* \"#utility.yul\":88:205   */\n    tag_92:\n        /* \"#utility.yul\":197:198   */\n      0x00\n        /* \"#utility.yul\":194:195   */\n      dup1\n        /* \"#utility.yul\":187:199   */\n      revert\n        /* \"#utility.yul\":334:460   */\n    tag_94:\n        /* \"#utility.yul\":371:378   */\n      0x00\n        /* \"#utility.yul\":411:453   */\n      0xffffffffffffffffffffffffffffffffffffffff\n        /* \"#utility.yul\":404:409   */\n      dup3\n        /* \"#utility.yul\":400:454   */\n      and\n        /* \"#utility.yul\":389:454   */\n      swap1\n      pop\n        /* \"#utility.yul\":334:460   */\n      swap2\n      swap1\n      pop\n      jump\t// out\n        /* \"#utility.yul\":466:562   */\n    tag_95:\n        /* \"#utility.yul\":503:510   */\n      0x00\n        /* \"#utility.yul\":532:556   */\n      tag_138\n        /* \"#utility.yul\":550:555   */\n      dup3\n        /* \"#utility.yul\":532:556   */\n      tag_94\n      jump\t// in\n    tag_138:\n        /* \"#utility.yul\":521:556   */\n      swap1\n      pop\n        /* \"#utility.yul\":466:562   */\n      swap2\n      swap1\n      pop\n      jump\t// out\n        /* \"#utility.yul\":568:690   */\n    tag_96:\n        /* \"#utility.yul\":641:665   */\n      tag_140\n        /* \"#utility.yul\":659:664   */\n      dup2\n        /* \"#utility.yul\":641:665   */\n      tag_95\n      jump\t// in\n    tag_140:\n        /* \"#utility.yul\":634:639   */\n      dup2\n        /* \"#utility.yul\":631:666   */\n      eq\n        /* \"#utility.yul\":621:684   */\n      tag_141\n      jumpi\n        /* \"#utility.yul\":680:681   */\n      0x00\n        /* \"#utility.yul\":677:678   */\n      dup1\n        /* \"#utility.yul\":670:682   */\n      revert\n        /* \"#utility.yul\":621:684   */\n    tag_141:\n        /* \"#utility.yul\":568:690   */\n      pop\n      jump\t// out\n        /* \"#utility.yul\":696:835   */\n    tag_97:\n        /* \"#utility.yul\":742:747   */\n      0x00\n        /* \"#utility.yul\":780:786   */\n      dup2\n        /* \"#utility.yul\":767:787   */\n      calldataload\n        /* \"#utility.yul\":758:787   */\n      swap1\n      pop\n        /* \"#utility.yul\":796:829   */\n      tag_143\n        /* \"#utility.yul\":823:828   */\n      dup2\n        /* \"#utility.yul\":796:829   */\n      tag_96\n      jump\t// in\n    tag_143:\n        /* \"#utility.yul\":696:835   */\n      swap3\n      swap2\n      pop\n      pop\n      jump\t// out\n        /* \"#utility.yul\":841:1170   */\n    tag_21:\n        /* \"#utility.yul\":900:906   */\n      0x00\n        /* \"#utility.yul\":949:951   */\n      0x20\n        /* \"#utility.yul\":937:946   */\n      dup3\n        /* \"#utility.yul\":928:935   */\n      dup5\n        /* \"#utility.yul\":924:947   */\n      sub\n        /* \"#utility.yul\":920:952   */\n      slt\n        /* \"#utility.yul\":917:1036   */\n      iszero\n      tag_145\n      jumpi\n        /* \"#utility.yul\":955:1034   */\n      tag_146\n      tag_92\n      jump\t// in\n    tag_146:\n        /* \"#utility.yul\":917:1036   */\n    tag_145:\n        /* \"#utility.yul\":1075:1076   */\n      0x00\n        /* \"#utility.yul\":1100:1153   */\n      tag_147\n        /* \"#utility.yul\":1145:1152   */\n      dup5\n        /* \"#utility.yul\":1136:1142   */\n      dup3\n        /* \"#utility.yul\":1125:1134   */\n      dup6\n        /* \"#utility.yul\":1121:1143   */\n      add\n        /* \"#utility.yul\":1100:1153   */\n      tag_97\n      jump\t// in\n    tag_147:\n        /* \"#utility.yul\":1090:1153   */\n      swap2\n      pop\n        /* \"#utility.yul\":1046:1163   */\n      pop\n        /* \"#utility.yul\":841:1170   */\n      swap3\n      swap2\n      pop\n      pop\n      jump\t// out\n        /* \"#utility.yul\":1176:1253   */\n    tag_98:\n        /* \"#utility.yul\":1213:1220   */\n      0x00\n        /* \"#utility.yul\":1242:1247   */\n      dup2\n        /* \"#utility.yul\":1231:1247   */\n      swap1\n      pop\n        /* \"#utility.yul\":1176:1253   */\n      swap2\n      swap1\n      pop\n      jump\t// out\n        /* \"#utility.yul\":1259:1377   */\n    tag_99:\n        /* \"#utility.yul\":1346:1370   */\n      tag_150\n        /* \"#utility.yul\":1364:1369   */\n      dup2\n        /* \"#utility.yul\":1346:1370   */\n      tag_98\n      jump\t// in\n    tag_150:\n        /* \"#utility.yul\":1341:1344   */\n      dup3\n        /* \"#utility.yul\":1334:1371   */\n      mstore\n        /* \"#utility.yul\":1259:1377   */\n      pop\n      pop\n      jump\t// out\n        /* \"#utility.yul\":1383:1605   */\n    tag_24:\n        /* \"#utility.yul\":1476:1480   */\n      0x00\n        /* \"#utility.yul\":1514:1516   */\n      0x20\n        /* \"#utility.yul\":1503:1512   */\n      dup3\n        /* \"#utility.yul\":1499:1517   */\n      add\n        /* \"#utility.yul\":1491:1517   */\n      swap1\n      pop\n        /* \"#utility.yul\":1527:1598   */\n      tag_152\n        /* \"#utility.yul\":1595:1596   */\n      0x00\n        /* \"#utility.yul\":1584:1593   */\n      dup4\n        /* \"#utility.yul\":1580:1597   */\n      add\n        /* \"#utility.yul\":1571:1577   */\n      dup5\n        /* \"#utility.yul\":1527:1598   */\n      tag_99\n      jump\t// in\n    tag_152:\n        /* \"#utility.yul\":1383:1605   */\n      swap3\n      swap2\n      pop\n      pop\n      jump\t// out\n        /* \"#utility.yul\":1611:1687   */\n    tag_100:\n        /* \"#utility.yul\":1647:1654   */\n      0x00\n        /* \"#utility.yul\":1676:1681   */\n      dup2\n        /* \"#utility.yul\":1665:1681   */\n      swap1\n      pop\n        /* \"#utility.yul\":1611:1687   */\n      swap2\n      swap1\n      pop\n      jump\t// out\n        /* \"#utility.yul\":1693:1808   */\n    tag_101:\n        /* \"#utility.yul\":1778:1801   */\n      tag_155\n        /* \"#utility.yul\":1795:1800   */\n      dup2\n        /* \"#utility.yul\":1778:1801   */\n      tag_100\n      jump\t// in\n    tag_155:\n        /* \"#utility.yul\":1773:1776   */\n      dup3\n        /* \"#utility.yul\":1766:1802   */\n      mstore\n        /* \"#utility.yul\":1693:1808   */\n      pop\n      pop\n      jump\t// out\n        /* \"#utility.yul\":1814:2032   */\n    tag_29:\n        /* \"#utility.yul\":1905:1909   */\n      0x00\n        /* \"#utility.yul\":1943:1945   */\n      0x20\n        /* \"#utility.yul\":1932:1941   */\n      dup3\n        /* \"#utility.yul\":1928:1946   */\n      add\n        /* \"#utility.yul\":1920:1946   */\n      swap1\n      pop\n        /* \"#utility.yul\":1956:2025   */\n      tag_157\n        /* \"#utility.yul\":2022:2023   */\n      0x00\n        /* \"#utility.yul\":2011:2020   */\n      dup4\n        /* \"#utility.yul\":2007:2024   */\n      add\n        /* \"#utility.yul\":1998:2004   */\n      dup5\n        /* \"#utility.yul\":1956:2025   */\n      tag_101\n      jump\t// in\n    tag_157:\n        /* \"#utility.yul\":1814:2032   */\n      swap3\n      swap2\n      pop\n      pop\n      jump\t// out\n        /* \"#utility.yul\":2038:2156   */\n    tag_102:\n        /* \"#utility.yul\":2125:2149   */\n      tag_159\n        /* \"#utility.yul\":2143:2148   */\n      dup2\n        /* \"#utility.yul\":2125:2149   */\n      tag_95\n      jump\t// in\n    tag_159:\n        /* \"#utility.yul\":2120:2123   */\n      dup3\n        /* \"#utility.yul\":2113:2150   */\n      mstore\n        /* \"#utility.yul\":2038:2156   */\n      pop\n      pop\n      jump\t// out\n        /* \"#utility.yul\":2162:2384   */\n    tag_38:\n        /* \"#utility.yul\":2255:2259   */\n      0x00\n        /* \"#utility.yul\":2293:2295   */\n      0x20\n        /* \"#utility.yul\":2282:2291   */\n      dup3\n        /* \"#utility.yul\":2278:2296   */\n      add\n        /* \"#utility.yul\":2270:2296   */\n      swap1\n      pop\n        /* \"#utility.yul\":2306:2377   */\n      tag_161\n        /* \"#utility.yul\":2374:2375   */\n      0x00\n        /* \"#utility.yul\":2363:2372   */\n      dup4\n        /* \"#utility.yul\":2359:2376   */\n      add\n        /* \"#utility.yul\":2350:2356   */\n      dup5\n        /* \"#utility.yul\":2306:2377   */\n      tag_102\n      jump\t// in\n    tag_161:\n        /* \"#utility.yul\":2162:2384   */\n      swap3\n      swap2\n      pop\n      pop\n      jump\t// out\n        /* \"#utility.yul\":2390:2559   */\n    tag_103:\n        /* \"#utility.yul\":2474:2485   */\n      0x00\n        /* \"#utility.yul\":2508:2514   */\n      dup3\n        /* \"#utility.yul\":2503:2506   */\n      dup3\n        /* \"#utility.yul\":2496:2515   */\n      mstore\n        /* \"#utility.yul\":2548:2552   */\n      0x20\n        /* \"#utility.yul\":2543:2546   */\n      dup3\n        /* \"#utility.yul\":2539:2553   */\n      add\n        /* \"#utility.yul\":2524:2553   */\n      swap1\n      pop\n        /* \"#utility.yul\":2390:2559   */\n      swap3\n      swap2\n      pop\n      pop\n      jump\t// out\n        /* \"#utility.yul\":2565:2733   */\n    tag_104:\n        /* \"#utility.yul\":2705:2725   */\n      0x74617267657420697320726561636865647e0000000000000000000000000000\n        /* \"#utility.yul\":2701:2702   */\n      0x00\n        /* \"#utility.yul\":2693:2699   */\n      dup3\n        /* \"#utility.yul\":2689:2703   */\n      add\n        /* \"#utility.yul\":2682:2726   */\n      mstore\n        /* \"#utility.yul\":2565:2733   */\n      pop\n      jump\t// out\n        /* \"#utility.yul\":2739:3105   */\n    tag_105:\n        /* \"#utility.yul\":2881:2884   */\n      0x00\n        /* \"#utility.yul\":2902:2969   */\n      tag_165\n        /* \"#utility.yul\":2966:2968   */\n      0x12\n        /* \"#utility.yul\":2961:2964   */\n      dup4\n        /* \"#utility.yul\":2902:2969   */\n      tag_103\n      jump\t// in\n    tag_165:\n        /* \"#utility.yul\":2895:2969   */\n      swap2\n      pop\n        /* \"#utility.yul\":2978:3071   */\n      tag_166\n        /* \"#utility.yul\":3067:3070   */\n      dup3\n        /* \"#utility.yul\":2978:3071   */\n      tag_104\n      jump\t// in\n    tag_166:\n        /* \"#utility.yul\":3096:3098   */\n      0x20\n        /* \"#utility.yul\":3091:3094   */\n      dup3\n        /* \"#utility.yul\":3087:3099   */\n      add\n        /* \"#utility.yul\":3080:3099   */\n      swap1\n      pop\n        /* \"#utility.yul\":2739:3105   */\n      swap2\n      swap1\n      pop\n      jump\t// out\n        /* \"#utility.yul\":3111:3530   */\n    tag_44:\n        /* \"#utility.yul\":3277:3281   */\n      0x00\n        /* \"#utility.yul\":3315:3317   */\n      0x20\n        /* \"#utility.yul\":3304:3313   */\n      dup3\n        /* \"#utility.yul\":3300:3318   */\n      add\n        /* \"#utility.yul\":3292:3318   */\n      swap1\n      pop\n        /* \"#utility.yul\":3364:3373   */\n      dup2\n        /* \"#utility.yul\":3358:3362   */\n      dup2\n        /* \"#utility.yul\":3354:3374   */\n      sub\n        /* \"#utility.yul\":3350:3351   */\n      0x00\n        /* \"#utility.yul\":3339:3348   */\n      dup4\n        /* \"#utility.yul\":3335:3352   */\n      add\n        /* \"#utility.yul\":3328:3375   */\n      mstore\n        /* \"#utility.yul\":3392:3523   */\n      tag_168\n        /* \"#utility.yul\":3518:3522   */\n      dup2\n        /* \"#utility.yul\":3392:3523   */\n      tag_105\n      jump\t// in\n    tag_168:\n        /* \"#utility.yul\":3384:3523   */\n      swap1\n      pop\n        /* \"#utility.yul\":3111:3530   */\n      swap2\n      swap1\n      pop\n      jump\t// out\n        /* \"#utility.yul\":3536:3711   */\n    tag_106:\n        /* \"#utility.yul\":3676:3703   */\n      0x7468657265206973206e6f2066756e6420666f7220796f757e00000000000000\n        /* \"#utility.yul\":3672:3673   */\n      0x00\n        /* \"#utility.yul\":3664:3670   */\n      dup3\n        /* \"#utility.yul\":3660:3674   */\n      add\n        /* \"#utility.yul\":3653:3704   */\n      mstore\n        /* \"#utility.yul\":3536:3711   */\n      pop\n      jump\t// out\n        /* \"#utility.yul\":3717:4083   */\n    tag_107:\n        /* \"#utility.yul\":3859:3862   */\n      0x00\n        /* \"#utility.yul\":3880:3947   */\n      tag_171\n        /* \"#utility.yul\":3944:3946   */\n      0x19\n        /* \"#utility.yul\":3939:3942   */\n      dup4\n        /* \"#utility.yul\":3880:3947   */\n      tag_103\n      jump\t// in\n    tag_171:\n        /* \"#utility.yul\":3873:3947   */\n      swap2\n      pop\n        /* \"#utility.yul\":3956:4049   */\n      tag_172\n        /* \"#utility.yul\":4045:4048   */\n      dup3\n        /* \"#utility.yul\":3956:4049   */\n      tag_106\n      jump\t// in\n    tag_172:\n        /* \"#utility.yul\":4074:4076   */\n      0x20\n        /* \"#utility.yul\":4069:4072   */\n      dup3\n        /* \"#utility.yul\":4065:4077   */\n      add\n        /* \"#utility.yul\":4058:4077   */\n      swap1\n      pop\n        /* \"#utility.yul\":3717:4083   */\n      swap2\n      swap1\n      pop\n      jump\t// out\n        /* \"#utility.yul\":4089:4508   */\n    tag_47:\n        /* \"#utility.yul\":4255:4259   */\n      0x00\n        /* \"#utility.yul\":4293:4295   */\n      0x20\n        /* \"#utility.yul\":4282:4291   */\n      dup3\n        /* \"#utility.yul\":4278:4296   */\n      add\n        /* \"#utility.yul\":4270:4296   */\n      swap1\n      pop\n        /* \"#utility.yul\":4342:4351   */\n      dup2\n        /* \"#utility.yul\":4336:4340   */\n      dup2\n        /* \"#utility.yul\":4332:4352   */\n      sub\n        /* \"#utility.yul\":4328:4329   */\n      0x00\n        /* \"#utility.yul\":4317:4326   */\n      dup4\n        /* \"#utility.yul\":4313:4330   */\n      add\n        /* \"#utility.yul\":4306:4353   */\n      mstore\n        /* \"#utility.yul\":4370:4501   */\n      tag_174\n        /* \"#utility.yul\":4496:4500   */\n      dup2\n        /* \"#utility.yul\":4370:4501   */\n      tag_107\n      jump\t// in\n    tag_174:\n        /* \"#utility.yul\":4362:4501   */\n      swap1\n      pop\n        /* \"#utility.yul\":4089:4508   */\n      swap2\n      swap1\n      pop\n      jump\t// out\n        /* \"#utility.yul\":4514:4661   */\n    tag_108:\n        /* \"#utility.yul\":4615:4626   */\n      0x00\n        /* \"#utility.yul\":4652:4655   */\n      dup2\n        /* \"#utility.yul\":4637:4655   */\n      swap1\n      pop\n        /* \"#utility.yul\":4514:4661   */\n      swap3\n      swap2\n      pop\n      pop\n      jump\t// out\n        /* \"#utility.yul\":4667:4781   */\n    tag_109:\n      pop\n      jump\t// out\n        /* \"#utility.yul\":4787:5185   */\n    tag_110:\n        /* \"#utility.yul\":4946:4949   */\n      0x00\n        /* \"#utility.yul\":4967:5050   */\n      tag_178\n        /* \"#utility.yul\":5048:5049   */\n      0x00\n        /* \"#utility.yul\":5043:5046   */\n      dup4\n        /* \"#utility.yul\":4967:5050   */\n      tag_108\n      jump\t// in\n    tag_178:\n        /* \"#utility.yul\":4960:5050   */\n      swap2\n      pop\n        /* \"#utility.yul\":5059:5152   */\n      tag_179\n        /* \"#utility.yul\":5148:5151   */\n      dup3\n        /* \"#utility.yul\":5059:5152   */\n      tag_109\n      jump\t// in\n    tag_179:\n        /* \"#utility.yul\":5177:5178   */\n      0x00\n        /* \"#utility.yul\":5172:5175   */\n      dup3\n        /* \"#utility.yul\":5168:5179   */\n      add\n        /* \"#utility.yul\":5161:5179   */\n      swap1\n      pop\n        /* \"#utility.yul\":4787:5185   */\n      swap2\n      swap1\n      pop\n      jump\t// out\n        /* \"#utility.yul\":5191:5570   */\n    tag_49:\n        /* \"#utility.yul\":5375:5378   */\n      0x00\n        /* \"#utility.yul\":5397:5544   */\n      tag_181\n        /* \"#utility.yul\":5540:5543   */\n      dup3\n        /* \"#utility.yul\":5397:5544   */\n      tag_110\n      jump\t// in\n    tag_181:\n        /* \"#utility.yul\":5390:5544   */\n      swap2\n      pop\n        /* \"#utility.yul\":5561:5564   */\n      dup2\n        /* \"#utility.yul\":5554:5564   */\n      swap1\n      pop\n        /* \"#utility.yul\":5191:5570   */\n      swap2\n      swap1\n      pop\n      jump\t// out\n        /* \"#utility.yul\":5576:5749   */\n    tag_111:\n        /* \"#utility.yul\":5716:5741   */\n      0x726566756e64207472616e73666572206661696c65647e000000000000000000\n        /* \"#utility.yul\":5712:5713   */\n      0x00\n        /* \"#utility.yul\":5704:5710   */\n      dup3\n        /* \"#utility.yul\":5700:5714   */\n      add\n        /* \"#utility.yul\":5693:5742   */\n      mstore\n        /* \"#utility.yul\":5576:5749   */\n      pop\n      jump\t// out\n        /* \"#utility.yul\":5755:6121   */\n    tag_112:\n        /* \"#utility.yul\":5897:5900   */\n      0x00\n        /* \"#utility.yul\":5918:5985   */\n      tag_184\n        /* \"#utility.yul\":5982:5984   */\n      0x17\n        /* \"#utility.yul\":5977:5980   */\n      dup4\n        /* \"#utility.yul\":5918:5985   */\n      tag_103\n      jump\t// in\n    tag_184:\n        /* \"#utility.yul\":5911:5985   */\n      swap2\n      pop\n        /* \"#utility.yul\":5994:6087   */\n      tag_185\n        /* \"#utility.yul\":6083:6086   */\n      dup3\n        /* \"#utility.yul\":5994:6087   */\n      tag_111\n      jump\t// in\n    tag_185:\n        /* \"#utility.yul\":6112:6114   */\n      0x20\n        /* \"#utility.yul\":6107:6110   */\n      dup3\n        /* \"#utility.yul\":6103:6115   */\n      add\n        /* \"#utility.yul\":6096:6115   */\n      swap1\n      pop\n        /* \"#utility.yul\":5755:6121   */\n      swap2\n      swap1\n      pop\n      jump\t// out\n        /* \"#utility.yul\":6127:6546   */\n    tag_55:\n        /* \"#utility.yul\":6293:6297   */\n      0x00\n        /* \"#utility.yul\":6331:6333   */\n      0x20\n        /* \"#utility.yul\":6320:6329   */\n      dup3\n        /* \"#utility.yul\":6316:6334   */\n      add\n        /* \"#utility.yul\":6308:6334   */\n      swap1\n      pop\n        /* \"#utility.yul\":6380:6389   */\n      dup2\n        /* \"#utility.yul\":6374:6378   */\n      dup2\n        /* \"#utility.yul\":6370:6390   */\n      sub\n        /* \"#utility.yul\":6366:6367   */\n      0x00\n        /* \"#utility.yul\":6355:6364   */\n      dup4\n        /* \"#utility.yul\":6351:6368   */\n      add\n        /* \"#utility.yul\":6344:6391   */\n      mstore\n        /* \"#utility.yul\":6408:6539   */\n      tag_187\n        /* \"#utility.yul\":6534:6538   */\n      dup2\n        /* \"#utility.yul\":6408:6539   */\n      tag_112\n      jump\t// in\n    tag_187:\n        /* \"#utility.yul\":6400:6539   */\n      swap1\n      pop\n        /* \"#utility.yul\":6127:6546   */\n      swap2\n      swap1\n      pop\n      jump\t// out\n        /* \"#utility.yul\":6552:6724   */\n    tag_113:\n        /* \"#utility.yul\":6692:6716   */\n      0x746172676574206973206e6f7420726561636865647e00000000000000000000\n        /* \"#utility.yul\":6688:6689   */\n      0x00\n        /* \"#utility.yul\":6680:6686   */\n      dup3\n        /* \"#utility.yul\":6676:6690   */\n      add\n        /* \"#utility.yul\":6669:6717   */\n      mstore\n        /* \"#utility.yul\":6552:6724   */\n      pop\n      jump\t// out\n        /* \"#utility.yul\":6730:7096   */\n    tag_114:\n        /* \"#utility.yul\":6872:6875   */\n      0x00\n        /* \"#utility.yul\":6893:6960   */\n      tag_190\n        /* \"#utility.yul\":6957:6959   */\n      0x16\n        /* \"#utility.yul\":6952:6955   */\n      dup4\n        /* \"#utility.yul\":6893:6960   */\n      tag_103\n      jump\t// in\n    tag_190:\n        /* \"#utility.yul\":6886:6960   */\n      swap2\n      pop\n        /* \"#utility.yul\":6969:7062   */\n      tag_191\n        /* \"#utility.yul\":7058:7061   */\n      dup3\n        /* \"#utility.yul\":6969:7062   */\n      tag_113\n      jump\t// in\n    tag_191:\n        /* \"#utility.yul\":7087:7089   */\n      0x20\n        /* \"#utility.yul\":7082:7085   */\n      dup3\n        /* \"#utility.yul\":7078:7090   */\n      add\n        /* \"#utility.yul\":7071:7090   */\n      swap1\n      pop\n        /* \"#utility.yul\":6730:7096   */\n      swap2\n      swap1\n      pop\n      jump\t// out\n        /* \"#utility.yul\":7102:7521   */\n    tag_60:\n        /* \"#utility.yul\":7268:7272   */\n      0x00\n        /* \"#utility.yul\":7306:7308   */\n      0x20\n        /* \"#utility.yul\":7295:7304   */\n      dup3\n        /* \"#utility.yul\":7291:7309   */\n      add\n        /* \"#utility.yul\":7283:7309   */\n      swap1\n      pop\n        /* \"#utility.yul\":7355:7364   */\n      dup2\n        /* \"#utility.yul\":7349:7353   */\n      dup2\n        /* \"#utility.yul\":7345:7365   */\n      sub\n        /* \"#utility.yul\":7341:7342   */\n      0x00\n        /* \"#utility.yul\":7330:7339   */\n      dup4\n        /* \"#utility.yul\":7326:7343   */\n      add\n        /* \"#utility.yul\":7319:7366   */\n      mstore\n        /* \"#utility.yul\":7383:7514   */\n      tag_193\n        /* \"#utility.yul\":7509:7513   */\n      dup2\n        /* \"#utility.yul\":7383:7514   */\n      tag_114\n      jump\t// in\n    tag_193:\n        /* \"#utility.yul\":7375:7514   */\n      swap1\n      pop\n        /* \"#utility.yul\":7102:7521   */\n      swap2\n      swap1\n      pop\n      jump\t// out\n        /* \"#utility.yul\":7527:7698   */\n    tag_115:\n        /* \"#utility.yul\":7667:7690   */\n      0x64726177207472616e73666572206661696c65647e0000000000000000000000\n        /* \"#utility.yul\":7663:7664   */\n      0x00\n        /* \"#utility.yul\":7655:7661   */\n      dup3\n        /* \"#utility.yul\":7651:7665   */\n      add\n        /* \"#utility.yul\":7644:7691   */\n      mstore\n        /* \"#utility.yul\":7527:7698   */\n      pop\n      jump\t// out\n        /* \"#utility.yul\":7704:8070   */\n    tag_116:\n        /* \"#utility.yul\":7846:7849   */\n      0x00\n        /* \"#utility.yul\":7867:7934   */\n      tag_196\n        /* \"#utility.yul\":7931:7933   */\n      0x15\n        /* \"#utility.yul\":7926:7929   */\n      dup4\n        /* \"#utility.yul\":7867:7934   */\n      tag_103\n      jump\t// in\n    tag_196:\n        /* \"#utility.yul\":7860:7934   */\n      swap2\n      pop\n        /* \"#utility.yul\":7943:8036   */\n      tag_197\n        /* \"#utility.yul\":8032:8035   */\n      dup3\n        /* \"#utility.yul\":7943:8036   */\n      tag_115\n      jump\t// in\n    tag_197:\n        /* \"#utility.yul\":8061:8063   */\n      0x20\n        /* \"#utility.yul\":8056:8059   */\n      dup3\n        /* \"#utility.yul\":8052:8064   */\n      add\n        /* \"#utility.yul\":8045:8064   */\n      swap1\n      pop\n        /* \"#utility.yul\":7704:8070   */\n      swap2\n      swap1\n      pop\n      jump\t// out\n        /* \"#utility.yul\":8076:8495   */\n    tag_67:\n        /* \"#utility.yul\":8242:8246   */\n      0x00\n        /* \"#utility.yul\":8280:8282   */\n      0x20\n        /* \"#utility.yul\":8269:8278   */\n      dup3\n        /* \"#utility.yul\":8265:8283   */\n      add\n        /* \"#utility.yul\":8257:8283   */\n      swap1\n      pop\n        /* \"#utility.yul\":8329:8338   */\n      dup2\n        /* \"#utility.yul\":8323:8327   */\n      dup2\n        /* \"#utility.yul\":8319:8339   */\n      sub\n        /* \"#utility.yul\":8315:8316   */\n      0x00\n        /* \"#utility.yul\":8304:8313   */\n      dup4\n        /* \"#utility.yul\":8300:8317   */\n      add\n        /* \"#utility.yul\":8293:8340   */\n      mstore\n        /* \"#utility.yul\":8357:8488   */\n      tag_199\n        /* \"#utility.yul\":8483:8487   */\n      dup2\n        /* \"#utility.yul\":8357:8488   */\n      tag_116\n      jump\t// in\n    tag_199:\n        /* \"#utility.yul\":8349:8488   */\n      swap1\n      pop\n        /* \"#utility.yul\":8076:8495   */\n      swap2\n      swap1\n      pop\n      jump\t// out\n        /* \"#utility.yul\":8501:8665   */\n    tag_117:\n        /* \"#utility.yul\":8641:8657   */\n      0x796f7520686176652066756e647e000000000000000000000000000000000000\n        /* \"#utility.yul\":8637:8638   */\n      0x00\n        /* \"#utility.yul\":8629:8635   */\n      dup3\n        /* \"#utility.yul\":8625:8639   */\n      add\n        /* \"#utility.yul\":8618:8658   */\n      mstore\n        /* \"#utility.yul\":8501:8665   */\n      pop\n      jump\t// out\n        /* \"#utility.yul\":8671:9037   */\n    tag_118:\n        /* \"#utility.yul\":8813:8816   */\n      0x00\n        /* \"#utility.yul\":8834:8901   */\n      tag_202\n        /* \"#utility.yul\":8898:8900   */\n      0x0e\n        /* \"#utility.yul\":8893:8896   */\n      dup4\n        /* \"#utility.yul\":8834:8901   */\n      tag_103\n      jump\t// in\n    tag_202:\n        /* \"#utility.yul\":8827:8901   */\n      swap2\n      pop\n        /* \"#utility.yul\":8910:9003   */\n      tag_203\n        /* \"#utility.yul\":8999:9002   */\n      dup3\n        /* \"#utility.yul\":8910:9003   */\n      tag_117\n      jump\t// in\n    tag_203:\n        /* \"#utility.yul\":9028:9030   */\n      0x20\n        /* \"#utility.yul\":9023:9026   */\n      dup3\n        /* \"#utility.yul\":9019:9031   */\n      add\n        /* \"#utility.yul\":9012:9031   */\n      swap1\n      pop\n        /* \"#utility.yul\":8671:9037   */\n      swap2\n      swap1\n      pop\n      jump\t// out\n        /* \"#utility.yul\":9043:9462   */\n    tag_71:\n        /* \"#utility.yul\":9209:9213   */\n      0x00\n        /* \"#utility.yul\":9247:9249   */\n      0x20\n        /* \"#utility.yul\":9236:9245   */\n      dup3\n        /* \"#utility.yul\":9232:9250   */\n      add\n        /* \"#utility.yul\":9224:9250   */\n      swap1\n      pop\n        /* \"#utility.yul\":9296:9305   */\n      dup2\n        /* \"#utility.yul\":9290:9294   */\n      dup2\n        /* \"#utility.yul\":9286:9306   */\n      sub\n        /* \"#utility.yul\":9282:9283   */\n      0x00\n        /* \"#utility.yul\":9271:9280   */\n      dup4\n        /* \"#utility.yul\":9267:9284   */\n      add\n        /* \"#utility.yul\":9260:9307   */\n      mstore\n        /* \"#utility.yul\":9324:9455   */\n      tag_205\n        /* \"#utility.yul\":9450:9454   */\n      dup2\n        /* \"#utility.yul\":9324:9455   */\n      tag_118\n      jump\t// in\n    tag_205:\n        /* \"#utility.yul\":9316:9455   */\n      swap1\n      pop\n        /* \"#utility.yul\":9043:9462   */\n      swap2\n      swap1\n      pop\n      jump\t// out\n        /* \"#utility.yul\":9468:9632   */\n    tag_119:\n        /* \"#utility.yul\":9608:9624   */\n      0x73656e64206d6f7265206574687e000000000000000000000000000000000000\n        /* \"#utility.yul\":9604:9605   */\n      0x00\n        /* \"#utility.yul\":9596:9602   */\n      dup3\n        /* \"#utility.yul\":9592:9606   */\n      add\n        /* \"#utility.yul\":9585:9625   */\n      mstore\n        /* \"#utility.yul\":9468:9632   */\n      pop\n      jump\t// out\n        /* \"#utility.yul\":9638:10004   */\n    tag_120:\n        /* \"#utility.yul\":9780:9783   */\n      0x00\n        /* \"#utility.yul\":9801:9868   */\n      tag_208\n        /* \"#utility.yul\":9865:9867   */\n      0x0e\n        /* \"#utility.yul\":9860:9863   */\n      dup4\n        /* \"#utility.yul\":9801:9868   */\n      tag_103\n      jump\t// in\n    tag_208:\n        /* \"#utility.yul\":9794:9868   */\n      swap2\n      pop\n        /* \"#utility.yul\":9877:9970   */\n      tag_209\n        /* \"#utility.yul\":9966:9969   */\n      dup3\n        /* \"#utility.yul\":9877:9970   */\n      tag_119\n      jump\t// in\n    tag_209:\n        /* \"#utility.yul\":9995:9997   */\n      0x20\n        /* \"#utility.yul\":9990:9993   */\n      dup3\n        /* \"#utility.yul\":9986:9998   */\n      add\n        /* \"#utility.yul\":9979:9998   */\n      swap1\n      pop\n        /* \"#utility.yul\":9638:10004   */\n      swap2\n      swap1\n      pop\n      jump\t// out\n        /* \"#utility.yul\":10010:10429   */\n    tag_75:\n        /* \"#utility.yul\":10176:10180   */\n      0x00\n        /* \"#utility.yul\":10214:10216   */\n      0x20\n        /* \"#utility.yul\":10203:10212   */\n      dup3\n        /* \"#utility.yul\":10199:10217   */\n      add\n        /* \"#utility.yul\":10191:10217   */\n      swap1\n      pop\n        /* \"#utility.yul\":10263:10272   */\n      dup2\n        /* \"#utility.yul\":10257:10261   */\n      dup2\n        /* \"#utility.yul\":10253:10273   */\n      sub\n        /* \"#utility.yul\":10249:10250   */\n      0x00\n        /* \"#utility.yul\":10238:10247   */\n      dup4\n        /* \"#utility.yul\":10234:10251   */\n      add\n        /* \"#utility.yul\":10227:10274   */\n      mstore\n        /* \"#utility.yul\":10291:10422   */\n      tag_211\n        /* \"#utility.yul\":10417:10421   */\n      dup2\n        /* \"#utility.yul\":10291:10422   */\n      tag_120\n      jump\t// in\n    tag_211:\n        /* \"#utility.yul\":10283:10422   */\n      swap1\n      pop\n        /* \"#utility.yul\":10010:10429   */\n      swap2\n      swap1\n      pop\n      jump\t// out\n        /* \"#utility.yul\":10435:10540   */\n    tag_121:\n        /* \"#utility.yul\":10471:10478   */\n      0x00\n        /* \"#utility.yul\":10511:10533   */\n      0xffffffffffffffffffff\n        /* \"#utility.yul\":10504:10509   */\n      dup3\n        /* \"#utility.yul\":10500:10534   */\n      and\n        /* \"#utility.yul\":10489:10534   */\n      swap1\n      pop\n        /* \"#utility.yul\":10435:10540   */\n      swap2\n      swap1\n      pop\n      jump\t// out\n        /* \"#utility.yul\":10546:10666   */\n    tag_122:\n        /* \"#utility.yul\":10618:10641   */\n      tag_214\n        /* \"#utility.yul\":10635:10640   */\n      dup2\n        /* \"#utility.yul\":10618:10641   */\n      tag_121\n      jump\t// in\n    tag_214:\n        /* \"#utility.yul\":10611:10616   */\n      dup2\n        /* \"#utility.yul\":10608:10642   */\n      eq\n        /* \"#utility.yul\":10598:10660   */\n      tag_215\n      jumpi\n        /* \"#utility.yul\":10656:10657   */\n      0x00\n        /* \"#utility.yul\":10653:10654   */\n      dup1\n        /* \"#utility.yul\":10646:10658   */\n      revert\n        /* \"#utility.yul\":10598:10660   */\n    tag_215:\n        /* \"#utility.yul\":10546:10666   */\n      pop\n      jump\t// out\n        /* \"#utility.yul\":10672:10813   */\n    tag_123:\n        /* \"#utility.yul\":10728:10733   */\n      0x00\n        /* \"#utility.yul\":10759:10765   */\n      dup2\n        /* \"#utility.yul\":10753:10766   */\n      mload\n        /* \"#utility.yul\":10744:10766   */\n      swap1\n      pop\n        /* \"#utility.yul\":10775:10807   */\n      tag_217\n        /* \"#utility.yul\":10801:10806   */\n      dup2\n        /* \"#utility.yul\":10775:10807   */\n      tag_122\n      jump\t// in\n    tag_217:\n        /* \"#utility.yul\":10672:10813   */\n      swap3\n      swap2\n      pop\n      pop\n      jump\t// out\n        /* \"#utility.yul\":10819:10939   */\n    tag_124:\n        /* \"#utility.yul\":10891:10914   */\n      tag_219\n        /* \"#utility.yul\":10908:10913   */\n      dup2\n        /* \"#utility.yul\":10891:10914   */\n      tag_100\n      jump\t// in\n    tag_219:\n        /* \"#utility.yul\":10884:10889   */\n      dup2\n        /* \"#utility.yul\":10881:10915   */\n      eq\n        /* \"#utility.yul\":10871:10933   */\n      tag_220\n      jumpi\n        /* \"#utility.yul\":10929:10930   */\n      0x00\n        /* \"#utility.yul\":10926:10927   */\n      dup1\n        /* \"#utility.yul\":10919:10931   */\n      revert\n        /* \"#utility.yul\":10871:10933   */\n    tag_220:\n        /* \"#utility.yul\":10819:10939   */\n      pop\n      jump\t// out\n        /* \"#utility.yul\":10945:11086   */\n    tag_125:\n        /* \"#utility.yul\":11001:11006   */\n      0x00\n        /* \"#utility.yul\":11032:11038   */\n      dup2\n        /* \"#utility.yul\":11026:11039   */\n      mload\n        /* \"#utility.yul\":11017:11039   */\n      swap1\n      pop\n        /* \"#utility.yul\":11048:11080   */\n      tag_222\n        /* \"#utility.yul\":11074:11079   */\n      dup2\n        /* \"#utility.yul\":11048:11080   */\n      tag_124\n      jump\t// in\n    tag_222:\n        /* \"#utility.yul\":10945:11086   */\n      swap3\n      swap2\n      pop\n      pop\n      jump\t// out\n        /* \"#utility.yul\":11092:11214   */\n    tag_126:\n        /* \"#utility.yul\":11165:11189   */\n      tag_224\n        /* \"#utility.yul\":11183:11188   */\n      dup2\n        /* \"#utility.yul\":11165:11189   */\n      tag_98\n      jump\t// in\n    tag_224:\n        /* \"#utility.yul\":11158:11163   */\n      dup2\n        /* \"#utility.yul\":11155:11190   */\n      eq\n        /* \"#utility.yul\":11145:11208   */\n      tag_225\n      jumpi\n        /* \"#utility.yul\":11204:11205   */\n      0x00\n        /* \"#utility.yul\":11201:11202   */\n      dup1\n        /* \"#utility.yul\":11194:11206   */\n      revert\n        /* \"#utility.yul\":11145:11208   */\n    tag_225:\n        /* \"#utility.yul\":11092:11214   */\n      pop\n      jump\t// out\n        /* \"#utility.yul\":11220:11363   */\n    tag_127:\n        /* \"#utility.yul\":11277:11282   */\n      0x00\n        /* \"#utility.yul\":11308:11314   */\n      dup2\n        /* \"#utility.yul\":11302:11315   */\n      mload\n        /* \"#utility.yul\":11293:11315   */\n      swap1\n      pop\n        /* \"#utility.yul\":11324:11357   */\n      tag_227\n        /* \"#utility.yul\":11351:11356   */\n      dup2\n        /* \"#utility.yul\":11324:11357   */\n      tag_126\n      jump\t// in\n    tag_227:\n        /* \"#utility.yul\":11220:11363   */\n      swap3\n      swap2\n      pop\n      pop\n      jump\t// out\n        /* \"#utility.yul\":11369:12340   */\n    tag_80:\n        /* \"#utility.yul\":11472:11478   */\n      0x00\n        /* \"#utility.yul\":11480:11486   */\n      dup1\n        /* \"#utility.yul\":11488:11494   */\n      0x00\n        /* \"#utility.yul\":11496:11502   */\n      dup1\n        /* \"#utility.yul\":11504:11510   */\n      0x00\n        /* \"#utility.yul\":11553:11556   */\n      0xa0\n        /* \"#utility.yul\":11541:11550   */\n      dup7\n        /* \"#utility.yul\":11532:11539   */\n      dup9\n        /* \"#utility.yul\":11528:11551   */\n      sub\n        /* \"#utility.yul\":11524:11557   */\n      slt\n        /* \"#utility.yul\":11521:11641   */\n      iszero\n      tag_229\n      jumpi\n        /* \"#utility.yul\":11560:11639   */\n      tag_230\n      tag_92\n      jump\t// in\n    tag_230:\n        /* \"#utility.yul\":11521:11641   */\n    tag_229:\n        /* \"#utility.yul\":11680:11681   */\n      0x00\n        /* \"#utility.yul\":11705:11768   */\n      tag_231\n        /* \"#utility.yul\":11760:11767   */\n      dup9\n        /* \"#utility.yul\":11751:11757   */\n      dup3\n        /* \"#utility.yul\":11740:11749   */\n      dup10\n        /* \"#utility.yul\":11736:11758   */\n      add\n        /* \"#utility.yul\":11705:11768   */\n      tag_123\n      jump\t// in\n    tag_231:\n        /* \"#utility.yul\":11695:11768   */\n      swap6\n      pop\n        /* \"#utility.yul\":11651:11778   */\n      pop\n        /* \"#utility.yul\":11817:11819   */\n      0x20\n        /* \"#utility.yul\":11843:11906   */\n      tag_232\n        /* \"#utility.yul\":11898:11905   */\n      dup9\n        /* \"#utility.yul\":11889:11895   */\n      dup3\n        /* \"#utility.yul\":11878:11887   */\n      dup10\n        /* \"#utility.yul\":11874:11896   */\n      add\n        /* \"#utility.yul\":11843:11906   */\n      tag_125\n      jump\t// in\n    tag_232:\n        /* \"#utility.yul\":11833:11906   */\n      swap5\n      pop\n        /* \"#utility.yul\":11788:11916   */\n      pop\n        /* \"#utility.yul\":11955:11957   */\n      0x40\n        /* \"#utility.yul\":11981:12045   */\n      tag_233\n        /* \"#utility.yul\":12037:12044   */\n      dup9\n        /* \"#utility.yul\":12028:12034   */\n      dup3\n        /* \"#utility.yul\":12017:12026   */\n      dup10\n        /* \"#utility.yul\":12013:12035   */\n      add\n        /* \"#utility.yul\":11981:12045   */\n      tag_127\n      jump\t// in\n    tag_233:\n        /* \"#utility.yul\":11971:12045   */\n      swap4\n      pop\n        /* \"#utility.yul\":11926:12055   */\n      pop\n        /* \"#utility.yul\":12094:12096   */\n      0x60\n        /* \"#utility.yul\":12120:12184   */\n      tag_234\n        /* \"#utility.yul\":12176:12183   */\n      dup9\n        /* \"#utility.yul\":12167:12173   */\n      dup3\n        /* \"#utility.yul\":12156:12165   */\n      dup10\n        /* \"#utility.yul\":12152:12174   */\n      add\n        /* \"#utility.yul\":12120:12184   */\n      tag_127\n      jump\t// in\n    tag_234:\n        /* \"#utility.yul\":12110:12184   */\n      swap3\n      pop\n        /* \"#utility.yul\":12065:12194   */\n      pop\n        /* \"#utility.yul\":12233:12236   */\n      0x80\n        /* \"#utility.yul\":12260:12323   */\n      tag_235\n        /* \"#utility.yul\":12315:12322   */\n      dup9\n        /* \"#utility.yul\":12306:12312   */\n      dup3\n        /* \"#utility.yul\":12295:12304   */\n      dup10\n        /* \"#utility.yul\":12291:12313   */\n      add\n        /* \"#utility.yul\":12260:12323   */\n      tag_123\n      jump\t// in\n    tag_235:\n        /* \"#utility.yul\":12250:12323   */\n      swap2\n      pop\n        /* \"#utility.yul\":12204:12333   */\n      pop\n        /* \"#utility.yul\":11369:12340   */\n      swap3\n      swap6\n      pop\n      swap3\n      swap6\n      swap1\n      swap4\n      pop\n      jump\t// out\n        /* \"#utility.yul\":12346:12522   */\n    tag_128:\n        /* \"#utility.yul\":12486:12514   */\n      0x796f75206e6f7420697320636f6e7472616374206f776e65727e000000000000\n        /* \"#utility.yul\":12482:12483   */\n      0x00\n        /* \"#utility.yul\":12474:12480   */\n      dup3\n        /* \"#utility.yul\":12470:12484   */\n      add\n        /* \"#utility.yul\":12463:12515   */\n      mstore\n        /* \"#utility.yul\":12346:12522   */\n      pop\n      jump\t// out\n        /* \"#utility.yul\":12528:12894   */\n    tag_129:\n        /* \"#utility.yul\":12670:12673   */\n      0x00\n        /* \"#utility.yul\":12691:12758   */\n      tag_238\n        /* \"#utility.yul\":12755:12757   */\n      0x1a\n        /* \"#utility.yul\":12750:12753   */\n      dup4\n        /* \"#utility.yul\":12691:12758   */\n      tag_103\n      jump\t// in\n    tag_238:\n        /* \"#utility.yul\":12684:12758   */\n      swap2\n      pop\n        /* \"#utility.yul\":12767:12860   */\n      tag_239\n        /* \"#utility.yul\":12856:12859   */\n      dup3\n        /* \"#utility.yul\":12767:12860   */\n      tag_128\n      jump\t// in\n    tag_239:\n        /* \"#utility.yul\":12885:12887   */\n      0x20\n        /* \"#utility.yul\":12880:12883   */\n      dup3\n        /* \"#utility.yul\":12876:12888   */\n      add\n        /* \"#utility.yul\":12869:12888   */\n      swap1\n      pop\n        /* \"#utility.yul\":12528:12894   */\n      swap2\n      swap1\n      pop\n      jump\t// out\n        /* \"#utility.yul\":12900:13319   */\n    tag_84:\n        /* \"#utility.yul\":13066:13070   */\n      0x00\n        /* \"#utility.yul\":13104:13106   */\n      0x20\n        /* \"#utility.yul\":13093:13102   */\n      dup3\n        /* \"#utility.yul\":13089:13107   */\n      add\n        /* \"#utility.yul\":13081:13107   */\n      swap1\n      pop\n        /* \"#utility.yul\":13153:13162   */\n      dup2\n        /* \"#utility.yul\":13147:13151   */\n      dup2\n        /* \"#utility.yul\":13143:13163   */\n      sub\n        /* \"#utility.yul\":13139:13140   */\n      0x00\n        /* \"#utility.yul\":13128:13137   */\n      dup4\n        /* \"#utility.yul\":13124:13141   */\n      add\n        /* \"#utility.yul\":13117:13164   */\n      mstore\n        /* \"#utility.yul\":13181:13312   */\n      tag_241\n        /* \"#utility.yul\":13307:13311   */\n      dup2\n        /* \"#utility.yul\":13181:13312   */\n      tag_129\n      jump\t// in\n    tag_241:\n        /* \"#utility.yul\":13173:13312   */\n      swap1\n      pop\n        /* \"#utility.yul\":12900:13319   */\n      swap2\n      swap1\n      pop\n      jump\t// out\n        /* \"#utility.yul\":13325:13505   */\n    tag_130:\n        /* \"#utility.yul\":13373:13450   */\n      0x4e487b7100000000000000000000000000000000000000000000000000000000\n        /* \"#utility.yul\":13370:13371   */\n      0x00\n        /* \"#utility.yul\":13363:13451   */\n      mstore\n        /* \"#utility.yul\":13470:13474   */\n      0x11\n        /* \"#utility.yul\":13467:13468   */\n      0x04\n        /* \"#utility.yul\":13460:13475   */\n      mstore\n        /* \"#utility.yul\":13494:13498   */\n      0x24\n        /* \"#utility.yul\":13491:13492   */\n      0x00\n        /* \"#utility.yul\":13484:13499   */\n      revert\n        /* \"#utility.yul\":13511:13921   */\n    tag_88:\n        /* \"#utility.yul\":13551:13558   */\n      0x00\n        /* \"#utility.yul\":13574:13594   */\n      tag_244\n        /* \"#utility.yul\":13592:13593   */\n      dup3\n        /* \"#utility.yul\":13574:13594   */\n      tag_98\n      jump\t// in\n    tag_244:\n        /* \"#utility.yul\":13569:13594   */\n      swap2\n      pop\n        /* \"#utility.yul\":13608:13628   */\n      tag_245\n        /* \"#utility.yul\":13626:13627   */\n      dup4\n        /* \"#utility.yul\":13608:13628   */\n      tag_98\n      jump\t// in\n    tag_245:\n        /* \"#utility.yul\":13603:13628   */\n      swap3\n      pop\n        /* \"#utility.yul\":13663:13664   */\n      dup3\n        /* \"#utility.yul\":13660:13661   */\n      dup3\n        /* \"#utility.yul\":13656:13665   */\n      mul\n        /* \"#utility.yul\":13685:13715   */\n      tag_246\n        /* \"#utility.yul\":13703:13714   */\n      dup2\n        /* \"#utility.yul\":13685:13715   */\n      tag_98\n      jump\t// in\n    tag_246:\n        /* \"#utility.yul\":13674:13715   */\n      swap2\n      pop\n        /* \"#utility.yul\":13864:13865   */\n      dup3\n        /* \"#utility.yul\":13855:13862   */\n      dup3\n        /* \"#utility.yul\":13851:13866   */\n      div\n        /* \"#utility.yul\":13848:13849   */\n      dup5\n        /* \"#utility.yul\":13845:13867   */\n      eq\n        /* \"#utility.yul\":13825:13826   */\n      dup4\n        /* \"#utility.yul\":13818:13827   */\n      iszero\n        /* \"#utility.yul\":13798:13881   */\n      or\n        /* \"#utility.yul\":13775:13914   */\n      tag_247\n      jumpi\n        /* \"#utility.yul\":13894:13912   */\n      tag_248\n      tag_130\n      jump\t// in\n    tag_248:\n        /* \"#utility.yul\":13775:13914   */\n    tag_247:\n        /* \"#utility.yul\":13559:13921   */\n      pop\n        /* \"#utility.yul\":13511:13921   */\n      swap3\n      swap2\n      pop\n      pop\n      jump\t// out\n        /* \"#utility.yul\":13927:14107   */\n    tag_131:\n        /* \"#utility.yul\":13975:14052   */\n      0x4e487b7100000000000000000000000000000000000000000000000000000000\n        /* \"#utility.yul\":13972:13973   */\n      0x00\n        /* \"#utility.yul\":13965:14053   */\n      mstore\n        /* \"#utility.yul\":14072:14076   */\n      0x12\n        /* \"#utility.yul\":14069:14070   */\n      0x04\n        /* \"#utility.yul\":14062:14077   */\n      mstore\n        /* \"#utility.yul\":14096:14100   */\n      0x24\n        /* \"#utility.yul\":14093:14094   */\n      0x00\n        /* \"#utility.yul\":14086:14101   */\n      revert\n        /* \"#utility.yul\":14113:14298   */\n    tag_90:\n        /* \"#utility.yul\":14153:14154   */\n      0x00\n        /* \"#utility.yul\":14170:14190   */\n      tag_251\n        /* \"#utility.yul\":14188:14189   */\n      dup3\n        /* \"#utility.yul\":14170:14190   */\n      tag_98\n      jump\t// in\n    tag_251:\n        /* \"#utility.yul\":14165:14190   */\n      swap2\n      pop\n        /* \"#utility.yul\":14204:14224   */\n      tag_252\n        /* \"#utility.yul\":14222:14223   */\n      dup4\n        /* \"#utility.yul\":14204:14224   */\n      tag_98\n      jump\t// in\n    tag_252:\n        /* \"#utility.yul\":14199:14224   */\n      swap3\n      pop\n        /* \"#utility.yul\":14243:14244   */\n      dup3\n        /* \"#utility.yul\":14233:14268   */\n      tag_253\n      jumpi\n        /* \"#utility.yul\":14248:14266   */\n      tag_254\n      tag_131\n      jump\t// in\n    tag_254:\n        /* \"#utility.yul\":14233:14268   */\n    tag_253:\n        /* \"#utility.yul\":14290:14291   */\n      dup3\n        /* \"#utility.yul\":14287:14288   */\n      dup3\n        /* \"#utility.yul\":14283:14292   */\n      div\n        /* \"#utility.yul\":14278:14292   */\n      swap1\n      pop\n        /* \"#utility.yul\":14113:14298   */\n      swap3\n      swap2\n      pop\n      pop\n      jump\t// out\n\n    auxdata: 0xa264697066735822122085515fc8e73e9a1730968fd22f52ff3e1beb0b4a3f4dc71b477e8cef8dc7a16964736f6c63430008180033\n}\n",
				"bytecode": {
					"linkReferences": {},
					"object": "608060405234801561000f575f80fd5b5073694aa1769357215de4fac081bf1f309adc3253065f806101000a81548173ffffffffffffffffffffffffffffffffffffffff021916908373ffffffffffffffffffffffffffffffffffffffff1602179055503360015f6101000a81548173ffffffffffffffffffffffffffffffffffffffff021916908373ffffffffffffffffffffffffffffffffffffffff160217905550610e2d806100b05f395ff3fe60806040526004361061006f575f3560e01c8063b82ffdf91161004d578063b82ffdf9146100a9578063bea4dfb5146100e5578063e7b59bf31461010f578063fd301c49146101375761006f565b8063590e1ae314610073578063749141bc14610089578063b60d42881461009f575b5f80fd5b34801561007e575f80fd5b50610087610161565b005b348015610094575f80fd5b5061009d610357565b005b6100a7610492565b005b3480156100b4575f80fd5b506100cf60048036038101906100ca91906107dc565b6105a1565b6040516100dc919061081f565b60405180910390f35b3480156100f0575f80fd5b506100f96105b6565b6040516101069190610850565b60405180910390f35b34801561011a575f80fd5b50610135600480360381019061013091906107dc565b610651565b005b348015610142575f80fd5b5061014b610723565b6040516101589190610878565b60405180910390f35b601e61016c47610748565b106101ac576040517f08c379a00000000000000000000000000000000000000000000000000000000081526004016101a3906108eb565b60405180910390fd5b5f60025f3373ffffffffffffffffffffffffffffffffffffffff1673ffffffffffffffffffffffffffffffffffffffff1681526020019081526020015f20540361022b576040517f08c379a000000000000000000000000000000000000000000000000000000000815260040161022290610953565b60405180910390fd5b5f3373ffffffffffffffffffffffffffffffffffffffff1660025f3373ffffffffffffffffffffffffffffffffffffffff1673ffffffffffffffffffffffffffffffffffffffff1681526020019081526020015f205460405161028d9061099e565b5f6040518083038185875af1925050503d805f81146102c7576040519150601f19603f3d011682016040523d82523d5f602084013e6102cc565b606091505b50508091505080610312576040517f08c379a0000000000000000000000000000000000000000000000000000000008152600401610309906109fc565b60405180910390fd5b5f60025f3373ffffffffffffffffffffffffffffffffffffffff1673ffffffffffffffffffffffffffffffffffffffff1681526020019081526020015f208190555050565b601e61036247610748565b10156103a3576040517f08c379a000000000000000000000000000000000000000000000000000000000815260040161039a90610a64565b60405180910390fd5b5f3373ffffffffffffffffffffffffffffffffffffffff16476040516103c89061099e565b5f6040518083038185875af1925050503d805f8114610402576040519150601f19603f3d011682016040523d82523d5f602084013e610407565b606091505b5050809150508061044d576040517f08c379a000000000000000000000000000000000000000000000000000000000815260040161044490610acc565b60405180910390fd5b5f60025f3373ffffffffffffffffffffffffffffffffffffffff1673ffffffffffffffffffffffffffffffffffffffff1681526020019081526020015f208190555050565b5f60025f3373ffffffffffffffffffffffffffffffffffffffff1673ffffffffffffffffffffffffffffffffffffffff1681526020019081526020015f205414610511576040517f08c379a000000000000000000000000000000000000000000000000000000000815260040161050890610b34565b60405180910390fd5b600a61051c34610748565b101561055d576040517f08c379a000000000000000000000000000000000000000000000000000000000815260040161055490610b9c565b60405180910390fd5b3460025f3373ffffffffffffffffffffffffffffffffffffffff1673ffffffffffffffffffffffffffffffffffffffff1681526020019081526020015f2081905550565b6002602052805f5260405f205f915090505481565b5f805f8054906101000a900473ffffffffffffffffffffffffffffffffffffffff1673ffffffffffffffffffffffffffffffffffffffff1663feaf968c6040518163ffffffff1660e01b815260040160a060405180830381865afa158015610620573d5f803e3d5ffd5b505050506040513d601f19601f820116820180604052508101906106449190610c4d565b5050509150508091505090565b60015f9054906101000a900473ffffffffffffffffffffffffffffffffffffffff1673ffffffffffffffffffffffffffffffffffffffff163373ffffffffffffffffffffffffffffffffffffffff16146106e0576040517f08c379a00000000000000000000000000000000000000000000000000000000081526004016106d790610d0e565b60405180910390fd5b8060015f6101000a81548173ffffffffffffffffffffffffffffffffffffffff021916908373ffffffffffffffffffffffffffffffffffffffff16021790555050565b60015f9054906101000a900473ffffffffffffffffffffffffffffffffffffffff1681565b5f806107526105b6565b90506a52b7d2dcc80cd2e4000000838261076c9190610d59565b6107769190610dc7565b915050919050565b5f80fd5b5f73ffffffffffffffffffffffffffffffffffffffff82169050919050565b5f6107ab82610782565b9050919050565b6107bb816107a1565b81146107c5575f80fd5b50565b5f813590506107d6816107b2565b92915050565b5f602082840312156107f1576107f061077e565b5b5f6107fe848285016107c8565b91505092915050565b5f819050919050565b61081981610807565b82525050565b5f6020820190506108325f830184610810565b92915050565b5f819050919050565b61084a81610838565b82525050565b5f6020820190506108635f830184610841565b92915050565b610872816107a1565b82525050565b5f60208201905061088b5f830184610869565b92915050565b5f82825260208201905092915050565b7f74617267657420697320726561636865647e00000000000000000000000000005f82015250565b5f6108d5601283610891565b91506108e0826108a1565b602082019050919050565b5f6020820190508181035f830152610902816108c9565b9050919050565b7f7468657265206973206e6f2066756e6420666f7220796f757e000000000000005f82015250565b5f61093d601983610891565b915061094882610909565b602082019050919050565b5f6020820190508181035f83015261096a81610931565b9050919050565b5f81905092915050565b50565b5f6109895f83610971565b91506109948261097b565b5f82019050919050565b5f6109a88261097e565b9150819050919050565b7f726566756e64207472616e73666572206661696c65647e0000000000000000005f82015250565b5f6109e6601783610891565b91506109f1826109b2565b602082019050919050565b5f6020820190508181035f830152610a13816109da565b9050919050565b7f746172676574206973206e6f7420726561636865647e000000000000000000005f82015250565b5f610a4e601683610891565b9150610a5982610a1a565b602082019050919050565b5f6020820190508181035f830152610a7b81610a42565b9050919050565b7f64726177207472616e73666572206661696c65647e00000000000000000000005f82015250565b5f610ab6601583610891565b9150610ac182610a82565b602082019050919050565b5f6020820190508181035f830152610ae381610aaa565b9050919050565b7f796f7520686176652066756e647e0000000000000000000000000000000000005f82015250565b5f610b1e600e83610891565b9150610b2982610aea565b602082019050919050565b5f6020820190508181035f830152610b4b81610b12565b9050919050565b7f73656e64206d6f7265206574687e0000000000000000000000000000000000005f82015250565b5f610b86600e83610891565b9150610b9182610b52565b602082019050919050565b5f6020820190508181035f830152610bb381610b7a565b9050919050565b5f69ffffffffffffffffffff82169050919050565b610bd881610bba565b8114610be2575f80fd5b50565b5f81519050610bf381610bcf565b92915050565b610c0281610838565b8114610c0c575f80fd5b50565b5f81519050610c1d81610bf9565b92915050565b610c2c81610807565b8114610c36575f80fd5b50565b5f81519050610c4781610c23565b92915050565b5f805f805f60a08688031215610c6657610c6561077e565b5b5f610c7388828901610be5565b9550506020610c8488828901610c0f565b9450506040610c9588828901610c39565b9350506060610ca688828901610c39565b9250506080610cb788828901610be5565b9150509295509295909350565b7f796f75206e6f7420697320636f6e7472616374206f776e65727e0000000000005f82015250565b5f610cf8601a83610891565b9150610d0382610cc4565b602082019050919050565b5f6020820190508181035f830152610d2581610cec565b9050919050565b7f4e487b71000000000000000000000000000000000000000000000000000000005f52601160045260245ffd5b5f610d6382610807565b9150610d6e83610807565b9250828202610d7c81610807565b91508282048414831517610d9357610d92610d2c565b5b5092915050565b7f4e487b71000000000000000000000000000000000000000000000000000000005f52601260045260245ffd5b5f610dd182610807565b9150610ddc83610807565b925082610dec57610deb610d9a565b5b82820490509291505056fea264697066735822122085515fc8e73e9a1730968fd22f52ff3e1beb0b4a3f4dc71b477e8cef8dc7a16964736f6c63430008180033",
					"opcodes": "PUSH1 0x80 PUSH1 0x40 MSTORE CALLVALUE DUP1 ISZERO PUSH2 0xF JUMPI PUSH0 DUP1 REVERT JUMPDEST POP PUSH20 0x694AA1769357215DE4FAC081BF1F309ADC325306 PUSH0 DUP1 PUSH2 0x100 EXP DUP2 SLOAD DUP2 PUSH20 0xFFFFFFFFFFFFFFFFFFFFFFFFFFFFFFFFFFFFFFFF MUL NOT AND SWAP1 DUP4 PUSH20 0xFFFFFFFFFFFFFFFFFFFFFFFFFFFFFFFFFFFFFFFF AND MUL OR SWAP1 SSTORE POP CALLER PUSH1 0x1 PUSH0 PUSH2 0x100 EXP DUP2 SLOAD DUP2 PUSH20 0xFFFFFFFFFFFFFFFFFFFFFFFFFFFFFFFFFFFFFFFF MUL NOT AND SWAP1 DUP4 PUSH20 0xFFFFFFFFFFFFFFFFFFFFFFFFFFFFFFFFFFFFFFFF AND MUL OR SWAP1 SSTORE POP PUSH2 0xE2D DUP1 PUSH2 0xB0 PUSH0 CODECOPY PUSH0 RETURN INVALID PUSH1 0x80 PUSH1 0x40 MSTORE PUSH1 0x4 CALLDATASIZE LT PUSH2 0x6F JUMPI PUSH0 CALLDATALOAD PUSH1 0xE0 SHR DUP1 PUSH4 0xB82FFDF9 GT PUSH2 0x4D JUMPI DUP1 PUSH4 0xB82FFDF9 EQ PUSH2 0xA9 JUMPI DUP1 PUSH4 0xBEA4DFB5 EQ PUSH2 0xE5 JUMPI DUP1 PUSH4 0xE7B59BF3 EQ PUSH2 0x10F JUMPI DUP1 PUSH4 0xFD301C49 EQ PUSH2 0x137 JUMPI PUSH2 0x6F JUMP JUMPDEST DUP1 PUSH4 0x590E1AE3 EQ PUSH2 0x73 JUMPI DUP1 PUSH4 0x749141BC EQ PUSH2 0x89 JUMPI DUP1 PUSH4 0xB60D4288 EQ PUSH2 0x9F JUMPI JUMPDEST PUSH0 DUP1 REVERT JUMPDEST CALLVALUE DUP1 ISZERO PUSH2 0x7E JUMPI PUSH0 DUP1 REVERT JUMPDEST POP PUSH2 0x87 PUSH2 0x161 JUMP JUMPDEST STOP JUMPDEST CALLVALUE DUP1 ISZERO PUSH2 0x94 JUMPI PUSH0 DUP1 REVERT JUMPDEST POP PUSH2 0x9D PUSH2 0x357 JUMP JUMPDEST STOP JUMPDEST PUSH2 0xA7 PUSH2 0x492 JUMP JUMPDEST STOP JUMPDEST CALLVALUE DUP1 ISZERO PUSH2 0xB4 JUMPI PUSH0 DUP1 REVERT JUMPDEST POP PUSH2 0xCF PUSH1 0x4 DUP1 CALLDATASIZE SUB DUP2 ADD SWAP1 PUSH2 0xCA SWAP2 SWAP1 PUSH2 0x7DC JUMP JUMPDEST PUSH2 0x5A1 JUMP JUMPDEST PUSH1 0x40 MLOAD PUSH2 0xDC SWAP2 SWAP1 PUSH2 0x81F JUMP JUMPDEST PUSH1 0x40 MLOAD DUP1 SWAP2 SUB SWAP1 RETURN JUMPDEST CALLVALUE DUP1 ISZERO PUSH2 0xF0 JUMPI PUSH0 DUP1 REVERT JUMPDEST POP PUSH2 0xF9 PUSH2 0x5B6 JUMP JUMPDEST PUSH1 0x40 MLOAD PUSH2 0x106 SWAP2 SWAP1 PUSH2 0x850 JUMP JUMPDEST PUSH1 0x40 MLOAD DUP1 SWAP2 SUB SWAP1 RETURN JUMPDEST CALLVALUE DUP1 ISZERO PUSH2 0x11A JUMPI PUSH0 DUP1 REVERT JUMPDEST POP PUSH2 0x135 PUSH1 0x4 DUP1 CALLDATASIZE SUB DUP2 ADD SWAP1 PUSH2 0x130 SWAP2 SWAP1 PUSH2 0x7DC JUMP JUMPDEST PUSH2 0x651 JUMP JUMPDEST STOP JUMPDEST CALLVALUE DUP1 ISZERO PUSH2 0x142 JUMPI PUSH0 DUP1 REVERT JUMPDEST POP PUSH2 0x14B PUSH2 0x723 JUMP JUMPDEST PUSH1 0x40 MLOAD PUSH2 0x158 SWAP2 SWAP1 PUSH2 0x878 JUMP JUMPDEST PUSH1 0x40 MLOAD DUP1 SWAP2 SUB SWAP1 RETURN JUMPDEST PUSH1 0x1E PUSH2 0x16C SELFBALANCE PUSH2 0x748 JUMP JUMPDEST LT PUSH2 0x1AC JUMPI PUSH1 0x40 MLOAD PUSH32 0x8C379A000000000000000000000000000000000000000000000000000000000 DUP2 MSTORE PUSH1 0x4 ADD PUSH2 0x1A3 SWAP1 PUSH2 0x8EB JUMP JUMPDEST PUSH1 0x40 MLOAD DUP1 SWAP2 SUB SWAP1 REVERT JUMPDEST PUSH0 PUSH1 0x2 PUSH0 CALLER PUSH20 0xFFFFFFFFFFFFFFFFFFFFFFFFFFFFFFFFFFFFFFFF AND PUSH20 0xFFFFFFFFFFFFFFFFFFFFFFFFFFFFFFFFFFFFFFFF AND DUP2 MSTORE PUSH1 0x20 ADD SWAP1 DUP2 MSTORE PUSH1 0x20 ADD PUSH0 KECCAK256 SLOAD SUB PUSH2 0x22B JUMPI PUSH1 0x40 MLOAD PUSH32 0x8C379A000000000000000000000000000000000000000000000000000000000 DUP2 MSTORE PUSH1 0x4 ADD PUSH2 0x222 SWAP1 PUSH2 0x953 JUMP JUMPDEST PUSH1 0x40 MLOAD DUP1 SWAP2 SUB SWAP1 REVERT JUMPDEST PUSH0 CALLER PUSH20 0xFFFFFFFFFFFFFFFFFFFFFFFFFFFFFFFFFFFFFFFF AND PUSH1 0x2 PUSH0 CALLER PUSH20 0xFFFFFFFFFFFFFFFFFFFFFFFFFFFFFFFFFFFFFFFF AND PUSH20 0xFFFFFFFFFFFFFFFFFFFFFFFFFFFFFFFFFFFFFFFF AND DUP2 MSTORE PUSH1 0x20 ADD SWAP1 DUP2 MSTORE PUSH1 0x20 ADD PUSH0 KECCAK256 SLOAD PUSH1 0x40 MLOAD PUSH2 0x28D SWAP1 PUSH2 0x99E JUMP JUMPDEST PUSH0 PUSH1 0x40 MLOAD DUP1 DUP4 SUB DUP2 DUP6 DUP8 GAS CALL SWAP3 POP POP POP RETURNDATASIZE DUP1 PUSH0 DUP2 EQ PUSH2 0x2C7 JUMPI PUSH1 0x40 MLOAD SWAP2 POP PUSH1 0x1F NOT PUSH1 0x3F RETURNDATASIZE ADD AND DUP3 ADD PUSH1 0x40 MSTORE RETURNDATASIZE DUP3 MSTORE RETURNDATASIZE PUSH0 PUSH1 0x20 DUP5 ADD RETURNDATACOPY PUSH2 0x2CC JUMP JUMPDEST PUSH1 0x60 SWAP2 POP JUMPDEST POP POP DUP1 SWAP2 POP POP DUP1 PUSH2 0x312 JUMPI PUSH1 0x40 MLOAD PUSH32 0x8C379A000000000000000000000000000000000000000000000000000000000 DUP2 MSTORE PUSH1 0x4 ADD PUSH2 0x309 SWAP1 PUSH2 0x9FC JUMP JUMPDEST PUSH1 0x40 MLOAD DUP1 SWAP2 SUB SWAP1 REVERT JUMPDEST PUSH0 PUSH1 0x2 PUSH0 CALLER PUSH20 0xFFFFFFFFFFFFFFFFFFFFFFFFFFFFFFFFFFFFFFFF AND PUSH20 0xFFFFFFFFFFFFFFFFFFFFFFFFFFFFFFFFFFFFFFFF AND DUP2 MSTORE PUSH1 0x20 ADD SWAP1 DUP2 MSTORE PUSH1 0x20 ADD PUSH0 KECCAK256 DUP2 SWAP1 SSTORE POP POP JUMP JUMPDEST PUSH1 0x1E PUSH2 0x362 SELFBALANCE PUSH2 0x748 JUMP JUMPDEST LT ISZERO PUSH2 0x3A3 JUMPI PUSH1 0x40 MLOAD PUSH32 0x8C379A000000000000000000000000000000000000000000000000000000000 DUP2 MSTORE PUSH1 0x4 ADD PUSH2 0x39A SWAP1 PUSH2 0xA64 JUMP JUMPDEST PUSH1 0x40 MLOAD DUP1 SWAP2 SUB SWAP1 REVERT JUMPDEST PUSH0 CALLER PUSH20 0xFFFFFFFFFFFFFFFFFFFFFFFFFFFFFFFFFFFFFFFF AND SELFBALANCE PUSH1 0x40 MLOAD PUSH2 0x3C8 SWAP1 PUSH2 0x99E JUMP JUMPDEST PUSH0 PUSH1 0x40 MLOAD DUP1 DUP4 SUB DUP2 DUP6 DUP8 GAS CALL SWAP3 POP POP POP RETURNDATASIZE DUP1 PUSH0 DUP2 EQ PUSH2 0x402 JUMPI PUSH1 0x40 MLOAD SWAP2 POP PUSH1 0x1F NOT PUSH1 0x3F RETURNDATASIZE ADD AND DUP3 ADD PUSH1 0x40 MSTORE RETURNDATASIZE DUP3 MSTORE RETURNDATASIZE PUSH0 PUSH1 0x20 DUP5 ADD RETURNDATACOPY PUSH2 0x407 JUMP JUMPDEST PUSH1 0x60 SWAP2 POP JUMPDEST POP POP DUP1 SWAP2 POP POP DUP1 PUSH2 0x44D JUMPI PUSH1 0x40 MLOAD PUSH32 0x8C379A000000000000000000000000000000000000000000000000000000000 DUP2 MSTORE PUSH1 0x4 ADD PUSH2 0x444 SWAP1 PUSH2 0xACC JUMP JUMPDEST PUSH1 0x40 MLOAD DUP1 SWAP2 SUB SWAP1 REVERT JUMPDEST PUSH0 PUSH1 0x2 PUSH0 CALLER PUSH20 0xFFFFFFFFFFFFFFFFFFFFFFFFFFFFFFFFFFFFFFFF AND PUSH20 0xFFFFFFFFFFFFFFFFFFFFFFFFFFFFFFFFFFFFFFFF AND DUP2 MSTORE PUSH1 0x20 ADD SWAP1 DUP2 MSTORE PUSH1 0x20 ADD PUSH0 KECCAK256 DUP2 SWAP1 SSTORE POP POP JUMP JUMPDEST PUSH0 PUSH1 0x2 PUSH0 CALLER PUSH20 0xFFFFFFFFFFFFFFFFFFFFFFFFFFFFFFFFFFFFFFFF AND PUSH20 0xFFFFFFFFFFFFFFFFFFFFFFFFFFFFFFFFFFFFFFFF AND DUP2 MSTORE PUSH1 0x20 ADD SWAP1 DUP2 MSTORE PUSH1 0x20 ADD PUSH0 KECCAK256 SLOAD EQ PUSH2 0x511 JUMPI PUSH1 0x40 MLOAD PUSH32 0x8C379A000000000000000000000000000000000000000000000000000000000 DUP2 MSTORE PUSH1 0x4 ADD PUSH2 0x508 SWAP1 PUSH2 0xB34 JUMP JUMPDEST PUSH1 0x40 MLOAD DUP1 SWAP2 SUB SWAP1 REVERT JUMPDEST PUSH1 0xA PUSH2 0x51C CALLVALUE PUSH2 0x748 JUMP JUMPDEST LT ISZERO PUSH2 0x55D JUMPI PUSH1 0x40 MLOAD PUSH32 0x8C379A000000000000000000000000000000000000000000000000000000000 DUP2 MSTORE PUSH1 0x4 ADD PUSH2 0x554 SWAP1 PUSH2 0xB9C JUMP JUMPDEST PUSH1 0x40 MLOAD DUP1 SWAP2 SUB SWAP1 REVERT JUMPDEST CALLVALUE PUSH1 0x2 PUSH0 CALLER PUSH20 0xFFFFFFFFFFFFFFFFFFFFFFFFFFFFFFFFFFFFFFFF AND PUSH20 0xFFFFFFFFFFFFFFFFFFFFFFFFFFFFFFFFFFFFFFFF AND DUP2 MSTORE PUSH1 0x20 ADD SWAP1 DUP2 MSTORE PUSH1 0x20 ADD PUSH0 KECCAK256 DUP2 SWAP1 SSTORE POP JUMP JUMPDEST PUSH1 0x2 PUSH1 0x20 MSTORE DUP1 PUSH0 MSTORE PUSH1 0x40 PUSH0 KECCAK256 PUSH0 SWAP2 POP SWAP1 POP SLOAD DUP2 JUMP JUMPDEST PUSH0 DUP1 PUSH0 DUP1 SLOAD SWAP1 PUSH2 0x100 EXP SWAP1 DIV PUSH20 0xFFFFFFFFFFFFFFFFFFFFFFFFFFFFFFFFFFFFFFFF AND PUSH20 0xFFFFFFFFFFFFFFFFFFFFFFFFFFFFFFFFFFFFFFFF AND PUSH4 0xFEAF968C PUSH1 0x40 MLOAD DUP2 PUSH4 0xFFFFFFFF AND PUSH1 0xE0 SHL DUP2 MSTORE PUSH1 0x4 ADD PUSH1 0xA0 PUSH1 0x40 MLOAD DUP1 DUP4 SUB DUP2 DUP7 GAS STATICCALL ISZERO DUP1 ISZERO PUSH2 0x620 JUMPI RETURNDATASIZE PUSH0 DUP1 RETURNDATACOPY RETURNDATASIZE PUSH0 REVERT JUMPDEST POP POP POP POP PUSH1 0x40 MLOAD RETURNDATASIZE PUSH1 0x1F NOT PUSH1 0x1F DUP3 ADD AND DUP3 ADD DUP1 PUSH1 0x40 MSTORE POP DUP2 ADD SWAP1 PUSH2 0x644 SWAP2 SWAP1 PUSH2 0xC4D JUMP JUMPDEST POP POP POP SWAP2 POP POP DUP1 SWAP2 POP POP SWAP1 JUMP JUMPDEST PUSH1 0x1 PUSH0 SWAP1 SLOAD SWAP1 PUSH2 0x100 EXP SWAP1 DIV PUSH20 0xFFFFFFFFFFFFFFFFFFFFFFFFFFFFFFFFFFFFFFFF AND PUSH20 0xFFFFFFFFFFFFFFFFFFFFFFFFFFFFFFFFFFFFFFFF AND CALLER PUSH20 0xFFFFFFFFFFFFFFFFFFFFFFFFFFFFFFFFFFFFFFFF AND EQ PUSH2 0x6E0 JUMPI PUSH1 0x40 MLOAD PUSH32 0x8C379A000000000000000000000000000000000000000000000000000000000 DUP2 MSTORE PUSH1 0x4 ADD PUSH2 0x6D7 SWAP1 PUSH2 0xD0E JUMP JUMPDEST PUSH1 0x40 MLOAD DUP1 SWAP2 SUB SWAP1 REVERT JUMPDEST DUP1 PUSH1 0x1 PUSH0 PUSH2 0x100 EXP DUP2 SLOAD DUP2 PUSH20 0xFFFFFFFFFFFFFFFFFFFFFFFFFFFFFFFFFFFFFFFF MUL NOT AND SWAP1 DUP4 PUSH20 0xFFFFFFFFFFFFFFFFFFFFFFFFFFFFFFFFFFFFFFFF AND MUL OR SWAP1 SSTORE POP POP JUMP JUMPDEST PUSH1 0x1 PUSH0 SWAP1 SLOAD SWAP1 PUSH2 0x100 EXP SWAP1 DIV PUSH20 0xFFFFFFFFFFFFFFFFFFFFFFFFFFFFFFFFFFFFFFFF AND DUP2 JUMP JUMPDEST PUSH0 DUP1 PUSH2 0x752 PUSH2 0x5B6 JUMP JUMPDEST SWAP1 POP PUSH11 0x52B7D2DCC80CD2E4000000 DUP4 DUP3 PUSH2 0x76C SWAP2 SWAP1 PUSH2 0xD59 JUMP JUMPDEST PUSH2 0x776 SWAP2 SWAP1 PUSH2 0xDC7 JUMP JUMPDEST SWAP2 POP POP SWAP2 SWAP1 POP JUMP JUMPDEST PUSH0 DUP1 REVERT JUMPDEST PUSH0 PUSH20 0xFFFFFFFFFFFFFFFFFFFFFFFFFFFFFFFFFFFFFFFF DUP3 AND SWAP1 POP SWAP2 SWAP1 POP JUMP JUMPDEST PUSH0 PUSH2 0x7AB DUP3 PUSH2 0x782 JUMP JUMPDEST SWAP1 POP SWAP2 SWAP1 POP JUMP JUMPDEST PUSH2 0x7BB DUP2 PUSH2 0x7A1 JUMP JUMPDEST DUP2 EQ PUSH2 0x7C5 JUMPI PUSH0 DUP1 REVERT JUMPDEST POP JUMP JUMPDEST PUSH0 DUP2 CALLDATALOAD SWAP1 POP PUSH2 0x7D6 DUP2 PUSH2 0x7B2 JUMP JUMPDEST SWAP3 SWAP2 POP POP JUMP JUMPDEST PUSH0 PUSH1 0x20 DUP3 DUP5 SUB SLT ISZERO PUSH2 0x7F1 JUMPI PUSH2 0x7F0 PUSH2 0x77E JUMP JUMPDEST JUMPDEST PUSH0 PUSH2 0x7FE DUP5 DUP3 DUP6 ADD PUSH2 0x7C8 JUMP JUMPDEST SWAP2 POP POP SWAP3 SWAP2 POP POP JUMP JUMPDEST PUSH0 DUP2 SWAP1 POP SWAP2 SWAP1 POP JUMP JUMPDEST PUSH2 0x819 DUP2 PUSH2 0x807 JUMP JUMPDEST DUP3 MSTORE POP POP JUMP JUMPDEST PUSH0 PUSH1 0x20 DUP3 ADD SWAP1 POP PUSH2 0x832 PUSH0 DUP4 ADD DUP5 PUSH2 0x810 JUMP JUMPDEST SWAP3 SWAP2 POP POP JUMP JUMPDEST PUSH0 DUP2 SWAP1 POP SWAP2 SWAP1 POP JUMP JUMPDEST PUSH2 0x84A DUP2 PUSH2 0x838 JUMP JUMPDEST DUP3 MSTORE POP POP JUMP JUMPDEST PUSH0 PUSH1 0x20 DUP3 ADD SWAP1 POP PUSH2 0x863 PUSH0 DUP4 ADD DUP5 PUSH2 0x841 JUMP JUMPDEST SWAP3 SWAP2 POP POP JUMP JUMPDEST PUSH2 0x872 DUP2 PUSH2 0x7A1 JUMP JUMPDEST DUP3 MSTORE POP POP JUMP JUMPDEST PUSH0 PUSH1 0x20 DUP3 ADD SWAP1 POP PUSH2 0x88B PUSH0 DUP4 ADD DUP5 PUSH2 0x869 JUMP JUMPDEST SWAP3 SWAP2 POP POP JUMP JUMPDEST PUSH0 DUP3 DUP3 MSTORE PUSH1 0x20 DUP3 ADD SWAP1 POP SWAP3 SWAP2 POP POP JUMP JUMPDEST PUSH32 0x74617267657420697320726561636865647E0000000000000000000000000000 PUSH0 DUP3 ADD MSTORE POP JUMP JUMPDEST PUSH0 PUSH2 0x8D5 PUSH1 0x12 DUP4 PUSH2 0x891 JUMP JUMPDEST SWAP2 POP PUSH2 0x8E0 DUP3 PUSH2 0x8A1 JUMP JUMPDEST PUSH1 0x20 DUP3 ADD SWAP1 POP SWAP2 SWAP1 POP JUMP JUMPDEST PUSH0 PUSH1 0x20 DUP3 ADD SWAP1 POP DUP2 DUP2 SUB PUSH0 DUP4 ADD MSTORE PUSH2 0x902 DUP2 PUSH2 0x8C9 JUMP JUMPDEST SWAP1 POP SWAP2 SWAP1 POP JUMP JUMPDEST PUSH32 0x7468657265206973206E6F2066756E6420666F7220796F757E00000000000000 PUSH0 DUP3 ADD MSTORE POP JUMP JUMPDEST PUSH0 PUSH2 0x93D PUSH1 0x19 DUP4 PUSH2 0x891 JUMP JUMPDEST SWAP2 POP PUSH2 0x948 DUP3 PUSH2 0x909 JUMP JUMPDEST PUSH1 0x20 DUP3 ADD SWAP1 POP SWAP2 SWAP1 POP JUMP JUMPDEST PUSH0 PUSH1 0x20 DUP3 ADD SWAP1 POP DUP2 DUP2 SUB PUSH0 DUP4 ADD MSTORE PUSH2 0x96A DUP2 PUSH2 0x931 JUMP JUMPDEST SWAP1 POP SWAP2 SWAP1 POP JUMP JUMPDEST PUSH0 DUP2 SWAP1 POP SWAP3 SWAP2 POP POP JUMP JUMPDEST POP JUMP JUMPDEST PUSH0 PUSH2 0x989 PUSH0 DUP4 PUSH2 0x971 JUMP JUMPDEST SWAP2 POP PUSH2 0x994 DUP3 PUSH2 0x97B JUMP JUMPDEST PUSH0 DUP3 ADD SWAP1 POP SWAP2 SWAP1 POP JUMP JUMPDEST PUSH0 PUSH2 0x9A8 DUP3 PUSH2 0x97E JUMP JUMPDEST SWAP2 POP DUP2 SWAP1 POP SWAP2 SWAP1 POP JUMP JUMPDEST PUSH32 0x726566756E64207472616E73666572206661696C65647E000000000000000000 PUSH0 DUP3 ADD MSTORE POP JUMP JUMPDEST PUSH0 PUSH2 0x9E6 PUSH1 0x17 DUP4 PUSH2 0x891 JUMP JUMPDEST SWAP2 POP PUSH2 0x9F1 DUP3 PUSH2 0x9B2 JUMP JUMPDEST PUSH1 0x20 DUP3 ADD SWAP1 POP SWAP2 SWAP1 POP JUMP JUMPDEST PUSH0 PUSH1 0x20 DUP3 ADD SWAP1 POP DUP2 DUP2 SUB PUSH0 DUP4 ADD MSTORE PUSH2 0xA13 DUP2 PUSH2 0x9DA JUMP JUMPDEST SWAP1 POP SWAP2 SWAP1 POP JUMP JUMPDEST PUSH32 0x746172676574206973206E6F7420726561636865647E00000000000000000000 PUSH0 DUP3 ADD MSTORE POP JUMP JUMPDEST PUSH0 PUSH2 0xA4E PUSH1 0x16 DUP4 PUSH2 0x891 JUMP JUMPDEST SWAP2 POP PUSH2 0xA59 DUP3 PUSH2 0xA1A JUMP JUMPDEST PUSH1 0x20 DUP3 ADD SWAP1 POP SWAP2 SWAP1 POP JUMP JUMPDEST PUSH0 PUSH1 0x20 DUP3 ADD SWAP1 POP DUP2 DUP2 SUB PUSH0 DUP4 ADD MSTORE PUSH2 0xA7B DUP2 PUSH2 0xA42 JUMP JUMPDEST SWAP1 POP SWAP2 SWAP1 POP JUMP JUMPDEST PUSH32 0x64726177207472616E73666572206661696C65647E0000000000000000000000 PUSH0 DUP3 ADD MSTORE POP JUMP JUMPDEST PUSH0 PUSH2 0xAB6 PUSH1 0x15 DUP4 PUSH2 0x891 JUMP JUMPDEST SWAP2 POP PUSH2 0xAC1 DUP3 PUSH2 0xA82 JUMP JUMPDEST PUSH1 0x20 DUP3 ADD SWAP1 POP SWAP2 SWAP1 POP JUMP JUMPDEST PUSH0 PUSH1 0x20 DUP3 ADD SWAP1 POP DUP2 DUP2 SUB PUSH0 DUP4 ADD MSTORE PUSH2 0xAE3 DUP2 PUSH2 0xAAA JUMP JUMPDEST SWAP1 POP SWAP2 SWAP1 POP JUMP JUMPDEST PUSH32 0x796F7520686176652066756E647E000000000000000000000000000000000000 PUSH0 DUP3 ADD MSTORE POP JUMP JUMPDEST PUSH0 PUSH2 0xB1E PUSH1 0xE DUP4 PUSH2 0x891 JUMP JUMPDEST SWAP2 POP PUSH2 0xB29 DUP3 PUSH2 0xAEA JUMP JUMPDEST PUSH1 0x20 DUP3 ADD SWAP1 POP SWAP2 SWAP1 POP JUMP JUMPDEST PUSH0 PUSH1 0x20 DUP3 ADD SWAP1 POP DUP2 DUP2 SUB PUSH0 DUP4 ADD MSTORE PUSH2 0xB4B DUP2 PUSH2 0xB12 JUMP JUMPDEST SWAP1 POP SWAP2 SWAP1 POP JUMP JUMPDEST PUSH32 0x73656E64206D6F7265206574687E000000000000000000000000000000000000 PUSH0 DUP3 ADD MSTORE POP JUMP JUMPDEST PUSH0 PUSH2 0xB86 PUSH1 0xE DUP4 PUSH2 0x891 JUMP JUMPDEST SWAP2 POP PUSH2 0xB91 DUP3 PUSH2 0xB52 JUMP JUMPDEST PUSH1 0x20 DUP3 ADD SWAP1 POP SWAP2 SWAP1 POP JUMP JUMPDEST PUSH0 PUSH1 0x20 DUP3 ADD SWAP1 POP DUP2 DUP2 SUB PUSH0 DUP4 ADD MSTORE PUSH2 0xBB3 DUP2 PUSH2 0xB7A JUMP JUMPDEST SWAP1 POP SWAP2 SWAP1 POP JUMP JUMPDEST PUSH0 PUSH10 0xFFFFFFFFFFFFFFFFFFFF DUP3 AND SWAP1 POP SWAP2 SWAP1 POP JUMP JUMPDEST PUSH2 0xBD8 DUP2 PUSH2 0xBBA JUMP JUMPDEST DUP2 EQ PUSH2 0xBE2 JUMPI PUSH0 DUP1 REVERT JUMPDEST POP JUMP JUMPDEST PUSH0 DUP2 MLOAD SWAP1 POP PUSH2 0xBF3 DUP2 PUSH2 0xBCF JUMP JUMPDEST SWAP3 SWAP2 POP POP JUMP JUMPDEST PUSH2 0xC02 DUP2 PUSH2 0x838 JUMP JUMPDEST DUP2 EQ PUSH2 0xC0C JUMPI PUSH0 DUP1 REVERT JUMPDEST POP JUMP JUMPDEST PUSH0 DUP2 MLOAD SWAP1 POP PUSH2 0xC1D DUP2 PUSH2 0xBF9 JUMP JUMPDEST SWAP3 SWAP2 POP POP JUMP JUMPDEST PUSH2 0xC2C DUP2 PUSH2 0x807 JUMP JUMPDEST DUP2 EQ PUSH2 0xC36 JUMPI PUSH0 DUP1 REVERT JUMPDEST POP JUMP JUMPDEST PUSH0 DUP2 MLOAD SWAP1 POP PUSH2 0xC47 DUP2 PUSH2 0xC23 JUMP JUMPDEST SWAP3 SWAP2 POP POP JUMP JUMPDEST PUSH0 DUP1 PUSH0 DUP1 PUSH0 PUSH1 0xA0 DUP7 DUP9 SUB SLT ISZERO PUSH2 0xC66 JUMPI PUSH2 0xC65 PUSH2 0x77E JUMP JUMPDEST JUMPDEST PUSH0 PUSH2 0xC73 DUP9 DUP3 DUP10 ADD PUSH2 0xBE5 JUMP JUMPDEST SWAP6 POP POP PUSH1 0x20 PUSH2 0xC84 DUP9 DUP3 DUP10 ADD PUSH2 0xC0F JUMP JUMPDEST SWAP5 POP POP PUSH1 0x40 PUSH2 0xC95 DUP9 DUP3 DUP10 ADD PUSH2 0xC39 JUMP JUMPDEST SWAP4 POP POP PUSH1 0x60 PUSH2 0xCA6 DUP9 DUP3 DUP10 ADD PUSH2 0xC39 JUMP JUMPDEST SWAP3 POP POP PUSH1 0x80 PUSH2 0xCB7 DUP9 DUP3 DUP10 ADD PUSH2 0xBE5 JUMP JUMPDEST SWAP2 POP POP SWAP3 SWAP6 POP SWAP3 SWAP6 SWAP1 SWAP4 POP JUMP JUMPDEST PUSH32 0x796F75206E6F7420697320636F6E7472616374206F776E65727E000000000000 PUSH0 DUP3 ADD MSTORE POP JUMP JUMPDEST PUSH0 PUSH2 0xCF8 PUSH1 0x1A DUP4 PUSH2 0x891 JUMP JUMPDEST SWAP2 POP PUSH2 0xD03 DUP3 PUSH2 0xCC4 JUMP JUMPDEST PUSH1 0x20 DUP3 ADD SWAP1 POP SWAP2 SWAP1 POP JUMP JUMPDEST PUSH0 PUSH1 0x20 DUP3 ADD SWAP1 POP DUP2 DUP2 SUB PUSH0 DUP4 ADD MSTORE PUSH2 0xD25 DUP2 PUSH2 0xCEC JUMP JUMPDEST SWAP1 POP SWAP2 SWAP1 POP JUMP JUMPDEST PUSH32 0x4E487B7100000000000000000000000000000000000000000000000000000000 PUSH0 MSTORE PUSH1 0x11 PUSH1 0x4 MSTORE PUSH1 0x24 PUSH0 REVERT JUMPDEST PUSH0 PUSH2 0xD63 DUP3 PUSH2 0x807 JUMP JUMPDEST SWAP2 POP PUSH2 0xD6E DUP4 PUSH2 0x807 JUMP JUMPDEST SWAP3 POP DUP3 DUP3 MUL PUSH2 0xD7C DUP2 PUSH2 0x807 JUMP JUMPDEST SWAP2 POP DUP3 DUP3 DIV DUP5 EQ DUP4 ISZERO OR PUSH2 0xD93 JUMPI PUSH2 0xD92 PUSH2 0xD2C JUMP JUMPDEST JUMPDEST POP SWAP3 SWAP2 POP POP JUMP JUMPDEST PUSH32 0x4E487B7100000000000000000000000000000000000000000000000000000000 PUSH0 MSTORE PUSH1 0x12 PUSH1 0x4 MSTORE PUSH1 0x24 PUSH0 REVERT JUMPDEST PUSH0 PUSH2 0xDD1 DUP3 PUSH2 0x807 JUMP JUMPDEST SWAP2 POP PUSH2 0xDDC DUP4 PUSH2 0x807 JUMP JUMPDEST SWAP3 POP DUP3 PUSH2 0xDEC JUMPI PUSH2 0xDEB PUSH2 0xD9A JUMP JUMPDEST JUMPDEST DUP3 DUP3 DIV SWAP1 POP SWAP3 SWAP2 POP POP JUMP INVALID LOG2 PUSH5 0x6970667358 0x22 SLT KECCAK256 DUP6 MLOAD PUSH0 0xC8 0xE7 RETURNDATACOPY SWAP11 OR ADDRESS SWAP7 DUP16 0xD2 0x2F MSTORE SELFDESTRUCT RETURNDATACOPY SHL 0xEB SIGNEXTEND BLOBBASEFEE EXTCODEHASH 0x4D 0xC7 SHL SELFBALANCE PUSH31 0x8CEF8DC7A16964736F6C634300081800330000000000000000000000000000 "
				},
				"gasEstimates": {
					"creation": {
						"codeDepositCost": "725800",
						"executionCost": "49289",
						"totalCost": "775089"
					},
					"external": {
						"CONTRACT_OWNER()": "2574",
						"drawFund()": "infinite",
						"fund()": "infinite",
						"fundAmount(address)": "2802",
						"getChainlinkDataFeedLatestAnswer()": "infinite",
						"refund()": "infinite",
						"transferContractOwner(address)": "26928"
					},
					"internal": {
						"ethToUsd(uint256)": "infinite"
					}
				},
				"methodIdentifiers": {
					"CONTRACT_OWNER()": "fd301c49",
					"drawFund()": "749141bc",
					"fund()": "b60d4288",
					"fundAmount(address)": "b82ffdf9",
					"getChainlinkDataFeedLatestAnswer()": "bea4dfb5",
					"refund()": "590e1ae3",
					"transferContractOwner(address)": "e7b59bf3"
				}
			},
			"storageLayout": {
				"storage": [
					{
						"astId": 52,
						"contract": "fund.sol:Fund",
						"label": "dataFeed",
						"offset": 0,
						"slot": "0",
						"type": "t_contract(AggregatorV3Interface)45"
					},
					{
						"astId": 54,
						"contract": "fund.sol:Fund",
						"label": "CONTRACT_OWNER",
						"offset": 0,
						"slot": "1",
						"type": "t_address"
					},
					{
						"astId": 58,
						"contract": "fund.sol:Fund",
						"label": "fundAmount",
						"offset": 0,
						"slot": "2",
						"type": "t_mapping(t_address,t_uint256)"
					}
				],
				"types": {
					"t_address": {
						"encoding": "inplace",
						"label": "address",
						"numberOfBytes": "20"
					},
					"t_contract(AggregatorV3Interface)45": {
						"encoding": "inplace",
						"label": "contract AggregatorV3Interface",
						"numberOfBytes": "20"
					},
					"t_mapping(t_address,t_uint256)": {
						"encoding": "mapping",
						"key": "t_address",
						"label": "mapping(address => uint256)",
						"numberOfBytes": "32",
						"value": "t_uint256"
					},
					"t_uint256": {
						"encoding": "inplace",
						"label": "uint256",
						"numberOfBytes": "32"
					}
				}
			},
			"userdoc": {
				"kind": "user",
				"methods": {},
				"version": 1
			}
		}
	}
}